{
	"contracts/PersonDataStorgev1.sol": {
		"PersonDataStoragV1": {
			"abi": [
				{
					"inputs": [],
					"stateMutability": "nonpayable",
					"type": "constructor"
				},
				{
					"inputs": [],
					"name": "getAge",
					"outputs": [
						{
							"internalType": "uint256",
							"name": "",
							"type": "uint256"
						}
					],
					"stateMutability": "view",
					"type": "function"
				},
				{
					"inputs": [],
					"name": "getBrasilian",
					"outputs": [
						{
							"internalType": "bool",
							"name": "",
							"type": "bool"
						}
					],
					"stateMutability": "view",
					"type": "function"
				},
				{
					"inputs": [],
					"name": "incrementAge",
					"outputs": [],
					"stateMutability": "nonpayable",
					"type": "function"
				},
				{
					"inputs": [],
					"name": "name",
					"outputs": [
						{
							"internalType": "string",
							"name": "",
							"type": "string"
						}
					],
					"stateMutability": "view",
					"type": "function"
				},
				{
					"inputs": [
						{
							"internalType": "uint256",
							"name": "_age",
							"type": "uint256"
						}
					],
					"name": "setAge",
					"outputs": [],
					"stateMutability": "nonpayable",
					"type": "function"
				},
				{
					"inputs": [
						{
							"internalType": "bool",
							"name": "_brazilian",
							"type": "bool"
						}
					],
					"name": "setBrazilian",
					"outputs": [],
					"stateMutability": "nonpayable",
					"type": "function"
				},
				{
					"inputs": [
						{
							"internalType": "string",
							"name": "_name",
							"type": "string"
						}
					],
					"name": "setName",
					"outputs": [],
					"stateMutability": "nonpayable",
					"type": "function"
				}
			],
			"devdoc": {
				"kind": "dev",
				"methods": {},
				"version": 1
			},
			"evm": {
				"assembly": "    /* \"contracts/PersonDataStorgev1.sol\":57:867  contract PersonDataStoragV1 {... */\n  mstore(0x40, 0x80)\n    /* \"contracts/PersonDataStorgev1.sol\":173:262  constructor(){... */\n  callvalue\n  dup1\n  iszero\n  tag_1\n  jumpi\n  0x00\n  dup1\n  revert\ntag_1:\n  pop\n    /* \"contracts/PersonDataStorgev1.sol\":196:213  name = \"jeremias\" */\n  mload(0x40)\n  dup1\n  0x40\n  add\n  0x40\n  mstore\n  dup1\n  0x08\n  dup2\n  mstore\n  0x20\n  add\n  0x6a6572656d696173000000000000000000000000000000000000000000000000\n  dup2\n  mstore\n  pop\n    /* \"contracts/PersonDataStorgev1.sol\":196:200  name */\n  0x00\n    /* \"contracts/PersonDataStorgev1.sol\":196:213  name = \"jeremias\" */\n  swap1\n  dup2\n  tag_4\n  swap2\n  swap1\n  tag_5\n  jump\t// in\ntag_4:\n  pop\n    /* \"contracts/PersonDataStorgev1.sol\":228:230  10 */\n  0x0a\n    /* \"contracts/PersonDataStorgev1.sol\":223:226  age */\n  0x01\n    /* \"contracts/PersonDataStorgev1.sol\":223:230  age =10 */\n  dup2\n  swap1\n  sstore\n  pop\n    /* \"contracts/PersonDataStorgev1.sol\":251:255  true */\n  0x01\n    /* \"contracts/PersonDataStorgev1.sol\":241:250  brazilian */\n  0x02\n  0x00\n    /* \"contracts/PersonDataStorgev1.sol\":241:255  brazilian=true */\n  0x0100\n  exp\n  dup2\n  sload\n  dup2\n  0xff\n  mul\n  not\n  and\n  swap1\n  dup4\n  iszero\n  iszero\n  mul\n  or\n  swap1\n  sstore\n  pop\n    /* \"contracts/PersonDataStorgev1.sol\":57:867  contract PersonDataStoragV1 {... */\n  jump(tag_6)\n    /* \"#utility.yul\":7:106   */\ntag_7:\n    /* \"#utility.yul\":59:65   */\n  0x00\n    /* \"#utility.yul\":93:98   */\n  dup2\n    /* \"#utility.yul\":87:99   */\n  mload\n    /* \"#utility.yul\":77:99   */\n  swap1\n  pop\n    /* \"#utility.yul\":7:106   */\n  swap2\n  swap1\n  pop\n  jump\t// out\n    /* \"#utility.yul\":112:292   */\ntag_8:\n    /* \"#utility.yul\":160:237   */\n  0x4e487b7100000000000000000000000000000000000000000000000000000000\n    /* \"#utility.yul\":157:158   */\n  0x00\n    /* \"#utility.yul\":150:238   */\n  mstore\n    /* \"#utility.yul\":257:261   */\n  0x41\n    /* \"#utility.yul\":254:255   */\n  0x04\n    /* \"#utility.yul\":247:262   */\n  mstore\n    /* \"#utility.yul\":281:285   */\n  0x24\n    /* \"#utility.yul\":278:279   */\n  0x00\n    /* \"#utility.yul\":271:286   */\n  revert\n    /* \"#utility.yul\":298:478   */\ntag_9:\n    /* \"#utility.yul\":346:423   */\n  0x4e487b7100000000000000000000000000000000000000000000000000000000\n    /* \"#utility.yul\":343:344   */\n  0x00\n    /* \"#utility.yul\":336:424   */\n  mstore\n    /* \"#utility.yul\":443:447   */\n  0x22\n    /* \"#utility.yul\":440:441   */\n  0x04\n    /* \"#utility.yul\":433:448   */\n  mstore\n    /* \"#utility.yul\":467:471   */\n  0x24\n    /* \"#utility.yul\":464:465   */\n  0x00\n    /* \"#utility.yul\":457:472   */\n  revert\n    /* \"#utility.yul\":484:804   */\ntag_10:\n    /* \"#utility.yul\":528:534   */\n  0x00\n    /* \"#utility.yul\":565:566   */\n  0x02\n    /* \"#utility.yul\":559:563   */\n  dup3\n    /* \"#utility.yul\":555:567   */\n  div\n    /* \"#utility.yul\":545:567   */\n  swap1\n  pop\n    /* \"#utility.yul\":612:613   */\n  0x01\n    /* \"#utility.yul\":606:610   */\n  dup3\n    /* \"#utility.yul\":602:614   */\n  and\n    /* \"#utility.yul\":633:651   */\n  dup1\n    /* \"#utility.yul\":623:704   */\n  tag_32\n  jumpi\n    /* \"#utility.yul\":689:693   */\n  0x7f\n    /* \"#utility.yul\":681:687   */\n  dup3\n    /* \"#utility.yul\":677:694   */\n  and\n    /* \"#utility.yul\":667:694   */\n  swap2\n  pop\n    /* \"#utility.yul\":623:704   */\ntag_32:\n    /* \"#utility.yul\":751:753   */\n  0x20\n    /* \"#utility.yul\":743:749   */\n  dup3\n    /* \"#utility.yul\":740:754   */\n  lt\n    /* \"#utility.yul\":720:738   */\n  dup2\n    /* \"#utility.yul\":717:755   */\n  sub\n    /* \"#utility.yul\":714:798   */\n  tag_33\n  jumpi\n    /* \"#utility.yul\":770:788   */\n  tag_34\n  tag_9\n  jump\t// in\ntag_34:\n    /* \"#utility.yul\":714:798   */\ntag_33:\n    /* \"#utility.yul\":535:804   */\n  pop\n    /* \"#utility.yul\":484:804   */\n  swap2\n  swap1\n  pop\n  jump\t// out\n    /* \"#utility.yul\":810:951   */\ntag_11:\n    /* \"#utility.yul\":859:863   */\n  0x00\n    /* \"#utility.yul\":882:885   */\n  dup2\n    /* \"#utility.yul\":874:885   */\n  swap1\n  pop\n    /* \"#utility.yul\":905:908   */\n  dup2\n    /* \"#utility.yul\":902:903   */\n  0x00\n    /* \"#utility.yul\":895:909   */\n  mstore\n    /* \"#utility.yul\":939:943   */\n  0x20\n    /* \"#utility.yul\":936:937   */\n  0x00\n    /* \"#utility.yul\":926:944   */\n  keccak256\n    /* \"#utility.yul\":918:944   */\n  swap1\n  pop\n    /* \"#utility.yul\":810:951   */\n  swap2\n  swap1\n  pop\n  jump\t// out\n    /* \"#utility.yul\":957:1050   */\ntag_12:\n    /* \"#utility.yul\":994:1000   */\n  0x00\n    /* \"#utility.yul\":1041:1043   */\n  0x20\n    /* \"#utility.yul\":1036:1038   */\n  0x1f\n    /* \"#utility.yul\":1029:1034   */\n  dup4\n    /* \"#utility.yul\":1025:1039   */\n  add\n    /* \"#utility.yul\":1021:1044   */\n  div\n    /* \"#utility.yul\":1011:1044   */\n  swap1\n  pop\n    /* \"#utility.yul\":957:1050   */\n  swap2\n  swap1\n  pop\n  jump\t// out\n    /* \"#utility.yul\":1056:1163   */\ntag_13:\n    /* \"#utility.yul\":1100:1108   */\n  0x00\n    /* \"#utility.yul\":1150:1155   */\n  dup3\n    /* \"#utility.yul\":1144:1148   */\n  dup3\n    /* \"#utility.yul\":1140:1156   */\n  shl\n    /* \"#utility.yul\":1119:1156   */\n  swap1\n  pop\n    /* \"#utility.yul\":1056:1163   */\n  swap3\n  swap2\n  pop\n  pop\n  jump\t// out\n    /* \"#utility.yul\":1169:1562   */\ntag_14:\n    /* \"#utility.yul\":1238:1244   */\n  0x00\n    /* \"#utility.yul\":1288:1289   */\n  0x08\n    /* \"#utility.yul\":1276:1286   */\n  dup4\n    /* \"#utility.yul\":1272:1290   */\n  mul\n    /* \"#utility.yul\":1311:1408   */\n  tag_39\n    /* \"#utility.yul\":1341:1407   */\n  0xffffffffffffffffffffffffffffffffffffffffffffffffffffffffffffffff\n    /* \"#utility.yul\":1330:1339   */\n  dup3\n    /* \"#utility.yul\":1311:1408   */\n  tag_13\n  jump\t// in\ntag_39:\n    /* \"#utility.yul\":1429:1468   */\n  tag_40\n    /* \"#utility.yul\":1459:1467   */\n  dup7\n    /* \"#utility.yul\":1448:1457   */\n  dup4\n    /* \"#utility.yul\":1429:1468   */\n  tag_13\n  jump\t// in\ntag_40:\n    /* \"#utility.yul\":1417:1468   */\n  swap6\n  pop\n    /* \"#utility.yul\":1501:1505   */\n  dup1\n    /* \"#utility.yul\":1497:1506   */\n  not\n    /* \"#utility.yul\":1490:1495   */\n  dup5\n    /* \"#utility.yul\":1486:1507   */\n  and\n    /* \"#utility.yul\":1477:1507   */\n  swap4\n  pop\n    /* \"#utility.yul\":1550:1554   */\n  dup1\n    /* \"#utility.yul\":1540:1548   */\n  dup7\n    /* \"#utility.yul\":1536:1555   */\n  and\n    /* \"#utility.yul\":1529:1534   */\n  dup5\n    /* \"#utility.yul\":1526:1556   */\n  or\n    /* \"#utility.yul\":1516:1556   */\n  swap3\n  pop\n    /* \"#utility.yul\":1245:1562   */\n  pop\n  pop\n    /* \"#utility.yul\":1169:1562   */\n  swap4\n  swap3\n  pop\n  pop\n  pop\n  jump\t// out\n    /* \"#utility.yul\":1568:1645   */\ntag_15:\n    /* \"#utility.yul\":1605:1612   */\n  0x00\n    /* \"#utility.yul\":1634:1639   */\n  dup2\n    /* \"#utility.yul\":1623:1639   */\n  swap1\n  pop\n    /* \"#utility.yul\":1568:1645   */\n  swap2\n  swap1\n  pop\n  jump\t// out\n    /* \"#utility.yul\":1651:1711   */\ntag_16:\n    /* \"#utility.yul\":1679:1682   */\n  0x00\n    /* \"#utility.yul\":1700:1705   */\n  dup2\n    /* \"#utility.yul\":1693:1705   */\n  swap1\n  pop\n    /* \"#utility.yul\":1651:1711   */\n  swap2\n  swap1\n  pop\n  jump\t// out\n    /* \"#utility.yul\":1717:1859   */\ntag_17:\n    /* \"#utility.yul\":1767:1776   */\n  0x00\n    /* \"#utility.yul\":1800:1853   */\n  tag_44\n    /* \"#utility.yul\":1818:1852   */\n  tag_45\n    /* \"#utility.yul\":1827:1851   */\n  tag_46\n    /* \"#utility.yul\":1845:1850   */\n  dup5\n    /* \"#utility.yul\":1827:1851   */\n  tag_15\n  jump\t// in\ntag_46:\n    /* \"#utility.yul\":1818:1852   */\n  tag_16\n  jump\t// in\ntag_45:\n    /* \"#utility.yul\":1800:1853   */\n  tag_15\n  jump\t// in\ntag_44:\n    /* \"#utility.yul\":1787:1853   */\n  swap1\n  pop\n    /* \"#utility.yul\":1717:1859   */\n  swap2\n  swap1\n  pop\n  jump\t// out\n    /* \"#utility.yul\":1865:1940   */\ntag_18:\n    /* \"#utility.yul\":1908:1911   */\n  0x00\n    /* \"#utility.yul\":1929:1934   */\n  dup2\n    /* \"#utility.yul\":1922:1934   */\n  swap1\n  pop\n    /* \"#utility.yul\":1865:1940   */\n  swap2\n  swap1\n  pop\n  jump\t// out\n    /* \"#utility.yul\":1946:2215   */\ntag_19:\n    /* \"#utility.yul\":2056:2095   */\n  tag_49\n    /* \"#utility.yul\":2087:2094   */\n  dup4\n    /* \"#utility.yul\":2056:2095   */\n  tag_17\n  jump\t// in\ntag_49:\n    /* \"#utility.yul\":2117:2208   */\n  tag_50\n    /* \"#utility.yul\":2166:2207   */\n  tag_51\n    /* \"#utility.yul\":2190:2206   */\n  dup3\n    /* \"#utility.yul\":2166:2207   */\n  tag_18\n  jump\t// in\ntag_51:\n    /* \"#utility.yul\":2158:2164   */\n  dup5\n    /* \"#utility.yul\":2151:2155   */\n  dup5\n    /* \"#utility.yul\":2145:2156   */\n  sload\n    /* \"#utility.yul\":2117:2208   */\n  tag_14\n  jump\t// in\ntag_50:\n    /* \"#utility.yul\":2111:2115   */\n  dup3\n    /* \"#utility.yul\":2104:2209   */\n  sstore\n    /* \"#utility.yul\":2022:2215   */\n  pop\n    /* \"#utility.yul\":1946:2215   */\n  pop\n  pop\n  pop\n  jump\t// out\n    /* \"#utility.yul\":2221:2294   */\ntag_20:\n    /* \"#utility.yul\":2266:2269   */\n  0x00\n    /* \"#utility.yul\":2221:2294   */\n  swap1\n  jump\t// out\n    /* \"#utility.yul\":2300:2489   */\ntag_21:\n    /* \"#utility.yul\":2377:2409   */\n  tag_54\n  tag_20\n  jump\t// in\ntag_54:\n    /* \"#utility.yul\":2418:2483   */\n  tag_55\n    /* \"#utility.yul\":2476:2482   */\n  dup2\n    /* \"#utility.yul\":2468:2474   */\n  dup5\n    /* \"#utility.yul\":2462:2466   */\n  dup5\n    /* \"#utility.yul\":2418:2483   */\n  tag_19\n  jump\t// in\ntag_55:\n    /* \"#utility.yul\":2353:2489   */\n  pop\n    /* \"#utility.yul\":2300:2489   */\n  pop\n  pop\n  jump\t// out\n    /* \"#utility.yul\":2495:2681   */\ntag_22:\n    /* \"#utility.yul\":2555:2675   */\ntag_57:\n    /* \"#utility.yul\":2572:2575   */\n  dup2\n    /* \"#utility.yul\":2565:2570   */\n  dup2\n    /* \"#utility.yul\":2562:2576   */\n  lt\n    /* \"#utility.yul\":2555:2675   */\n  iszero\n  tag_59\n  jumpi\n    /* \"#utility.yul\":2626:2665   */\n  tag_60\n    /* \"#utility.yul\":2663:2664   */\n  0x00\n    /* \"#utility.yul\":2656:2661   */\n  dup3\n    /* \"#utility.yul\":2626:2665   */\n  tag_21\n  jump\t// in\ntag_60:\n    /* \"#utility.yul\":2599:2600   */\n  0x01\n    /* \"#utility.yul\":2592:2597   */\n  dup2\n    /* \"#utility.yul\":2588:2601   */\n  add\n    /* \"#utility.yul\":2579:2601   */\n  swap1\n  pop\n    /* \"#utility.yul\":2555:2675   */\n  jump(tag_57)\ntag_59:\n    /* \"#utility.yul\":2495:2681   */\n  pop\n  pop\n  jump\t// out\n    /* \"#utility.yul\":2687:3230   */\ntag_23:\n    /* \"#utility.yul\":2788:2790   */\n  0x1f\n    /* \"#utility.yul\":2783:2786   */\n  dup3\n    /* \"#utility.yul\":2780:2791   */\n  gt\n    /* \"#utility.yul\":2777:3223   */\n  iszero\n  tag_62\n  jumpi\n    /* \"#utility.yul\":2822:2860   */\n  tag_63\n    /* \"#utility.yul\":2854:2859   */\n  dup2\n    /* \"#utility.yul\":2822:2860   */\n  tag_11\n  jump\t// in\ntag_63:\n    /* \"#utility.yul\":2906:2935   */\n  tag_64\n    /* \"#utility.yul\":2924:2934   */\n  dup5\n    /* \"#utility.yul\":2906:2935   */\n  tag_12\n  jump\t// in\ntag_64:\n    /* \"#utility.yul\":2896:2904   */\n  dup2\n    /* \"#utility.yul\":2892:2936   */\n  add\n    /* \"#utility.yul\":3089:3091   */\n  0x20\n    /* \"#utility.yul\":3077:3087   */\n  dup6\n    /* \"#utility.yul\":3074:3092   */\n  lt\n    /* \"#utility.yul\":3071:3120   */\n  iszero\n  tag_65\n  jumpi\n    /* \"#utility.yul\":3110:3118   */\n  dup2\n    /* \"#utility.yul\":3095:3118   */\n  swap1\n  pop\n    /* \"#utility.yul\":3071:3120   */\ntag_65:\n    /* \"#utility.yul\":3133:3213   */\n  tag_66\n    /* \"#utility.yul\":3189:3211   */\n  tag_67\n    /* \"#utility.yul\":3207:3210   */\n  dup6\n    /* \"#utility.yul\":3189:3211   */\n  tag_12\n  jump\t// in\ntag_67:\n    /* \"#utility.yul\":3179:3187   */\n  dup4\n    /* \"#utility.yul\":3175:3212   */\n  add\n    /* \"#utility.yul\":3162:3173   */\n  dup3\n    /* \"#utility.yul\":3133:3213   */\n  tag_22\n  jump\t// in\ntag_66:\n    /* \"#utility.yul\":2792:3223   */\n  pop\n  pop\n    /* \"#utility.yul\":2777:3223   */\ntag_62:\n    /* \"#utility.yul\":2687:3230   */\n  pop\n  pop\n  pop\n  jump\t// out\n    /* \"#utility.yul\":3236:3353   */\ntag_24:\n    /* \"#utility.yul\":3290:3298   */\n  0x00\n    /* \"#utility.yul\":3340:3345   */\n  dup3\n    /* \"#utility.yul\":3334:3338   */\n  dup3\n    /* \"#utility.yul\":3330:3346   */\n  shr\n    /* \"#utility.yul\":3309:3346   */\n  swap1\n  pop\n    /* \"#utility.yul\":3236:3353   */\n  swap3\n  swap2\n  pop\n  pop\n  jump\t// out\n    /* \"#utility.yul\":3359:3528   */\ntag_25:\n    /* \"#utility.yul\":3403:3409   */\n  0x00\n    /* \"#utility.yul\":3436:3487   */\n  tag_70\n    /* \"#utility.yul\":3484:3485   */\n  0x00\n    /* \"#utility.yul\":3480:3486   */\n  not\n    /* \"#utility.yul\":3472:3477   */\n  dup5\n    /* \"#utility.yul\":3469:3470   */\n  0x08\n    /* \"#utility.yul\":3465:3478   */\n  mul\n    /* \"#utility.yul\":3436:3487   */\n  tag_24\n  jump\t// in\ntag_70:\n    /* \"#utility.yul\":3432:3488   */\n  not\n    /* \"#utility.yul\":3517:3521   */\n  dup1\n    /* \"#utility.yul\":3511:3515   */\n  dup4\n    /* \"#utility.yul\":3507:3522   */\n  and\n    /* \"#utility.yul\":3497:3522   */\n  swap2\n  pop\n    /* \"#utility.yul\":3410:3528   */\n  pop\n    /* \"#utility.yul\":3359:3528   */\n  swap3\n  swap2\n  pop\n  pop\n  jump\t// out\n    /* \"#utility.yul\":3533:3828   */\ntag_26:\n    /* \"#utility.yul\":3609:3613   */\n  0x00\n    /* \"#utility.yul\":3755:3784   */\n  tag_72\n    /* \"#utility.yul\":3780:3783   */\n  dup4\n    /* \"#utility.yul\":3774:3778   */\n  dup4\n    /* \"#utility.yul\":3755:3784   */\n  tag_25\n  jump\t// in\ntag_72:\n    /* \"#utility.yul\":3747:3784   */\n  swap2\n  pop\n    /* \"#utility.yul\":3817:3820   */\n  dup3\n    /* \"#utility.yul\":3814:3815   */\n  0x02\n    /* \"#utility.yul\":3810:3821   */\n  mul\n    /* \"#utility.yul\":3804:3808   */\n  dup3\n    /* \"#utility.yul\":3801:3822   */\n  or\n    /* \"#utility.yul\":3793:3822   */\n  swap1\n  pop\n    /* \"#utility.yul\":3533:3828   */\n  swap3\n  swap2\n  pop\n  pop\n  jump\t// out\n    /* \"#utility.yul\":3833:5228   */\ntag_5:\n    /* \"#utility.yul\":3950:3987   */\n  tag_74\n    /* \"#utility.yul\":3983:3986   */\n  dup3\n    /* \"#utility.yul\":3950:3987   */\n  tag_7\n  jump\t// in\ntag_74:\n    /* \"#utility.yul\":4052:4070   */\n  0xffffffffffffffff\n    /* \"#utility.yul\":4044:4050   */\n  dup2\n    /* \"#utility.yul\":4041:4071   */\n  gt\n    /* \"#utility.yul\":4038:4094   */\n  iszero\n  tag_75\n  jumpi\n    /* \"#utility.yul\":4074:4092   */\n  tag_76\n  tag_8\n  jump\t// in\ntag_76:\n    /* \"#utility.yul\":4038:4094   */\ntag_75:\n    /* \"#utility.yul\":4118:4156   */\n  tag_77\n    /* \"#utility.yul\":4150:4154   */\n  dup3\n    /* \"#utility.yul\":4144:4155   */\n  sload\n    /* \"#utility.yul\":4118:4156   */\n  tag_10\n  jump\t// in\ntag_77:\n    /* \"#utility.yul\":4203:4270   */\n  tag_78\n    /* \"#utility.yul\":4263:4269   */\n  dup3\n    /* \"#utility.yul\":4255:4261   */\n  dup3\n    /* \"#utility.yul\":4249:4253   */\n  dup6\n    /* \"#utility.yul\":4203:4270   */\n  tag_23\n  jump\t// in\ntag_78:\n    /* \"#utility.yul\":4297:4298   */\n  0x00\n    /* \"#utility.yul\":4321:4325   */\n  0x20\n    /* \"#utility.yul\":4308:4325   */\n  swap1\n  pop\n    /* \"#utility.yul\":4353:4355   */\n  0x1f\n    /* \"#utility.yul\":4345:4351   */\n  dup4\n    /* \"#utility.yul\":4342:4356   */\n  gt\n    /* \"#utility.yul\":4370:4371   */\n  0x01\n    /* \"#utility.yul\":4365:4983   */\n  dup2\n  eq\n  tag_80\n  jumpi\n    /* \"#utility.yul\":5027:5028   */\n  0x00\n    /* \"#utility.yul\":5044:5050   */\n  dup5\n    /* \"#utility.yul\":5041:5118   */\n  iszero\n  tag_81\n  jumpi\n    /* \"#utility.yul\":5093:5102   */\n  dup3\n    /* \"#utility.yul\":5088:5091   */\n  dup8\n    /* \"#utility.yul\":5084:5103   */\n  add\n    /* \"#utility.yul\":5078:5104   */\n  mload\n    /* \"#utility.yul\":5069:5104   */\n  swap1\n  pop\n    /* \"#utility.yul\":5041:5118   */\ntag_81:\n    /* \"#utility.yul\":5144:5211   */\n  tag_82\n    /* \"#utility.yul\":5204:5210   */\n  dup6\n    /* \"#utility.yul\":5197:5202   */\n  dup3\n    /* \"#utility.yul\":5144:5211   */\n  tag_26\n  jump\t// in\ntag_82:\n    /* \"#utility.yul\":5138:5142   */\n  dup7\n    /* \"#utility.yul\":5131:5212   */\n  sstore\n    /* \"#utility.yul\":5000:5222   */\n  pop\n    /* \"#utility.yul\":4335:5222   */\n  jump(tag_79)\n    /* \"#utility.yul\":4365:4983   */\ntag_80:\n    /* \"#utility.yul\":4417:4421   */\n  0x1f\n    /* \"#utility.yul\":4413:4422   */\n  not\n    /* \"#utility.yul\":4405:4411   */\n  dup5\n    /* \"#utility.yul\":4401:4423   */\n  and\n    /* \"#utility.yul\":4451:4488   */\n  tag_83\n    /* \"#utility.yul\":4483:4487   */\n  dup7\n    /* \"#utility.yul\":4451:4488   */\n  tag_11\n  jump\t// in\ntag_83:\n    /* \"#utility.yul\":4510:4511   */\n  0x00\n    /* \"#utility.yul\":4524:4732   */\ntag_84:\n    /* \"#utility.yul\":4538:4545   */\n  dup3\n    /* \"#utility.yul\":4535:4536   */\n  dup2\n    /* \"#utility.yul\":4532:4546   */\n  lt\n    /* \"#utility.yul\":4524:4732   */\n  iszero\n  tag_86\n  jumpi\n    /* \"#utility.yul\":4617:4626   */\n  dup5\n    /* \"#utility.yul\":4612:4615   */\n  dup10\n    /* \"#utility.yul\":4608:4627   */\n  add\n    /* \"#utility.yul\":4602:4628   */\n  mload\n    /* \"#utility.yul\":4594:4600   */\n  dup3\n    /* \"#utility.yul\":4587:4629   */\n  sstore\n    /* \"#utility.yul\":4668:4669   */\n  0x01\n    /* \"#utility.yul\":4660:4666   */\n  dup3\n    /* \"#utility.yul\":4656:4670   */\n  add\n    /* \"#utility.yul\":4646:4670   */\n  swap2\n  pop\n    /* \"#utility.yul\":4715:4717   */\n  0x20\n    /* \"#utility.yul\":4704:4713   */\n  dup6\n    /* \"#utility.yul\":4700:4718   */\n  add\n    /* \"#utility.yul\":4687:4718   */\n  swap5\n  pop\n    /* \"#utility.yul\":4561:4565   */\n  0x20\n    /* \"#utility.yul\":4558:4559   */\n  dup2\n    /* \"#utility.yul\":4554:4566   */\n  add\n    /* \"#utility.yul\":4549:4566   */\n  swap1\n  pop\n    /* \"#utility.yul\":4524:4732   */\n  jump(tag_84)\ntag_86:\n    /* \"#utility.yul\":4760:4766   */\n  dup7\n    /* \"#utility.yul\":4751:4758   */\n  dup4\n    /* \"#utility.yul\":4748:4767   */\n  lt\n    /* \"#utility.yul\":4745:4924   */\n  iszero\n  tag_87\n  jumpi\n    /* \"#utility.yul\":4818:4827   */\n  dup5\n    /* \"#utility.yul\":4813:4816   */\n  dup10\n    /* \"#utility.yul\":4809:4828   */\n  add\n    /* \"#utility.yul\":4803:4829   */\n  mload\n    /* \"#utility.yul\":4861:4909   */\n  tag_88\n    /* \"#utility.yul\":4903:4907   */\n  0x1f\n    /* \"#utility.yul\":4895:4901   */\n  dup10\n    /* \"#utility.yul\":4891:4908   */\n  and\n    /* \"#utility.yul\":4880:4889   */\n  dup3\n    /* \"#utility.yul\":4861:4909   */\n  tag_25\n  jump\t// in\ntag_88:\n    /* \"#utility.yul\":4853:4859   */\n  dup4\n    /* \"#utility.yul\":4846:4910   */\n  sstore\n    /* \"#utility.yul\":4768:4924   */\n  pop\n    /* \"#utility.yul\":4745:4924   */\ntag_87:\n    /* \"#utility.yul\":4970:4971   */\n  0x01\n    /* \"#utility.yul\":4966:4967   */\n  0x02\n    /* \"#utility.yul\":4958:4964   */\n  dup9\n    /* \"#utility.yul\":4954:4968   */\n  mul\n    /* \"#utility.yul\":4950:4972   */\n  add\n    /* \"#utility.yul\":4944:4948   */\n  dup9\n    /* \"#utility.yul\":4937:4973   */\n  sstore\n    /* \"#utility.yul\":4372:4983   */\n  pop\n  pop\n  pop\n    /* \"#utility.yul\":4335:5222   */\ntag_79:\n  pop\n    /* \"#utility.yul\":3925:5228   */\n  pop\n  pop\n  pop\n    /* \"#utility.yul\":3833:5228   */\n  pop\n  pop\n  jump\t// out\n    /* \"contracts/PersonDataStorgev1.sol\":57:867  contract PersonDataStoragV1 {... */\ntag_6:\n  dataSize(sub_0)\n  dup1\n  dataOffset(sub_0)\n  0x00\n  codecopy\n  0x00\n  return\nstop\n\nsub_0: assembly {\n        /* \"contracts/PersonDataStorgev1.sol\":57:867  contract PersonDataStoragV1 {... */\n      mstore(0x40, 0x80)\n      callvalue\n      dup1\n      iszero\n      tag_1\n      jumpi\n      0x00\n      dup1\n      revert\n    tag_1:\n      pop\n      jumpi(tag_2, lt(calldatasize, 0x04))\n      shr(0xe0, calldataload(0x00))\n      dup1\n      0x8208e6f8\n      gt\n      tag_10\n      jumpi\n      dup1\n      0x8208e6f8\n      eq\n      tag_6\n      jumpi\n      dup1\n      0x967e6e65\n      eq\n      tag_7\n      jumpi\n      dup1\n      0xc47f0027\n      eq\n      tag_8\n      jumpi\n      dup1\n      0xd5dcf127\n      eq\n      tag_9\n      jumpi\n      jump(tag_2)\n    tag_10:\n      dup1\n      0x06fdde03\n      eq\n      tag_3\n      jumpi\n      dup1\n      0x4cd3d345\n      eq\n      tag_4\n      jumpi\n      dup1\n      0x6840f0ae\n      eq\n      tag_5\n      jumpi\n    tag_2:\n      0x00\n      dup1\n      revert\n        /* \"contracts/PersonDataStorgev1.sol\":91:110  string public  name */\n    tag_3:\n      tag_11\n      tag_12\n      jump\t// in\n    tag_11:\n      mload(0x40)\n      tag_13\n      swap2\n      swap1\n      tag_14\n      jump\t// in\n    tag_13:\n      mload(0x40)\n      dup1\n      swap2\n      sub\n      swap1\n      return\n        /* \"contracts/PersonDataStorgev1.sol\":583:666  function getBrasilian()public view  returns(bool) {... */\n    tag_4:\n      tag_15\n      tag_16\n      jump\t// in\n    tag_15:\n      mload(0x40)\n      tag_17\n      swap2\n      swap1\n      tag_18\n      jump\t// in\n    tag_17:\n      mload(0x40)\n      dup1\n      swap2\n      sub\n      swap1\n      return\n        /* \"contracts/PersonDataStorgev1.sol\":793:865  function incrementAge()external {... */\n    tag_5:\n      tag_19\n      tag_20\n      jump\t// in\n    tag_19:\n      stop\n        /* \"contracts/PersonDataStorgev1.sol\":492:577  function setBrazilian(bool _brazilian) public {... */\n    tag_6:\n      tag_21\n      0x04\n      dup1\n      calldatasize\n      sub\n      dup2\n      add\n      swap1\n      tag_22\n      swap2\n      swap1\n      tag_23\n      jump\t// in\n    tag_22:\n      tag_24\n      jump\t// in\n    tag_21:\n      stop\n        /* \"contracts/PersonDataStorgev1.sol\":415:486  function getAge()public view  returns(uint) {... */\n    tag_7:\n      tag_25\n      tag_26\n      jump\t// in\n    tag_25:\n      mload(0x40)\n      tag_27\n      swap2\n      swap1\n      tag_28\n      jump\t// in\n    tag_27:\n      mload(0x40)\n      dup1\n      swap2\n      sub\n      swap1\n      return\n        /* \"contracts/PersonDataStorgev1.sol\":268:342  function setName(string memory _name) public {... */\n    tag_8:\n      tag_29\n      0x04\n      dup1\n      calldatasize\n      sub\n      dup2\n      add\n      swap1\n      tag_30\n      swap2\n      swap1\n      tag_31\n      jump\t// in\n    tag_30:\n      tag_32\n      jump\t// in\n    tag_29:\n      stop\n        /* \"contracts/PersonDataStorgev1.sol\":348:409  function setAge(uint _age) public {... */\n    tag_9:\n      tag_33\n      0x04\n      dup1\n      calldatasize\n      sub\n      dup2\n      add\n      swap1\n      tag_34\n      swap2\n      swap1\n      tag_35\n      jump\t// in\n    tag_34:\n      tag_36\n      jump\t// in\n    tag_33:\n      stop\n        /* \"contracts/PersonDataStorgev1.sol\":91:110  string public  name */\n    tag_12:\n      0x00\n      dup1\n      sload\n      tag_37\n      swap1\n      tag_38\n      jump\t// in\n    tag_37:\n      dup1\n      0x1f\n      add\n      0x20\n      dup1\n      swap2\n      div\n      mul\n      0x20\n      add\n      mload(0x40)\n      swap1\n      dup2\n      add\n      0x40\n      mstore\n      dup1\n      swap3\n      swap2\n      swap1\n      dup2\n      dup2\n      mstore\n      0x20\n      add\n      dup3\n      dup1\n      sload\n      tag_39\n      swap1\n      tag_38\n      jump\t// in\n    tag_39:\n      dup1\n      iszero\n      tag_40\n      jumpi\n      dup1\n      0x1f\n      lt\n      tag_41\n      jumpi\n      0x0100\n      dup1\n      dup4\n      sload\n      div\n      mul\n      dup4\n      mstore\n      swap2\n      0x20\n      add\n      swap2\n      jump(tag_40)\n    tag_41:\n      dup3\n      add\n      swap2\n      swap1\n      0x00\n      mstore\n      keccak256(0x00, 0x20)\n      swap1\n    tag_42:\n      dup2\n      sload\n      dup2\n      mstore\n      swap1\n      0x01\n      add\n      swap1\n      0x20\n      add\n      dup1\n      dup4\n      gt\n      tag_42\n      jumpi\n      dup3\n      swap1\n      sub\n      0x1f\n      and\n      dup3\n      add\n      swap2\n    tag_40:\n      pop\n      pop\n      pop\n      pop\n      pop\n      dup2\n      jump\t// out\n        /* \"contracts/PersonDataStorgev1.sol\":583:666  function getBrasilian()public view  returns(bool) {... */\n    tag_16:\n        /* \"contracts/PersonDataStorgev1.sol\":627:631  bool */\n      0x00\n        /* \"contracts/PersonDataStorgev1.sol\":650:659  brazilian */\n      0x02\n      0x00\n      swap1\n      sload\n      swap1\n      0x0100\n      exp\n      swap1\n      div\n      0xff\n      and\n        /* \"contracts/PersonDataStorgev1.sol\":643:659  return brazilian */\n      swap1\n      pop\n        /* \"contracts/PersonDataStorgev1.sol\":583:666  function getBrasilian()public view  returns(bool) {... */\n      swap1\n      jump\t// out\n        /* \"contracts/PersonDataStorgev1.sol\":793:865  function incrementAge()external {... */\n    tag_20:\n        /* \"contracts/PersonDataStorgev1.sol\":841:858  addValues(age, 1) */\n      tag_45\n        /* \"contracts/PersonDataStorgev1.sol\":851:854  age */\n      sload(0x01)\n        /* \"contracts/PersonDataStorgev1.sol\":856:857  1 */\n      0x01\n        /* \"contracts/PersonDataStorgev1.sol\":841:850  addValues */\n      tag_46\n        /* \"contracts/PersonDataStorgev1.sol\":841:858  addValues(age, 1) */\n      jump\t// in\n    tag_45:\n        /* \"contracts/PersonDataStorgev1.sol\":835:838  age */\n      0x01\n        /* \"contracts/PersonDataStorgev1.sol\":835:858  age = addValues(age, 1) */\n      dup2\n      swap1\n      sstore\n      pop\n        /* \"contracts/PersonDataStorgev1.sol\":793:865  function incrementAge()external {... */\n      jump\t// out\n        /* \"contracts/PersonDataStorgev1.sol\":492:577  function setBrazilian(bool _brazilian) public {... */\n    tag_24:\n        /* \"contracts/PersonDataStorgev1.sol\":560:570  _brazilian */\n      dup1\n        /* \"contracts/PersonDataStorgev1.sol\":548:557  brazilian */\n      0x02\n      0x00\n        /* \"contracts/PersonDataStorgev1.sol\":548:570  brazilian = _brazilian */\n      0x0100\n      exp\n      dup2\n      sload\n      dup2\n      0xff\n      mul\n      not\n      and\n      swap1\n      dup4\n      iszero\n      iszero\n      mul\n      or\n      swap1\n      sstore\n      pop\n        /* \"contracts/PersonDataStorgev1.sol\":492:577  function setBrazilian(bool _brazilian) public {... */\n      pop\n      jump\t// out\n        /* \"contracts/PersonDataStorgev1.sol\":415:486  function getAge()public view  returns(uint) {... */\n    tag_26:\n        /* \"contracts/PersonDataStorgev1.sol\":453:457  uint */\n      0x00\n        /* \"contracts/PersonDataStorgev1.sol\":476:479  age */\n      sload(0x01)\n        /* \"contracts/PersonDataStorgev1.sol\":469:479  return age */\n      swap1\n      pop\n        /* \"contracts/PersonDataStorgev1.sol\":415:486  function getAge()public view  returns(uint) {... */\n      swap1\n      jump\t// out\n        /* \"contracts/PersonDataStorgev1.sol\":268:342  function setName(string memory _name) public {... */\n    tag_32:\n        /* \"contracts/PersonDataStorgev1.sol\":330:335  _name */\n      dup1\n        /* \"contracts/PersonDataStorgev1.sol\":323:327  name */\n      0x00\n        /* \"contracts/PersonDataStorgev1.sol\":323:335  name = _name */\n      swap1\n      dup2\n      tag_50\n      swap2\n      swap1\n      tag_51\n      jump\t// in\n    tag_50:\n      pop\n        /* \"contracts/PersonDataStorgev1.sol\":268:342  function setName(string memory _name) public {... */\n      pop\n      jump\t// out\n        /* \"contracts/PersonDataStorgev1.sol\":348:409  function setAge(uint _age) public {... */\n    tag_36:\n        /* \"contracts/PersonDataStorgev1.sol\":398:402  _age */\n      dup1\n        /* \"contracts/PersonDataStorgev1.sol\":392:395  age */\n      0x01\n        /* \"contracts/PersonDataStorgev1.sol\":392:402  age = _age */\n      dup2\n      swap1\n      sstore\n      pop\n        /* \"contracts/PersonDataStorgev1.sol\":348:409  function setAge(uint _age) public {... */\n      pop\n      jump\t// out\n        /* \"contracts/PersonDataStorgev1.sol\":672:787  function addValues(uint _value1, uint _value2)internal pure  returns(uint){... */\n    tag_46:\n        /* \"contracts/PersonDataStorgev1.sol\":741:745  uint */\n      0x00\n        /* \"contracts/PersonDataStorgev1.sol\":773:780  _value2 */\n      dup2\n        /* \"contracts/PersonDataStorgev1.sol\":763:770  _value1 */\n      dup4\n        /* \"contracts/PersonDataStorgev1.sol\":763:780  _value1 + _value2 */\n      tag_54\n      swap2\n      swap1\n      tag_55\n      jump\t// in\n    tag_54:\n        /* \"contracts/PersonDataStorgev1.sol\":756:780  return _value1 + _value2 */\n      swap1\n      pop\n        /* \"contracts/PersonDataStorgev1.sol\":672:787  function addValues(uint _value1, uint _value2)internal pure  returns(uint){... */\n      swap3\n      swap2\n      pop\n      pop\n      jump\t// out\n        /* \"#utility.yul\":7:106   */\n    tag_56:\n        /* \"#utility.yul\":59:65   */\n      0x00\n        /* \"#utility.yul\":93:98   */\n      dup2\n        /* \"#utility.yul\":87:99   */\n      mload\n        /* \"#utility.yul\":77:99   */\n      swap1\n      pop\n        /* \"#utility.yul\":7:106   */\n      swap2\n      swap1\n      pop\n      jump\t// out\n        /* \"#utility.yul\":112:281   */\n    tag_57:\n        /* \"#utility.yul\":196:207   */\n      0x00\n        /* \"#utility.yul\":230:236   */\n      dup3\n        /* \"#utility.yul\":225:228   */\n      dup3\n        /* \"#utility.yul\":218:237   */\n      mstore\n        /* \"#utility.yul\":270:274   */\n      0x20\n        /* \"#utility.yul\":265:268   */\n      dup3\n        /* \"#utility.yul\":261:275   */\n      add\n        /* \"#utility.yul\":246:275   */\n      swap1\n      pop\n        /* \"#utility.yul\":112:281   */\n      swap3\n      swap2\n      pop\n      pop\n      jump\t// out\n        /* \"#utility.yul\":287:426   */\n    tag_58:\n        /* \"#utility.yul\":376:382   */\n      dup3\n        /* \"#utility.yul\":371:374   */\n      dup2\n        /* \"#utility.yul\":366:369   */\n      dup4\n        /* \"#utility.yul\":360:383   */\n      mcopy\n        /* \"#utility.yul\":417:418   */\n      0x00\n        /* \"#utility.yul\":408:414   */\n      dup4\n        /* \"#utility.yul\":403:406   */\n      dup4\n        /* \"#utility.yul\":399:415   */\n      add\n        /* \"#utility.yul\":392:419   */\n      mstore\n        /* \"#utility.yul\":287:426   */\n      pop\n      pop\n      pop\n      jump\t// out\n        /* \"#utility.yul\":432:534   */\n    tag_59:\n        /* \"#utility.yul\":473:479   */\n      0x00\n        /* \"#utility.yul\":524:526   */\n      0x1f\n        /* \"#utility.yul\":520:527   */\n      not\n        /* \"#utility.yul\":515:517   */\n      0x1f\n        /* \"#utility.yul\":508:513   */\n      dup4\n        /* \"#utility.yul\":504:518   */\n      add\n        /* \"#utility.yul\":500:528   */\n      and\n        /* \"#utility.yul\":490:528   */\n      swap1\n      pop\n        /* \"#utility.yul\":432:534   */\n      swap2\n      swap1\n      pop\n      jump\t// out\n        /* \"#utility.yul\":540:917   */\n    tag_60:\n        /* \"#utility.yul\":628:631   */\n      0x00\n        /* \"#utility.yul\":656:695   */\n      tag_104\n        /* \"#utility.yul\":689:694   */\n      dup3\n        /* \"#utility.yul\":656:695   */\n      tag_56\n      jump\t// in\n    tag_104:\n        /* \"#utility.yul\":711:782   */\n      tag_105\n        /* \"#utility.yul\":775:781   */\n      dup2\n        /* \"#utility.yul\":770:773   */\n      dup6\n        /* \"#utility.yul\":711:782   */\n      tag_57\n      jump\t// in\n    tag_105:\n        /* \"#utility.yul\":704:782   */\n      swap4\n      pop\n        /* \"#utility.yul\":791:856   */\n      tag_106\n        /* \"#utility.yul\":849:855   */\n      dup2\n        /* \"#utility.yul\":844:847   */\n      dup6\n        /* \"#utility.yul\":837:841   */\n      0x20\n        /* \"#utility.yul\":830:835   */\n      dup7\n        /* \"#utility.yul\":826:842   */\n      add\n        /* \"#utility.yul\":791:856   */\n      tag_58\n      jump\t// in\n    tag_106:\n        /* \"#utility.yul\":881:910   */\n      tag_107\n        /* \"#utility.yul\":903:909   */\n      dup2\n        /* \"#utility.yul\":881:910   */\n      tag_59\n      jump\t// in\n    tag_107:\n        /* \"#utility.yul\":876:879   */\n      dup5\n        /* \"#utility.yul\":872:911   */\n      add\n        /* \"#utility.yul\":865:911   */\n      swap2\n      pop\n        /* \"#utility.yul\":632:917   */\n      pop\n        /* \"#utility.yul\":540:917   */\n      swap3\n      swap2\n      pop\n      pop\n      jump\t// out\n        /* \"#utility.yul\":923:1236   */\n    tag_14:\n        /* \"#utility.yul\":1036:1040   */\n      0x00\n        /* \"#utility.yul\":1074:1076   */\n      0x20\n        /* \"#utility.yul\":1063:1072   */\n      dup3\n        /* \"#utility.yul\":1059:1077   */\n      add\n        /* \"#utility.yul\":1051:1077   */\n      swap1\n      pop\n        /* \"#utility.yul\":1123:1132   */\n      dup2\n        /* \"#utility.yul\":1117:1121   */\n      dup2\n        /* \"#utility.yul\":1113:1133   */\n      sub\n        /* \"#utility.yul\":1109:1110   */\n      0x00\n        /* \"#utility.yul\":1098:1107   */\n      dup4\n        /* \"#utility.yul\":1094:1111   */\n      add\n        /* \"#utility.yul\":1087:1134   */\n      mstore\n        /* \"#utility.yul\":1151:1229   */\n      tag_109\n        /* \"#utility.yul\":1224:1228   */\n      dup2\n        /* \"#utility.yul\":1215:1221   */\n      dup5\n        /* \"#utility.yul\":1151:1229   */\n      tag_60\n      jump\t// in\n    tag_109:\n        /* \"#utility.yul\":1143:1229   */\n      swap1\n      pop\n        /* \"#utility.yul\":923:1236   */\n      swap3\n      swap2\n      pop\n      pop\n      jump\t// out\n        /* \"#utility.yul\":1242:1332   */\n    tag_61:\n        /* \"#utility.yul\":1276:1283   */\n      0x00\n        /* \"#utility.yul\":1319:1324   */\n      dup2\n        /* \"#utility.yul\":1312:1325   */\n      iszero\n        /* \"#utility.yul\":1305:1326   */\n      iszero\n        /* \"#utility.yul\":1294:1326   */\n      swap1\n      pop\n        /* \"#utility.yul\":1242:1332   */\n      swap2\n      swap1\n      pop\n      jump\t// out\n        /* \"#utility.yul\":1338:1447   */\n    tag_62:\n        /* \"#utility.yul\":1419:1440   */\n      tag_112\n        /* \"#utility.yul\":1434:1439   */\n      dup2\n        /* \"#utility.yul\":1419:1440   */\n      tag_61\n      jump\t// in\n    tag_112:\n        /* \"#utility.yul\":1414:1417   */\n      dup3\n        /* \"#utility.yul\":1407:1441   */\n      mstore\n        /* \"#utility.yul\":1338:1447   */\n      pop\n      pop\n      jump\t// out\n        /* \"#utility.yul\":1453:1663   */\n    tag_18:\n        /* \"#utility.yul\":1540:1544   */\n      0x00\n        /* \"#utility.yul\":1578:1580   */\n      0x20\n        /* \"#utility.yul\":1567:1576   */\n      dup3\n        /* \"#utility.yul\":1563:1581   */\n      add\n        /* \"#utility.yul\":1555:1581   */\n      swap1\n      pop\n        /* \"#utility.yul\":1591:1656   */\n      tag_114\n        /* \"#utility.yul\":1653:1654   */\n      0x00\n        /* \"#utility.yul\":1642:1651   */\n      dup4\n        /* \"#utility.yul\":1638:1655   */\n      add\n        /* \"#utility.yul\":1629:1635   */\n      dup5\n        /* \"#utility.yul\":1591:1656   */\n      tag_62\n      jump\t// in\n    tag_114:\n        /* \"#utility.yul\":1453:1663   */\n      swap3\n      swap2\n      pop\n      pop\n      jump\t// out\n        /* \"#utility.yul\":1669:1744   */\n    tag_63:\n        /* \"#utility.yul\":1702:1708   */\n      0x00\n        /* \"#utility.yul\":1735:1737   */\n      0x40\n        /* \"#utility.yul\":1729:1738   */\n      mload\n        /* \"#utility.yul\":1719:1738   */\n      swap1\n      pop\n        /* \"#utility.yul\":1669:1744   */\n      swap1\n      jump\t// out\n        /* \"#utility.yul\":1750:1867   */\n    tag_64:\n        /* \"#utility.yul\":1859:1860   */\n      0x00\n        /* \"#utility.yul\":1856:1857   */\n      dup1\n        /* \"#utility.yul\":1849:1861   */\n      revert\n        /* \"#utility.yul\":1873:1990   */\n    tag_65:\n        /* \"#utility.yul\":1982:1983   */\n      0x00\n        /* \"#utility.yul\":1979:1980   */\n      dup1\n        /* \"#utility.yul\":1972:1984   */\n      revert\n        /* \"#utility.yul\":1996:2112   */\n    tag_66:\n        /* \"#utility.yul\":2066:2087   */\n      tag_119\n        /* \"#utility.yul\":2081:2086   */\n      dup2\n        /* \"#utility.yul\":2066:2087   */\n      tag_61\n      jump\t// in\n    tag_119:\n        /* \"#utility.yul\":2059:2064   */\n      dup2\n        /* \"#utility.yul\":2056:2088   */\n      eq\n        /* \"#utility.yul\":2046:2106   */\n      tag_120\n      jumpi\n        /* \"#utility.yul\":2102:2103   */\n      0x00\n        /* \"#utility.yul\":2099:2100   */\n      dup1\n        /* \"#utility.yul\":2092:2104   */\n      revert\n        /* \"#utility.yul\":2046:2106   */\n    tag_120:\n        /* \"#utility.yul\":1996:2112   */\n      pop\n      jump\t// out\n        /* \"#utility.yul\":2118:2251   */\n    tag_67:\n        /* \"#utility.yul\":2161:2166   */\n      0x00\n        /* \"#utility.yul\":2199:2205   */\n      dup2\n        /* \"#utility.yul\":2186:2206   */\n      calldataload\n        /* \"#utility.yul\":2177:2206   */\n      swap1\n      pop\n        /* \"#utility.yul\":2215:2245   */\n      tag_122\n        /* \"#utility.yul\":2239:2244   */\n      dup2\n        /* \"#utility.yul\":2215:2245   */\n      tag_66\n      jump\t// in\n    tag_122:\n        /* \"#utility.yul\":2118:2251   */\n      swap3\n      swap2\n      pop\n      pop\n      jump\t// out\n        /* \"#utility.yul\":2257:2580   */\n    tag_23:\n        /* \"#utility.yul\":2313:2319   */\n      0x00\n        /* \"#utility.yul\":2362:2364   */\n      0x20\n        /* \"#utility.yul\":2350:2359   */\n      dup3\n        /* \"#utility.yul\":2341:2348   */\n      dup5\n        /* \"#utility.yul\":2337:2360   */\n      sub\n        /* \"#utility.yul\":2333:2365   */\n      slt\n        /* \"#utility.yul\":2330:2449   */\n      iszero\n      tag_124\n      jumpi\n        /* \"#utility.yul\":2368:2447   */\n      tag_125\n      tag_64\n      jump\t// in\n    tag_125:\n        /* \"#utility.yul\":2330:2449   */\n    tag_124:\n        /* \"#utility.yul\":2488:2489   */\n      0x00\n        /* \"#utility.yul\":2513:2563   */\n      tag_126\n        /* \"#utility.yul\":2555:2562   */\n      dup5\n        /* \"#utility.yul\":2546:2552   */\n      dup3\n        /* \"#utility.yul\":2535:2544   */\n      dup6\n        /* \"#utility.yul\":2531:2553   */\n      add\n        /* \"#utility.yul\":2513:2563   */\n      tag_67\n      jump\t// in\n    tag_126:\n        /* \"#utility.yul\":2503:2563   */\n      swap2\n      pop\n        /* \"#utility.yul\":2459:2573   */\n      pop\n        /* \"#utility.yul\":2257:2580   */\n      swap3\n      swap2\n      pop\n      pop\n      jump\t// out\n        /* \"#utility.yul\":2586:2663   */\n    tag_68:\n        /* \"#utility.yul\":2623:2630   */\n      0x00\n        /* \"#utility.yul\":2652:2657   */\n      dup2\n        /* \"#utility.yul\":2641:2657   */\n      swap1\n      pop\n        /* \"#utility.yul\":2586:2663   */\n      swap2\n      swap1\n      pop\n      jump\t// out\n        /* \"#utility.yul\":2669:2787   */\n    tag_69:\n        /* \"#utility.yul\":2756:2780   */\n      tag_129\n        /* \"#utility.yul\":2774:2779   */\n      dup2\n        /* \"#utility.yul\":2756:2780   */\n      tag_68\n      jump\t// in\n    tag_129:\n        /* \"#utility.yul\":2751:2754   */\n      dup3\n        /* \"#utility.yul\":2744:2781   */\n      mstore\n        /* \"#utility.yul\":2669:2787   */\n      pop\n      pop\n      jump\t// out\n        /* \"#utility.yul\":2793:3015   */\n    tag_28:\n        /* \"#utility.yul\":2886:2890   */\n      0x00\n        /* \"#utility.yul\":2924:2926   */\n      0x20\n        /* \"#utility.yul\":2913:2922   */\n      dup3\n        /* \"#utility.yul\":2909:2927   */\n      add\n        /* \"#utility.yul\":2901:2927   */\n      swap1\n      pop\n        /* \"#utility.yul\":2937:3008   */\n      tag_131\n        /* \"#utility.yul\":3005:3006   */\n      0x00\n        /* \"#utility.yul\":2994:3003   */\n      dup4\n        /* \"#utility.yul\":2990:3007   */\n      add\n        /* \"#utility.yul\":2981:2987   */\n      dup5\n        /* \"#utility.yul\":2937:3008   */\n      tag_69\n      jump\t// in\n    tag_131:\n        /* \"#utility.yul\":2793:3015   */\n      swap3\n      swap2\n      pop\n      pop\n      jump\t// out\n        /* \"#utility.yul\":3021:3138   */\n    tag_70:\n        /* \"#utility.yul\":3130:3131   */\n      0x00\n        /* \"#utility.yul\":3127:3128   */\n      dup1\n        /* \"#utility.yul\":3120:3132   */\n      revert\n        /* \"#utility.yul\":3144:3261   */\n    tag_71:\n        /* \"#utility.yul\":3253:3254   */\n      0x00\n        /* \"#utility.yul\":3250:3251   */\n      dup1\n        /* \"#utility.yul\":3243:3255   */\n      revert\n        /* \"#utility.yul\":3267:3447   */\n    tag_72:\n        /* \"#utility.yul\":3315:3392   */\n      0x4e487b7100000000000000000000000000000000000000000000000000000000\n        /* \"#utility.yul\":3312:3313   */\n      0x00\n        /* \"#utility.yul\":3305:3393   */\n      mstore\n        /* \"#utility.yul\":3412:3416   */\n      0x41\n        /* \"#utility.yul\":3409:3410   */\n      0x04\n        /* \"#utility.yul\":3402:3417   */\n      mstore\n        /* \"#utility.yul\":3436:3440   */\n      0x24\n        /* \"#utility.yul\":3433:3434   */\n      0x00\n        /* \"#utility.yul\":3426:3441   */\n      revert\n        /* \"#utility.yul\":3453:3734   */\n    tag_73:\n        /* \"#utility.yul\":3536:3563   */\n      tag_136\n        /* \"#utility.yul\":3558:3562   */\n      dup3\n        /* \"#utility.yul\":3536:3563   */\n      tag_59\n      jump\t// in\n    tag_136:\n        /* \"#utility.yul\":3528:3534   */\n      dup2\n        /* \"#utility.yul\":3524:3564   */\n      add\n        /* \"#utility.yul\":3666:3672   */\n      dup2\n        /* \"#utility.yul\":3654:3664   */\n      dup2\n        /* \"#utility.yul\":3651:3673   */\n      lt\n        /* \"#utility.yul\":3630:3648   */\n      0xffffffffffffffff\n        /* \"#utility.yul\":3618:3628   */\n      dup3\n        /* \"#utility.yul\":3615:3649   */\n      gt\n        /* \"#utility.yul\":3612:3674   */\n      or\n        /* \"#utility.yul\":3609:3697   */\n      iszero\n      tag_137\n      jumpi\n        /* \"#utility.yul\":3677:3695   */\n      tag_138\n      tag_72\n      jump\t// in\n    tag_138:\n        /* \"#utility.yul\":3609:3697   */\n    tag_137:\n        /* \"#utility.yul\":3717:3727   */\n      dup1\n        /* \"#utility.yul\":3713:3715   */\n      0x40\n        /* \"#utility.yul\":3706:3728   */\n      mstore\n        /* \"#utility.yul\":3496:3734   */\n      pop\n        /* \"#utility.yul\":3453:3734   */\n      pop\n      pop\n      jump\t// out\n        /* \"#utility.yul\":3740:3869   */\n    tag_74:\n        /* \"#utility.yul\":3774:3780   */\n      0x00\n        /* \"#utility.yul\":3801:3821   */\n      tag_140\n      tag_63\n      jump\t// in\n    tag_140:\n        /* \"#utility.yul\":3791:3821   */\n      swap1\n      pop\n        /* \"#utility.yul\":3830:3863   */\n      tag_141\n        /* \"#utility.yul\":3858:3862   */\n      dup3\n        /* \"#utility.yul\":3850:3856   */\n      dup3\n        /* \"#utility.yul\":3830:3863   */\n      tag_73\n      jump\t// in\n    tag_141:\n        /* \"#utility.yul\":3740:3869   */\n      swap2\n      swap1\n      pop\n      jump\t// out\n        /* \"#utility.yul\":3875:4183   */\n    tag_75:\n        /* \"#utility.yul\":3937:3941   */\n      0x00\n        /* \"#utility.yul\":4027:4045   */\n      0xffffffffffffffff\n        /* \"#utility.yul\":4019:4025   */\n      dup3\n        /* \"#utility.yul\":4016:4046   */\n      gt\n        /* \"#utility.yul\":4013:4069   */\n      iszero\n      tag_143\n      jumpi\n        /* \"#utility.yul\":4049:4067   */\n      tag_144\n      tag_72\n      jump\t// in\n    tag_144:\n        /* \"#utility.yul\":4013:4069   */\n    tag_143:\n        /* \"#utility.yul\":4087:4116   */\n      tag_145\n        /* \"#utility.yul\":4109:4115   */\n      dup3\n        /* \"#utility.yul\":4087:4116   */\n      tag_59\n      jump\t// in\n    tag_145:\n        /* \"#utility.yul\":4079:4116   */\n      swap1\n      pop\n        /* \"#utility.yul\":4171:4175   */\n      0x20\n        /* \"#utility.yul\":4165:4169   */\n      dup2\n        /* \"#utility.yul\":4161:4176   */\n      add\n        /* \"#utility.yul\":4153:4176   */\n      swap1\n      pop\n        /* \"#utility.yul\":3875:4183   */\n      swap2\n      swap1\n      pop\n      jump\t// out\n        /* \"#utility.yul\":4189:4337   */\n    tag_76:\n        /* \"#utility.yul\":4287:4293   */\n      dup3\n        /* \"#utility.yul\":4282:4285   */\n      dup2\n        /* \"#utility.yul\":4277:4280   */\n      dup4\n        /* \"#utility.yul\":4264:4294   */\n      calldatacopy\n        /* \"#utility.yul\":4328:4329   */\n      0x00\n        /* \"#utility.yul\":4319:4325   */\n      dup4\n        /* \"#utility.yul\":4314:4317   */\n      dup4\n        /* \"#utility.yul\":4310:4326   */\n      add\n        /* \"#utility.yul\":4303:4330   */\n      mstore\n        /* \"#utility.yul\":4189:4337   */\n      pop\n      pop\n      pop\n      jump\t// out\n        /* \"#utility.yul\":4343:4768   */\n    tag_77:\n        /* \"#utility.yul\":4421:4426   */\n      0x00\n        /* \"#utility.yul\":4446:4512   */\n      tag_148\n        /* \"#utility.yul\":4462:4511   */\n      tag_149\n        /* \"#utility.yul\":4504:4510   */\n      dup5\n        /* \"#utility.yul\":4462:4511   */\n      tag_75\n      jump\t// in\n    tag_149:\n        /* \"#utility.yul\":4446:4512   */\n      tag_74\n      jump\t// in\n    tag_148:\n        /* \"#utility.yul\":4437:4512   */\n      swap1\n      pop\n        /* \"#utility.yul\":4535:4541   */\n      dup3\n        /* \"#utility.yul\":4528:4533   */\n      dup2\n        /* \"#utility.yul\":4521:4542   */\n      mstore\n        /* \"#utility.yul\":4573:4577   */\n      0x20\n        /* \"#utility.yul\":4566:4571   */\n      dup2\n        /* \"#utility.yul\":4562:4578   */\n      add\n        /* \"#utility.yul\":4611:4614   */\n      dup5\n        /* \"#utility.yul\":4602:4608   */\n      dup5\n        /* \"#utility.yul\":4597:4600   */\n      dup5\n        /* \"#utility.yul\":4593:4609   */\n      add\n        /* \"#utility.yul\":4590:4615   */\n      gt\n        /* \"#utility.yul\":4587:4699   */\n      iszero\n      tag_150\n      jumpi\n        /* \"#utility.yul\":4618:4697   */\n      tag_151\n      tag_71\n      jump\t// in\n    tag_151:\n        /* \"#utility.yul\":4587:4699   */\n    tag_150:\n        /* \"#utility.yul\":4708:4762   */\n      tag_152\n        /* \"#utility.yul\":4755:4761   */\n      dup5\n        /* \"#utility.yul\":4750:4753   */\n      dup3\n        /* \"#utility.yul\":4745:4748   */\n      dup6\n        /* \"#utility.yul\":4708:4762   */\n      tag_76\n      jump\t// in\n    tag_152:\n        /* \"#utility.yul\":4427:4768   */\n      pop\n        /* \"#utility.yul\":4343:4768   */\n      swap4\n      swap3\n      pop\n      pop\n      pop\n      jump\t// out\n        /* \"#utility.yul\":4788:5128   */\n    tag_78:\n        /* \"#utility.yul\":4844:4849   */\n      0x00\n        /* \"#utility.yul\":4893:4896   */\n      dup3\n        /* \"#utility.yul\":4886:4890   */\n      0x1f\n        /* \"#utility.yul\":4878:4884   */\n      dup4\n        /* \"#utility.yul\":4874:4891   */\n      add\n        /* \"#utility.yul\":4870:4897   */\n      slt\n        /* \"#utility.yul\":4860:4982   */\n      tag_154\n      jumpi\n        /* \"#utility.yul\":4901:4980   */\n      tag_155\n      tag_70\n      jump\t// in\n    tag_155:\n        /* \"#utility.yul\":4860:4982   */\n    tag_154:\n        /* \"#utility.yul\":5018:5024   */\n      dup2\n        /* \"#utility.yul\":5005:5025   */\n      calldataload\n        /* \"#utility.yul\":5043:5122   */\n      tag_156\n        /* \"#utility.yul\":5118:5121   */\n      dup5\n        /* \"#utility.yul\":5110:5116   */\n      dup3\n        /* \"#utility.yul\":5103:5107   */\n      0x20\n        /* \"#utility.yul\":5095:5101   */\n      dup7\n        /* \"#utility.yul\":5091:5108   */\n      add\n        /* \"#utility.yul\":5043:5122   */\n      tag_77\n      jump\t// in\n    tag_156:\n        /* \"#utility.yul\":5034:5122   */\n      swap2\n      pop\n        /* \"#utility.yul\":4850:5128   */\n      pop\n        /* \"#utility.yul\":4788:5128   */\n      swap3\n      swap2\n      pop\n      pop\n      jump\t// out\n        /* \"#utility.yul\":5134:5643   */\n    tag_31:\n        /* \"#utility.yul\":5203:5209   */\n      0x00\n        /* \"#utility.yul\":5252:5254   */\n      0x20\n        /* \"#utility.yul\":5240:5249   */\n      dup3\n        /* \"#utility.yul\":5231:5238   */\n      dup5\n        /* \"#utility.yul\":5227:5250   */\n      sub\n        /* \"#utility.yul\":5223:5255   */\n      slt\n        /* \"#utility.yul\":5220:5339   */\n      iszero\n      tag_158\n      jumpi\n        /* \"#utility.yul\":5258:5337   */\n      tag_159\n      tag_64\n      jump\t// in\n    tag_159:\n        /* \"#utility.yul\":5220:5339   */\n    tag_158:\n        /* \"#utility.yul\":5406:5407   */\n      0x00\n        /* \"#utility.yul\":5395:5404   */\n      dup3\n        /* \"#utility.yul\":5391:5408   */\n      add\n        /* \"#utility.yul\":5378:5409   */\n      calldataload\n        /* \"#utility.yul\":5436:5454   */\n      0xffffffffffffffff\n        /* \"#utility.yul\":5428:5434   */\n      dup2\n        /* \"#utility.yul\":5425:5455   */\n      gt\n        /* \"#utility.yul\":5422:5539   */\n      iszero\n      tag_160\n      jumpi\n        /* \"#utility.yul\":5458:5537   */\n      tag_161\n      tag_65\n      jump\t// in\n    tag_161:\n        /* \"#utility.yul\":5422:5539   */\n    tag_160:\n        /* \"#utility.yul\":5563:5626   */\n      tag_162\n        /* \"#utility.yul\":5618:5625   */\n      dup5\n        /* \"#utility.yul\":5609:5615   */\n      dup3\n        /* \"#utility.yul\":5598:5607   */\n      dup6\n        /* \"#utility.yul\":5594:5616   */\n      add\n        /* \"#utility.yul\":5563:5626   */\n      tag_78\n      jump\t// in\n    tag_162:\n        /* \"#utility.yul\":5553:5626   */\n      swap2\n      pop\n        /* \"#utility.yul\":5349:5636   */\n      pop\n        /* \"#utility.yul\":5134:5643   */\n      swap3\n      swap2\n      pop\n      pop\n      jump\t// out\n        /* \"#utility.yul\":5649:5771   */\n    tag_79:\n        /* \"#utility.yul\":5722:5746   */\n      tag_164\n        /* \"#utility.yul\":5740:5745   */\n      dup2\n        /* \"#utility.yul\":5722:5746   */\n      tag_68\n      jump\t// in\n    tag_164:\n        /* \"#utility.yul\":5715:5720   */\n      dup2\n        /* \"#utility.yul\":5712:5747   */\n      eq\n        /* \"#utility.yul\":5702:5765   */\n      tag_165\n      jumpi\n        /* \"#utility.yul\":5761:5762   */\n      0x00\n        /* \"#utility.yul\":5758:5759   */\n      dup1\n        /* \"#utility.yul\":5751:5763   */\n      revert\n        /* \"#utility.yul\":5702:5765   */\n    tag_165:\n        /* \"#utility.yul\":5649:5771   */\n      pop\n      jump\t// out\n        /* \"#utility.yul\":5777:5916   */\n    tag_80:\n        /* \"#utility.yul\":5823:5828   */\n      0x00\n        /* \"#utility.yul\":5861:5867   */\n      dup2\n        /* \"#utility.yul\":5848:5868   */\n      calldataload\n        /* \"#utility.yul\":5839:5868   */\n      swap1\n      pop\n        /* \"#utility.yul\":5877:5910   */\n      tag_167\n        /* \"#utility.yul\":5904:5909   */\n      dup2\n        /* \"#utility.yul\":5877:5910   */\n      tag_79\n      jump\t// in\n    tag_167:\n        /* \"#utility.yul\":5777:5916   */\n      swap3\n      swap2\n      pop\n      pop\n      jump\t// out\n        /* \"#utility.yul\":5922:6251   */\n    tag_35:\n        /* \"#utility.yul\":5981:5987   */\n      0x00\n        /* \"#utility.yul\":6030:6032   */\n      0x20\n        /* \"#utility.yul\":6018:6027   */\n      dup3\n        /* \"#utility.yul\":6009:6016   */\n      dup5\n        /* \"#utility.yul\":6005:6028   */\n      sub\n        /* \"#utility.yul\":6001:6033   */\n      slt\n        /* \"#utility.yul\":5998:6117   */\n      iszero\n      tag_169\n      jumpi\n        /* \"#utility.yul\":6036:6115   */\n      tag_170\n      tag_64\n      jump\t// in\n    tag_170:\n        /* \"#utility.yul\":5998:6117   */\n    tag_169:\n        /* \"#utility.yul\":6156:6157   */\n      0x00\n        /* \"#utility.yul\":6181:6234   */\n      tag_171\n        /* \"#utility.yul\":6226:6233   */\n      dup5\n        /* \"#utility.yul\":6217:6223   */\n      dup3\n        /* \"#utility.yul\":6206:6215   */\n      dup6\n        /* \"#utility.yul\":6202:6224   */\n      add\n        /* \"#utility.yul\":6181:6234   */\n      tag_80\n      jump\t// in\n    tag_171:\n        /* \"#utility.yul\":6171:6234   */\n      swap2\n      pop\n        /* \"#utility.yul\":6127:6244   */\n      pop\n        /* \"#utility.yul\":5922:6251   */\n      swap3\n      swap2\n      pop\n      pop\n      jump\t// out\n        /* \"#utility.yul\":6257:6437   */\n    tag_81:\n        /* \"#utility.yul\":6305:6382   */\n      0x4e487b7100000000000000000000000000000000000000000000000000000000\n        /* \"#utility.yul\":6302:6303   */\n      0x00\n        /* \"#utility.yul\":6295:6383   */\n      mstore\n        /* \"#utility.yul\":6402:6406   */\n      0x22\n        /* \"#utility.yul\":6399:6400   */\n      0x04\n        /* \"#utility.yul\":6392:6407   */\n      mstore\n        /* \"#utility.yul\":6426:6430   */\n      0x24\n        /* \"#utility.yul\":6423:6424   */\n      0x00\n        /* \"#utility.yul\":6416:6431   */\n      revert\n        /* \"#utility.yul\":6443:6763   */\n    tag_38:\n        /* \"#utility.yul\":6487:6493   */\n      0x00\n        /* \"#utility.yul\":6524:6525   */\n      0x02\n        /* \"#utility.yul\":6518:6522   */\n      dup3\n        /* \"#utility.yul\":6514:6526   */\n      div\n        /* \"#utility.yul\":6504:6526   */\n      swap1\n      pop\n        /* \"#utility.yul\":6571:6572   */\n      0x01\n        /* \"#utility.yul\":6565:6569   */\n      dup3\n        /* \"#utility.yul\":6561:6573   */\n      and\n        /* \"#utility.yul\":6592:6610   */\n      dup1\n        /* \"#utility.yul\":6582:6663   */\n      tag_174\n      jumpi\n        /* \"#utility.yul\":6648:6652   */\n      0x7f\n        /* \"#utility.yul\":6640:6646   */\n      dup3\n        /* \"#utility.yul\":6636:6653   */\n      and\n        /* \"#utility.yul\":6626:6653   */\n      swap2\n      pop\n        /* \"#utility.yul\":6582:6663   */\n    tag_174:\n        /* \"#utility.yul\":6710:6712   */\n      0x20\n        /* \"#utility.yul\":6702:6708   */\n      dup3\n        /* \"#utility.yul\":6699:6713   */\n      lt\n        /* \"#utility.yul\":6679:6697   */\n      dup2\n        /* \"#utility.yul\":6676:6714   */\n      sub\n        /* \"#utility.yul\":6673:6757   */\n      tag_175\n      jumpi\n        /* \"#utility.yul\":6729:6747   */\n      tag_176\n      tag_81\n      jump\t// in\n    tag_176:\n        /* \"#utility.yul\":6673:6757   */\n    tag_175:\n        /* \"#utility.yul\":6494:6763   */\n      pop\n        /* \"#utility.yul\":6443:6763   */\n      swap2\n      swap1\n      pop\n      jump\t// out\n        /* \"#utility.yul\":6769:6910   */\n    tag_82:\n        /* \"#utility.yul\":6818:6822   */\n      0x00\n        /* \"#utility.yul\":6841:6844   */\n      dup2\n        /* \"#utility.yul\":6833:6844   */\n      swap1\n      pop\n        /* \"#utility.yul\":6864:6867   */\n      dup2\n        /* \"#utility.yul\":6861:6862   */\n      0x00\n        /* \"#utility.yul\":6854:6868   */\n      mstore\n        /* \"#utility.yul\":6898:6902   */\n      0x20\n        /* \"#utility.yul\":6895:6896   */\n      0x00\n        /* \"#utility.yul\":6885:6903   */\n      keccak256\n        /* \"#utility.yul\":6877:6903   */\n      swap1\n      pop\n        /* \"#utility.yul\":6769:6910   */\n      swap2\n      swap1\n      pop\n      jump\t// out\n        /* \"#utility.yul\":6916:7009   */\n    tag_83:\n        /* \"#utility.yul\":6953:6959   */\n      0x00\n        /* \"#utility.yul\":7000:7002   */\n      0x20\n        /* \"#utility.yul\":6995:6997   */\n      0x1f\n        /* \"#utility.yul\":6988:6993   */\n      dup4\n        /* \"#utility.yul\":6984:6998   */\n      add\n        /* \"#utility.yul\":6980:7003   */\n      div\n        /* \"#utility.yul\":6970:7003   */\n      swap1\n      pop\n        /* \"#utility.yul\":6916:7009   */\n      swap2\n      swap1\n      pop\n      jump\t// out\n        /* \"#utility.yul\":7015:7122   */\n    tag_84:\n        /* \"#utility.yul\":7059:7067   */\n      0x00\n        /* \"#utility.yul\":7109:7114   */\n      dup3\n        /* \"#utility.yul\":7103:7107   */\n      dup3\n        /* \"#utility.yul\":7099:7115   */\n      shl\n        /* \"#utility.yul\":7078:7115   */\n      swap1\n      pop\n        /* \"#utility.yul\":7015:7122   */\n      swap3\n      swap2\n      pop\n      pop\n      jump\t// out\n        /* \"#utility.yul\":7128:7521   */\n    tag_85:\n        /* \"#utility.yul\":7197:7203   */\n      0x00\n        /* \"#utility.yul\":7247:7248   */\n      0x08\n        /* \"#utility.yul\":7235:7245   */\n      dup4\n        /* \"#utility.yul\":7231:7249   */\n      mul\n        /* \"#utility.yul\":7270:7367   */\n      tag_181\n        /* \"#utility.yul\":7300:7366   */\n      0xffffffffffffffffffffffffffffffffffffffffffffffffffffffffffffffff\n        /* \"#utility.yul\":7289:7298   */\n      dup3\n        /* \"#utility.yul\":7270:7367   */\n      tag_84\n      jump\t// in\n    tag_181:\n        /* \"#utility.yul\":7388:7427   */\n      tag_182\n        /* \"#utility.yul\":7418:7426   */\n      dup7\n        /* \"#utility.yul\":7407:7416   */\n      dup4\n        /* \"#utility.yul\":7388:7427   */\n      tag_84\n      jump\t// in\n    tag_182:\n        /* \"#utility.yul\":7376:7427   */\n      swap6\n      pop\n        /* \"#utility.yul\":7460:7464   */\n      dup1\n        /* \"#utility.yul\":7456:7465   */\n      not\n        /* \"#utility.yul\":7449:7454   */\n      dup5\n        /* \"#utility.yul\":7445:7466   */\n      and\n        /* \"#utility.yul\":7436:7466   */\n      swap4\n      pop\n        /* \"#utility.yul\":7509:7513   */\n      dup1\n        /* \"#utility.yul\":7499:7507   */\n      dup7\n        /* \"#utility.yul\":7495:7514   */\n      and\n        /* \"#utility.yul\":7488:7493   */\n      dup5\n        /* \"#utility.yul\":7485:7515   */\n      or\n        /* \"#utility.yul\":7475:7515   */\n      swap3\n      pop\n        /* \"#utility.yul\":7204:7521   */\n      pop\n      pop\n        /* \"#utility.yul\":7128:7521   */\n      swap4\n      swap3\n      pop\n      pop\n      pop\n      jump\t// out\n        /* \"#utility.yul\":7527:7587   */\n    tag_86:\n        /* \"#utility.yul\":7555:7558   */\n      0x00\n        /* \"#utility.yul\":7576:7581   */\n      dup2\n        /* \"#utility.yul\":7569:7581   */\n      swap1\n      pop\n        /* \"#utility.yul\":7527:7587   */\n      swap2\n      swap1\n      pop\n      jump\t// out\n        /* \"#utility.yul\":7593:7735   */\n    tag_87:\n        /* \"#utility.yul\":7643:7652   */\n      0x00\n        /* \"#utility.yul\":7676:7729   */\n      tag_185\n        /* \"#utility.yul\":7694:7728   */\n      tag_186\n        /* \"#utility.yul\":7703:7727   */\n      tag_187\n        /* \"#utility.yul\":7721:7726   */\n      dup5\n        /* \"#utility.yul\":7703:7727   */\n      tag_68\n      jump\t// in\n    tag_187:\n        /* \"#utility.yul\":7694:7728   */\n      tag_86\n      jump\t// in\n    tag_186:\n        /* \"#utility.yul\":7676:7729   */\n      tag_68\n      jump\t// in\n    tag_185:\n        /* \"#utility.yul\":7663:7729   */\n      swap1\n      pop\n        /* \"#utility.yul\":7593:7735   */\n      swap2\n      swap1\n      pop\n      jump\t// out\n        /* \"#utility.yul\":7741:7816   */\n    tag_88:\n        /* \"#utility.yul\":7784:7787   */\n      0x00\n        /* \"#utility.yul\":7805:7810   */\n      dup2\n        /* \"#utility.yul\":7798:7810   */\n      swap1\n      pop\n        /* \"#utility.yul\":7741:7816   */\n      swap2\n      swap1\n      pop\n      jump\t// out\n        /* \"#utility.yul\":7822:8091   */\n    tag_89:\n        /* \"#utility.yul\":7932:7971   */\n      tag_190\n        /* \"#utility.yul\":7963:7970   */\n      dup4\n        /* \"#utility.yul\":7932:7971   */\n      tag_87\n      jump\t// in\n    tag_190:\n        /* \"#utility.yul\":7993:8084   */\n      tag_191\n        /* \"#utility.yul\":8042:8083   */\n      tag_192\n        /* \"#utility.yul\":8066:8082   */\n      dup3\n        /* \"#utility.yul\":8042:8083   */\n      tag_88\n      jump\t// in\n    tag_192:\n        /* \"#utility.yul\":8034:8040   */\n      dup5\n        /* \"#utility.yul\":8027:8031   */\n      dup5\n        /* \"#utility.yul\":8021:8032   */\n      sload\n        /* \"#utility.yul\":7993:8084   */\n      tag_85\n      jump\t// in\n    tag_191:\n        /* \"#utility.yul\":7987:7991   */\n      dup3\n        /* \"#utility.yul\":7980:8085   */\n      sstore\n        /* \"#utility.yul\":7898:8091   */\n      pop\n        /* \"#utility.yul\":7822:8091   */\n      pop\n      pop\n      pop\n      jump\t// out\n        /* \"#utility.yul\":8097:8170   */\n    tag_90:\n        /* \"#utility.yul\":8142:8145   */\n      0x00\n        /* \"#utility.yul\":8097:8170   */\n      swap1\n      jump\t// out\n        /* \"#utility.yul\":8176:8365   */\n    tag_91:\n        /* \"#utility.yul\":8253:8285   */\n      tag_195\n      tag_90\n      jump\t// in\n    tag_195:\n        /* \"#utility.yul\":8294:8359   */\n      tag_196\n        /* \"#utility.yul\":8352:8358   */\n      dup2\n        /* \"#utility.yul\":8344:8350   */\n      dup5\n        /* \"#utility.yul\":8338:8342   */\n      dup5\n        /* \"#utility.yul\":8294:8359   */\n      tag_89\n      jump\t// in\n    tag_196:\n        /* \"#utility.yul\":8229:8365   */\n      pop\n        /* \"#utility.yul\":8176:8365   */\n      pop\n      pop\n      jump\t// out\n        /* \"#utility.yul\":8371:8557   */\n    tag_92:\n        /* \"#utility.yul\":8431:8551   */\n    tag_198:\n        /* \"#utility.yul\":8448:8451   */\n      dup2\n        /* \"#utility.yul\":8441:8446   */\n      dup2\n        /* \"#utility.yul\":8438:8452   */\n      lt\n        /* \"#utility.yul\":8431:8551   */\n      iszero\n      tag_200\n      jumpi\n        /* \"#utility.yul\":8502:8541   */\n      tag_201\n        /* \"#utility.yul\":8539:8540   */\n      0x00\n        /* \"#utility.yul\":8532:8537   */\n      dup3\n        /* \"#utility.yul\":8502:8541   */\n      tag_91\n      jump\t// in\n    tag_201:\n        /* \"#utility.yul\":8475:8476   */\n      0x01\n        /* \"#utility.yul\":8468:8473   */\n      dup2\n        /* \"#utility.yul\":8464:8477   */\n      add\n        /* \"#utility.yul\":8455:8477   */\n      swap1\n      pop\n        /* \"#utility.yul\":8431:8551   */\n      jump(tag_198)\n    tag_200:\n        /* \"#utility.yul\":8371:8557   */\n      pop\n      pop\n      jump\t// out\n        /* \"#utility.yul\":8563:9106   */\n    tag_93:\n        /* \"#utility.yul\":8664:8666   */\n      0x1f\n        /* \"#utility.yul\":8659:8662   */\n      dup3\n        /* \"#utility.yul\":8656:8667   */\n      gt\n        /* \"#utility.yul\":8653:9099   */\n      iszero\n      tag_203\n      jumpi\n        /* \"#utility.yul\":8698:8736   */\n      tag_204\n        /* \"#utility.yul\":8730:8735   */\n      dup2\n        /* \"#utility.yul\":8698:8736   */\n      tag_82\n      jump\t// in\n    tag_204:\n        /* \"#utility.yul\":8782:8811   */\n      tag_205\n        /* \"#utility.yul\":8800:8810   */\n      dup5\n        /* \"#utility.yul\":8782:8811   */\n      tag_83\n      jump\t// in\n    tag_205:\n        /* \"#utility.yul\":8772:8780   */\n      dup2\n        /* \"#utility.yul\":8768:8812   */\n      add\n        /* \"#utility.yul\":8965:8967   */\n      0x20\n        /* \"#utility.yul\":8953:8963   */\n      dup6\n        /* \"#utility.yul\":8950:8968   */\n      lt\n        /* \"#utility.yul\":8947:8996   */\n      iszero\n      tag_206\n      jumpi\n        /* \"#utility.yul\":8986:8994   */\n      dup2\n        /* \"#utility.yul\":8971:8994   */\n      swap1\n      pop\n        /* \"#utility.yul\":8947:8996   */\n    tag_206:\n        /* \"#utility.yul\":9009:9089   */\n      tag_207\n        /* \"#utility.yul\":9065:9087   */\n      tag_208\n        /* \"#utility.yul\":9083:9086   */\n      dup6\n        /* \"#utility.yul\":9065:9087   */\n      tag_83\n      jump\t// in\n    tag_208:\n        /* \"#utility.yul\":9055:9063   */\n      dup4\n        /* \"#utility.yul\":9051:9088   */\n      add\n        /* \"#utility.yul\":9038:9049   */\n      dup3\n        /* \"#utility.yul\":9009:9089   */\n      tag_92\n      jump\t// in\n    tag_207:\n        /* \"#utility.yul\":8668:9099   */\n      pop\n      pop\n        /* \"#utility.yul\":8653:9099   */\n    tag_203:\n        /* \"#utility.yul\":8563:9106   */\n      pop\n      pop\n      pop\n      jump\t// out\n        /* \"#utility.yul\":9112:9229   */\n    tag_94:\n        /* \"#utility.yul\":9166:9174   */\n      0x00\n        /* \"#utility.yul\":9216:9221   */\n      dup3\n        /* \"#utility.yul\":9210:9214   */\n      dup3\n        /* \"#utility.yul\":9206:9222   */\n      shr\n        /* \"#utility.yul\":9185:9222   */\n      swap1\n      pop\n        /* \"#utility.yul\":9112:9229   */\n      swap3\n      swap2\n      pop\n      pop\n      jump\t// out\n        /* \"#utility.yul\":9235:9404   */\n    tag_95:\n        /* \"#utility.yul\":9279:9285   */\n      0x00\n        /* \"#utility.yul\":9312:9363   */\n      tag_211\n        /* \"#utility.yul\":9360:9361   */\n      0x00\n        /* \"#utility.yul\":9356:9362   */\n      not\n        /* \"#utility.yul\":9348:9353   */\n      dup5\n        /* \"#utility.yul\":9345:9346   */\n      0x08\n        /* \"#utility.yul\":9341:9354   */\n      mul\n        /* \"#utility.yul\":9312:9363   */\n      tag_94\n      jump\t// in\n    tag_211:\n        /* \"#utility.yul\":9308:9364   */\n      not\n        /* \"#utility.yul\":9393:9397   */\n      dup1\n        /* \"#utility.yul\":9387:9391   */\n      dup4\n        /* \"#utility.yul\":9383:9398   */\n      and\n        /* \"#utility.yul\":9373:9398   */\n      swap2\n      pop\n        /* \"#utility.yul\":9286:9404   */\n      pop\n        /* \"#utility.yul\":9235:9404   */\n      swap3\n      swap2\n      pop\n      pop\n      jump\t// out\n        /* \"#utility.yul\":9409:9704   */\n    tag_96:\n        /* \"#utility.yul\":9485:9489   */\n      0x00\n        /* \"#utility.yul\":9631:9660   */\n      tag_213\n        /* \"#utility.yul\":9656:9659   */\n      dup4\n        /* \"#utility.yul\":9650:9654   */\n      dup4\n        /* \"#utility.yul\":9631:9660   */\n      tag_95\n      jump\t// in\n    tag_213:\n        /* \"#utility.yul\":9623:9660   */\n      swap2\n      pop\n        /* \"#utility.yul\":9693:9696   */\n      dup3\n        /* \"#utility.yul\":9690:9691   */\n      0x02\n        /* \"#utility.yul\":9686:9697   */\n      mul\n        /* \"#utility.yul\":9680:9684   */\n      dup3\n        /* \"#utility.yul\":9677:9698   */\n      or\n        /* \"#utility.yul\":9669:9698   */\n      swap1\n      pop\n        /* \"#utility.yul\":9409:9704   */\n      swap3\n      swap2\n      pop\n      pop\n      jump\t// out\n        /* \"#utility.yul\":9709:11104   */\n    tag_51:\n        /* \"#utility.yul\":9826:9863   */\n      tag_215\n        /* \"#utility.yul\":9859:9862   */\n      dup3\n        /* \"#utility.yul\":9826:9863   */\n      tag_56\n      jump\t// in\n    tag_215:\n        /* \"#utility.yul\":9928:9946   */\n      0xffffffffffffffff\n        /* \"#utility.yul\":9920:9926   */\n      dup2\n        /* \"#utility.yul\":9917:9947   */\n      gt\n        /* \"#utility.yul\":9914:9970   */\n      iszero\n      tag_216\n      jumpi\n        /* \"#utility.yul\":9950:9968   */\n      tag_217\n      tag_72\n      jump\t// in\n    tag_217:\n        /* \"#utility.yul\":9914:9970   */\n    tag_216:\n        /* \"#utility.yul\":9994:10032   */\n      tag_218\n        /* \"#utility.yul\":10026:10030   */\n      dup3\n        /* \"#utility.yul\":10020:10031   */\n      sload\n        /* \"#utility.yul\":9994:10032   */\n      tag_38\n      jump\t// in\n    tag_218:\n        /* \"#utility.yul\":10079:10146   */\n      tag_219\n        /* \"#utility.yul\":10139:10145   */\n      dup3\n        /* \"#utility.yul\":10131:10137   */\n      dup3\n        /* \"#utility.yul\":10125:10129   */\n      dup6\n        /* \"#utility.yul\":10079:10146   */\n      tag_93\n      jump\t// in\n    tag_219:\n        /* \"#utility.yul\":10173:10174   */\n      0x00\n        /* \"#utility.yul\":10197:10201   */\n      0x20\n        /* \"#utility.yul\":10184:10201   */\n      swap1\n      pop\n        /* \"#utility.yul\":10229:10231   */\n      0x1f\n        /* \"#utility.yul\":10221:10227   */\n      dup4\n        /* \"#utility.yul\":10218:10232   */\n      gt\n        /* \"#utility.yul\":10246:10247   */\n      0x01\n        /* \"#utility.yul\":10241:10859   */\n      dup2\n      eq\n      tag_221\n      jumpi\n        /* \"#utility.yul\":10903:10904   */\n      0x00\n        /* \"#utility.yul\":10920:10926   */\n      dup5\n        /* \"#utility.yul\":10917:10994   */\n      iszero\n      tag_222\n      jumpi\n        /* \"#utility.yul\":10969:10978   */\n      dup3\n        /* \"#utility.yul\":10964:10967   */\n      dup8\n        /* \"#utility.yul\":10960:10979   */\n      add\n        /* \"#utility.yul\":10954:10980   */\n      mload\n        /* \"#utility.yul\":10945:10980   */\n      swap1\n      pop\n        /* \"#utility.yul\":10917:10994   */\n    tag_222:\n        /* \"#utility.yul\":11020:11087   */\n      tag_223\n        /* \"#utility.yul\":11080:11086   */\n      dup6\n        /* \"#utility.yul\":11073:11078   */\n      dup3\n        /* \"#utility.yul\":11020:11087   */\n      tag_96\n      jump\t// in\n    tag_223:\n        /* \"#utility.yul\":11014:11018   */\n      dup7\n        /* \"#utility.yul\":11007:11088   */\n      sstore\n        /* \"#utility.yul\":10876:11098   */\n      pop\n        /* \"#utility.yul\":10211:11098   */\n      jump(tag_220)\n        /* \"#utility.yul\":10241:10859   */\n    tag_221:\n        /* \"#utility.yul\":10293:10297   */\n      0x1f\n        /* \"#utility.yul\":10289:10298   */\n      not\n        /* \"#utility.yul\":10281:10287   */\n      dup5\n        /* \"#utility.yul\":10277:10299   */\n      and\n        /* \"#utility.yul\":10327:10364   */\n      tag_224\n        /* \"#utility.yul\":10359:10363   */\n      dup7\n        /* \"#utility.yul\":10327:10364   */\n      tag_82\n      jump\t// in\n    tag_224:\n        /* \"#utility.yul\":10386:10387   */\n      0x00\n        /* \"#utility.yul\":10400:10608   */\n    tag_225:\n        /* \"#utility.yul\":10414:10421   */\n      dup3\n        /* \"#utility.yul\":10411:10412   */\n      dup2\n        /* \"#utility.yul\":10408:10422   */\n      lt\n        /* \"#utility.yul\":10400:10608   */\n      iszero\n      tag_227\n      jumpi\n        /* \"#utility.yul\":10493:10502   */\n      dup5\n        /* \"#utility.yul\":10488:10491   */\n      dup10\n        /* \"#utility.yul\":10484:10503   */\n      add\n        /* \"#utility.yul\":10478:10504   */\n      mload\n        /* \"#utility.yul\":10470:10476   */\n      dup3\n        /* \"#utility.yul\":10463:10505   */\n      sstore\n        /* \"#utility.yul\":10544:10545   */\n      0x01\n        /* \"#utility.yul\":10536:10542   */\n      dup3\n        /* \"#utility.yul\":10532:10546   */\n      add\n        /* \"#utility.yul\":10522:10546   */\n      swap2\n      pop\n        /* \"#utility.yul\":10591:10593   */\n      0x20\n        /* \"#utility.yul\":10580:10589   */\n      dup6\n        /* \"#utility.yul\":10576:10594   */\n      add\n        /* \"#utility.yul\":10563:10594   */\n      swap5\n      pop\n        /* \"#utility.yul\":10437:10441   */\n      0x20\n        /* \"#utility.yul\":10434:10435   */\n      dup2\n        /* \"#utility.yul\":10430:10442   */\n      add\n        /* \"#utility.yul\":10425:10442   */\n      swap1\n      pop\n        /* \"#utility.yul\":10400:10608   */\n      jump(tag_225)\n    tag_227:\n        /* \"#utility.yul\":10636:10642   */\n      dup7\n        /* \"#utility.yul\":10627:10634   */\n      dup4\n        /* \"#utility.yul\":10624:10643   */\n      lt\n        /* \"#utility.yul\":10621:10800   */\n      iszero\n      tag_228\n      jumpi\n        /* \"#utility.yul\":10694:10703   */\n      dup5\n        /* \"#utility.yul\":10689:10692   */\n      dup10\n        /* \"#utility.yul\":10685:10704   */\n      add\n        /* \"#utility.yul\":10679:10705   */\n      mload\n        /* \"#utility.yul\":10737:10785   */\n      tag_229\n        /* \"#utility.yul\":10779:10783   */\n      0x1f\n        /* \"#utility.yul\":10771:10777   */\n      dup10\n        /* \"#utility.yul\":10767:10784   */\n      and\n        /* \"#utility.yul\":10756:10765   */\n      dup3\n        /* \"#utility.yul\":10737:10785   */\n      tag_95\n      jump\t// in\n    tag_229:\n        /* \"#utility.yul\":10729:10735   */\n      dup4\n        /* \"#utility.yul\":10722:10786   */\n      sstore\n        /* \"#utility.yul\":10644:10800   */\n      pop\n        /* \"#utility.yul\":10621:10800   */\n    tag_228:\n        /* \"#utility.yul\":10846:10847   */\n      0x01\n        /* \"#utility.yul\":10842:10843   */\n      0x02\n        /* \"#utility.yul\":10834:10840   */\n      dup9\n        /* \"#utility.yul\":10830:10844   */\n      mul\n        /* \"#utility.yul\":10826:10848   */\n      add\n        /* \"#utility.yul\":10820:10824   */\n      dup9\n        /* \"#utility.yul\":10813:10849   */\n      sstore\n        /* \"#utility.yul\":10248:10859   */\n      pop\n      pop\n      pop\n        /* \"#utility.yul\":10211:11098   */\n    tag_220:\n      pop\n        /* \"#utility.yul\":9801:11104   */\n      pop\n      pop\n      pop\n        /* \"#utility.yul\":9709:11104   */\n      pop\n      pop\n      jump\t// out\n        /* \"#utility.yul\":11110:11290   */\n    tag_97:\n        /* \"#utility.yul\":11158:11235   */\n      0x4e487b7100000000000000000000000000000000000000000000000000000000\n        /* \"#utility.yul\":11155:11156   */\n      0x00\n        /* \"#utility.yul\":11148:11236   */\n      mstore\n        /* \"#utility.yul\":11255:11259   */\n      0x11\n        /* \"#utility.yul\":11252:11253   */\n      0x04\n        /* \"#utility.yul\":11245:11260   */\n      mstore\n        /* \"#utility.yul\":11279:11283   */\n      0x24\n        /* \"#utility.yul\":11276:11277   */\n      0x00\n        /* \"#utility.yul\":11269:11284   */\n      revert\n        /* \"#utility.yul\":11296:11487   */\n    tag_55:\n        /* \"#utility.yul\":11336:11339   */\n      0x00\n        /* \"#utility.yul\":11355:11375   */\n      tag_232\n        /* \"#utility.yul\":11373:11374   */\n      dup3\n        /* \"#utility.yul\":11355:11375   */\n      tag_68\n      jump\t// in\n    tag_232:\n        /* \"#utility.yul\":11350:11375   */\n      swap2\n      pop\n        /* \"#utility.yul\":11389:11409   */\n      tag_233\n        /* \"#utility.yul\":11407:11408   */\n      dup4\n        /* \"#utility.yul\":11389:11409   */\n      tag_68\n      jump\t// in\n    tag_233:\n        /* \"#utility.yul\":11384:11409   */\n      swap3\n      pop\n        /* \"#utility.yul\":11432:11433   */\n      dup3\n        /* \"#utility.yul\":11429:11430   */\n      dup3\n        /* \"#utility.yul\":11425:11434   */\n      add\n        /* \"#utility.yul\":11418:11434   */\n      swap1\n      pop\n        /* \"#utility.yul\":11453:11456   */\n      dup1\n        /* \"#utility.yul\":11450:11451   */\n      dup3\n        /* \"#utility.yul\":11447:11457   */\n      gt\n        /* \"#utility.yul\":11444:11480   */\n      iszero\n      tag_234\n      jumpi\n        /* \"#utility.yul\":11460:11478   */\n      tag_235\n      tag_97\n      jump\t// in\n    tag_235:\n        /* \"#utility.yul\":11444:11480   */\n    tag_234:\n        /* \"#utility.yul\":11296:11487   */\n      swap3\n      swap2\n      pop\n      pop\n      jump\t// out\n\n    auxdata: 0xa26469706673582212203445988a002309b4745a6aec2a08118a621f81a021cb603e5b5e029131fa6f2564736f6c634300081a0033\n}\n",
				"bytecode": {
					"linkReferences": {},
					"object": "608060405234801561000f575f80fd5b506040518060400160405280600881526020017f6a6572656d6961730000000000000000000000000000000000000000000000008152505f908161005391906102b5565b50600a600181905550600160025f6101000a81548160ff021916908315150217905550610384565b5f81519050919050565b7f4e487b71000000000000000000000000000000000000000000000000000000005f52604160045260245ffd5b7f4e487b71000000000000000000000000000000000000000000000000000000005f52602260045260245ffd5b5f60028204905060018216806100f657607f821691505b602082108103610109576101086100b2565b5b50919050565b5f819050815f5260205f209050919050565b5f6020601f8301049050919050565b5f82821b905092915050565b5f6008830261016b7fffffffffffffffffffffffffffffffffffffffffffffffffffffffffffffffff82610130565b6101758683610130565b95508019841693508086168417925050509392505050565b5f819050919050565b5f819050919050565b5f6101b96101b46101af8461018d565b610196565b61018d565b9050919050565b5f819050919050565b6101d28361019f565b6101e66101de826101c0565b84845461013c565b825550505050565b5f90565b6101fa6101ee565b6102058184846101c9565b505050565b5b818110156102285761021d5f826101f2565b60018101905061020b565b5050565b601f82111561026d5761023e8161010f565b61024784610121565b81016020851015610256578190505b61026a61026285610121565b83018261020a565b50505b505050565b5f82821c905092915050565b5f61028d5f1984600802610272565b1980831691505092915050565b5f6102a5838361027e565b9150826002028217905092915050565b6102be8261007b565b67ffffffffffffffff8111156102d7576102d6610085565b5b6102e182546100df565b6102ec82828561022c565b5f60209050601f83116001811461031d575f841561030b578287015190505b610315858261029a565b86555061037c565b601f19841661032b8661010f565b5f5b828110156103525784890151825560018201915060208501945060208101905061032d565b8683101561036f578489015161036b601f89168261027e565b8355505b6001600288020188555050505b505050505050565b6108c3806103915f395ff3fe608060405234801561000f575f80fd5b506004361061007b575f3560e01c80638208e6f8116100595780638208e6f8146100c5578063967e6e65146100e1578063c47f0027146100ff578063d5dcf1271461011b5761007b565b806306fdde031461007f5780634cd3d3451461009d5780636840f0ae146100bb575b5f80fd5b610087610137565b60405161009491906102b2565b60405180910390f35b6100a56101c2565b6040516100b291906102ec565b60405180910390f35b6100c36101d7565b005b6100df60048036038101906100da9190610340565b6101ec565b005b6100e9610208565b6040516100f69190610383565b60405180910390f35b610119600480360381019061011491906104c8565b610211565b005b61013560048036038101906101309190610539565b610223565b005b5f805461014390610591565b80601f016020809104026020016040519081016040528092919081815260200182805461016f90610591565b80156101ba5780601f10610191576101008083540402835291602001916101ba565b820191905f5260205f20905b81548152906001019060200180831161019d57829003601f168201915b505050505081565b5f60025f9054906101000a900460ff16905090565b6101e4600154600161022d565b600181905550565b8060025f6101000a81548160ff02191690831515021790555050565b5f600154905090565b805f908161021f919061075e565b5050565b8060018190555050565b5f818361023a919061085a565b905092915050565b5f81519050919050565b5f82825260208201905092915050565b8281835e5f83830152505050565b5f601f19601f8301169050919050565b5f61028482610242565b61028e818561024c565b935061029e81856020860161025c565b6102a78161026a565b840191505092915050565b5f6020820190508181035f8301526102ca818461027a565b905092915050565b5f8115159050919050565b6102e6816102d2565b82525050565b5f6020820190506102ff5f8301846102dd565b92915050565b5f604051905090565b5f80fd5b5f80fd5b61031f816102d2565b8114610329575f80fd5b50565b5f8135905061033a81610316565b92915050565b5f602082840312156103555761035461030e565b5b5f6103628482850161032c565b91505092915050565b5f819050919050565b61037d8161036b565b82525050565b5f6020820190506103965f830184610374565b92915050565b5f80fd5b5f80fd5b7f4e487b71000000000000000000000000000000000000000000000000000000005f52604160045260245ffd5b6103da8261026a565b810181811067ffffffffffffffff821117156103f9576103f86103a4565b5b80604052505050565b5f61040b610305565b905061041782826103d1565b919050565b5f67ffffffffffffffff821115610436576104356103a4565b5b61043f8261026a565b9050602081019050919050565b828183375f83830152505050565b5f61046c6104678461041c565b610402565b905082815260208101848484011115610488576104876103a0565b5b61049384828561044c565b509392505050565b5f82601f8301126104af576104ae61039c565b5b81356104bf84826020860161045a565b91505092915050565b5f602082840312156104dd576104dc61030e565b5b5f82013567ffffffffffffffff8111156104fa576104f9610312565b5b6105068482850161049b565b91505092915050565b6105188161036b565b8114610522575f80fd5b50565b5f813590506105338161050f565b92915050565b5f6020828403121561054e5761054d61030e565b5b5f61055b84828501610525565b91505092915050565b7f4e487b71000000000000000000000000000000000000000000000000000000005f52602260045260245ffd5b5f60028204905060018216806105a857607f821691505b6020821081036105bb576105ba610564565b5b50919050565b5f819050815f5260205f209050919050565b5f6020601f8301049050919050565b5f82821b905092915050565b5f6008830261061d7fffffffffffffffffffffffffffffffffffffffffffffffffffffffffffffffff826105e2565b61062786836105e2565b95508019841693508086168417925050509392505050565b5f819050919050565b5f61066261065d6106588461036b565b61063f565b61036b565b9050919050565b5f819050919050565b61067b83610648565b61068f61068782610669565b8484546105ee565b825550505050565b5f90565b6106a3610697565b6106ae818484610672565b505050565b5b818110156106d1576106c65f8261069b565b6001810190506106b4565b5050565b601f821115610716576106e7816105c1565b6106f0846105d3565b810160208510156106ff578190505b61071361070b856105d3565b8301826106b3565b50505b505050565b5f82821c905092915050565b5f6107365f198460080261071b565b1980831691505092915050565b5f61074e8383610727565b9150826002028217905092915050565b61076782610242565b67ffffffffffffffff8111156107805761077f6103a4565b5b61078a8254610591565b6107958282856106d5565b5f60209050601f8311600181146107c6575f84156107b4578287015190505b6107be8582610743565b865550610825565b601f1984166107d4866105c1565b5f5b828110156107fb578489015182556001820191506020850194506020810190506107d6565b868310156108185784890151610814601f891682610727565b8355505b6001600288020188555050505b505050505050565b7f4e487b71000000000000000000000000000000000000000000000000000000005f52601160045260245ffd5b5f6108648261036b565b915061086f8361036b565b92508282019050808211156108875761088661082d565b5b9291505056fea26469706673582212203445988a002309b4745a6aec2a08118a621f81a021cb603e5b5e029131fa6f2564736f6c634300081a0033",
					"opcodes": "PUSH1 0x80 PUSH1 0x40 MSTORE CALLVALUE DUP1 ISZERO PUSH2 0xF JUMPI PUSH0 DUP1 REVERT JUMPDEST POP PUSH1 0x40 MLOAD DUP1 PUSH1 0x40 ADD PUSH1 0x40 MSTORE DUP1 PUSH1 0x8 DUP2 MSTORE PUSH1 0x20 ADD PUSH32 0x6A6572656D696173000000000000000000000000000000000000000000000000 DUP2 MSTORE POP PUSH0 SWAP1 DUP2 PUSH2 0x53 SWAP2 SWAP1 PUSH2 0x2B5 JUMP JUMPDEST POP PUSH1 0xA PUSH1 0x1 DUP2 SWAP1 SSTORE POP PUSH1 0x1 PUSH1 0x2 PUSH0 PUSH2 0x100 EXP DUP2 SLOAD DUP2 PUSH1 0xFF MUL NOT AND SWAP1 DUP4 ISZERO ISZERO MUL OR SWAP1 SSTORE POP PUSH2 0x384 JUMP JUMPDEST PUSH0 DUP2 MLOAD SWAP1 POP SWAP2 SWAP1 POP JUMP JUMPDEST PUSH32 0x4E487B7100000000000000000000000000000000000000000000000000000000 PUSH0 MSTORE PUSH1 0x41 PUSH1 0x4 MSTORE PUSH1 0x24 PUSH0 REVERT JUMPDEST PUSH32 0x4E487B7100000000000000000000000000000000000000000000000000000000 PUSH0 MSTORE PUSH1 0x22 PUSH1 0x4 MSTORE PUSH1 0x24 PUSH0 REVERT JUMPDEST PUSH0 PUSH1 0x2 DUP3 DIV SWAP1 POP PUSH1 0x1 DUP3 AND DUP1 PUSH2 0xF6 JUMPI PUSH1 0x7F DUP3 AND SWAP2 POP JUMPDEST PUSH1 0x20 DUP3 LT DUP2 SUB PUSH2 0x109 JUMPI PUSH2 0x108 PUSH2 0xB2 JUMP JUMPDEST JUMPDEST POP SWAP2 SWAP1 POP JUMP JUMPDEST PUSH0 DUP2 SWAP1 POP DUP2 PUSH0 MSTORE PUSH1 0x20 PUSH0 KECCAK256 SWAP1 POP SWAP2 SWAP1 POP JUMP JUMPDEST PUSH0 PUSH1 0x20 PUSH1 0x1F DUP4 ADD DIV SWAP1 POP SWAP2 SWAP1 POP JUMP JUMPDEST PUSH0 DUP3 DUP3 SHL SWAP1 POP SWAP3 SWAP2 POP POP JUMP JUMPDEST PUSH0 PUSH1 0x8 DUP4 MUL PUSH2 0x16B PUSH32 0xFFFFFFFFFFFFFFFFFFFFFFFFFFFFFFFFFFFFFFFFFFFFFFFFFFFFFFFFFFFFFFFF DUP3 PUSH2 0x130 JUMP JUMPDEST PUSH2 0x175 DUP7 DUP4 PUSH2 0x130 JUMP JUMPDEST SWAP6 POP DUP1 NOT DUP5 AND SWAP4 POP DUP1 DUP7 AND DUP5 OR SWAP3 POP POP POP SWAP4 SWAP3 POP POP POP JUMP JUMPDEST PUSH0 DUP2 SWAP1 POP SWAP2 SWAP1 POP JUMP JUMPDEST PUSH0 DUP2 SWAP1 POP SWAP2 SWAP1 POP JUMP JUMPDEST PUSH0 PUSH2 0x1B9 PUSH2 0x1B4 PUSH2 0x1AF DUP5 PUSH2 0x18D JUMP JUMPDEST PUSH2 0x196 JUMP JUMPDEST PUSH2 0x18D JUMP JUMPDEST SWAP1 POP SWAP2 SWAP1 POP JUMP JUMPDEST PUSH0 DUP2 SWAP1 POP SWAP2 SWAP1 POP JUMP JUMPDEST PUSH2 0x1D2 DUP4 PUSH2 0x19F JUMP JUMPDEST PUSH2 0x1E6 PUSH2 0x1DE DUP3 PUSH2 0x1C0 JUMP JUMPDEST DUP5 DUP5 SLOAD PUSH2 0x13C JUMP JUMPDEST DUP3 SSTORE POP POP POP POP JUMP JUMPDEST PUSH0 SWAP1 JUMP JUMPDEST PUSH2 0x1FA PUSH2 0x1EE JUMP JUMPDEST PUSH2 0x205 DUP2 DUP5 DUP5 PUSH2 0x1C9 JUMP JUMPDEST POP POP POP JUMP JUMPDEST JUMPDEST DUP2 DUP2 LT ISZERO PUSH2 0x228 JUMPI PUSH2 0x21D PUSH0 DUP3 PUSH2 0x1F2 JUMP JUMPDEST PUSH1 0x1 DUP2 ADD SWAP1 POP PUSH2 0x20B JUMP JUMPDEST POP POP JUMP JUMPDEST PUSH1 0x1F DUP3 GT ISZERO PUSH2 0x26D JUMPI PUSH2 0x23E DUP2 PUSH2 0x10F JUMP JUMPDEST PUSH2 0x247 DUP5 PUSH2 0x121 JUMP JUMPDEST DUP2 ADD PUSH1 0x20 DUP6 LT ISZERO PUSH2 0x256 JUMPI DUP2 SWAP1 POP JUMPDEST PUSH2 0x26A PUSH2 0x262 DUP6 PUSH2 0x121 JUMP JUMPDEST DUP4 ADD DUP3 PUSH2 0x20A JUMP JUMPDEST POP POP JUMPDEST POP POP POP JUMP JUMPDEST PUSH0 DUP3 DUP3 SHR SWAP1 POP SWAP3 SWAP2 POP POP JUMP JUMPDEST PUSH0 PUSH2 0x28D PUSH0 NOT DUP5 PUSH1 0x8 MUL PUSH2 0x272 JUMP JUMPDEST NOT DUP1 DUP4 AND SWAP2 POP POP SWAP3 SWAP2 POP POP JUMP JUMPDEST PUSH0 PUSH2 0x2A5 DUP4 DUP4 PUSH2 0x27E JUMP JUMPDEST SWAP2 POP DUP3 PUSH1 0x2 MUL DUP3 OR SWAP1 POP SWAP3 SWAP2 POP POP JUMP JUMPDEST PUSH2 0x2BE DUP3 PUSH2 0x7B JUMP JUMPDEST PUSH8 0xFFFFFFFFFFFFFFFF DUP2 GT ISZERO PUSH2 0x2D7 JUMPI PUSH2 0x2D6 PUSH2 0x85 JUMP JUMPDEST JUMPDEST PUSH2 0x2E1 DUP3 SLOAD PUSH2 0xDF JUMP JUMPDEST PUSH2 0x2EC DUP3 DUP3 DUP6 PUSH2 0x22C JUMP JUMPDEST PUSH0 PUSH1 0x20 SWAP1 POP PUSH1 0x1F DUP4 GT PUSH1 0x1 DUP2 EQ PUSH2 0x31D JUMPI PUSH0 DUP5 ISZERO PUSH2 0x30B JUMPI DUP3 DUP8 ADD MLOAD SWAP1 POP JUMPDEST PUSH2 0x315 DUP6 DUP3 PUSH2 0x29A JUMP JUMPDEST DUP7 SSTORE POP PUSH2 0x37C JUMP JUMPDEST PUSH1 0x1F NOT DUP5 AND PUSH2 0x32B DUP7 PUSH2 0x10F JUMP JUMPDEST PUSH0 JUMPDEST DUP3 DUP2 LT ISZERO PUSH2 0x352 JUMPI DUP5 DUP10 ADD MLOAD DUP3 SSTORE PUSH1 0x1 DUP3 ADD SWAP2 POP PUSH1 0x20 DUP6 ADD SWAP5 POP PUSH1 0x20 DUP2 ADD SWAP1 POP PUSH2 0x32D JUMP JUMPDEST DUP7 DUP4 LT ISZERO PUSH2 0x36F JUMPI DUP5 DUP10 ADD MLOAD PUSH2 0x36B PUSH1 0x1F DUP10 AND DUP3 PUSH2 0x27E JUMP JUMPDEST DUP4 SSTORE POP JUMPDEST PUSH1 0x1 PUSH1 0x2 DUP9 MUL ADD DUP9 SSTORE POP POP POP JUMPDEST POP POP POP POP POP POP JUMP JUMPDEST PUSH2 0x8C3 DUP1 PUSH2 0x391 PUSH0 CODECOPY PUSH0 RETURN INVALID PUSH1 0x80 PUSH1 0x40 MSTORE CALLVALUE DUP1 ISZERO PUSH2 0xF JUMPI PUSH0 DUP1 REVERT JUMPDEST POP PUSH1 0x4 CALLDATASIZE LT PUSH2 0x7B JUMPI PUSH0 CALLDATALOAD PUSH1 0xE0 SHR DUP1 PUSH4 0x8208E6F8 GT PUSH2 0x59 JUMPI DUP1 PUSH4 0x8208E6F8 EQ PUSH2 0xC5 JUMPI DUP1 PUSH4 0x967E6E65 EQ PUSH2 0xE1 JUMPI DUP1 PUSH4 0xC47F0027 EQ PUSH2 0xFF JUMPI DUP1 PUSH4 0xD5DCF127 EQ PUSH2 0x11B JUMPI PUSH2 0x7B JUMP JUMPDEST DUP1 PUSH4 0x6FDDE03 EQ PUSH2 0x7F JUMPI DUP1 PUSH4 0x4CD3D345 EQ PUSH2 0x9D JUMPI DUP1 PUSH4 0x6840F0AE EQ PUSH2 0xBB JUMPI JUMPDEST PUSH0 DUP1 REVERT JUMPDEST PUSH2 0x87 PUSH2 0x137 JUMP JUMPDEST PUSH1 0x40 MLOAD PUSH2 0x94 SWAP2 SWAP1 PUSH2 0x2B2 JUMP JUMPDEST PUSH1 0x40 MLOAD DUP1 SWAP2 SUB SWAP1 RETURN JUMPDEST PUSH2 0xA5 PUSH2 0x1C2 JUMP JUMPDEST PUSH1 0x40 MLOAD PUSH2 0xB2 SWAP2 SWAP1 PUSH2 0x2EC JUMP JUMPDEST PUSH1 0x40 MLOAD DUP1 SWAP2 SUB SWAP1 RETURN JUMPDEST PUSH2 0xC3 PUSH2 0x1D7 JUMP JUMPDEST STOP JUMPDEST PUSH2 0xDF PUSH1 0x4 DUP1 CALLDATASIZE SUB DUP2 ADD SWAP1 PUSH2 0xDA SWAP2 SWAP1 PUSH2 0x340 JUMP JUMPDEST PUSH2 0x1EC JUMP JUMPDEST STOP JUMPDEST PUSH2 0xE9 PUSH2 0x208 JUMP JUMPDEST PUSH1 0x40 MLOAD PUSH2 0xF6 SWAP2 SWAP1 PUSH2 0x383 JUMP JUMPDEST PUSH1 0x40 MLOAD DUP1 SWAP2 SUB SWAP1 RETURN JUMPDEST PUSH2 0x119 PUSH1 0x4 DUP1 CALLDATASIZE SUB DUP2 ADD SWAP1 PUSH2 0x114 SWAP2 SWAP1 PUSH2 0x4C8 JUMP JUMPDEST PUSH2 0x211 JUMP JUMPDEST STOP JUMPDEST PUSH2 0x135 PUSH1 0x4 DUP1 CALLDATASIZE SUB DUP2 ADD SWAP1 PUSH2 0x130 SWAP2 SWAP1 PUSH2 0x539 JUMP JUMPDEST PUSH2 0x223 JUMP JUMPDEST STOP JUMPDEST PUSH0 DUP1 SLOAD PUSH2 0x143 SWAP1 PUSH2 0x591 JUMP JUMPDEST DUP1 PUSH1 0x1F ADD PUSH1 0x20 DUP1 SWAP2 DIV MUL PUSH1 0x20 ADD PUSH1 0x40 MLOAD SWAP1 DUP2 ADD PUSH1 0x40 MSTORE DUP1 SWAP3 SWAP2 SWAP1 DUP2 DUP2 MSTORE PUSH1 0x20 ADD DUP3 DUP1 SLOAD PUSH2 0x16F SWAP1 PUSH2 0x591 JUMP JUMPDEST DUP1 ISZERO PUSH2 0x1BA JUMPI DUP1 PUSH1 0x1F LT PUSH2 0x191 JUMPI PUSH2 0x100 DUP1 DUP4 SLOAD DIV MUL DUP4 MSTORE SWAP2 PUSH1 0x20 ADD SWAP2 PUSH2 0x1BA JUMP JUMPDEST DUP3 ADD SWAP2 SWAP1 PUSH0 MSTORE PUSH1 0x20 PUSH0 KECCAK256 SWAP1 JUMPDEST DUP2 SLOAD DUP2 MSTORE SWAP1 PUSH1 0x1 ADD SWAP1 PUSH1 0x20 ADD DUP1 DUP4 GT PUSH2 0x19D JUMPI DUP3 SWAP1 SUB PUSH1 0x1F AND DUP3 ADD SWAP2 JUMPDEST POP POP POP POP POP DUP2 JUMP JUMPDEST PUSH0 PUSH1 0x2 PUSH0 SWAP1 SLOAD SWAP1 PUSH2 0x100 EXP SWAP1 DIV PUSH1 0xFF AND SWAP1 POP SWAP1 JUMP JUMPDEST PUSH2 0x1E4 PUSH1 0x1 SLOAD PUSH1 0x1 PUSH2 0x22D JUMP JUMPDEST PUSH1 0x1 DUP2 SWAP1 SSTORE POP JUMP JUMPDEST DUP1 PUSH1 0x2 PUSH0 PUSH2 0x100 EXP DUP2 SLOAD DUP2 PUSH1 0xFF MUL NOT AND SWAP1 DUP4 ISZERO ISZERO MUL OR SWAP1 SSTORE POP POP JUMP JUMPDEST PUSH0 PUSH1 0x1 SLOAD SWAP1 POP SWAP1 JUMP JUMPDEST DUP1 PUSH0 SWAP1 DUP2 PUSH2 0x21F SWAP2 SWAP1 PUSH2 0x75E JUMP JUMPDEST POP POP JUMP JUMPDEST DUP1 PUSH1 0x1 DUP2 SWAP1 SSTORE POP POP JUMP JUMPDEST PUSH0 DUP2 DUP4 PUSH2 0x23A SWAP2 SWAP1 PUSH2 0x85A JUMP JUMPDEST SWAP1 POP SWAP3 SWAP2 POP POP JUMP JUMPDEST PUSH0 DUP2 MLOAD SWAP1 POP SWAP2 SWAP1 POP JUMP JUMPDEST PUSH0 DUP3 DUP3 MSTORE PUSH1 0x20 DUP3 ADD SWAP1 POP SWAP3 SWAP2 POP POP JUMP JUMPDEST DUP3 DUP2 DUP4 MCOPY PUSH0 DUP4 DUP4 ADD MSTORE POP POP POP JUMP JUMPDEST PUSH0 PUSH1 0x1F NOT PUSH1 0x1F DUP4 ADD AND SWAP1 POP SWAP2 SWAP1 POP JUMP JUMPDEST PUSH0 PUSH2 0x284 DUP3 PUSH2 0x242 JUMP JUMPDEST PUSH2 0x28E DUP2 DUP6 PUSH2 0x24C JUMP JUMPDEST SWAP4 POP PUSH2 0x29E DUP2 DUP6 PUSH1 0x20 DUP7 ADD PUSH2 0x25C JUMP JUMPDEST PUSH2 0x2A7 DUP2 PUSH2 0x26A JUMP JUMPDEST DUP5 ADD SWAP2 POP POP SWAP3 SWAP2 POP POP JUMP JUMPDEST PUSH0 PUSH1 0x20 DUP3 ADD SWAP1 POP DUP2 DUP2 SUB PUSH0 DUP4 ADD MSTORE PUSH2 0x2CA DUP2 DUP5 PUSH2 0x27A JUMP JUMPDEST SWAP1 POP SWAP3 SWAP2 POP POP JUMP JUMPDEST PUSH0 DUP2 ISZERO ISZERO SWAP1 POP SWAP2 SWAP1 POP JUMP JUMPDEST PUSH2 0x2E6 DUP2 PUSH2 0x2D2 JUMP JUMPDEST DUP3 MSTORE POP POP JUMP JUMPDEST PUSH0 PUSH1 0x20 DUP3 ADD SWAP1 POP PUSH2 0x2FF PUSH0 DUP4 ADD DUP5 PUSH2 0x2DD JUMP JUMPDEST SWAP3 SWAP2 POP POP JUMP JUMPDEST PUSH0 PUSH1 0x40 MLOAD SWAP1 POP SWAP1 JUMP JUMPDEST PUSH0 DUP1 REVERT JUMPDEST PUSH0 DUP1 REVERT JUMPDEST PUSH2 0x31F DUP2 PUSH2 0x2D2 JUMP JUMPDEST DUP2 EQ PUSH2 0x329 JUMPI PUSH0 DUP1 REVERT JUMPDEST POP JUMP JUMPDEST PUSH0 DUP2 CALLDATALOAD SWAP1 POP PUSH2 0x33A DUP2 PUSH2 0x316 JUMP JUMPDEST SWAP3 SWAP2 POP POP JUMP JUMPDEST PUSH0 PUSH1 0x20 DUP3 DUP5 SUB SLT ISZERO PUSH2 0x355 JUMPI PUSH2 0x354 PUSH2 0x30E JUMP JUMPDEST JUMPDEST PUSH0 PUSH2 0x362 DUP5 DUP3 DUP6 ADD PUSH2 0x32C JUMP JUMPDEST SWAP2 POP POP SWAP3 SWAP2 POP POP JUMP JUMPDEST PUSH0 DUP2 SWAP1 POP SWAP2 SWAP1 POP JUMP JUMPDEST PUSH2 0x37D DUP2 PUSH2 0x36B JUMP JUMPDEST DUP3 MSTORE POP POP JUMP JUMPDEST PUSH0 PUSH1 0x20 DUP3 ADD SWAP1 POP PUSH2 0x396 PUSH0 DUP4 ADD DUP5 PUSH2 0x374 JUMP JUMPDEST SWAP3 SWAP2 POP POP JUMP JUMPDEST PUSH0 DUP1 REVERT JUMPDEST PUSH0 DUP1 REVERT JUMPDEST PUSH32 0x4E487B7100000000000000000000000000000000000000000000000000000000 PUSH0 MSTORE PUSH1 0x41 PUSH1 0x4 MSTORE PUSH1 0x24 PUSH0 REVERT JUMPDEST PUSH2 0x3DA DUP3 PUSH2 0x26A JUMP JUMPDEST DUP2 ADD DUP2 DUP2 LT PUSH8 0xFFFFFFFFFFFFFFFF DUP3 GT OR ISZERO PUSH2 0x3F9 JUMPI PUSH2 0x3F8 PUSH2 0x3A4 JUMP JUMPDEST JUMPDEST DUP1 PUSH1 0x40 MSTORE POP POP POP JUMP JUMPDEST PUSH0 PUSH2 0x40B PUSH2 0x305 JUMP JUMPDEST SWAP1 POP PUSH2 0x417 DUP3 DUP3 PUSH2 0x3D1 JUMP JUMPDEST SWAP2 SWAP1 POP JUMP JUMPDEST PUSH0 PUSH8 0xFFFFFFFFFFFFFFFF DUP3 GT ISZERO PUSH2 0x436 JUMPI PUSH2 0x435 PUSH2 0x3A4 JUMP JUMPDEST JUMPDEST PUSH2 0x43F DUP3 PUSH2 0x26A JUMP JUMPDEST SWAP1 POP PUSH1 0x20 DUP2 ADD SWAP1 POP SWAP2 SWAP1 POP JUMP JUMPDEST DUP3 DUP2 DUP4 CALLDATACOPY PUSH0 DUP4 DUP4 ADD MSTORE POP POP POP JUMP JUMPDEST PUSH0 PUSH2 0x46C PUSH2 0x467 DUP5 PUSH2 0x41C JUMP JUMPDEST PUSH2 0x402 JUMP JUMPDEST SWAP1 POP DUP3 DUP2 MSTORE PUSH1 0x20 DUP2 ADD DUP5 DUP5 DUP5 ADD GT ISZERO PUSH2 0x488 JUMPI PUSH2 0x487 PUSH2 0x3A0 JUMP JUMPDEST JUMPDEST PUSH2 0x493 DUP5 DUP3 DUP6 PUSH2 0x44C JUMP JUMPDEST POP SWAP4 SWAP3 POP POP POP JUMP JUMPDEST PUSH0 DUP3 PUSH1 0x1F DUP4 ADD SLT PUSH2 0x4AF JUMPI PUSH2 0x4AE PUSH2 0x39C JUMP JUMPDEST JUMPDEST DUP2 CALLDATALOAD PUSH2 0x4BF DUP5 DUP3 PUSH1 0x20 DUP7 ADD PUSH2 0x45A JUMP JUMPDEST SWAP2 POP POP SWAP3 SWAP2 POP POP JUMP JUMPDEST PUSH0 PUSH1 0x20 DUP3 DUP5 SUB SLT ISZERO PUSH2 0x4DD JUMPI PUSH2 0x4DC PUSH2 0x30E JUMP JUMPDEST JUMPDEST PUSH0 DUP3 ADD CALLDATALOAD PUSH8 0xFFFFFFFFFFFFFFFF DUP2 GT ISZERO PUSH2 0x4FA JUMPI PUSH2 0x4F9 PUSH2 0x312 JUMP JUMPDEST JUMPDEST PUSH2 0x506 DUP5 DUP3 DUP6 ADD PUSH2 0x49B JUMP JUMPDEST SWAP2 POP POP SWAP3 SWAP2 POP POP JUMP JUMPDEST PUSH2 0x518 DUP2 PUSH2 0x36B JUMP JUMPDEST DUP2 EQ PUSH2 0x522 JUMPI PUSH0 DUP1 REVERT JUMPDEST POP JUMP JUMPDEST PUSH0 DUP2 CALLDATALOAD SWAP1 POP PUSH2 0x533 DUP2 PUSH2 0x50F JUMP JUMPDEST SWAP3 SWAP2 POP POP JUMP JUMPDEST PUSH0 PUSH1 0x20 DUP3 DUP5 SUB SLT ISZERO PUSH2 0x54E JUMPI PUSH2 0x54D PUSH2 0x30E JUMP JUMPDEST JUMPDEST PUSH0 PUSH2 0x55B DUP5 DUP3 DUP6 ADD PUSH2 0x525 JUMP JUMPDEST SWAP2 POP POP SWAP3 SWAP2 POP POP JUMP JUMPDEST PUSH32 0x4E487B7100000000000000000000000000000000000000000000000000000000 PUSH0 MSTORE PUSH1 0x22 PUSH1 0x4 MSTORE PUSH1 0x24 PUSH0 REVERT JUMPDEST PUSH0 PUSH1 0x2 DUP3 DIV SWAP1 POP PUSH1 0x1 DUP3 AND DUP1 PUSH2 0x5A8 JUMPI PUSH1 0x7F DUP3 AND SWAP2 POP JUMPDEST PUSH1 0x20 DUP3 LT DUP2 SUB PUSH2 0x5BB JUMPI PUSH2 0x5BA PUSH2 0x564 JUMP JUMPDEST JUMPDEST POP SWAP2 SWAP1 POP JUMP JUMPDEST PUSH0 DUP2 SWAP1 POP DUP2 PUSH0 MSTORE PUSH1 0x20 PUSH0 KECCAK256 SWAP1 POP SWAP2 SWAP1 POP JUMP JUMPDEST PUSH0 PUSH1 0x20 PUSH1 0x1F DUP4 ADD DIV SWAP1 POP SWAP2 SWAP1 POP JUMP JUMPDEST PUSH0 DUP3 DUP3 SHL SWAP1 POP SWAP3 SWAP2 POP POP JUMP JUMPDEST PUSH0 PUSH1 0x8 DUP4 MUL PUSH2 0x61D PUSH32 0xFFFFFFFFFFFFFFFFFFFFFFFFFFFFFFFFFFFFFFFFFFFFFFFFFFFFFFFFFFFFFFFF DUP3 PUSH2 0x5E2 JUMP JUMPDEST PUSH2 0x627 DUP7 DUP4 PUSH2 0x5E2 JUMP JUMPDEST SWAP6 POP DUP1 NOT DUP5 AND SWAP4 POP DUP1 DUP7 AND DUP5 OR SWAP3 POP POP POP SWAP4 SWAP3 POP POP POP JUMP JUMPDEST PUSH0 DUP2 SWAP1 POP SWAP2 SWAP1 POP JUMP JUMPDEST PUSH0 PUSH2 0x662 PUSH2 0x65D PUSH2 0x658 DUP5 PUSH2 0x36B JUMP JUMPDEST PUSH2 0x63F JUMP JUMPDEST PUSH2 0x36B JUMP JUMPDEST SWAP1 POP SWAP2 SWAP1 POP JUMP JUMPDEST PUSH0 DUP2 SWAP1 POP SWAP2 SWAP1 POP JUMP JUMPDEST PUSH2 0x67B DUP4 PUSH2 0x648 JUMP JUMPDEST PUSH2 0x68F PUSH2 0x687 DUP3 PUSH2 0x669 JUMP JUMPDEST DUP5 DUP5 SLOAD PUSH2 0x5EE JUMP JUMPDEST DUP3 SSTORE POP POP POP POP JUMP JUMPDEST PUSH0 SWAP1 JUMP JUMPDEST PUSH2 0x6A3 PUSH2 0x697 JUMP JUMPDEST PUSH2 0x6AE DUP2 DUP5 DUP5 PUSH2 0x672 JUMP JUMPDEST POP POP POP JUMP JUMPDEST JUMPDEST DUP2 DUP2 LT ISZERO PUSH2 0x6D1 JUMPI PUSH2 0x6C6 PUSH0 DUP3 PUSH2 0x69B JUMP JUMPDEST PUSH1 0x1 DUP2 ADD SWAP1 POP PUSH2 0x6B4 JUMP JUMPDEST POP POP JUMP JUMPDEST PUSH1 0x1F DUP3 GT ISZERO PUSH2 0x716 JUMPI PUSH2 0x6E7 DUP2 PUSH2 0x5C1 JUMP JUMPDEST PUSH2 0x6F0 DUP5 PUSH2 0x5D3 JUMP JUMPDEST DUP2 ADD PUSH1 0x20 DUP6 LT ISZERO PUSH2 0x6FF JUMPI DUP2 SWAP1 POP JUMPDEST PUSH2 0x713 PUSH2 0x70B DUP6 PUSH2 0x5D3 JUMP JUMPDEST DUP4 ADD DUP3 PUSH2 0x6B3 JUMP JUMPDEST POP POP JUMPDEST POP POP POP JUMP JUMPDEST PUSH0 DUP3 DUP3 SHR SWAP1 POP SWAP3 SWAP2 POP POP JUMP JUMPDEST PUSH0 PUSH2 0x736 PUSH0 NOT DUP5 PUSH1 0x8 MUL PUSH2 0x71B JUMP JUMPDEST NOT DUP1 DUP4 AND SWAP2 POP POP SWAP3 SWAP2 POP POP JUMP JUMPDEST PUSH0 PUSH2 0x74E DUP4 DUP4 PUSH2 0x727 JUMP JUMPDEST SWAP2 POP DUP3 PUSH1 0x2 MUL DUP3 OR SWAP1 POP SWAP3 SWAP2 POP POP JUMP JUMPDEST PUSH2 0x767 DUP3 PUSH2 0x242 JUMP JUMPDEST PUSH8 0xFFFFFFFFFFFFFFFF DUP2 GT ISZERO PUSH2 0x780 JUMPI PUSH2 0x77F PUSH2 0x3A4 JUMP JUMPDEST JUMPDEST PUSH2 0x78A DUP3 SLOAD PUSH2 0x591 JUMP JUMPDEST PUSH2 0x795 DUP3 DUP3 DUP6 PUSH2 0x6D5 JUMP JUMPDEST PUSH0 PUSH1 0x20 SWAP1 POP PUSH1 0x1F DUP4 GT PUSH1 0x1 DUP2 EQ PUSH2 0x7C6 JUMPI PUSH0 DUP5 ISZERO PUSH2 0x7B4 JUMPI DUP3 DUP8 ADD MLOAD SWAP1 POP JUMPDEST PUSH2 0x7BE DUP6 DUP3 PUSH2 0x743 JUMP JUMPDEST DUP7 SSTORE POP PUSH2 0x825 JUMP JUMPDEST PUSH1 0x1F NOT DUP5 AND PUSH2 0x7D4 DUP7 PUSH2 0x5C1 JUMP JUMPDEST PUSH0 JUMPDEST DUP3 DUP2 LT ISZERO PUSH2 0x7FB JUMPI DUP5 DUP10 ADD MLOAD DUP3 SSTORE PUSH1 0x1 DUP3 ADD SWAP2 POP PUSH1 0x20 DUP6 ADD SWAP5 POP PUSH1 0x20 DUP2 ADD SWAP1 POP PUSH2 0x7D6 JUMP JUMPDEST DUP7 DUP4 LT ISZERO PUSH2 0x818 JUMPI DUP5 DUP10 ADD MLOAD PUSH2 0x814 PUSH1 0x1F DUP10 AND DUP3 PUSH2 0x727 JUMP JUMPDEST DUP4 SSTORE POP JUMPDEST PUSH1 0x1 PUSH1 0x2 DUP9 MUL ADD DUP9 SSTORE POP POP POP JUMPDEST POP POP POP POP POP POP JUMP JUMPDEST PUSH32 0x4E487B7100000000000000000000000000000000000000000000000000000000 PUSH0 MSTORE PUSH1 0x11 PUSH1 0x4 MSTORE PUSH1 0x24 PUSH0 REVERT JUMPDEST PUSH0 PUSH2 0x864 DUP3 PUSH2 0x36B JUMP JUMPDEST SWAP2 POP PUSH2 0x86F DUP4 PUSH2 0x36B JUMP JUMPDEST SWAP3 POP DUP3 DUP3 ADD SWAP1 POP DUP1 DUP3 GT ISZERO PUSH2 0x887 JUMPI PUSH2 0x886 PUSH2 0x82D JUMP JUMPDEST JUMPDEST SWAP3 SWAP2 POP POP JUMP INVALID LOG2 PUSH5 0x6970667358 0x22 SLT KECCAK256 CALLVALUE GASLIMIT SWAP9 DUP11 STOP 0x23 MULMOD 0xB4 PUSH21 0x5A6AEC2A08118A621F81A021CB603E5B5E029131FA PUSH16 0x2564736F6C634300081A003300000000 "
				},
				"gasEstimates": {
					"creation": {
						"codeDepositCost": "448600",
						"executionCost": "infinite",
						"totalCost": "infinite"
					},
					"external": {
						"getAge()": "2454",
						"getBrasilian()": "2496",
						"incrementAge()": "infinite",
						"name()": "infinite",
						"setAge(uint256)": "22581",
						"setBrazilian(bool)": "24673",
						"setName(string)": "infinite"
					},
					"internal": {
						"addValues(uint256,uint256)": "infinite"
					}
				},
				"methodIdentifiers": {
					"getAge()": "967e6e65",
					"getBrasilian()": "4cd3d345",
					"incrementAge()": "6840f0ae",
					"name()": "06fdde03",
					"setAge(uint256)": "d5dcf127",
					"setBrazilian(bool)": "8208e6f8",
					"setName(string)": "c47f0027"
				}
			},
			"storageLayout": {
				"storage": [
					{
						"astId": 3,
						"contract": "contracts/PersonDataStorgev1.sol:PersonDataStoragV1",
						"label": "name",
						"offset": 0,
						"slot": "0",
						"type": "t_string_storage"
					},
					{
						"astId": 5,
						"contract": "contracts/PersonDataStorgev1.sol:PersonDataStoragV1",
						"label": "age",
						"offset": 0,
						"slot": "1",
						"type": "t_uint256"
					},
					{
						"astId": 7,
						"contract": "contracts/PersonDataStorgev1.sol:PersonDataStoragV1",
						"label": "brazilian",
						"offset": 0,
						"slot": "2",
						"type": "t_bool"
					}
				],
				"types": {
					"t_bool": {
						"encoding": "inplace",
						"label": "bool",
						"numberOfBytes": "1"
					},
					"t_string_storage": {
						"encoding": "bytes",
						"label": "string",
						"numberOfBytes": "32"
					},
					"t_uint256": {
						"encoding": "inplace",
						"label": "uint256",
						"numberOfBytes": "32"
					}
				}
			},
			"userdoc": {
				"kind": "user",
				"methods": {},
				"version": 1
			}
		}
	}
}