{
	"contracts/PersonDataStorgev1.sol": {
		"PersonDataStoragV1": {
			"abi": [
				{
					"inputs": [],
					"stateMutability": "nonpayable",
					"type": "constructor"
				},
				{
					"inputs": [],
					"name": "getAge",
					"outputs": [
						{
							"internalType": "uint256",
							"name": "",
							"type": "uint256"
						}
					],
					"stateMutability": "view",
					"type": "function"
				},
				{
					"inputs": [],
					"name": "getBrasilian",
					"outputs": [
						{
							"internalType": "bool",
							"name": "",
							"type": "bool"
						}
					],
					"stateMutability": "view",
					"type": "function"
				},
				{
					"inputs": [],
					"name": "incrementAge",
					"outputs": [],
					"stateMutability": "nonpayable",
					"type": "function"
				},
				{
					"inputs": [],
					"name": "name",
					"outputs": [
						{
							"internalType": "string",
							"name": "",
							"type": "string"
						}
					],
					"stateMutability": "view",
					"type": "function"
				},
				{
					"inputs": [
						{
							"internalType": "uint256",
							"name": "_age",
							"type": "uint256"
						}
					],
					"name": "setAge",
					"outputs": [],
					"stateMutability": "nonpayable",
					"type": "function"
				},
				{
					"inputs": [
						{
							"internalType": "bool",
							"name": "_brazilian",
							"type": "bool"
						}
					],
					"name": "setBrazilian",
					"outputs": [],
					"stateMutability": "nonpayable",
					"type": "function"
				},
				{
					"inputs": [
						{
							"internalType": "string",
							"name": "_name",
							"type": "string"
						}
					],
					"name": "setName",
					"outputs": [],
					"stateMutability": "nonpayable",
					"type": "function"
				}
			],
			"devdoc": {
				"kind": "dev",
				"methods": {},
				"version": 1
			},
			"evm": {
				"assembly": "    /* \"contracts/PersonDataStorgev1.sol\":57:857  contract PersonDataStoragV1 {... */\n  mstore(0x40, 0x80)\n    /* \"contracts/PersonDataStorgev1.sol\":173:262  constructor(){... */\n  callvalue\n  dup1\n  iszero\n  tag_1\n  jumpi\n  0x00\n  dup1\n  revert\ntag_1:\n  pop\n    /* \"contracts/PersonDataStorgev1.sol\":196:213  name = \"jeremias\" */\n  mload(0x40)\n  dup1\n  0x40\n  add\n  0x40\n  mstore\n  dup1\n  0x08\n  dup2\n  mstore\n  0x20\n  add\n  0x6a6572656d696173000000000000000000000000000000000000000000000000\n  dup2\n  mstore\n  pop\n    /* \"contracts/PersonDataStorgev1.sol\":196:200  name */\n  0x00\n    /* \"contracts/PersonDataStorgev1.sol\":196:213  name = \"jeremias\" */\n  swap1\n  dup2\n  tag_4\n  swap2\n  swap1\n  tag_5\n  jump\t// in\ntag_4:\n  pop\n    /* \"contracts/PersonDataStorgev1.sol\":228:230  10 */\n  0x0a\n    /* \"contracts/PersonDataStorgev1.sol\":223:226  age */\n  0x01\n    /* \"contracts/PersonDataStorgev1.sol\":223:230  age =10 */\n  dup2\n  swap1\n  sstore\n  pop\n    /* \"contracts/PersonDataStorgev1.sol\":251:255  true */\n  0x01\n    /* \"contracts/PersonDataStorgev1.sol\":241:250  brazilian */\n  0x02\n  0x00\n    /* \"contracts/PersonDataStorgev1.sol\":241:255  brazilian=true */\n  0x0100\n  exp\n  dup2\n  sload\n  dup2\n  0xff\n  mul\n  not\n  and\n  swap1\n  dup4\n  iszero\n  iszero\n  mul\n  or\n  swap1\n  sstore\n  pop\n    /* \"contracts/PersonDataStorgev1.sol\":57:857  contract PersonDataStoragV1 {... */\n  jump(tag_6)\n    /* \"#utility.yul\":7:106   */\ntag_7:\n    /* \"#utility.yul\":59:65   */\n  0x00\n    /* \"#utility.yul\":93:98   */\n  dup2\n    /* \"#utility.yul\":87:99   */\n  mload\n    /* \"#utility.yul\":77:99   */\n  swap1\n  pop\n    /* \"#utility.yul\":7:106   */\n  swap2\n  swap1\n  pop\n  jump\t// out\n    /* \"#utility.yul\":112:292   */\ntag_8:\n    /* \"#utility.yul\":160:237   */\n  0x4e487b7100000000000000000000000000000000000000000000000000000000\n    /* \"#utility.yul\":157:158   */\n  0x00\n    /* \"#utility.yul\":150:238   */\n  mstore\n    /* \"#utility.yul\":257:261   */\n  0x41\n    /* \"#utility.yul\":254:255   */\n  0x04\n    /* \"#utility.yul\":247:262   */\n  mstore\n    /* \"#utility.yul\":281:285   */\n  0x24\n    /* \"#utility.yul\":278:279   */\n  0x00\n    /* \"#utility.yul\":271:286   */\n  revert\n    /* \"#utility.yul\":298:478   */\ntag_9:\n    /* \"#utility.yul\":346:423   */\n  0x4e487b7100000000000000000000000000000000000000000000000000000000\n    /* \"#utility.yul\":343:344   */\n  0x00\n    /* \"#utility.yul\":336:424   */\n  mstore\n    /* \"#utility.yul\":443:447   */\n  0x22\n    /* \"#utility.yul\":440:441   */\n  0x04\n    /* \"#utility.yul\":433:448   */\n  mstore\n    /* \"#utility.yul\":467:471   */\n  0x24\n    /* \"#utility.yul\":464:465   */\n  0x00\n    /* \"#utility.yul\":457:472   */\n  revert\n    /* \"#utility.yul\":484:804   */\ntag_10:\n    /* \"#utility.yul\":528:534   */\n  0x00\n    /* \"#utility.yul\":565:566   */\n  0x02\n    /* \"#utility.yul\":559:563   */\n  dup3\n    /* \"#utility.yul\":555:567   */\n  div\n    /* \"#utility.yul\":545:567   */\n  swap1\n  pop\n    /* \"#utility.yul\":612:613   */\n  0x01\n    /* \"#utility.yul\":606:610   */\n  dup3\n    /* \"#utility.yul\":602:614   */\n  and\n    /* \"#utility.yul\":633:651   */\n  dup1\n    /* \"#utility.yul\":623:704   */\n  tag_32\n  jumpi\n    /* \"#utility.yul\":689:693   */\n  0x7f\n    /* \"#utility.yul\":681:687   */\n  dup3\n    /* \"#utility.yul\":677:694   */\n  and\n    /* \"#utility.yul\":667:694   */\n  swap2\n  pop\n    /* \"#utility.yul\":623:704   */\ntag_32:\n    /* \"#utility.yul\":751:753   */\n  0x20\n    /* \"#utility.yul\":743:749   */\n  dup3\n    /* \"#utility.yul\":740:754   */\n  lt\n    /* \"#utility.yul\":720:738   */\n  dup2\n    /* \"#utility.yul\":717:755   */\n  sub\n    /* \"#utility.yul\":714:798   */\n  tag_33\n  jumpi\n    /* \"#utility.yul\":770:788   */\n  tag_34\n  tag_9\n  jump\t// in\ntag_34:\n    /* \"#utility.yul\":714:798   */\ntag_33:\n    /* \"#utility.yul\":535:804   */\n  pop\n    /* \"#utility.yul\":484:804   */\n  swap2\n  swap1\n  pop\n  jump\t// out\n    /* \"#utility.yul\":810:951   */\ntag_11:\n    /* \"#utility.yul\":859:863   */\n  0x00\n    /* \"#utility.yul\":882:885   */\n  dup2\n    /* \"#utility.yul\":874:885   */\n  swap1\n  pop\n    /* \"#utility.yul\":905:908   */\n  dup2\n    /* \"#utility.yul\":902:903   */\n  0x00\n    /* \"#utility.yul\":895:909   */\n  mstore\n    /* \"#utility.yul\":939:943   */\n  0x20\n    /* \"#utility.yul\":936:937   */\n  0x00\n    /* \"#utility.yul\":926:944   */\n  keccak256\n    /* \"#utility.yul\":918:944   */\n  swap1\n  pop\n    /* \"#utility.yul\":810:951   */\n  swap2\n  swap1\n  pop\n  jump\t// out\n    /* \"#utility.yul\":957:1050   */\ntag_12:\n    /* \"#utility.yul\":994:1000   */\n  0x00\n    /* \"#utility.yul\":1041:1043   */\n  0x20\n    /* \"#utility.yul\":1036:1038   */\n  0x1f\n    /* \"#utility.yul\":1029:1034   */\n  dup4\n    /* \"#utility.yul\":1025:1039   */\n  add\n    /* \"#utility.yul\":1021:1044   */\n  div\n    /* \"#utility.yul\":1011:1044   */\n  swap1\n  pop\n    /* \"#utility.yul\":957:1050   */\n  swap2\n  swap1\n  pop\n  jump\t// out\n    /* \"#utility.yul\":1056:1163   */\ntag_13:\n    /* \"#utility.yul\":1100:1108   */\n  0x00\n    /* \"#utility.yul\":1150:1155   */\n  dup3\n    /* \"#utility.yul\":1144:1148   */\n  dup3\n    /* \"#utility.yul\":1140:1156   */\n  shl\n    /* \"#utility.yul\":1119:1156   */\n  swap1\n  pop\n    /* \"#utility.yul\":1056:1163   */\n  swap3\n  swap2\n  pop\n  pop\n  jump\t// out\n    /* \"#utility.yul\":1169:1562   */\ntag_14:\n    /* \"#utility.yul\":1238:1244   */\n  0x00\n    /* \"#utility.yul\":1288:1289   */\n  0x08\n    /* \"#utility.yul\":1276:1286   */\n  dup4\n    /* \"#utility.yul\":1272:1290   */\n  mul\n    /* \"#utility.yul\":1311:1408   */\n  tag_39\n    /* \"#utility.yul\":1341:1407   */\n  0xffffffffffffffffffffffffffffffffffffffffffffffffffffffffffffffff\n    /* \"#utility.yul\":1330:1339   */\n  dup3\n    /* \"#utility.yul\":1311:1408   */\n  tag_13\n  jump\t// in\ntag_39:\n    /* \"#utility.yul\":1429:1468   */\n  tag_40\n    /* \"#utility.yul\":1459:1467   */\n  dup7\n    /* \"#utility.yul\":1448:1457   */\n  dup4\n    /* \"#utility.yul\":1429:1468   */\n  tag_13\n  jump\t// in\ntag_40:\n    /* \"#utility.yul\":1417:1468   */\n  swap6\n  pop\n    /* \"#utility.yul\":1501:1505   */\n  dup1\n    /* \"#utility.yul\":1497:1506   */\n  not\n    /* \"#utility.yul\":1490:1495   */\n  dup5\n    /* \"#utility.yul\":1486:1507   */\n  and\n    /* \"#utility.yul\":1477:1507   */\n  swap4\n  pop\n    /* \"#utility.yul\":1550:1554   */\n  dup1\n    /* \"#utility.yul\":1540:1548   */\n  dup7\n    /* \"#utility.yul\":1536:1555   */\n  and\n    /* \"#utility.yul\":1529:1534   */\n  dup5\n    /* \"#utility.yul\":1526:1556   */\n  or\n    /* \"#utility.yul\":1516:1556   */\n  swap3\n  pop\n    /* \"#utility.yul\":1245:1562   */\n  pop\n  pop\n    /* \"#utility.yul\":1169:1562   */\n  swap4\n  swap3\n  pop\n  pop\n  pop\n  jump\t// out\n    /* \"#utility.yul\":1568:1645   */\ntag_15:\n    /* \"#utility.yul\":1605:1612   */\n  0x00\n    /* \"#utility.yul\":1634:1639   */\n  dup2\n    /* \"#utility.yul\":1623:1639   */\n  swap1\n  pop\n    /* \"#utility.yul\":1568:1645   */\n  swap2\n  swap1\n  pop\n  jump\t// out\n    /* \"#utility.yul\":1651:1711   */\ntag_16:\n    /* \"#utility.yul\":1679:1682   */\n  0x00\n    /* \"#utility.yul\":1700:1705   */\n  dup2\n    /* \"#utility.yul\":1693:1705   */\n  swap1\n  pop\n    /* \"#utility.yul\":1651:1711   */\n  swap2\n  swap1\n  pop\n  jump\t// out\n    /* \"#utility.yul\":1717:1859   */\ntag_17:\n    /* \"#utility.yul\":1767:1776   */\n  0x00\n    /* \"#utility.yul\":1800:1853   */\n  tag_44\n    /* \"#utility.yul\":1818:1852   */\n  tag_45\n    /* \"#utility.yul\":1827:1851   */\n  tag_46\n    /* \"#utility.yul\":1845:1850   */\n  dup5\n    /* \"#utility.yul\":1827:1851   */\n  tag_15\n  jump\t// in\ntag_46:\n    /* \"#utility.yul\":1818:1852   */\n  tag_16\n  jump\t// in\ntag_45:\n    /* \"#utility.yul\":1800:1853   */\n  tag_15\n  jump\t// in\ntag_44:\n    /* \"#utility.yul\":1787:1853   */\n  swap1\n  pop\n    /* \"#utility.yul\":1717:1859   */\n  swap2\n  swap1\n  pop\n  jump\t// out\n    /* \"#utility.yul\":1865:1940   */\ntag_18:\n    /* \"#utility.yul\":1908:1911   */\n  0x00\n    /* \"#utility.yul\":1929:1934   */\n  dup2\n    /* \"#utility.yul\":1922:1934   */\n  swap1\n  pop\n    /* \"#utility.yul\":1865:1940   */\n  swap2\n  swap1\n  pop\n  jump\t// out\n    /* \"#utility.yul\":1946:2215   */\ntag_19:\n    /* \"#utility.yul\":2056:2095   */\n  tag_49\n    /* \"#utility.yul\":2087:2094   */\n  dup4\n    /* \"#utility.yul\":2056:2095   */\n  tag_17\n  jump\t// in\ntag_49:\n    /* \"#utility.yul\":2117:2208   */\n  tag_50\n    /* \"#utility.yul\":2166:2207   */\n  tag_51\n    /* \"#utility.yul\":2190:2206   */\n  dup3\n    /* \"#utility.yul\":2166:2207   */\n  tag_18\n  jump\t// in\ntag_51:\n    /* \"#utility.yul\":2158:2164   */\n  dup5\n    /* \"#utility.yul\":2151:2155   */\n  dup5\n    /* \"#utility.yul\":2145:2156   */\n  sload\n    /* \"#utility.yul\":2117:2208   */\n  tag_14\n  jump\t// in\ntag_50:\n    /* \"#utility.yul\":2111:2115   */\n  dup3\n    /* \"#utility.yul\":2104:2209   */\n  sstore\n    /* \"#utility.yul\":2022:2215   */\n  pop\n    /* \"#utility.yul\":1946:2215   */\n  pop\n  pop\n  pop\n  jump\t// out\n    /* \"#utility.yul\":2221:2294   */\ntag_20:\n    /* \"#utility.yul\":2266:2269   */\n  0x00\n    /* \"#utility.yul\":2221:2294   */\n  swap1\n  jump\t// out\n    /* \"#utility.yul\":2300:2489   */\ntag_21:\n    /* \"#utility.yul\":2377:2409   */\n  tag_54\n  tag_20\n  jump\t// in\ntag_54:\n    /* \"#utility.yul\":2418:2483   */\n  tag_55\n    /* \"#utility.yul\":2476:2482   */\n  dup2\n    /* \"#utility.yul\":2468:2474   */\n  dup5\n    /* \"#utility.yul\":2462:2466   */\n  dup5\n    /* \"#utility.yul\":2418:2483   */\n  tag_19\n  jump\t// in\ntag_55:\n    /* \"#utility.yul\":2353:2489   */\n  pop\n    /* \"#utility.yul\":2300:2489   */\n  pop\n  pop\n  jump\t// out\n    /* \"#utility.yul\":2495:2681   */\ntag_22:\n    /* \"#utility.yul\":2555:2675   */\ntag_57:\n    /* \"#utility.yul\":2572:2575   */\n  dup2\n    /* \"#utility.yul\":2565:2570   */\n  dup2\n    /* \"#utility.yul\":2562:2576   */\n  lt\n    /* \"#utility.yul\":2555:2675   */\n  iszero\n  tag_59\n  jumpi\n    /* \"#utility.yul\":2626:2665   */\n  tag_60\n    /* \"#utility.yul\":2663:2664   */\n  0x00\n    /* \"#utility.yul\":2656:2661   */\n  dup3\n    /* \"#utility.yul\":2626:2665   */\n  tag_21\n  jump\t// in\ntag_60:\n    /* \"#utility.yul\":2599:2600   */\n  0x01\n    /* \"#utility.yul\":2592:2597   */\n  dup2\n    /* \"#utility.yul\":2588:2601   */\n  add\n    /* \"#utility.yul\":2579:2601   */\n  swap1\n  pop\n    /* \"#utility.yul\":2555:2675   */\n  jump(tag_57)\ntag_59:\n    /* \"#utility.yul\":2495:2681   */\n  pop\n  pop\n  jump\t// out\n    /* \"#utility.yul\":2687:3230   */\ntag_23:\n    /* \"#utility.yul\":2788:2790   */\n  0x1f\n    /* \"#utility.yul\":2783:2786   */\n  dup3\n    /* \"#utility.yul\":2780:2791   */\n  gt\n    /* \"#utility.yul\":2777:3223   */\n  iszero\n  tag_62\n  jumpi\n    /* \"#utility.yul\":2822:2860   */\n  tag_63\n    /* \"#utility.yul\":2854:2859   */\n  dup2\n    /* \"#utility.yul\":2822:2860   */\n  tag_11\n  jump\t// in\ntag_63:\n    /* \"#utility.yul\":2906:2935   */\n  tag_64\n    /* \"#utility.yul\":2924:2934   */\n  dup5\n    /* \"#utility.yul\":2906:2935   */\n  tag_12\n  jump\t// in\ntag_64:\n    /* \"#utility.yul\":2896:2904   */\n  dup2\n    /* \"#utility.yul\":2892:2936   */\n  add\n    /* \"#utility.yul\":3089:3091   */\n  0x20\n    /* \"#utility.yul\":3077:3087   */\n  dup6\n    /* \"#utility.yul\":3074:3092   */\n  lt\n    /* \"#utility.yul\":3071:3120   */\n  iszero\n  tag_65\n  jumpi\n    /* \"#utility.yul\":3110:3118   */\n  dup2\n    /* \"#utility.yul\":3095:3118   */\n  swap1\n  pop\n    /* \"#utility.yul\":3071:3120   */\ntag_65:\n    /* \"#utility.yul\":3133:3213   */\n  tag_66\n    /* \"#utility.yul\":3189:3211   */\n  tag_67\n    /* \"#utility.yul\":3207:3210   */\n  dup6\n    /* \"#utility.yul\":3189:3211   */\n  tag_12\n  jump\t// in\ntag_67:\n    /* \"#utility.yul\":3179:3187   */\n  dup4\n    /* \"#utility.yul\":3175:3212   */\n  add\n    /* \"#utility.yul\":3162:3173   */\n  dup3\n    /* \"#utility.yul\":3133:3213   */\n  tag_22\n  jump\t// in\ntag_66:\n    /* \"#utility.yul\":2792:3223   */\n  pop\n  pop\n    /* \"#utility.yul\":2777:3223   */\ntag_62:\n    /* \"#utility.yul\":2687:3230   */\n  pop\n  pop\n  pop\n  jump\t// out\n    /* \"#utility.yul\":3236:3353   */\ntag_24:\n    /* \"#utility.yul\":3290:3298   */\n  0x00\n    /* \"#utility.yul\":3340:3345   */\n  dup3\n    /* \"#utility.yul\":3334:3338   */\n  dup3\n    /* \"#utility.yul\":3330:3346   */\n  shr\n    /* \"#utility.yul\":3309:3346   */\n  swap1\n  pop\n    /* \"#utility.yul\":3236:3353   */\n  swap3\n  swap2\n  pop\n  pop\n  jump\t// out\n    /* \"#utility.yul\":3359:3528   */\ntag_25:\n    /* \"#utility.yul\":3403:3409   */\n  0x00\n    /* \"#utility.yul\":3436:3487   */\n  tag_70\n    /* \"#utility.yul\":3484:3485   */\n  0x00\n    /* \"#utility.yul\":3480:3486   */\n  not\n    /* \"#utility.yul\":3472:3477   */\n  dup5\n    /* \"#utility.yul\":3469:3470   */\n  0x08\n    /* \"#utility.yul\":3465:3478   */\n  mul\n    /* \"#utility.yul\":3436:3487   */\n  tag_24\n  jump\t// in\ntag_70:\n    /* \"#utility.yul\":3432:3488   */\n  not\n    /* \"#utility.yul\":3517:3521   */\n  dup1\n    /* \"#utility.yul\":3511:3515   */\n  dup4\n    /* \"#utility.yul\":3507:3522   */\n  and\n    /* \"#utility.yul\":3497:3522   */\n  swap2\n  pop\n    /* \"#utility.yul\":3410:3528   */\n  pop\n    /* \"#utility.yul\":3359:3528   */\n  swap3\n  swap2\n  pop\n  pop\n  jump\t// out\n    /* \"#utility.yul\":3533:3828   */\ntag_26:\n    /* \"#utility.yul\":3609:3613   */\n  0x00\n    /* \"#utility.yul\":3755:3784   */\n  tag_72\n    /* \"#utility.yul\":3780:3783   */\n  dup4\n    /* \"#utility.yul\":3774:3778   */\n  dup4\n    /* \"#utility.yul\":3755:3784   */\n  tag_25\n  jump\t// in\ntag_72:\n    /* \"#utility.yul\":3747:3784   */\n  swap2\n  pop\n    /* \"#utility.yul\":3817:3820   */\n  dup3\n    /* \"#utility.yul\":3814:3815   */\n  0x02\n    /* \"#utility.yul\":3810:3821   */\n  mul\n    /* \"#utility.yul\":3804:3808   */\n  dup3\n    /* \"#utility.yul\":3801:3822   */\n  or\n    /* \"#utility.yul\":3793:3822   */\n  swap1\n  pop\n    /* \"#utility.yul\":3533:3828   */\n  swap3\n  swap2\n  pop\n  pop\n  jump\t// out\n    /* \"#utility.yul\":3833:5228   */\ntag_5:\n    /* \"#utility.yul\":3950:3987   */\n  tag_74\n    /* \"#utility.yul\":3983:3986   */\n  dup3\n    /* \"#utility.yul\":3950:3987   */\n  tag_7\n  jump\t// in\ntag_74:\n    /* \"#utility.yul\":4052:4070   */\n  0xffffffffffffffff\n    /* \"#utility.yul\":4044:4050   */\n  dup2\n    /* \"#utility.yul\":4041:4071   */\n  gt\n    /* \"#utility.yul\":4038:4094   */\n  iszero\n  tag_75\n  jumpi\n    /* \"#utility.yul\":4074:4092   */\n  tag_76\n  tag_8\n  jump\t// in\ntag_76:\n    /* \"#utility.yul\":4038:4094   */\ntag_75:\n    /* \"#utility.yul\":4118:4156   */\n  tag_77\n    /* \"#utility.yul\":4150:4154   */\n  dup3\n    /* \"#utility.yul\":4144:4155   */\n  sload\n    /* \"#utility.yul\":4118:4156   */\n  tag_10\n  jump\t// in\ntag_77:\n    /* \"#utility.yul\":4203:4270   */\n  tag_78\n    /* \"#utility.yul\":4263:4269   */\n  dup3\n    /* \"#utility.yul\":4255:4261   */\n  dup3\n    /* \"#utility.yul\":4249:4253   */\n  dup6\n    /* \"#utility.yul\":4203:4270   */\n  tag_23\n  jump\t// in\ntag_78:\n    /* \"#utility.yul\":4297:4298   */\n  0x00\n    /* \"#utility.yul\":4321:4325   */\n  0x20\n    /* \"#utility.yul\":4308:4325   */\n  swap1\n  pop\n    /* \"#utility.yul\":4353:4355   */\n  0x1f\n    /* \"#utility.yul\":4345:4351   */\n  dup4\n    /* \"#utility.yul\":4342:4356   */\n  gt\n    /* \"#utility.yul\":4370:4371   */\n  0x01\n    /* \"#utility.yul\":4365:4983   */\n  dup2\n  eq\n  tag_80\n  jumpi\n    /* \"#utility.yul\":5027:5028   */\n  0x00\n    /* \"#utility.yul\":5044:5050   */\n  dup5\n    /* \"#utility.yul\":5041:5118   */\n  iszero\n  tag_81\n  jumpi\n    /* \"#utility.yul\":5093:5102   */\n  dup3\n    /* \"#utility.yul\":5088:5091   */\n  dup8\n    /* \"#utility.yul\":5084:5103   */\n  add\n    /* \"#utility.yul\":5078:5104   */\n  mload\n    /* \"#utility.yul\":5069:5104   */\n  swap1\n  pop\n    /* \"#utility.yul\":5041:5118   */\ntag_81:\n    /* \"#utility.yul\":5144:5211   */\n  tag_82\n    /* \"#utility.yul\":5204:5210   */\n  dup6\n    /* \"#utility.yul\":5197:5202   */\n  dup3\n    /* \"#utility.yul\":5144:5211   */\n  tag_26\n  jump\t// in\ntag_82:\n    /* \"#utility.yul\":5138:5142   */\n  dup7\n    /* \"#utility.yul\":5131:5212   */\n  sstore\n    /* \"#utility.yul\":5000:5222   */\n  pop\n    /* \"#utility.yul\":4335:5222   */\n  jump(tag_79)\n    /* \"#utility.yul\":4365:4983   */\ntag_80:\n    /* \"#utility.yul\":4417:4421   */\n  0x1f\n    /* \"#utility.yul\":4413:4422   */\n  not\n    /* \"#utility.yul\":4405:4411   */\n  dup5\n    /* \"#utility.yul\":4401:4423   */\n  and\n    /* \"#utility.yul\":4451:4488   */\n  tag_83\n    /* \"#utility.yul\":4483:4487   */\n  dup7\n    /* \"#utility.yul\":4451:4488   */\n  tag_11\n  jump\t// in\ntag_83:\n    /* \"#utility.yul\":4510:4511   */\n  0x00\n    /* \"#utility.yul\":4524:4732   */\ntag_84:\n    /* \"#utility.yul\":4538:4545   */\n  dup3\n    /* \"#utility.yul\":4535:4536   */\n  dup2\n    /* \"#utility.yul\":4532:4546   */\n  lt\n    /* \"#utility.yul\":4524:4732   */\n  iszero\n  tag_86\n  jumpi\n    /* \"#utility.yul\":4617:4626   */\n  dup5\n    /* \"#utility.yul\":4612:4615   */\n  dup10\n    /* \"#utility.yul\":4608:4627   */\n  add\n    /* \"#utility.yul\":4602:4628   */\n  mload\n    /* \"#utility.yul\":4594:4600   */\n  dup3\n    /* \"#utility.yul\":4587:4629   */\n  sstore\n    /* \"#utility.yul\":4668:4669   */\n  0x01\n    /* \"#utility.yul\":4660:4666   */\n  dup3\n    /* \"#utility.yul\":4656:4670   */\n  add\n    /* \"#utility.yul\":4646:4670   */\n  swap2\n  pop\n    /* \"#utility.yul\":4715:4717   */\n  0x20\n    /* \"#utility.yul\":4704:4713   */\n  dup6\n    /* \"#utility.yul\":4700:4718   */\n  add\n    /* \"#utility.yul\":4687:4718   */\n  swap5\n  pop\n    /* \"#utility.yul\":4561:4565   */\n  0x20\n    /* \"#utility.yul\":4558:4559   */\n  dup2\n    /* \"#utility.yul\":4554:4566   */\n  add\n    /* \"#utility.yul\":4549:4566   */\n  swap1\n  pop\n    /* \"#utility.yul\":4524:4732   */\n  jump(tag_84)\ntag_86:\n    /* \"#utility.yul\":4760:4766   */\n  dup7\n    /* \"#utility.yul\":4751:4758   */\n  dup4\n    /* \"#utility.yul\":4748:4767   */\n  lt\n    /* \"#utility.yul\":4745:4924   */\n  iszero\n  tag_87\n  jumpi\n    /* \"#utility.yul\":4818:4827   */\n  dup5\n    /* \"#utility.yul\":4813:4816   */\n  dup10\n    /* \"#utility.yul\":4809:4828   */\n  add\n    /* \"#utility.yul\":4803:4829   */\n  mload\n    /* \"#utility.yul\":4861:4909   */\n  tag_88\n    /* \"#utility.yul\":4903:4907   */\n  0x1f\n    /* \"#utility.yul\":4895:4901   */\n  dup10\n    /* \"#utility.yul\":4891:4908   */\n  and\n    /* \"#utility.yul\":4880:4889   */\n  dup3\n    /* \"#utility.yul\":4861:4909   */\n  tag_25\n  jump\t// in\ntag_88:\n    /* \"#utility.yul\":4853:4859   */\n  dup4\n    /* \"#utility.yul\":4846:4910   */\n  sstore\n    /* \"#utility.yul\":4768:4924   */\n  pop\n    /* \"#utility.yul\":4745:4924   */\ntag_87:\n    /* \"#utility.yul\":4970:4971   */\n  0x01\n    /* \"#utility.yul\":4966:4967   */\n  0x02\n    /* \"#utility.yul\":4958:4964   */\n  dup9\n    /* \"#utility.yul\":4954:4968   */\n  mul\n    /* \"#utility.yul\":4950:4972   */\n  add\n    /* \"#utility.yul\":4944:4948   */\n  dup9\n    /* \"#utility.yul\":4937:4973   */\n  sstore\n    /* \"#utility.yul\":4372:4983   */\n  pop\n  pop\n  pop\n    /* \"#utility.yul\":4335:5222   */\ntag_79:\n  pop\n    /* \"#utility.yul\":3925:5228   */\n  pop\n  pop\n  pop\n    /* \"#utility.yul\":3833:5228   */\n  pop\n  pop\n  jump\t// out\n    /* \"contracts/PersonDataStorgev1.sol\":57:857  contract PersonDataStoragV1 {... */\ntag_6:\n  dataSize(sub_0)\n  dup1\n  dataOffset(sub_0)\n  0x00\n  codecopy\n  0x00\n  return\nstop\n\nsub_0: assembly {\n        /* \"contracts/PersonDataStorgev1.sol\":57:857  contract PersonDataStoragV1 {... */\n      mstore(0x40, 0x80)\n      callvalue\n      dup1\n      iszero\n      tag_1\n      jumpi\n      0x00\n      dup1\n      revert\n    tag_1:\n      pop\n      jumpi(tag_2, lt(calldatasize, 0x04))\n      shr(0xe0, calldataload(0x00))\n      dup1\n      0x8208e6f8\n      gt\n      tag_10\n      jumpi\n      dup1\n      0x8208e6f8\n      eq\n      tag_6\n      jumpi\n      dup1\n      0x967e6e65\n      eq\n      tag_7\n      jumpi\n      dup1\n      0xc47f0027\n      eq\n      tag_8\n      jumpi\n      dup1\n      0xd5dcf127\n      eq\n      tag_9\n      jumpi\n      jump(tag_2)\n    tag_10:\n      dup1\n      0x06fdde03\n      eq\n      tag_3\n      jumpi\n      dup1\n      0x4cd3d345\n      eq\n      tag_4\n      jumpi\n      dup1\n      0x6840f0ae\n      eq\n      tag_5\n      jumpi\n    tag_2:\n      0x00\n      dup1\n      revert\n        /* \"contracts/PersonDataStorgev1.sol\":91:110  string public  name */\n    tag_3:\n      tag_11\n      tag_12\n      jump\t// in\n    tag_11:\n      mload(0x40)\n      tag_13\n      swap2\n      swap1\n      tag_14\n      jump\t// in\n    tag_13:\n      mload(0x40)\n      dup1\n      swap2\n      sub\n      swap1\n      return\n        /* \"contracts/PersonDataStorgev1.sol\":583:666  function getBrasilian()public view  returns(bool) {... */\n    tag_4:\n      tag_15\n      tag_16\n      jump\t// in\n    tag_15:\n      mload(0x40)\n      tag_17\n      swap2\n      swap1\n      tag_18\n      jump\t// in\n    tag_17:\n      mload(0x40)\n      dup1\n      swap2\n      sub\n      swap1\n      return\n        /* \"contracts/PersonDataStorgev1.sol\":793:855  function incrementAge()external {... */\n    tag_5:\n      tag_19\n      tag_20\n      jump\t// in\n    tag_19:\n      stop\n        /* \"contracts/PersonDataStorgev1.sol\":492:577  function setBrazilian(bool _brazilian) public {... */\n    tag_6:\n      tag_21\n      0x04\n      dup1\n      calldatasize\n      sub\n      dup2\n      add\n      swap1\n      tag_22\n      swap2\n      swap1\n      tag_23\n      jump\t// in\n    tag_22:\n      tag_24\n      jump\t// in\n    tag_21:\n      stop\n        /* \"contracts/PersonDataStorgev1.sol\":415:486  function getAge()public view  returns(uint) {... */\n    tag_7:\n      tag_25\n      tag_26\n      jump\t// in\n    tag_25:\n      mload(0x40)\n      tag_27\n      swap2\n      swap1\n      tag_28\n      jump\t// in\n    tag_27:\n      mload(0x40)\n      dup1\n      swap2\n      sub\n      swap1\n      return\n        /* \"contracts/PersonDataStorgev1.sol\":268:342  function setName(string memory _name) public {... */\n    tag_8:\n      tag_29\n      0x04\n      dup1\n      calldatasize\n      sub\n      dup2\n      add\n      swap1\n      tag_30\n      swap2\n      swap1\n      tag_31\n      jump\t// in\n    tag_30:\n      tag_32\n      jump\t// in\n    tag_29:\n      stop\n        /* \"contracts/PersonDataStorgev1.sol\":348:409  function setAge(uint _age) public {... */\n    tag_9:\n      tag_33\n      0x04\n      dup1\n      calldatasize\n      sub\n      dup2\n      add\n      swap1\n      tag_34\n      swap2\n      swap1\n      tag_35\n      jump\t// in\n    tag_34:\n      tag_36\n      jump\t// in\n    tag_33:\n      stop\n        /* \"contracts/PersonDataStorgev1.sol\":91:110  string public  name */\n    tag_12:\n      0x00\n      dup1\n      sload\n      tag_37\n      swap1\n      tag_38\n      jump\t// in\n    tag_37:\n      dup1\n      0x1f\n      add\n      0x20\n      dup1\n      swap2\n      div\n      mul\n      0x20\n      add\n      mload(0x40)\n      swap1\n      dup2\n      add\n      0x40\n      mstore\n      dup1\n      swap3\n      swap2\n      swap1\n      dup2\n      dup2\n      mstore\n      0x20\n      add\n      dup3\n      dup1\n      sload\n      tag_39\n      swap1\n      tag_38\n      jump\t// in\n    tag_39:\n      dup1\n      iszero\n      tag_40\n      jumpi\n      dup1\n      0x1f\n      lt\n      tag_41\n      jumpi\n      0x0100\n      dup1\n      dup4\n      sload\n      div\n      mul\n      dup4\n      mstore\n      swap2\n      0x20\n      add\n      swap2\n      jump(tag_40)\n    tag_41:\n      dup3\n      add\n      swap2\n      swap1\n      0x00\n      mstore\n      keccak256(0x00, 0x20)\n      swap1\n    tag_42:\n      dup2\n      sload\n      dup2\n      mstore\n      swap1\n      0x01\n      add\n      swap1\n      0x20\n      add\n      dup1\n      dup4\n      gt\n      tag_42\n      jumpi\n      dup3\n      swap1\n      sub\n      0x1f\n      and\n      dup3\n      add\n      swap2\n    tag_40:\n      pop\n      pop\n      pop\n      pop\n      pop\n      dup2\n      jump\t// out\n        /* \"contracts/PersonDataStorgev1.sol\":583:666  function getBrasilian()public view  returns(bool) {... */\n    tag_16:\n        /* \"contracts/PersonDataStorgev1.sol\":627:631  bool */\n      0x00\n        /* \"contracts/PersonDataStorgev1.sol\":650:659  brazilian */\n      0x02\n      0x00\n      swap1\n      sload\n      swap1\n      0x0100\n      exp\n      swap1\n      div\n      0xff\n      and\n        /* \"contracts/PersonDataStorgev1.sol\":643:659  return brazilian */\n      swap1\n      pop\n        /* \"contracts/PersonDataStorgev1.sol\":583:666  function getBrasilian()public view  returns(bool) {... */\n      swap1\n      jump\t// out\n        /* \"contracts/PersonDataStorgev1.sol\":793:855  function incrementAge()external {... */\n    tag_20:\n        /* \"contracts/PersonDataStorgev1.sol\":847:848  1 */\n      0x01\n        /* \"contracts/PersonDataStorgev1.sol\":841:844  age */\n      dup1\n      sload\n        /* \"contracts/PersonDataStorgev1.sol\":841:848  age + 1 */\n      tag_45\n      swap2\n      swap1\n      tag_46\n      jump\t// in\n    tag_45:\n        /* \"contracts/PersonDataStorgev1.sol\":835:838  age */\n      0x01\n        /* \"contracts/PersonDataStorgev1.sol\":835:848  age = age + 1 */\n      dup2\n      swap1\n      sstore\n      pop\n        /* \"contracts/PersonDataStorgev1.sol\":793:855  function incrementAge()external {... */\n      jump\t// out\n        /* \"contracts/PersonDataStorgev1.sol\":492:577  function setBrazilian(bool _brazilian) public {... */\n    tag_24:\n        /* \"contracts/PersonDataStorgev1.sol\":560:570  _brazilian */\n      dup1\n        /* \"contracts/PersonDataStorgev1.sol\":548:557  brazilian */\n      0x02\n      0x00\n        /* \"contracts/PersonDataStorgev1.sol\":548:570  brazilian = _brazilian */\n      0x0100\n      exp\n      dup2\n      sload\n      dup2\n      0xff\n      mul\n      not\n      and\n      swap1\n      dup4\n      iszero\n      iszero\n      mul\n      or\n      swap1\n      sstore\n      pop\n        /* \"contracts/PersonDataStorgev1.sol\":492:577  function setBrazilian(bool _brazilian) public {... */\n      pop\n      jump\t// out\n        /* \"contracts/PersonDataStorgev1.sol\":415:486  function getAge()public view  returns(uint) {... */\n    tag_26:\n        /* \"contracts/PersonDataStorgev1.sol\":453:457  uint */\n      0x00\n        /* \"contracts/PersonDataStorgev1.sol\":476:479  age */\n      sload(0x01)\n        /* \"contracts/PersonDataStorgev1.sol\":469:479  return age */\n      swap1\n      pop\n        /* \"contracts/PersonDataStorgev1.sol\":415:486  function getAge()public view  returns(uint) {... */\n      swap1\n      jump\t// out\n        /* \"contracts/PersonDataStorgev1.sol\":268:342  function setName(string memory _name) public {... */\n    tag_32:\n        /* \"contracts/PersonDataStorgev1.sol\":330:335  _name */\n      dup1\n        /* \"contracts/PersonDataStorgev1.sol\":323:327  name */\n      0x00\n        /* \"contracts/PersonDataStorgev1.sol\":323:335  name = _name */\n      swap1\n      dup2\n      tag_50\n      swap2\n      swap1\n      tag_51\n      jump\t// in\n    tag_50:\n      pop\n        /* \"contracts/PersonDataStorgev1.sol\":268:342  function setName(string memory _name) public {... */\n      pop\n      jump\t// out\n        /* \"contracts/PersonDataStorgev1.sol\":348:409  function setAge(uint _age) public {... */\n    tag_36:\n        /* \"contracts/PersonDataStorgev1.sol\":398:402  _age */\n      dup1\n        /* \"contracts/PersonDataStorgev1.sol\":392:395  age */\n      0x01\n        /* \"contracts/PersonDataStorgev1.sol\":392:402  age = _age */\n      dup2\n      swap1\n      sstore\n      pop\n        /* \"contracts/PersonDataStorgev1.sol\":348:409  function setAge(uint _age) public {... */\n      pop\n      jump\t// out\n        /* \"#utility.yul\":7:106   */\n    tag_53:\n        /* \"#utility.yul\":59:65   */\n      0x00\n        /* \"#utility.yul\":93:98   */\n      dup2\n        /* \"#utility.yul\":87:99   */\n      mload\n        /* \"#utility.yul\":77:99   */\n      swap1\n      pop\n        /* \"#utility.yul\":7:106   */\n      swap2\n      swap1\n      pop\n      jump\t// out\n        /* \"#utility.yul\":112:281   */\n    tag_54:\n        /* \"#utility.yul\":196:207   */\n      0x00\n        /* \"#utility.yul\":230:236   */\n      dup3\n        /* \"#utility.yul\":225:228   */\n      dup3\n        /* \"#utility.yul\":218:237   */\n      mstore\n        /* \"#utility.yul\":270:274   */\n      0x20\n        /* \"#utility.yul\":265:268   */\n      dup3\n        /* \"#utility.yul\":261:275   */\n      add\n        /* \"#utility.yul\":246:275   */\n      swap1\n      pop\n        /* \"#utility.yul\":112:281   */\n      swap3\n      swap2\n      pop\n      pop\n      jump\t// out\n        /* \"#utility.yul\":287:426   */\n    tag_55:\n        /* \"#utility.yul\":376:382   */\n      dup3\n        /* \"#utility.yul\":371:374   */\n      dup2\n        /* \"#utility.yul\":366:369   */\n      dup4\n        /* \"#utility.yul\":360:383   */\n      mcopy\n        /* \"#utility.yul\":417:418   */\n      0x00\n        /* \"#utility.yul\":408:414   */\n      dup4\n        /* \"#utility.yul\":403:406   */\n      dup4\n        /* \"#utility.yul\":399:415   */\n      add\n        /* \"#utility.yul\":392:419   */\n      mstore\n        /* \"#utility.yul\":287:426   */\n      pop\n      pop\n      pop\n      jump\t// out\n        /* \"#utility.yul\":432:534   */\n    tag_56:\n        /* \"#utility.yul\":473:479   */\n      0x00\n        /* \"#utility.yul\":524:526   */\n      0x1f\n        /* \"#utility.yul\":520:527   */\n      not\n        /* \"#utility.yul\":515:517   */\n      0x1f\n        /* \"#utility.yul\":508:513   */\n      dup4\n        /* \"#utility.yul\":504:518   */\n      add\n        /* \"#utility.yul\":500:528   */\n      and\n        /* \"#utility.yul\":490:528   */\n      swap1\n      pop\n        /* \"#utility.yul\":432:534   */\n      swap2\n      swap1\n      pop\n      jump\t// out\n        /* \"#utility.yul\":540:917   */\n    tag_57:\n        /* \"#utility.yul\":628:631   */\n      0x00\n        /* \"#utility.yul\":656:695   */\n      tag_101\n        /* \"#utility.yul\":689:694   */\n      dup3\n        /* \"#utility.yul\":656:695   */\n      tag_53\n      jump\t// in\n    tag_101:\n        /* \"#utility.yul\":711:782   */\n      tag_102\n        /* \"#utility.yul\":775:781   */\n      dup2\n        /* \"#utility.yul\":770:773   */\n      dup6\n        /* \"#utility.yul\":711:782   */\n      tag_54\n      jump\t// in\n    tag_102:\n        /* \"#utility.yul\":704:782   */\n      swap4\n      pop\n        /* \"#utility.yul\":791:856   */\n      tag_103\n        /* \"#utility.yul\":849:855   */\n      dup2\n        /* \"#utility.yul\":844:847   */\n      dup6\n        /* \"#utility.yul\":837:841   */\n      0x20\n        /* \"#utility.yul\":830:835   */\n      dup7\n        /* \"#utility.yul\":826:842   */\n      add\n        /* \"#utility.yul\":791:856   */\n      tag_55\n      jump\t// in\n    tag_103:\n        /* \"#utility.yul\":881:910   */\n      tag_104\n        /* \"#utility.yul\":903:909   */\n      dup2\n        /* \"#utility.yul\":881:910   */\n      tag_56\n      jump\t// in\n    tag_104:\n        /* \"#utility.yul\":876:879   */\n      dup5\n        /* \"#utility.yul\":872:911   */\n      add\n        /* \"#utility.yul\":865:911   */\n      swap2\n      pop\n        /* \"#utility.yul\":632:917   */\n      pop\n        /* \"#utility.yul\":540:917   */\n      swap3\n      swap2\n      pop\n      pop\n      jump\t// out\n        /* \"#utility.yul\":923:1236   */\n    tag_14:\n        /* \"#utility.yul\":1036:1040   */\n      0x00\n        /* \"#utility.yul\":1074:1076   */\n      0x20\n        /* \"#utility.yul\":1063:1072   */\n      dup3\n        /* \"#utility.yul\":1059:1077   */\n      add\n        /* \"#utility.yul\":1051:1077   */\n      swap1\n      pop\n        /* \"#utility.yul\":1123:1132   */\n      dup2\n        /* \"#utility.yul\":1117:1121   */\n      dup2\n        /* \"#utility.yul\":1113:1133   */\n      sub\n        /* \"#utility.yul\":1109:1110   */\n      0x00\n        /* \"#utility.yul\":1098:1107   */\n      dup4\n        /* \"#utility.yul\":1094:1111   */\n      add\n        /* \"#utility.yul\":1087:1134   */\n      mstore\n        /* \"#utility.yul\":1151:1229   */\n      tag_106\n        /* \"#utility.yul\":1224:1228   */\n      dup2\n        /* \"#utility.yul\":1215:1221   */\n      dup5\n        /* \"#utility.yul\":1151:1229   */\n      tag_57\n      jump\t// in\n    tag_106:\n        /* \"#utility.yul\":1143:1229   */\n      swap1\n      pop\n        /* \"#utility.yul\":923:1236   */\n      swap3\n      swap2\n      pop\n      pop\n      jump\t// out\n        /* \"#utility.yul\":1242:1332   */\n    tag_58:\n        /* \"#utility.yul\":1276:1283   */\n      0x00\n        /* \"#utility.yul\":1319:1324   */\n      dup2\n        /* \"#utility.yul\":1312:1325   */\n      iszero\n        /* \"#utility.yul\":1305:1326   */\n      iszero\n        /* \"#utility.yul\":1294:1326   */\n      swap1\n      pop\n        /* \"#utility.yul\":1242:1332   */\n      swap2\n      swap1\n      pop\n      jump\t// out\n        /* \"#utility.yul\":1338:1447   */\n    tag_59:\n        /* \"#utility.yul\":1419:1440   */\n      tag_109\n        /* \"#utility.yul\":1434:1439   */\n      dup2\n        /* \"#utility.yul\":1419:1440   */\n      tag_58\n      jump\t// in\n    tag_109:\n        /* \"#utility.yul\":1414:1417   */\n      dup3\n        /* \"#utility.yul\":1407:1441   */\n      mstore\n        /* \"#utility.yul\":1338:1447   */\n      pop\n      pop\n      jump\t// out\n        /* \"#utility.yul\":1453:1663   */\n    tag_18:\n        /* \"#utility.yul\":1540:1544   */\n      0x00\n        /* \"#utility.yul\":1578:1580   */\n      0x20\n        /* \"#utility.yul\":1567:1576   */\n      dup3\n        /* \"#utility.yul\":1563:1581   */\n      add\n        /* \"#utility.yul\":1555:1581   */\n      swap1\n      pop\n        /* \"#utility.yul\":1591:1656   */\n      tag_111\n        /* \"#utility.yul\":1653:1654   */\n      0x00\n        /* \"#utility.yul\":1642:1651   */\n      dup4\n        /* \"#utility.yul\":1638:1655   */\n      add\n        /* \"#utility.yul\":1629:1635   */\n      dup5\n        /* \"#utility.yul\":1591:1656   */\n      tag_59\n      jump\t// in\n    tag_111:\n        /* \"#utility.yul\":1453:1663   */\n      swap3\n      swap2\n      pop\n      pop\n      jump\t// out\n        /* \"#utility.yul\":1669:1744   */\n    tag_60:\n        /* \"#utility.yul\":1702:1708   */\n      0x00\n        /* \"#utility.yul\":1735:1737   */\n      0x40\n        /* \"#utility.yul\":1729:1738   */\n      mload\n        /* \"#utility.yul\":1719:1738   */\n      swap1\n      pop\n        /* \"#utility.yul\":1669:1744   */\n      swap1\n      jump\t// out\n        /* \"#utility.yul\":1750:1867   */\n    tag_61:\n        /* \"#utility.yul\":1859:1860   */\n      0x00\n        /* \"#utility.yul\":1856:1857   */\n      dup1\n        /* \"#utility.yul\":1849:1861   */\n      revert\n        /* \"#utility.yul\":1873:1990   */\n    tag_62:\n        /* \"#utility.yul\":1982:1983   */\n      0x00\n        /* \"#utility.yul\":1979:1980   */\n      dup1\n        /* \"#utility.yul\":1972:1984   */\n      revert\n        /* \"#utility.yul\":1996:2112   */\n    tag_63:\n        /* \"#utility.yul\":2066:2087   */\n      tag_116\n        /* \"#utility.yul\":2081:2086   */\n      dup2\n        /* \"#utility.yul\":2066:2087   */\n      tag_58\n      jump\t// in\n    tag_116:\n        /* \"#utility.yul\":2059:2064   */\n      dup2\n        /* \"#utility.yul\":2056:2088   */\n      eq\n        /* \"#utility.yul\":2046:2106   */\n      tag_117\n      jumpi\n        /* \"#utility.yul\":2102:2103   */\n      0x00\n        /* \"#utility.yul\":2099:2100   */\n      dup1\n        /* \"#utility.yul\":2092:2104   */\n      revert\n        /* \"#utility.yul\":2046:2106   */\n    tag_117:\n        /* \"#utility.yul\":1996:2112   */\n      pop\n      jump\t// out\n        /* \"#utility.yul\":2118:2251   */\n    tag_64:\n        /* \"#utility.yul\":2161:2166   */\n      0x00\n        /* \"#utility.yul\":2199:2205   */\n      dup2\n        /* \"#utility.yul\":2186:2206   */\n      calldataload\n        /* \"#utility.yul\":2177:2206   */\n      swap1\n      pop\n        /* \"#utility.yul\":2215:2245   */\n      tag_119\n        /* \"#utility.yul\":2239:2244   */\n      dup2\n        /* \"#utility.yul\":2215:2245   */\n      tag_63\n      jump\t// in\n    tag_119:\n        /* \"#utility.yul\":2118:2251   */\n      swap3\n      swap2\n      pop\n      pop\n      jump\t// out\n        /* \"#utility.yul\":2257:2580   */\n    tag_23:\n        /* \"#utility.yul\":2313:2319   */\n      0x00\n        /* \"#utility.yul\":2362:2364   */\n      0x20\n        /* \"#utility.yul\":2350:2359   */\n      dup3\n        /* \"#utility.yul\":2341:2348   */\n      dup5\n        /* \"#utility.yul\":2337:2360   */\n      sub\n        /* \"#utility.yul\":2333:2365   */\n      slt\n        /* \"#utility.yul\":2330:2449   */\n      iszero\n      tag_121\n      jumpi\n        /* \"#utility.yul\":2368:2447   */\n      tag_122\n      tag_61\n      jump\t// in\n    tag_122:\n        /* \"#utility.yul\":2330:2449   */\n    tag_121:\n        /* \"#utility.yul\":2488:2489   */\n      0x00\n        /* \"#utility.yul\":2513:2563   */\n      tag_123\n        /* \"#utility.yul\":2555:2562   */\n      dup5\n        /* \"#utility.yul\":2546:2552   */\n      dup3\n        /* \"#utility.yul\":2535:2544   */\n      dup6\n        /* \"#utility.yul\":2531:2553   */\n      add\n        /* \"#utility.yul\":2513:2563   */\n      tag_64\n      jump\t// in\n    tag_123:\n        /* \"#utility.yul\":2503:2563   */\n      swap2\n      pop\n        /* \"#utility.yul\":2459:2573   */\n      pop\n        /* \"#utility.yul\":2257:2580   */\n      swap3\n      swap2\n      pop\n      pop\n      jump\t// out\n        /* \"#utility.yul\":2586:2663   */\n    tag_65:\n        /* \"#utility.yul\":2623:2630   */\n      0x00\n        /* \"#utility.yul\":2652:2657   */\n      dup2\n        /* \"#utility.yul\":2641:2657   */\n      swap1\n      pop\n        /* \"#utility.yul\":2586:2663   */\n      swap2\n      swap1\n      pop\n      jump\t// out\n        /* \"#utility.yul\":2669:2787   */\n    tag_66:\n        /* \"#utility.yul\":2756:2780   */\n      tag_126\n        /* \"#utility.yul\":2774:2779   */\n      dup2\n        /* \"#utility.yul\":2756:2780   */\n      tag_65\n      jump\t// in\n    tag_126:\n        /* \"#utility.yul\":2751:2754   */\n      dup3\n        /* \"#utility.yul\":2744:2781   */\n      mstore\n        /* \"#utility.yul\":2669:2787   */\n      pop\n      pop\n      jump\t// out\n        /* \"#utility.yul\":2793:3015   */\n    tag_28:\n        /* \"#utility.yul\":2886:2890   */\n      0x00\n        /* \"#utility.yul\":2924:2926   */\n      0x20\n        /* \"#utility.yul\":2913:2922   */\n      dup3\n        /* \"#utility.yul\":2909:2927   */\n      add\n        /* \"#utility.yul\":2901:2927   */\n      swap1\n      pop\n        /* \"#utility.yul\":2937:3008   */\n      tag_128\n        /* \"#utility.yul\":3005:3006   */\n      0x00\n        /* \"#utility.yul\":2994:3003   */\n      dup4\n        /* \"#utility.yul\":2990:3007   */\n      add\n        /* \"#utility.yul\":2981:2987   */\n      dup5\n        /* \"#utility.yul\":2937:3008   */\n      tag_66\n      jump\t// in\n    tag_128:\n        /* \"#utility.yul\":2793:3015   */\n      swap3\n      swap2\n      pop\n      pop\n      jump\t// out\n        /* \"#utility.yul\":3021:3138   */\n    tag_67:\n        /* \"#utility.yul\":3130:3131   */\n      0x00\n        /* \"#utility.yul\":3127:3128   */\n      dup1\n        /* \"#utility.yul\":3120:3132   */\n      revert\n        /* \"#utility.yul\":3144:3261   */\n    tag_68:\n        /* \"#utility.yul\":3253:3254   */\n      0x00\n        /* \"#utility.yul\":3250:3251   */\n      dup1\n        /* \"#utility.yul\":3243:3255   */\n      revert\n        /* \"#utility.yul\":3267:3447   */\n    tag_69:\n        /* \"#utility.yul\":3315:3392   */\n      0x4e487b7100000000000000000000000000000000000000000000000000000000\n        /* \"#utility.yul\":3312:3313   */\n      0x00\n        /* \"#utility.yul\":3305:3393   */\n      mstore\n        /* \"#utility.yul\":3412:3416   */\n      0x41\n        /* \"#utility.yul\":3409:3410   */\n      0x04\n        /* \"#utility.yul\":3402:3417   */\n      mstore\n        /* \"#utility.yul\":3436:3440   */\n      0x24\n        /* \"#utility.yul\":3433:3434   */\n      0x00\n        /* \"#utility.yul\":3426:3441   */\n      revert\n        /* \"#utility.yul\":3453:3734   */\n    tag_70:\n        /* \"#utility.yul\":3536:3563   */\n      tag_133\n        /* \"#utility.yul\":3558:3562   */\n      dup3\n        /* \"#utility.yul\":3536:3563   */\n      tag_56\n      jump\t// in\n    tag_133:\n        /* \"#utility.yul\":3528:3534   */\n      dup2\n        /* \"#utility.yul\":3524:3564   */\n      add\n        /* \"#utility.yul\":3666:3672   */\n      dup2\n        /* \"#utility.yul\":3654:3664   */\n      dup2\n        /* \"#utility.yul\":3651:3673   */\n      lt\n        /* \"#utility.yul\":3630:3648   */\n      0xffffffffffffffff\n        /* \"#utility.yul\":3618:3628   */\n      dup3\n        /* \"#utility.yul\":3615:3649   */\n      gt\n        /* \"#utility.yul\":3612:3674   */\n      or\n        /* \"#utility.yul\":3609:3697   */\n      iszero\n      tag_134\n      jumpi\n        /* \"#utility.yul\":3677:3695   */\n      tag_135\n      tag_69\n      jump\t// in\n    tag_135:\n        /* \"#utility.yul\":3609:3697   */\n    tag_134:\n        /* \"#utility.yul\":3717:3727   */\n      dup1\n        /* \"#utility.yul\":3713:3715   */\n      0x40\n        /* \"#utility.yul\":3706:3728   */\n      mstore\n        /* \"#utility.yul\":3496:3734   */\n      pop\n        /* \"#utility.yul\":3453:3734   */\n      pop\n      pop\n      jump\t// out\n        /* \"#utility.yul\":3740:3869   */\n    tag_71:\n        /* \"#utility.yul\":3774:3780   */\n      0x00\n        /* \"#utility.yul\":3801:3821   */\n      tag_137\n      tag_60\n      jump\t// in\n    tag_137:\n        /* \"#utility.yul\":3791:3821   */\n      swap1\n      pop\n        /* \"#utility.yul\":3830:3863   */\n      tag_138\n        /* \"#utility.yul\":3858:3862   */\n      dup3\n        /* \"#utility.yul\":3850:3856   */\n      dup3\n        /* \"#utility.yul\":3830:3863   */\n      tag_70\n      jump\t// in\n    tag_138:\n        /* \"#utility.yul\":3740:3869   */\n      swap2\n      swap1\n      pop\n      jump\t// out\n        /* \"#utility.yul\":3875:4183   */\n    tag_72:\n        /* \"#utility.yul\":3937:3941   */\n      0x00\n        /* \"#utility.yul\":4027:4045   */\n      0xffffffffffffffff\n        /* \"#utility.yul\":4019:4025   */\n      dup3\n        /* \"#utility.yul\":4016:4046   */\n      gt\n        /* \"#utility.yul\":4013:4069   */\n      iszero\n      tag_140\n      jumpi\n        /* \"#utility.yul\":4049:4067   */\n      tag_141\n      tag_69\n      jump\t// in\n    tag_141:\n        /* \"#utility.yul\":4013:4069   */\n    tag_140:\n        /* \"#utility.yul\":4087:4116   */\n      tag_142\n        /* \"#utility.yul\":4109:4115   */\n      dup3\n        /* \"#utility.yul\":4087:4116   */\n      tag_56\n      jump\t// in\n    tag_142:\n        /* \"#utility.yul\":4079:4116   */\n      swap1\n      pop\n        /* \"#utility.yul\":4171:4175   */\n      0x20\n        /* \"#utility.yul\":4165:4169   */\n      dup2\n        /* \"#utility.yul\":4161:4176   */\n      add\n        /* \"#utility.yul\":4153:4176   */\n      swap1\n      pop\n        /* \"#utility.yul\":3875:4183   */\n      swap2\n      swap1\n      pop\n      jump\t// out\n        /* \"#utility.yul\":4189:4337   */\n    tag_73:\n        /* \"#utility.yul\":4287:4293   */\n      dup3\n        /* \"#utility.yul\":4282:4285   */\n      dup2\n        /* \"#utility.yul\":4277:4280   */\n      dup4\n        /* \"#utility.yul\":4264:4294   */\n      calldatacopy\n        /* \"#utility.yul\":4328:4329   */\n      0x00\n        /* \"#utility.yul\":4319:4325   */\n      dup4\n        /* \"#utility.yul\":4314:4317   */\n      dup4\n        /* \"#utility.yul\":4310:4326   */\n      add\n        /* \"#utility.yul\":4303:4330   */\n      mstore\n        /* \"#utility.yul\":4189:4337   */\n      pop\n      pop\n      pop\n      jump\t// out\n        /* \"#utility.yul\":4343:4768   */\n    tag_74:\n        /* \"#utility.yul\":4421:4426   */\n      0x00\n        /* \"#utility.yul\":4446:4512   */\n      tag_145\n        /* \"#utility.yul\":4462:4511   */\n      tag_146\n        /* \"#utility.yul\":4504:4510   */\n      dup5\n        /* \"#utility.yul\":4462:4511   */\n      tag_72\n      jump\t// in\n    tag_146:\n        /* \"#utility.yul\":4446:4512   */\n      tag_71\n      jump\t// in\n    tag_145:\n        /* \"#utility.yul\":4437:4512   */\n      swap1\n      pop\n        /* \"#utility.yul\":4535:4541   */\n      dup3\n        /* \"#utility.yul\":4528:4533   */\n      dup2\n        /* \"#utility.yul\":4521:4542   */\n      mstore\n        /* \"#utility.yul\":4573:4577   */\n      0x20\n        /* \"#utility.yul\":4566:4571   */\n      dup2\n        /* \"#utility.yul\":4562:4578   */\n      add\n        /* \"#utility.yul\":4611:4614   */\n      dup5\n        /* \"#utility.yul\":4602:4608   */\n      dup5\n        /* \"#utility.yul\":4597:4600   */\n      dup5\n        /* \"#utility.yul\":4593:4609   */\n      add\n        /* \"#utility.yul\":4590:4615   */\n      gt\n        /* \"#utility.yul\":4587:4699   */\n      iszero\n      tag_147\n      jumpi\n        /* \"#utility.yul\":4618:4697   */\n      tag_148\n      tag_68\n      jump\t// in\n    tag_148:\n        /* \"#utility.yul\":4587:4699   */\n    tag_147:\n        /* \"#utility.yul\":4708:4762   */\n      tag_149\n        /* \"#utility.yul\":4755:4761   */\n      dup5\n        /* \"#utility.yul\":4750:4753   */\n      dup3\n        /* \"#utility.yul\":4745:4748   */\n      dup6\n        /* \"#utility.yul\":4708:4762   */\n      tag_73\n      jump\t// in\n    tag_149:\n        /* \"#utility.yul\":4427:4768   */\n      pop\n        /* \"#utility.yul\":4343:4768   */\n      swap4\n      swap3\n      pop\n      pop\n      pop\n      jump\t// out\n        /* \"#utility.yul\":4788:5128   */\n    tag_75:\n        /* \"#utility.yul\":4844:4849   */\n      0x00\n        /* \"#utility.yul\":4893:4896   */\n      dup3\n        /* \"#utility.yul\":4886:4890   */\n      0x1f\n        /* \"#utility.yul\":4878:4884   */\n      dup4\n        /* \"#utility.yul\":4874:4891   */\n      add\n        /* \"#utility.yul\":4870:4897   */\n      slt\n        /* \"#utility.yul\":4860:4982   */\n      tag_151\n      jumpi\n        /* \"#utility.yul\":4901:4980   */\n      tag_152\n      tag_67\n      jump\t// in\n    tag_152:\n        /* \"#utility.yul\":4860:4982   */\n    tag_151:\n        /* \"#utility.yul\":5018:5024   */\n      dup2\n        /* \"#utility.yul\":5005:5025   */\n      calldataload\n        /* \"#utility.yul\":5043:5122   */\n      tag_153\n        /* \"#utility.yul\":5118:5121   */\n      dup5\n        /* \"#utility.yul\":5110:5116   */\n      dup3\n        /* \"#utility.yul\":5103:5107   */\n      0x20\n        /* \"#utility.yul\":5095:5101   */\n      dup7\n        /* \"#utility.yul\":5091:5108   */\n      add\n        /* \"#utility.yul\":5043:5122   */\n      tag_74\n      jump\t// in\n    tag_153:\n        /* \"#utility.yul\":5034:5122   */\n      swap2\n      pop\n        /* \"#utility.yul\":4850:5128   */\n      pop\n        /* \"#utility.yul\":4788:5128   */\n      swap3\n      swap2\n      pop\n      pop\n      jump\t// out\n        /* \"#utility.yul\":5134:5643   */\n    tag_31:\n        /* \"#utility.yul\":5203:5209   */\n      0x00\n        /* \"#utility.yul\":5252:5254   */\n      0x20\n        /* \"#utility.yul\":5240:5249   */\n      dup3\n        /* \"#utility.yul\":5231:5238   */\n      dup5\n        /* \"#utility.yul\":5227:5250   */\n      sub\n        /* \"#utility.yul\":5223:5255   */\n      slt\n        /* \"#utility.yul\":5220:5339   */\n      iszero\n      tag_155\n      jumpi\n        /* \"#utility.yul\":5258:5337   */\n      tag_156\n      tag_61\n      jump\t// in\n    tag_156:\n        /* \"#utility.yul\":5220:5339   */\n    tag_155:\n        /* \"#utility.yul\":5406:5407   */\n      0x00\n        /* \"#utility.yul\":5395:5404   */\n      dup3\n        /* \"#utility.yul\":5391:5408   */\n      add\n        /* \"#utility.yul\":5378:5409   */\n      calldataload\n        /* \"#utility.yul\":5436:5454   */\n      0xffffffffffffffff\n        /* \"#utility.yul\":5428:5434   */\n      dup2\n        /* \"#utility.yul\":5425:5455   */\n      gt\n        /* \"#utility.yul\":5422:5539   */\n      iszero\n      tag_157\n      jumpi\n        /* \"#utility.yul\":5458:5537   */\n      tag_158\n      tag_62\n      jump\t// in\n    tag_158:\n        /* \"#utility.yul\":5422:5539   */\n    tag_157:\n        /* \"#utility.yul\":5563:5626   */\n      tag_159\n        /* \"#utility.yul\":5618:5625   */\n      dup5\n        /* \"#utility.yul\":5609:5615   */\n      dup3\n        /* \"#utility.yul\":5598:5607   */\n      dup6\n        /* \"#utility.yul\":5594:5616   */\n      add\n        /* \"#utility.yul\":5563:5626   */\n      tag_75\n      jump\t// in\n    tag_159:\n        /* \"#utility.yul\":5553:5626   */\n      swap2\n      pop\n        /* \"#utility.yul\":5349:5636   */\n      pop\n        /* \"#utility.yul\":5134:5643   */\n      swap3\n      swap2\n      pop\n      pop\n      jump\t// out\n        /* \"#utility.yul\":5649:5771   */\n    tag_76:\n        /* \"#utility.yul\":5722:5746   */\n      tag_161\n        /* \"#utility.yul\":5740:5745   */\n      dup2\n        /* \"#utility.yul\":5722:5746   */\n      tag_65\n      jump\t// in\n    tag_161:\n        /* \"#utility.yul\":5715:5720   */\n      dup2\n        /* \"#utility.yul\":5712:5747   */\n      eq\n        /* \"#utility.yul\":5702:5765   */\n      tag_162\n      jumpi\n        /* \"#utility.yul\":5761:5762   */\n      0x00\n        /* \"#utility.yul\":5758:5759   */\n      dup1\n        /* \"#utility.yul\":5751:5763   */\n      revert\n        /* \"#utility.yul\":5702:5765   */\n    tag_162:\n        /* \"#utility.yul\":5649:5771   */\n      pop\n      jump\t// out\n        /* \"#utility.yul\":5777:5916   */\n    tag_77:\n        /* \"#utility.yul\":5823:5828   */\n      0x00\n        /* \"#utility.yul\":5861:5867   */\n      dup2\n        /* \"#utility.yul\":5848:5868   */\n      calldataload\n        /* \"#utility.yul\":5839:5868   */\n      swap1\n      pop\n        /* \"#utility.yul\":5877:5910   */\n      tag_164\n        /* \"#utility.yul\":5904:5909   */\n      dup2\n        /* \"#utility.yul\":5877:5910   */\n      tag_76\n      jump\t// in\n    tag_164:\n        /* \"#utility.yul\":5777:5916   */\n      swap3\n      swap2\n      pop\n      pop\n      jump\t// out\n        /* \"#utility.yul\":5922:6251   */\n    tag_35:\n        /* \"#utility.yul\":5981:5987   */\n      0x00\n        /* \"#utility.yul\":6030:6032   */\n      0x20\n        /* \"#utility.yul\":6018:6027   */\n      dup3\n        /* \"#utility.yul\":6009:6016   */\n      dup5\n        /* \"#utility.yul\":6005:6028   */\n      sub\n        /* \"#utility.yul\":6001:6033   */\n      slt\n        /* \"#utility.yul\":5998:6117   */\n      iszero\n      tag_166\n      jumpi\n        /* \"#utility.yul\":6036:6115   */\n      tag_167\n      tag_61\n      jump\t// in\n    tag_167:\n        /* \"#utility.yul\":5998:6117   */\n    tag_166:\n        /* \"#utility.yul\":6156:6157   */\n      0x00\n        /* \"#utility.yul\":6181:6234   */\n      tag_168\n        /* \"#utility.yul\":6226:6233   */\n      dup5\n        /* \"#utility.yul\":6217:6223   */\n      dup3\n        /* \"#utility.yul\":6206:6215   */\n      dup6\n        /* \"#utility.yul\":6202:6224   */\n      add\n        /* \"#utility.yul\":6181:6234   */\n      tag_77\n      jump\t// in\n    tag_168:\n        /* \"#utility.yul\":6171:6234   */\n      swap2\n      pop\n        /* \"#utility.yul\":6127:6244   */\n      pop\n        /* \"#utility.yul\":5922:6251   */\n      swap3\n      swap2\n      pop\n      pop\n      jump\t// out\n        /* \"#utility.yul\":6257:6437   */\n    tag_78:\n        /* \"#utility.yul\":6305:6382   */\n      0x4e487b7100000000000000000000000000000000000000000000000000000000\n        /* \"#utility.yul\":6302:6303   */\n      0x00\n        /* \"#utility.yul\":6295:6383   */\n      mstore\n        /* \"#utility.yul\":6402:6406   */\n      0x22\n        /* \"#utility.yul\":6399:6400   */\n      0x04\n        /* \"#utility.yul\":6392:6407   */\n      mstore\n        /* \"#utility.yul\":6426:6430   */\n      0x24\n        /* \"#utility.yul\":6423:6424   */\n      0x00\n        /* \"#utility.yul\":6416:6431   */\n      revert\n        /* \"#utility.yul\":6443:6763   */\n    tag_38:\n        /* \"#utility.yul\":6487:6493   */\n      0x00\n        /* \"#utility.yul\":6524:6525   */\n      0x02\n        /* \"#utility.yul\":6518:6522   */\n      dup3\n        /* \"#utility.yul\":6514:6526   */\n      div\n        /* \"#utility.yul\":6504:6526   */\n      swap1\n      pop\n        /* \"#utility.yul\":6571:6572   */\n      0x01\n        /* \"#utility.yul\":6565:6569   */\n      dup3\n        /* \"#utility.yul\":6561:6573   */\n      and\n        /* \"#utility.yul\":6592:6610   */\n      dup1\n        /* \"#utility.yul\":6582:6663   */\n      tag_171\n      jumpi\n        /* \"#utility.yul\":6648:6652   */\n      0x7f\n        /* \"#utility.yul\":6640:6646   */\n      dup3\n        /* \"#utility.yul\":6636:6653   */\n      and\n        /* \"#utility.yul\":6626:6653   */\n      swap2\n      pop\n        /* \"#utility.yul\":6582:6663   */\n    tag_171:\n        /* \"#utility.yul\":6710:6712   */\n      0x20\n        /* \"#utility.yul\":6702:6708   */\n      dup3\n        /* \"#utility.yul\":6699:6713   */\n      lt\n        /* \"#utility.yul\":6679:6697   */\n      dup2\n        /* \"#utility.yul\":6676:6714   */\n      sub\n        /* \"#utility.yul\":6673:6757   */\n      tag_172\n      jumpi\n        /* \"#utility.yul\":6729:6747   */\n      tag_173\n      tag_78\n      jump\t// in\n    tag_173:\n        /* \"#utility.yul\":6673:6757   */\n    tag_172:\n        /* \"#utility.yul\":6494:6763   */\n      pop\n        /* \"#utility.yul\":6443:6763   */\n      swap2\n      swap1\n      pop\n      jump\t// out\n        /* \"#utility.yul\":6769:6949   */\n    tag_79:\n        /* \"#utility.yul\":6817:6894   */\n      0x4e487b7100000000000000000000000000000000000000000000000000000000\n        /* \"#utility.yul\":6814:6815   */\n      0x00\n        /* \"#utility.yul\":6807:6895   */\n      mstore\n        /* \"#utility.yul\":6914:6918   */\n      0x11\n        /* \"#utility.yul\":6911:6912   */\n      0x04\n        /* \"#utility.yul\":6904:6919   */\n      mstore\n        /* \"#utility.yul\":6938:6942   */\n      0x24\n        /* \"#utility.yul\":6935:6936   */\n      0x00\n        /* \"#utility.yul\":6928:6943   */\n      revert\n        /* \"#utility.yul\":6955:7146   */\n    tag_46:\n        /* \"#utility.yul\":6995:6998   */\n      0x00\n        /* \"#utility.yul\":7014:7034   */\n      tag_176\n        /* \"#utility.yul\":7032:7033   */\n      dup3\n        /* \"#utility.yul\":7014:7034   */\n      tag_65\n      jump\t// in\n    tag_176:\n        /* \"#utility.yul\":7009:7034   */\n      swap2\n      pop\n        /* \"#utility.yul\":7048:7068   */\n      tag_177\n        /* \"#utility.yul\":7066:7067   */\n      dup4\n        /* \"#utility.yul\":7048:7068   */\n      tag_65\n      jump\t// in\n    tag_177:\n        /* \"#utility.yul\":7043:7068   */\n      swap3\n      pop\n        /* \"#utility.yul\":7091:7092   */\n      dup3\n        /* \"#utility.yul\":7088:7089   */\n      dup3\n        /* \"#utility.yul\":7084:7093   */\n      add\n        /* \"#utility.yul\":7077:7093   */\n      swap1\n      pop\n        /* \"#utility.yul\":7112:7115   */\n      dup1\n        /* \"#utility.yul\":7109:7110   */\n      dup3\n        /* \"#utility.yul\":7106:7116   */\n      gt\n        /* \"#utility.yul\":7103:7139   */\n      iszero\n      tag_178\n      jumpi\n        /* \"#utility.yul\":7119:7137   */\n      tag_179\n      tag_79\n      jump\t// in\n    tag_179:\n        /* \"#utility.yul\":7103:7139   */\n    tag_178:\n        /* \"#utility.yul\":6955:7146   */\n      swap3\n      swap2\n      pop\n      pop\n      jump\t// out\n        /* \"#utility.yul\":7152:7293   */\n    tag_80:\n        /* \"#utility.yul\":7201:7205   */\n      0x00\n        /* \"#utility.yul\":7224:7227   */\n      dup2\n        /* \"#utility.yul\":7216:7227   */\n      swap1\n      pop\n        /* \"#utility.yul\":7247:7250   */\n      dup2\n        /* \"#utility.yul\":7244:7245   */\n      0x00\n        /* \"#utility.yul\":7237:7251   */\n      mstore\n        /* \"#utility.yul\":7281:7285   */\n      0x20\n        /* \"#utility.yul\":7278:7279   */\n      0x00\n        /* \"#utility.yul\":7268:7286   */\n      keccak256\n        /* \"#utility.yul\":7260:7286   */\n      swap1\n      pop\n        /* \"#utility.yul\":7152:7293   */\n      swap2\n      swap1\n      pop\n      jump\t// out\n        /* \"#utility.yul\":7299:7392   */\n    tag_81:\n        /* \"#utility.yul\":7336:7342   */\n      0x00\n        /* \"#utility.yul\":7383:7385   */\n      0x20\n        /* \"#utility.yul\":7378:7380   */\n      0x1f\n        /* \"#utility.yul\":7371:7376   */\n      dup4\n        /* \"#utility.yul\":7367:7381   */\n      add\n        /* \"#utility.yul\":7363:7386   */\n      div\n        /* \"#utility.yul\":7353:7386   */\n      swap1\n      pop\n        /* \"#utility.yul\":7299:7392   */\n      swap2\n      swap1\n      pop\n      jump\t// out\n        /* \"#utility.yul\":7398:7505   */\n    tag_82:\n        /* \"#utility.yul\":7442:7450   */\n      0x00\n        /* \"#utility.yul\":7492:7497   */\n      dup3\n        /* \"#utility.yul\":7486:7490   */\n      dup3\n        /* \"#utility.yul\":7482:7498   */\n      shl\n        /* \"#utility.yul\":7461:7498   */\n      swap1\n      pop\n        /* \"#utility.yul\":7398:7505   */\n      swap3\n      swap2\n      pop\n      pop\n      jump\t// out\n        /* \"#utility.yul\":7511:7904   */\n    tag_83:\n        /* \"#utility.yul\":7580:7586   */\n      0x00\n        /* \"#utility.yul\":7630:7631   */\n      0x08\n        /* \"#utility.yul\":7618:7628   */\n      dup4\n        /* \"#utility.yul\":7614:7632   */\n      mul\n        /* \"#utility.yul\":7653:7750   */\n      tag_184\n        /* \"#utility.yul\":7683:7749   */\n      0xffffffffffffffffffffffffffffffffffffffffffffffffffffffffffffffff\n        /* \"#utility.yul\":7672:7681   */\n      dup3\n        /* \"#utility.yul\":7653:7750   */\n      tag_82\n      jump\t// in\n    tag_184:\n        /* \"#utility.yul\":7771:7810   */\n      tag_185\n        /* \"#utility.yul\":7801:7809   */\n      dup7\n        /* \"#utility.yul\":7790:7799   */\n      dup4\n        /* \"#utility.yul\":7771:7810   */\n      tag_82\n      jump\t// in\n    tag_185:\n        /* \"#utility.yul\":7759:7810   */\n      swap6\n      pop\n        /* \"#utility.yul\":7843:7847   */\n      dup1\n        /* \"#utility.yul\":7839:7848   */\n      not\n        /* \"#utility.yul\":7832:7837   */\n      dup5\n        /* \"#utility.yul\":7828:7849   */\n      and\n        /* \"#utility.yul\":7819:7849   */\n      swap4\n      pop\n        /* \"#utility.yul\":7892:7896   */\n      dup1\n        /* \"#utility.yul\":7882:7890   */\n      dup7\n        /* \"#utility.yul\":7878:7897   */\n      and\n        /* \"#utility.yul\":7871:7876   */\n      dup5\n        /* \"#utility.yul\":7868:7898   */\n      or\n        /* \"#utility.yul\":7858:7898   */\n      swap3\n      pop\n        /* \"#utility.yul\":7587:7904   */\n      pop\n      pop\n        /* \"#utility.yul\":7511:7904   */\n      swap4\n      swap3\n      pop\n      pop\n      pop\n      jump\t// out\n        /* \"#utility.yul\":7910:7970   */\n    tag_84:\n        /* \"#utility.yul\":7938:7941   */\n      0x00\n        /* \"#utility.yul\":7959:7964   */\n      dup2\n        /* \"#utility.yul\":7952:7964   */\n      swap1\n      pop\n        /* \"#utility.yul\":7910:7970   */\n      swap2\n      swap1\n      pop\n      jump\t// out\n        /* \"#utility.yul\":7976:8118   */\n    tag_85:\n        /* \"#utility.yul\":8026:8035   */\n      0x00\n        /* \"#utility.yul\":8059:8112   */\n      tag_188\n        /* \"#utility.yul\":8077:8111   */\n      tag_189\n        /* \"#utility.yul\":8086:8110   */\n      tag_190\n        /* \"#utility.yul\":8104:8109   */\n      dup5\n        /* \"#utility.yul\":8086:8110   */\n      tag_65\n      jump\t// in\n    tag_190:\n        /* \"#utility.yul\":8077:8111   */\n      tag_84\n      jump\t// in\n    tag_189:\n        /* \"#utility.yul\":8059:8112   */\n      tag_65\n      jump\t// in\n    tag_188:\n        /* \"#utility.yul\":8046:8112   */\n      swap1\n      pop\n        /* \"#utility.yul\":7976:8118   */\n      swap2\n      swap1\n      pop\n      jump\t// out\n        /* \"#utility.yul\":8124:8199   */\n    tag_86:\n        /* \"#utility.yul\":8167:8170   */\n      0x00\n        /* \"#utility.yul\":8188:8193   */\n      dup2\n        /* \"#utility.yul\":8181:8193   */\n      swap1\n      pop\n        /* \"#utility.yul\":8124:8199   */\n      swap2\n      swap1\n      pop\n      jump\t// out\n        /* \"#utility.yul\":8205:8474   */\n    tag_87:\n        /* \"#utility.yul\":8315:8354   */\n      tag_193\n        /* \"#utility.yul\":8346:8353   */\n      dup4\n        /* \"#utility.yul\":8315:8354   */\n      tag_85\n      jump\t// in\n    tag_193:\n        /* \"#utility.yul\":8376:8467   */\n      tag_194\n        /* \"#utility.yul\":8425:8466   */\n      tag_195\n        /* \"#utility.yul\":8449:8465   */\n      dup3\n        /* \"#utility.yul\":8425:8466   */\n      tag_86\n      jump\t// in\n    tag_195:\n        /* \"#utility.yul\":8417:8423   */\n      dup5\n        /* \"#utility.yul\":8410:8414   */\n      dup5\n        /* \"#utility.yul\":8404:8415   */\n      sload\n        /* \"#utility.yul\":8376:8467   */\n      tag_83\n      jump\t// in\n    tag_194:\n        /* \"#utility.yul\":8370:8374   */\n      dup3\n        /* \"#utility.yul\":8363:8468   */\n      sstore\n        /* \"#utility.yul\":8281:8474   */\n      pop\n        /* \"#utility.yul\":8205:8474   */\n      pop\n      pop\n      pop\n      jump\t// out\n        /* \"#utility.yul\":8480:8553   */\n    tag_88:\n        /* \"#utility.yul\":8525:8528   */\n      0x00\n        /* \"#utility.yul\":8480:8553   */\n      swap1\n      jump\t// out\n        /* \"#utility.yul\":8559:8748   */\n    tag_89:\n        /* \"#utility.yul\":8636:8668   */\n      tag_198\n      tag_88\n      jump\t// in\n    tag_198:\n        /* \"#utility.yul\":8677:8742   */\n      tag_199\n        /* \"#utility.yul\":8735:8741   */\n      dup2\n        /* \"#utility.yul\":8727:8733   */\n      dup5\n        /* \"#utility.yul\":8721:8725   */\n      dup5\n        /* \"#utility.yul\":8677:8742   */\n      tag_87\n      jump\t// in\n    tag_199:\n        /* \"#utility.yul\":8612:8748   */\n      pop\n        /* \"#utility.yul\":8559:8748   */\n      pop\n      pop\n      jump\t// out\n        /* \"#utility.yul\":8754:8940   */\n    tag_90:\n        /* \"#utility.yul\":8814:8934   */\n    tag_201:\n        /* \"#utility.yul\":8831:8834   */\n      dup2\n        /* \"#utility.yul\":8824:8829   */\n      dup2\n        /* \"#utility.yul\":8821:8835   */\n      lt\n        /* \"#utility.yul\":8814:8934   */\n      iszero\n      tag_203\n      jumpi\n        /* \"#utility.yul\":8885:8924   */\n      tag_204\n        /* \"#utility.yul\":8922:8923   */\n      0x00\n        /* \"#utility.yul\":8915:8920   */\n      dup3\n        /* \"#utility.yul\":8885:8924   */\n      tag_89\n      jump\t// in\n    tag_204:\n        /* \"#utility.yul\":8858:8859   */\n      0x01\n        /* \"#utility.yul\":8851:8856   */\n      dup2\n        /* \"#utility.yul\":8847:8860   */\n      add\n        /* \"#utility.yul\":8838:8860   */\n      swap1\n      pop\n        /* \"#utility.yul\":8814:8934   */\n      jump(tag_201)\n    tag_203:\n        /* \"#utility.yul\":8754:8940   */\n      pop\n      pop\n      jump\t// out\n        /* \"#utility.yul\":8946:9489   */\n    tag_91:\n        /* \"#utility.yul\":9047:9049   */\n      0x1f\n        /* \"#utility.yul\":9042:9045   */\n      dup3\n        /* \"#utility.yul\":9039:9050   */\n      gt\n        /* \"#utility.yul\":9036:9482   */\n      iszero\n      tag_206\n      jumpi\n        /* \"#utility.yul\":9081:9119   */\n      tag_207\n        /* \"#utility.yul\":9113:9118   */\n      dup2\n        /* \"#utility.yul\":9081:9119   */\n      tag_80\n      jump\t// in\n    tag_207:\n        /* \"#utility.yul\":9165:9194   */\n      tag_208\n        /* \"#utility.yul\":9183:9193   */\n      dup5\n        /* \"#utility.yul\":9165:9194   */\n      tag_81\n      jump\t// in\n    tag_208:\n        /* \"#utility.yul\":9155:9163   */\n      dup2\n        /* \"#utility.yul\":9151:9195   */\n      add\n        /* \"#utility.yul\":9348:9350   */\n      0x20\n        /* \"#utility.yul\":9336:9346   */\n      dup6\n        /* \"#utility.yul\":9333:9351   */\n      lt\n        /* \"#utility.yul\":9330:9379   */\n      iszero\n      tag_209\n      jumpi\n        /* \"#utility.yul\":9369:9377   */\n      dup2\n        /* \"#utility.yul\":9354:9377   */\n      swap1\n      pop\n        /* \"#utility.yul\":9330:9379   */\n    tag_209:\n        /* \"#utility.yul\":9392:9472   */\n      tag_210\n        /* \"#utility.yul\":9448:9470   */\n      tag_211\n        /* \"#utility.yul\":9466:9469   */\n      dup6\n        /* \"#utility.yul\":9448:9470   */\n      tag_81\n      jump\t// in\n    tag_211:\n        /* \"#utility.yul\":9438:9446   */\n      dup4\n        /* \"#utility.yul\":9434:9471   */\n      add\n        /* \"#utility.yul\":9421:9432   */\n      dup3\n        /* \"#utility.yul\":9392:9472   */\n      tag_90\n      jump\t// in\n    tag_210:\n        /* \"#utility.yul\":9051:9482   */\n      pop\n      pop\n        /* \"#utility.yul\":9036:9482   */\n    tag_206:\n        /* \"#utility.yul\":8946:9489   */\n      pop\n      pop\n      pop\n      jump\t// out\n        /* \"#utility.yul\":9495:9612   */\n    tag_92:\n        /* \"#utility.yul\":9549:9557   */\n      0x00\n        /* \"#utility.yul\":9599:9604   */\n      dup3\n        /* \"#utility.yul\":9593:9597   */\n      dup3\n        /* \"#utility.yul\":9589:9605   */\n      shr\n        /* \"#utility.yul\":9568:9605   */\n      swap1\n      pop\n        /* \"#utility.yul\":9495:9612   */\n      swap3\n      swap2\n      pop\n      pop\n      jump\t// out\n        /* \"#utility.yul\":9618:9787   */\n    tag_93:\n        /* \"#utility.yul\":9662:9668   */\n      0x00\n        /* \"#utility.yul\":9695:9746   */\n      tag_214\n        /* \"#utility.yul\":9743:9744   */\n      0x00\n        /* \"#utility.yul\":9739:9745   */\n      not\n        /* \"#utility.yul\":9731:9736   */\n      dup5\n        /* \"#utility.yul\":9728:9729   */\n      0x08\n        /* \"#utility.yul\":9724:9737   */\n      mul\n        /* \"#utility.yul\":9695:9746   */\n      tag_92\n      jump\t// in\n    tag_214:\n        /* \"#utility.yul\":9691:9747   */\n      not\n        /* \"#utility.yul\":9776:9780   */\n      dup1\n        /* \"#utility.yul\":9770:9774   */\n      dup4\n        /* \"#utility.yul\":9766:9781   */\n      and\n        /* \"#utility.yul\":9756:9781   */\n      swap2\n      pop\n        /* \"#utility.yul\":9669:9787   */\n      pop\n        /* \"#utility.yul\":9618:9787   */\n      swap3\n      swap2\n      pop\n      pop\n      jump\t// out\n        /* \"#utility.yul\":9792:10087   */\n    tag_94:\n        /* \"#utility.yul\":9868:9872   */\n      0x00\n        /* \"#utility.yul\":10014:10043   */\n      tag_216\n        /* \"#utility.yul\":10039:10042   */\n      dup4\n        /* \"#utility.yul\":10033:10037   */\n      dup4\n        /* \"#utility.yul\":10014:10043   */\n      tag_93\n      jump\t// in\n    tag_216:\n        /* \"#utility.yul\":10006:10043   */\n      swap2\n      pop\n        /* \"#utility.yul\":10076:10079   */\n      dup3\n        /* \"#utility.yul\":10073:10074   */\n      0x02\n        /* \"#utility.yul\":10069:10080   */\n      mul\n        /* \"#utility.yul\":10063:10067   */\n      dup3\n        /* \"#utility.yul\":10060:10081   */\n      or\n        /* \"#utility.yul\":10052:10081   */\n      swap1\n      pop\n        /* \"#utility.yul\":9792:10087   */\n      swap3\n      swap2\n      pop\n      pop\n      jump\t// out\n        /* \"#utility.yul\":10092:11487   */\n    tag_51:\n        /* \"#utility.yul\":10209:10246   */\n      tag_218\n        /* \"#utility.yul\":10242:10245   */\n      dup3\n        /* \"#utility.yul\":10209:10246   */\n      tag_53\n      jump\t// in\n    tag_218:\n        /* \"#utility.yul\":10311:10329   */\n      0xffffffffffffffff\n        /* \"#utility.yul\":10303:10309   */\n      dup2\n        /* \"#utility.yul\":10300:10330   */\n      gt\n        /* \"#utility.yul\":10297:10353   */\n      iszero\n      tag_219\n      jumpi\n        /* \"#utility.yul\":10333:10351   */\n      tag_220\n      tag_69\n      jump\t// in\n    tag_220:\n        /* \"#utility.yul\":10297:10353   */\n    tag_219:\n        /* \"#utility.yul\":10377:10415   */\n      tag_221\n        /* \"#utility.yul\":10409:10413   */\n      dup3\n        /* \"#utility.yul\":10403:10414   */\n      sload\n        /* \"#utility.yul\":10377:10415   */\n      tag_38\n      jump\t// in\n    tag_221:\n        /* \"#utility.yul\":10462:10529   */\n      tag_222\n        /* \"#utility.yul\":10522:10528   */\n      dup3\n        /* \"#utility.yul\":10514:10520   */\n      dup3\n        /* \"#utility.yul\":10508:10512   */\n      dup6\n        /* \"#utility.yul\":10462:10529   */\n      tag_91\n      jump\t// in\n    tag_222:\n        /* \"#utility.yul\":10556:10557   */\n      0x00\n        /* \"#utility.yul\":10580:10584   */\n      0x20\n        /* \"#utility.yul\":10567:10584   */\n      swap1\n      pop\n        /* \"#utility.yul\":10612:10614   */\n      0x1f\n        /* \"#utility.yul\":10604:10610   */\n      dup4\n        /* \"#utility.yul\":10601:10615   */\n      gt\n        /* \"#utility.yul\":10629:10630   */\n      0x01\n        /* \"#utility.yul\":10624:11242   */\n      dup2\n      eq\n      tag_224\n      jumpi\n        /* \"#utility.yul\":11286:11287   */\n      0x00\n        /* \"#utility.yul\":11303:11309   */\n      dup5\n        /* \"#utility.yul\":11300:11377   */\n      iszero\n      tag_225\n      jumpi\n        /* \"#utility.yul\":11352:11361   */\n      dup3\n        /* \"#utility.yul\":11347:11350   */\n      dup8\n        /* \"#utility.yul\":11343:11362   */\n      add\n        /* \"#utility.yul\":11337:11363   */\n      mload\n        /* \"#utility.yul\":11328:11363   */\n      swap1\n      pop\n        /* \"#utility.yul\":11300:11377   */\n    tag_225:\n        /* \"#utility.yul\":11403:11470   */\n      tag_226\n        /* \"#utility.yul\":11463:11469   */\n      dup6\n        /* \"#utility.yul\":11456:11461   */\n      dup3\n        /* \"#utility.yul\":11403:11470   */\n      tag_94\n      jump\t// in\n    tag_226:\n        /* \"#utility.yul\":11397:11401   */\n      dup7\n        /* \"#utility.yul\":11390:11471   */\n      sstore\n        /* \"#utility.yul\":11259:11481   */\n      pop\n        /* \"#utility.yul\":10594:11481   */\n      jump(tag_223)\n        /* \"#utility.yul\":10624:11242   */\n    tag_224:\n        /* \"#utility.yul\":10676:10680   */\n      0x1f\n        /* \"#utility.yul\":10672:10681   */\n      not\n        /* \"#utility.yul\":10664:10670   */\n      dup5\n        /* \"#utility.yul\":10660:10682   */\n      and\n        /* \"#utility.yul\":10710:10747   */\n      tag_227\n        /* \"#utility.yul\":10742:10746   */\n      dup7\n        /* \"#utility.yul\":10710:10747   */\n      tag_80\n      jump\t// in\n    tag_227:\n        /* \"#utility.yul\":10769:10770   */\n      0x00\n        /* \"#utility.yul\":10783:10991   */\n    tag_228:\n        /* \"#utility.yul\":10797:10804   */\n      dup3\n        /* \"#utility.yul\":10794:10795   */\n      dup2\n        /* \"#utility.yul\":10791:10805   */\n      lt\n        /* \"#utility.yul\":10783:10991   */\n      iszero\n      tag_230\n      jumpi\n        /* \"#utility.yul\":10876:10885   */\n      dup5\n        /* \"#utility.yul\":10871:10874   */\n      dup10\n        /* \"#utility.yul\":10867:10886   */\n      add\n        /* \"#utility.yul\":10861:10887   */\n      mload\n        /* \"#utility.yul\":10853:10859   */\n      dup3\n        /* \"#utility.yul\":10846:10888   */\n      sstore\n        /* \"#utility.yul\":10927:10928   */\n      0x01\n        /* \"#utility.yul\":10919:10925   */\n      dup3\n        /* \"#utility.yul\":10915:10929   */\n      add\n        /* \"#utility.yul\":10905:10929   */\n      swap2\n      pop\n        /* \"#utility.yul\":10974:10976   */\n      0x20\n        /* \"#utility.yul\":10963:10972   */\n      dup6\n        /* \"#utility.yul\":10959:10977   */\n      add\n        /* \"#utility.yul\":10946:10977   */\n      swap5\n      pop\n        /* \"#utility.yul\":10820:10824   */\n      0x20\n        /* \"#utility.yul\":10817:10818   */\n      dup2\n        /* \"#utility.yul\":10813:10825   */\n      add\n        /* \"#utility.yul\":10808:10825   */\n      swap1\n      pop\n        /* \"#utility.yul\":10783:10991   */\n      jump(tag_228)\n    tag_230:\n        /* \"#utility.yul\":11019:11025   */\n      dup7\n        /* \"#utility.yul\":11010:11017   */\n      dup4\n        /* \"#utility.yul\":11007:11026   */\n      lt\n        /* \"#utility.yul\":11004:11183   */\n      iszero\n      tag_231\n      jumpi\n        /* \"#utility.yul\":11077:11086   */\n      dup5\n        /* \"#utility.yul\":11072:11075   */\n      dup10\n        /* \"#utility.yul\":11068:11087   */\n      add\n        /* \"#utility.yul\":11062:11088   */\n      mload\n        /* \"#utility.yul\":11120:11168   */\n      tag_232\n        /* \"#utility.yul\":11162:11166   */\n      0x1f\n        /* \"#utility.yul\":11154:11160   */\n      dup10\n        /* \"#utility.yul\":11150:11167   */\n      and\n        /* \"#utility.yul\":11139:11148   */\n      dup3\n        /* \"#utility.yul\":11120:11168   */\n      tag_93\n      jump\t// in\n    tag_232:\n        /* \"#utility.yul\":11112:11118   */\n      dup4\n        /* \"#utility.yul\":11105:11169   */\n      sstore\n        /* \"#utility.yul\":11027:11183   */\n      pop\n        /* \"#utility.yul\":11004:11183   */\n    tag_231:\n        /* \"#utility.yul\":11229:11230   */\n      0x01\n        /* \"#utility.yul\":11225:11226   */\n      0x02\n        /* \"#utility.yul\":11217:11223   */\n      dup9\n        /* \"#utility.yul\":11213:11227   */\n      mul\n        /* \"#utility.yul\":11209:11231   */\n      add\n        /* \"#utility.yul\":11203:11207   */\n      dup9\n        /* \"#utility.yul\":11196:11232   */\n      sstore\n        /* \"#utility.yul\":10631:11242   */\n      pop\n      pop\n      pop\n        /* \"#utility.yul\":10594:11481   */\n    tag_223:\n      pop\n        /* \"#utility.yul\":10184:11487   */\n      pop\n      pop\n      pop\n        /* \"#utility.yul\":10092:11487   */\n      pop\n      pop\n      jump\t// out\n\n    auxdata: 0xa26469706673582212202b89d3c7a9ca3f0dd8f84fa5c7a7cf5654bd496d4c43b05e77774b4d4f13136064736f6c634300081a0033\n}\n",
				"bytecode": {
					"linkReferences": {},
					"object": "608060405234801561000f575f80fd5b506040518060400160405280600881526020017f6a6572656d6961730000000000000000000000000000000000000000000000008152505f908161005391906102b5565b50600a600181905550600160025f6101000a81548160ff021916908315150217905550610384565b5f81519050919050565b7f4e487b71000000000000000000000000000000000000000000000000000000005f52604160045260245ffd5b7f4e487b71000000000000000000000000000000000000000000000000000000005f52602260045260245ffd5b5f60028204905060018216806100f657607f821691505b602082108103610109576101086100b2565b5b50919050565b5f819050815f5260205f209050919050565b5f6020601f8301049050919050565b5f82821b905092915050565b5f6008830261016b7fffffffffffffffffffffffffffffffffffffffffffffffffffffffffffffffff82610130565b6101758683610130565b95508019841693508086168417925050509392505050565b5f819050919050565b5f819050919050565b5f6101b96101b46101af8461018d565b610196565b61018d565b9050919050565b5f819050919050565b6101d28361019f565b6101e66101de826101c0565b84845461013c565b825550505050565b5f90565b6101fa6101ee565b6102058184846101c9565b505050565b5b818110156102285761021d5f826101f2565b60018101905061020b565b5050565b601f82111561026d5761023e8161010f565b61024784610121565b81016020851015610256578190505b61026a61026285610121565b83018261020a565b50505b505050565b5f82821c905092915050565b5f61028d5f1984600802610272565b1980831691505092915050565b5f6102a5838361027e565b9150826002028217905092915050565b6102be8261007b565b67ffffffffffffffff8111156102d7576102d6610085565b5b6102e182546100df565b6102ec82828561022c565b5f60209050601f83116001811461031d575f841561030b578287015190505b610315858261029a565b86555061037c565b601f19841661032b8661010f565b5f5b828110156103525784890151825560018201915060208501945060208101905061032d565b8683101561036f578489015161036b601f89168261027e565b8355505b6001600288020188555050505b505050505050565b6108af806103915f395ff3fe608060405234801561000f575f80fd5b506004361061007b575f3560e01c80638208e6f8116100595780638208e6f8146100c5578063967e6e65146100e1578063c47f0027146100ff578063d5dcf1271461011b5761007b565b806306fdde031461007f5780634cd3d3451461009d5780636840f0ae146100bb575b5f80fd5b610087610137565b604051610094919061029e565b60405180910390f35b6100a56101c2565b6040516100b291906102d8565b60405180910390f35b6100c36101d7565b005b6100df60048036038101906100da919061032c565b6101ed565b005b6100e9610209565b6040516100f6919061036f565b60405180910390f35b610119600480360381019061011491906104b4565b610212565b005b61013560048036038101906101309190610525565b610224565b005b5f80546101439061057d565b80601f016020809104026020016040519081016040528092919081815260200182805461016f9061057d565b80156101ba5780601f10610191576101008083540402835291602001916101ba565b820191905f5260205f20905b81548152906001019060200180831161019d57829003601f168201915b505050505081565b5f60025f9054906101000a900460ff16905090565b600180546101e591906105da565b600181905550565b8060025f6101000a81548160ff02191690831515021790555050565b5f600154905090565b805f908161022091906107aa565b5050565b8060018190555050565b5f81519050919050565b5f82825260208201905092915050565b8281835e5f83830152505050565b5f601f19601f8301169050919050565b5f6102708261022e565b61027a8185610238565b935061028a818560208601610248565b61029381610256565b840191505092915050565b5f6020820190508181035f8301526102b68184610266565b905092915050565b5f8115159050919050565b6102d2816102be565b82525050565b5f6020820190506102eb5f8301846102c9565b92915050565b5f604051905090565b5f80fd5b5f80fd5b61030b816102be565b8114610315575f80fd5b50565b5f8135905061032681610302565b92915050565b5f60208284031215610341576103406102fa565b5b5f61034e84828501610318565b91505092915050565b5f819050919050565b61036981610357565b82525050565b5f6020820190506103825f830184610360565b92915050565b5f80fd5b5f80fd5b7f4e487b71000000000000000000000000000000000000000000000000000000005f52604160045260245ffd5b6103c682610256565b810181811067ffffffffffffffff821117156103e5576103e4610390565b5b80604052505050565b5f6103f76102f1565b905061040382826103bd565b919050565b5f67ffffffffffffffff82111561042257610421610390565b5b61042b82610256565b9050602081019050919050565b828183375f83830152505050565b5f61045861045384610408565b6103ee565b9050828152602081018484840111156104745761047361038c565b5b61047f848285610438565b509392505050565b5f82601f83011261049b5761049a610388565b5b81356104ab848260208601610446565b91505092915050565b5f602082840312156104c9576104c86102fa565b5b5f82013567ffffffffffffffff8111156104e6576104e56102fe565b5b6104f284828501610487565b91505092915050565b61050481610357565b811461050e575f80fd5b50565b5f8135905061051f816104fb565b92915050565b5f6020828403121561053a576105396102fa565b5b5f61054784828501610511565b91505092915050565b7f4e487b71000000000000000000000000000000000000000000000000000000005f52602260045260245ffd5b5f600282049050600182168061059457607f821691505b6020821081036105a7576105a6610550565b5b50919050565b7f4e487b71000000000000000000000000000000000000000000000000000000005f52601160045260245ffd5b5f6105e482610357565b91506105ef83610357565b9250828201905080821115610607576106066105ad565b5b92915050565b5f819050815f5260205f209050919050565b5f6020601f8301049050919050565b5f82821b905092915050565b5f600883026106697fffffffffffffffffffffffffffffffffffffffffffffffffffffffffffffffff8261062e565b610673868361062e565b95508019841693508086168417925050509392505050565b5f819050919050565b5f6106ae6106a96106a484610357565b61068b565b610357565b9050919050565b5f819050919050565b6106c783610694565b6106db6106d3826106b5565b84845461063a565b825550505050565b5f90565b6106ef6106e3565b6106fa8184846106be565b505050565b5b8181101561071d576107125f826106e7565b600181019050610700565b5050565b601f821115610762576107338161060d565b61073c8461061f565b8101602085101561074b578190505b61075f6107578561061f565b8301826106ff565b50505b505050565b5f82821c905092915050565b5f6107825f1984600802610767565b1980831691505092915050565b5f61079a8383610773565b9150826002028217905092915050565b6107b38261022e565b67ffffffffffffffff8111156107cc576107cb610390565b5b6107d6825461057d565b6107e1828285610721565b5f60209050601f831160018114610812575f8415610800578287015190505b61080a858261078f565b865550610871565b601f1984166108208661060d565b5f5b8281101561084757848901518255600182019150602085019450602081019050610822565b868310156108645784890151610860601f891682610773565b8355505b6001600288020188555050505b50505050505056fea26469706673582212202b89d3c7a9ca3f0dd8f84fa5c7a7cf5654bd496d4c43b05e77774b4d4f13136064736f6c634300081a0033",
					"opcodes": "PUSH1 0x80 PUSH1 0x40 MSTORE CALLVALUE DUP1 ISZERO PUSH2 0xF JUMPI PUSH0 DUP1 REVERT JUMPDEST POP PUSH1 0x40 MLOAD DUP1 PUSH1 0x40 ADD PUSH1 0x40 MSTORE DUP1 PUSH1 0x8 DUP2 MSTORE PUSH1 0x20 ADD PUSH32 0x6A6572656D696173000000000000000000000000000000000000000000000000 DUP2 MSTORE POP PUSH0 SWAP1 DUP2 PUSH2 0x53 SWAP2 SWAP1 PUSH2 0x2B5 JUMP JUMPDEST POP PUSH1 0xA PUSH1 0x1 DUP2 SWAP1 SSTORE POP PUSH1 0x1 PUSH1 0x2 PUSH0 PUSH2 0x100 EXP DUP2 SLOAD DUP2 PUSH1 0xFF MUL NOT AND SWAP1 DUP4 ISZERO ISZERO MUL OR SWAP1 SSTORE POP PUSH2 0x384 JUMP JUMPDEST PUSH0 DUP2 MLOAD SWAP1 POP SWAP2 SWAP1 POP JUMP JUMPDEST PUSH32 0x4E487B7100000000000000000000000000000000000000000000000000000000 PUSH0 MSTORE PUSH1 0x41 PUSH1 0x4 MSTORE PUSH1 0x24 PUSH0 REVERT JUMPDEST PUSH32 0x4E487B7100000000000000000000000000000000000000000000000000000000 PUSH0 MSTORE PUSH1 0x22 PUSH1 0x4 MSTORE PUSH1 0x24 PUSH0 REVERT JUMPDEST PUSH0 PUSH1 0x2 DUP3 DIV SWAP1 POP PUSH1 0x1 DUP3 AND DUP1 PUSH2 0xF6 JUMPI PUSH1 0x7F DUP3 AND SWAP2 POP JUMPDEST PUSH1 0x20 DUP3 LT DUP2 SUB PUSH2 0x109 JUMPI PUSH2 0x108 PUSH2 0xB2 JUMP JUMPDEST JUMPDEST POP SWAP2 SWAP1 POP JUMP JUMPDEST PUSH0 DUP2 SWAP1 POP DUP2 PUSH0 MSTORE PUSH1 0x20 PUSH0 KECCAK256 SWAP1 POP SWAP2 SWAP1 POP JUMP JUMPDEST PUSH0 PUSH1 0x20 PUSH1 0x1F DUP4 ADD DIV SWAP1 POP SWAP2 SWAP1 POP JUMP JUMPDEST PUSH0 DUP3 DUP3 SHL SWAP1 POP SWAP3 SWAP2 POP POP JUMP JUMPDEST PUSH0 PUSH1 0x8 DUP4 MUL PUSH2 0x16B PUSH32 0xFFFFFFFFFFFFFFFFFFFFFFFFFFFFFFFFFFFFFFFFFFFFFFFFFFFFFFFFFFFFFFFF DUP3 PUSH2 0x130 JUMP JUMPDEST PUSH2 0x175 DUP7 DUP4 PUSH2 0x130 JUMP JUMPDEST SWAP6 POP DUP1 NOT DUP5 AND SWAP4 POP DUP1 DUP7 AND DUP5 OR SWAP3 POP POP POP SWAP4 SWAP3 POP POP POP JUMP JUMPDEST PUSH0 DUP2 SWAP1 POP SWAP2 SWAP1 POP JUMP JUMPDEST PUSH0 DUP2 SWAP1 POP SWAP2 SWAP1 POP JUMP JUMPDEST PUSH0 PUSH2 0x1B9 PUSH2 0x1B4 PUSH2 0x1AF DUP5 PUSH2 0x18D JUMP JUMPDEST PUSH2 0x196 JUMP JUMPDEST PUSH2 0x18D JUMP JUMPDEST SWAP1 POP SWAP2 SWAP1 POP JUMP JUMPDEST PUSH0 DUP2 SWAP1 POP SWAP2 SWAP1 POP JUMP JUMPDEST PUSH2 0x1D2 DUP4 PUSH2 0x19F JUMP JUMPDEST PUSH2 0x1E6 PUSH2 0x1DE DUP3 PUSH2 0x1C0 JUMP JUMPDEST DUP5 DUP5 SLOAD PUSH2 0x13C JUMP JUMPDEST DUP3 SSTORE POP POP POP POP JUMP JUMPDEST PUSH0 SWAP1 JUMP JUMPDEST PUSH2 0x1FA PUSH2 0x1EE JUMP JUMPDEST PUSH2 0x205 DUP2 DUP5 DUP5 PUSH2 0x1C9 JUMP JUMPDEST POP POP POP JUMP JUMPDEST JUMPDEST DUP2 DUP2 LT ISZERO PUSH2 0x228 JUMPI PUSH2 0x21D PUSH0 DUP3 PUSH2 0x1F2 JUMP JUMPDEST PUSH1 0x1 DUP2 ADD SWAP1 POP PUSH2 0x20B JUMP JUMPDEST POP POP JUMP JUMPDEST PUSH1 0x1F DUP3 GT ISZERO PUSH2 0x26D JUMPI PUSH2 0x23E DUP2 PUSH2 0x10F JUMP JUMPDEST PUSH2 0x247 DUP5 PUSH2 0x121 JUMP JUMPDEST DUP2 ADD PUSH1 0x20 DUP6 LT ISZERO PUSH2 0x256 JUMPI DUP2 SWAP1 POP JUMPDEST PUSH2 0x26A PUSH2 0x262 DUP6 PUSH2 0x121 JUMP JUMPDEST DUP4 ADD DUP3 PUSH2 0x20A JUMP JUMPDEST POP POP JUMPDEST POP POP POP JUMP JUMPDEST PUSH0 DUP3 DUP3 SHR SWAP1 POP SWAP3 SWAP2 POP POP JUMP JUMPDEST PUSH0 PUSH2 0x28D PUSH0 NOT DUP5 PUSH1 0x8 MUL PUSH2 0x272 JUMP JUMPDEST NOT DUP1 DUP4 AND SWAP2 POP POP SWAP3 SWAP2 POP POP JUMP JUMPDEST PUSH0 PUSH2 0x2A5 DUP4 DUP4 PUSH2 0x27E JUMP JUMPDEST SWAP2 POP DUP3 PUSH1 0x2 MUL DUP3 OR SWAP1 POP SWAP3 SWAP2 POP POP JUMP JUMPDEST PUSH2 0x2BE DUP3 PUSH2 0x7B JUMP JUMPDEST PUSH8 0xFFFFFFFFFFFFFFFF DUP2 GT ISZERO PUSH2 0x2D7 JUMPI PUSH2 0x2D6 PUSH2 0x85 JUMP JUMPDEST JUMPDEST PUSH2 0x2E1 DUP3 SLOAD PUSH2 0xDF JUMP JUMPDEST PUSH2 0x2EC DUP3 DUP3 DUP6 PUSH2 0x22C JUMP JUMPDEST PUSH0 PUSH1 0x20 SWAP1 POP PUSH1 0x1F DUP4 GT PUSH1 0x1 DUP2 EQ PUSH2 0x31D JUMPI PUSH0 DUP5 ISZERO PUSH2 0x30B JUMPI DUP3 DUP8 ADD MLOAD SWAP1 POP JUMPDEST PUSH2 0x315 DUP6 DUP3 PUSH2 0x29A JUMP JUMPDEST DUP7 SSTORE POP PUSH2 0x37C JUMP JUMPDEST PUSH1 0x1F NOT DUP5 AND PUSH2 0x32B DUP7 PUSH2 0x10F JUMP JUMPDEST PUSH0 JUMPDEST DUP3 DUP2 LT ISZERO PUSH2 0x352 JUMPI DUP5 DUP10 ADD MLOAD DUP3 SSTORE PUSH1 0x1 DUP3 ADD SWAP2 POP PUSH1 0x20 DUP6 ADD SWAP5 POP PUSH1 0x20 DUP2 ADD SWAP1 POP PUSH2 0x32D JUMP JUMPDEST DUP7 DUP4 LT ISZERO PUSH2 0x36F JUMPI DUP5 DUP10 ADD MLOAD PUSH2 0x36B PUSH1 0x1F DUP10 AND DUP3 PUSH2 0x27E JUMP JUMPDEST DUP4 SSTORE POP JUMPDEST PUSH1 0x1 PUSH1 0x2 DUP9 MUL ADD DUP9 SSTORE POP POP POP JUMPDEST POP POP POP POP POP POP JUMP JUMPDEST PUSH2 0x8AF DUP1 PUSH2 0x391 PUSH0 CODECOPY PUSH0 RETURN INVALID PUSH1 0x80 PUSH1 0x40 MSTORE CALLVALUE DUP1 ISZERO PUSH2 0xF JUMPI PUSH0 DUP1 REVERT JUMPDEST POP PUSH1 0x4 CALLDATASIZE LT PUSH2 0x7B JUMPI PUSH0 CALLDATALOAD PUSH1 0xE0 SHR DUP1 PUSH4 0x8208E6F8 GT PUSH2 0x59 JUMPI DUP1 PUSH4 0x8208E6F8 EQ PUSH2 0xC5 JUMPI DUP1 PUSH4 0x967E6E65 EQ PUSH2 0xE1 JUMPI DUP1 PUSH4 0xC47F0027 EQ PUSH2 0xFF JUMPI DUP1 PUSH4 0xD5DCF127 EQ PUSH2 0x11B JUMPI PUSH2 0x7B JUMP JUMPDEST DUP1 PUSH4 0x6FDDE03 EQ PUSH2 0x7F JUMPI DUP1 PUSH4 0x4CD3D345 EQ PUSH2 0x9D JUMPI DUP1 PUSH4 0x6840F0AE EQ PUSH2 0xBB JUMPI JUMPDEST PUSH0 DUP1 REVERT JUMPDEST PUSH2 0x87 PUSH2 0x137 JUMP JUMPDEST PUSH1 0x40 MLOAD PUSH2 0x94 SWAP2 SWAP1 PUSH2 0x29E JUMP JUMPDEST PUSH1 0x40 MLOAD DUP1 SWAP2 SUB SWAP1 RETURN JUMPDEST PUSH2 0xA5 PUSH2 0x1C2 JUMP JUMPDEST PUSH1 0x40 MLOAD PUSH2 0xB2 SWAP2 SWAP1 PUSH2 0x2D8 JUMP JUMPDEST PUSH1 0x40 MLOAD DUP1 SWAP2 SUB SWAP1 RETURN JUMPDEST PUSH2 0xC3 PUSH2 0x1D7 JUMP JUMPDEST STOP JUMPDEST PUSH2 0xDF PUSH1 0x4 DUP1 CALLDATASIZE SUB DUP2 ADD SWAP1 PUSH2 0xDA SWAP2 SWAP1 PUSH2 0x32C JUMP JUMPDEST PUSH2 0x1ED JUMP JUMPDEST STOP JUMPDEST PUSH2 0xE9 PUSH2 0x209 JUMP JUMPDEST PUSH1 0x40 MLOAD PUSH2 0xF6 SWAP2 SWAP1 PUSH2 0x36F JUMP JUMPDEST PUSH1 0x40 MLOAD DUP1 SWAP2 SUB SWAP1 RETURN JUMPDEST PUSH2 0x119 PUSH1 0x4 DUP1 CALLDATASIZE SUB DUP2 ADD SWAP1 PUSH2 0x114 SWAP2 SWAP1 PUSH2 0x4B4 JUMP JUMPDEST PUSH2 0x212 JUMP JUMPDEST STOP JUMPDEST PUSH2 0x135 PUSH1 0x4 DUP1 CALLDATASIZE SUB DUP2 ADD SWAP1 PUSH2 0x130 SWAP2 SWAP1 PUSH2 0x525 JUMP JUMPDEST PUSH2 0x224 JUMP JUMPDEST STOP JUMPDEST PUSH0 DUP1 SLOAD PUSH2 0x143 SWAP1 PUSH2 0x57D JUMP JUMPDEST DUP1 PUSH1 0x1F ADD PUSH1 0x20 DUP1 SWAP2 DIV MUL PUSH1 0x20 ADD PUSH1 0x40 MLOAD SWAP1 DUP2 ADD PUSH1 0x40 MSTORE DUP1 SWAP3 SWAP2 SWAP1 DUP2 DUP2 MSTORE PUSH1 0x20 ADD DUP3 DUP1 SLOAD PUSH2 0x16F SWAP1 PUSH2 0x57D JUMP JUMPDEST DUP1 ISZERO PUSH2 0x1BA JUMPI DUP1 PUSH1 0x1F LT PUSH2 0x191 JUMPI PUSH2 0x100 DUP1 DUP4 SLOAD DIV MUL DUP4 MSTORE SWAP2 PUSH1 0x20 ADD SWAP2 PUSH2 0x1BA JUMP JUMPDEST DUP3 ADD SWAP2 SWAP1 PUSH0 MSTORE PUSH1 0x20 PUSH0 KECCAK256 SWAP1 JUMPDEST DUP2 SLOAD DUP2 MSTORE SWAP1 PUSH1 0x1 ADD SWAP1 PUSH1 0x20 ADD DUP1 DUP4 GT PUSH2 0x19D JUMPI DUP3 SWAP1 SUB PUSH1 0x1F AND DUP3 ADD SWAP2 JUMPDEST POP POP POP POP POP DUP2 JUMP JUMPDEST PUSH0 PUSH1 0x2 PUSH0 SWAP1 SLOAD SWAP1 PUSH2 0x100 EXP SWAP1 DIV PUSH1 0xFF AND SWAP1 POP SWAP1 JUMP JUMPDEST PUSH1 0x1 DUP1 SLOAD PUSH2 0x1E5 SWAP2 SWAP1 PUSH2 0x5DA JUMP JUMPDEST PUSH1 0x1 DUP2 SWAP1 SSTORE POP JUMP JUMPDEST DUP1 PUSH1 0x2 PUSH0 PUSH2 0x100 EXP DUP2 SLOAD DUP2 PUSH1 0xFF MUL NOT AND SWAP1 DUP4 ISZERO ISZERO MUL OR SWAP1 SSTORE POP POP JUMP JUMPDEST PUSH0 PUSH1 0x1 SLOAD SWAP1 POP SWAP1 JUMP JUMPDEST DUP1 PUSH0 SWAP1 DUP2 PUSH2 0x220 SWAP2 SWAP1 PUSH2 0x7AA JUMP JUMPDEST POP POP JUMP JUMPDEST DUP1 PUSH1 0x1 DUP2 SWAP1 SSTORE POP POP JUMP JUMPDEST PUSH0 DUP2 MLOAD SWAP1 POP SWAP2 SWAP1 POP JUMP JUMPDEST PUSH0 DUP3 DUP3 MSTORE PUSH1 0x20 DUP3 ADD SWAP1 POP SWAP3 SWAP2 POP POP JUMP JUMPDEST DUP3 DUP2 DUP4 MCOPY PUSH0 DUP4 DUP4 ADD MSTORE POP POP POP JUMP JUMPDEST PUSH0 PUSH1 0x1F NOT PUSH1 0x1F DUP4 ADD AND SWAP1 POP SWAP2 SWAP1 POP JUMP JUMPDEST PUSH0 PUSH2 0x270 DUP3 PUSH2 0x22E JUMP JUMPDEST PUSH2 0x27A DUP2 DUP6 PUSH2 0x238 JUMP JUMPDEST SWAP4 POP PUSH2 0x28A DUP2 DUP6 PUSH1 0x20 DUP7 ADD PUSH2 0x248 JUMP JUMPDEST PUSH2 0x293 DUP2 PUSH2 0x256 JUMP JUMPDEST DUP5 ADD SWAP2 POP POP SWAP3 SWAP2 POP POP JUMP JUMPDEST PUSH0 PUSH1 0x20 DUP3 ADD SWAP1 POP DUP2 DUP2 SUB PUSH0 DUP4 ADD MSTORE PUSH2 0x2B6 DUP2 DUP5 PUSH2 0x266 JUMP JUMPDEST SWAP1 POP SWAP3 SWAP2 POP POP JUMP JUMPDEST PUSH0 DUP2 ISZERO ISZERO SWAP1 POP SWAP2 SWAP1 POP JUMP JUMPDEST PUSH2 0x2D2 DUP2 PUSH2 0x2BE JUMP JUMPDEST DUP3 MSTORE POP POP JUMP JUMPDEST PUSH0 PUSH1 0x20 DUP3 ADD SWAP1 POP PUSH2 0x2EB PUSH0 DUP4 ADD DUP5 PUSH2 0x2C9 JUMP JUMPDEST SWAP3 SWAP2 POP POP JUMP JUMPDEST PUSH0 PUSH1 0x40 MLOAD SWAP1 POP SWAP1 JUMP JUMPDEST PUSH0 DUP1 REVERT JUMPDEST PUSH0 DUP1 REVERT JUMPDEST PUSH2 0x30B DUP2 PUSH2 0x2BE JUMP JUMPDEST DUP2 EQ PUSH2 0x315 JUMPI PUSH0 DUP1 REVERT JUMPDEST POP JUMP JUMPDEST PUSH0 DUP2 CALLDATALOAD SWAP1 POP PUSH2 0x326 DUP2 PUSH2 0x302 JUMP JUMPDEST SWAP3 SWAP2 POP POP JUMP JUMPDEST PUSH0 PUSH1 0x20 DUP3 DUP5 SUB SLT ISZERO PUSH2 0x341 JUMPI PUSH2 0x340 PUSH2 0x2FA JUMP JUMPDEST JUMPDEST PUSH0 PUSH2 0x34E DUP5 DUP3 DUP6 ADD PUSH2 0x318 JUMP JUMPDEST SWAP2 POP POP SWAP3 SWAP2 POP POP JUMP JUMPDEST PUSH0 DUP2 SWAP1 POP SWAP2 SWAP1 POP JUMP JUMPDEST PUSH2 0x369 DUP2 PUSH2 0x357 JUMP JUMPDEST DUP3 MSTORE POP POP JUMP JUMPDEST PUSH0 PUSH1 0x20 DUP3 ADD SWAP1 POP PUSH2 0x382 PUSH0 DUP4 ADD DUP5 PUSH2 0x360 JUMP JUMPDEST SWAP3 SWAP2 POP POP JUMP JUMPDEST PUSH0 DUP1 REVERT JUMPDEST PUSH0 DUP1 REVERT JUMPDEST PUSH32 0x4E487B7100000000000000000000000000000000000000000000000000000000 PUSH0 MSTORE PUSH1 0x41 PUSH1 0x4 MSTORE PUSH1 0x24 PUSH0 REVERT JUMPDEST PUSH2 0x3C6 DUP3 PUSH2 0x256 JUMP JUMPDEST DUP2 ADD DUP2 DUP2 LT PUSH8 0xFFFFFFFFFFFFFFFF DUP3 GT OR ISZERO PUSH2 0x3E5 JUMPI PUSH2 0x3E4 PUSH2 0x390 JUMP JUMPDEST JUMPDEST DUP1 PUSH1 0x40 MSTORE POP POP POP JUMP JUMPDEST PUSH0 PUSH2 0x3F7 PUSH2 0x2F1 JUMP JUMPDEST SWAP1 POP PUSH2 0x403 DUP3 DUP3 PUSH2 0x3BD JUMP JUMPDEST SWAP2 SWAP1 POP JUMP JUMPDEST PUSH0 PUSH8 0xFFFFFFFFFFFFFFFF DUP3 GT ISZERO PUSH2 0x422 JUMPI PUSH2 0x421 PUSH2 0x390 JUMP JUMPDEST JUMPDEST PUSH2 0x42B DUP3 PUSH2 0x256 JUMP JUMPDEST SWAP1 POP PUSH1 0x20 DUP2 ADD SWAP1 POP SWAP2 SWAP1 POP JUMP JUMPDEST DUP3 DUP2 DUP4 CALLDATACOPY PUSH0 DUP4 DUP4 ADD MSTORE POP POP POP JUMP JUMPDEST PUSH0 PUSH2 0x458 PUSH2 0x453 DUP5 PUSH2 0x408 JUMP JUMPDEST PUSH2 0x3EE JUMP JUMPDEST SWAP1 POP DUP3 DUP2 MSTORE PUSH1 0x20 DUP2 ADD DUP5 DUP5 DUP5 ADD GT ISZERO PUSH2 0x474 JUMPI PUSH2 0x473 PUSH2 0x38C JUMP JUMPDEST JUMPDEST PUSH2 0x47F DUP5 DUP3 DUP6 PUSH2 0x438 JUMP JUMPDEST POP SWAP4 SWAP3 POP POP POP JUMP JUMPDEST PUSH0 DUP3 PUSH1 0x1F DUP4 ADD SLT PUSH2 0x49B JUMPI PUSH2 0x49A PUSH2 0x388 JUMP JUMPDEST JUMPDEST DUP2 CALLDATALOAD PUSH2 0x4AB DUP5 DUP3 PUSH1 0x20 DUP7 ADD PUSH2 0x446 JUMP JUMPDEST SWAP2 POP POP SWAP3 SWAP2 POP POP JUMP JUMPDEST PUSH0 PUSH1 0x20 DUP3 DUP5 SUB SLT ISZERO PUSH2 0x4C9 JUMPI PUSH2 0x4C8 PUSH2 0x2FA JUMP JUMPDEST JUMPDEST PUSH0 DUP3 ADD CALLDATALOAD PUSH8 0xFFFFFFFFFFFFFFFF DUP2 GT ISZERO PUSH2 0x4E6 JUMPI PUSH2 0x4E5 PUSH2 0x2FE JUMP JUMPDEST JUMPDEST PUSH2 0x4F2 DUP5 DUP3 DUP6 ADD PUSH2 0x487 JUMP JUMPDEST SWAP2 POP POP SWAP3 SWAP2 POP POP JUMP JUMPDEST PUSH2 0x504 DUP2 PUSH2 0x357 JUMP JUMPDEST DUP2 EQ PUSH2 0x50E JUMPI PUSH0 DUP1 REVERT JUMPDEST POP JUMP JUMPDEST PUSH0 DUP2 CALLDATALOAD SWAP1 POP PUSH2 0x51F DUP2 PUSH2 0x4FB JUMP JUMPDEST SWAP3 SWAP2 POP POP JUMP JUMPDEST PUSH0 PUSH1 0x20 DUP3 DUP5 SUB SLT ISZERO PUSH2 0x53A JUMPI PUSH2 0x539 PUSH2 0x2FA JUMP JUMPDEST JUMPDEST PUSH0 PUSH2 0x547 DUP5 DUP3 DUP6 ADD PUSH2 0x511 JUMP JUMPDEST SWAP2 POP POP SWAP3 SWAP2 POP POP JUMP JUMPDEST PUSH32 0x4E487B7100000000000000000000000000000000000000000000000000000000 PUSH0 MSTORE PUSH1 0x22 PUSH1 0x4 MSTORE PUSH1 0x24 PUSH0 REVERT JUMPDEST PUSH0 PUSH1 0x2 DUP3 DIV SWAP1 POP PUSH1 0x1 DUP3 AND DUP1 PUSH2 0x594 JUMPI PUSH1 0x7F DUP3 AND SWAP2 POP JUMPDEST PUSH1 0x20 DUP3 LT DUP2 SUB PUSH2 0x5A7 JUMPI PUSH2 0x5A6 PUSH2 0x550 JUMP JUMPDEST JUMPDEST POP SWAP2 SWAP1 POP JUMP JUMPDEST PUSH32 0x4E487B7100000000000000000000000000000000000000000000000000000000 PUSH0 MSTORE PUSH1 0x11 PUSH1 0x4 MSTORE PUSH1 0x24 PUSH0 REVERT JUMPDEST PUSH0 PUSH2 0x5E4 DUP3 PUSH2 0x357 JUMP JUMPDEST SWAP2 POP PUSH2 0x5EF DUP4 PUSH2 0x357 JUMP JUMPDEST SWAP3 POP DUP3 DUP3 ADD SWAP1 POP DUP1 DUP3 GT ISZERO PUSH2 0x607 JUMPI PUSH2 0x606 PUSH2 0x5AD JUMP JUMPDEST JUMPDEST SWAP3 SWAP2 POP POP JUMP JUMPDEST PUSH0 DUP2 SWAP1 POP DUP2 PUSH0 MSTORE PUSH1 0x20 PUSH0 KECCAK256 SWAP1 POP SWAP2 SWAP1 POP JUMP JUMPDEST PUSH0 PUSH1 0x20 PUSH1 0x1F DUP4 ADD DIV SWAP1 POP SWAP2 SWAP1 POP JUMP JUMPDEST PUSH0 DUP3 DUP3 SHL SWAP1 POP SWAP3 SWAP2 POP POP JUMP JUMPDEST PUSH0 PUSH1 0x8 DUP4 MUL PUSH2 0x669 PUSH32 0xFFFFFFFFFFFFFFFFFFFFFFFFFFFFFFFFFFFFFFFFFFFFFFFFFFFFFFFFFFFFFFFF DUP3 PUSH2 0x62E JUMP JUMPDEST PUSH2 0x673 DUP7 DUP4 PUSH2 0x62E JUMP JUMPDEST SWAP6 POP DUP1 NOT DUP5 AND SWAP4 POP DUP1 DUP7 AND DUP5 OR SWAP3 POP POP POP SWAP4 SWAP3 POP POP POP JUMP JUMPDEST PUSH0 DUP2 SWAP1 POP SWAP2 SWAP1 POP JUMP JUMPDEST PUSH0 PUSH2 0x6AE PUSH2 0x6A9 PUSH2 0x6A4 DUP5 PUSH2 0x357 JUMP JUMPDEST PUSH2 0x68B JUMP JUMPDEST PUSH2 0x357 JUMP JUMPDEST SWAP1 POP SWAP2 SWAP1 POP JUMP JUMPDEST PUSH0 DUP2 SWAP1 POP SWAP2 SWAP1 POP JUMP JUMPDEST PUSH2 0x6C7 DUP4 PUSH2 0x694 JUMP JUMPDEST PUSH2 0x6DB PUSH2 0x6D3 DUP3 PUSH2 0x6B5 JUMP JUMPDEST DUP5 DUP5 SLOAD PUSH2 0x63A JUMP JUMPDEST DUP3 SSTORE POP POP POP POP JUMP JUMPDEST PUSH0 SWAP1 JUMP JUMPDEST PUSH2 0x6EF PUSH2 0x6E3 JUMP JUMPDEST PUSH2 0x6FA DUP2 DUP5 DUP5 PUSH2 0x6BE JUMP JUMPDEST POP POP POP JUMP JUMPDEST JUMPDEST DUP2 DUP2 LT ISZERO PUSH2 0x71D JUMPI PUSH2 0x712 PUSH0 DUP3 PUSH2 0x6E7 JUMP JUMPDEST PUSH1 0x1 DUP2 ADD SWAP1 POP PUSH2 0x700 JUMP JUMPDEST POP POP JUMP JUMPDEST PUSH1 0x1F DUP3 GT ISZERO PUSH2 0x762 JUMPI PUSH2 0x733 DUP2 PUSH2 0x60D JUMP JUMPDEST PUSH2 0x73C DUP5 PUSH2 0x61F JUMP JUMPDEST DUP2 ADD PUSH1 0x20 DUP6 LT ISZERO PUSH2 0x74B JUMPI DUP2 SWAP1 POP JUMPDEST PUSH2 0x75F PUSH2 0x757 DUP6 PUSH2 0x61F JUMP JUMPDEST DUP4 ADD DUP3 PUSH2 0x6FF JUMP JUMPDEST POP POP JUMPDEST POP POP POP JUMP JUMPDEST PUSH0 DUP3 DUP3 SHR SWAP1 POP SWAP3 SWAP2 POP POP JUMP JUMPDEST PUSH0 PUSH2 0x782 PUSH0 NOT DUP5 PUSH1 0x8 MUL PUSH2 0x767 JUMP JUMPDEST NOT DUP1 DUP4 AND SWAP2 POP POP SWAP3 SWAP2 POP POP JUMP JUMPDEST PUSH0 PUSH2 0x79A DUP4 DUP4 PUSH2 0x773 JUMP JUMPDEST SWAP2 POP DUP3 PUSH1 0x2 MUL DUP3 OR SWAP1 POP SWAP3 SWAP2 POP POP JUMP JUMPDEST PUSH2 0x7B3 DUP3 PUSH2 0x22E JUMP JUMPDEST PUSH8 0xFFFFFFFFFFFFFFFF DUP2 GT ISZERO PUSH2 0x7CC JUMPI PUSH2 0x7CB PUSH2 0x390 JUMP JUMPDEST JUMPDEST PUSH2 0x7D6 DUP3 SLOAD PUSH2 0x57D JUMP JUMPDEST PUSH2 0x7E1 DUP3 DUP3 DUP6 PUSH2 0x721 JUMP JUMPDEST PUSH0 PUSH1 0x20 SWAP1 POP PUSH1 0x1F DUP4 GT PUSH1 0x1 DUP2 EQ PUSH2 0x812 JUMPI PUSH0 DUP5 ISZERO PUSH2 0x800 JUMPI DUP3 DUP8 ADD MLOAD SWAP1 POP JUMPDEST PUSH2 0x80A DUP6 DUP3 PUSH2 0x78F JUMP JUMPDEST DUP7 SSTORE POP PUSH2 0x871 JUMP JUMPDEST PUSH1 0x1F NOT DUP5 AND PUSH2 0x820 DUP7 PUSH2 0x60D JUMP JUMPDEST PUSH0 JUMPDEST DUP3 DUP2 LT ISZERO PUSH2 0x847 JUMPI DUP5 DUP10 ADD MLOAD DUP3 SSTORE PUSH1 0x1 DUP3 ADD SWAP2 POP PUSH1 0x20 DUP6 ADD SWAP5 POP PUSH1 0x20 DUP2 ADD SWAP1 POP PUSH2 0x822 JUMP JUMPDEST DUP7 DUP4 LT ISZERO PUSH2 0x864 JUMPI DUP5 DUP10 ADD MLOAD PUSH2 0x860 PUSH1 0x1F DUP10 AND DUP3 PUSH2 0x773 JUMP JUMPDEST DUP4 SSTORE POP JUMPDEST PUSH1 0x1 PUSH1 0x2 DUP9 MUL ADD DUP9 SSTORE POP POP POP JUMPDEST POP POP POP POP POP POP JUMP INVALID LOG2 PUSH5 0x6970667358 0x22 SLT KECCAK256 0x2B DUP10 0xD3 0xC7 0xA9 0xCA EXTCODEHASH 0xD 0xD8 0xF8 0x4F 0xA5 0xC7 0xA7 0xCF JUMP SLOAD 0xBD BLOBHASH PUSH14 0x4C43B05E77774B4D4F1313606473 PUSH16 0x6C634300081A00330000000000000000 "
				},
				"gasEstimates": {
					"creation": {
						"codeDepositCost": "444600",
						"executionCost": "infinite",
						"totalCost": "infinite"
					},
					"external": {
						"getAge()": "2454",
						"getBrasilian()": "2496",
						"incrementAge()": "infinite",
						"name()": "infinite",
						"setAge(uint256)": "22581",
						"setBrazilian(bool)": "24673",
						"setName(string)": "infinite"
					},
					"internal": {
						"addValues(uint256,uint256)": "infinite"
					}
				},
				"methodIdentifiers": {
					"getAge()": "967e6e65",
					"getBrasilian()": "4cd3d345",
					"incrementAge()": "6840f0ae",
					"name()": "06fdde03",
					"setAge(uint256)": "d5dcf127",
					"setBrazilian(bool)": "8208e6f8",
					"setName(string)": "c47f0027"
				}
			},
			"storageLayout": {
				"storage": [
					{
						"astId": 3,
						"contract": "contracts/PersonDataStorgev1.sol:PersonDataStoragV1",
						"label": "name",
						"offset": 0,
						"slot": "0",
						"type": "t_string_storage"
					},
					{
						"astId": 5,
						"contract": "contracts/PersonDataStorgev1.sol:PersonDataStoragV1",
						"label": "age",
						"offset": 0,
						"slot": "1",
						"type": "t_uint256"
					},
					{
						"astId": 7,
						"contract": "contracts/PersonDataStorgev1.sol:PersonDataStoragV1",
						"label": "brazilian",
						"offset": 0,
						"slot": "2",
						"type": "t_bool"
					}
				],
				"types": {
					"t_bool": {
						"encoding": "inplace",
						"label": "bool",
						"numberOfBytes": "1"
					},
					"t_string_storage": {
						"encoding": "bytes",
						"label": "string",
						"numberOfBytes": "32"
					},
					"t_uint256": {
						"encoding": "inplace",
						"label": "uint256",
						"numberOfBytes": "32"
					}
				}
			},
			"userdoc": {
				"kind": "user",
				"methods": {},
				"version": 1
			}
		}
	}
}