{
	"contracts/BetCandidate.sol": {
		"BetCandidate": {
			"abi": [
				{
					"inputs": [],
					"stateMutability": "nonpayable",
					"type": "constructor"
				},
				{
					"inputs": [
						{
							"internalType": "address",
							"name": "",
							"type": "address"
						}
					],
					"name": "allBets",
					"outputs": [
						{
							"internalType": "uint256",
							"name": "amount",
							"type": "uint256"
						},
						{
							"internalType": "uint256",
							"name": "candidate",
							"type": "uint256"
						},
						{
							"internalType": "uint256",
							"name": "timestamp",
							"type": "uint256"
						},
						{
							"internalType": "uint256",
							"name": "claimed",
							"type": "uint256"
						}
					],
					"stateMutability": "view",
					"type": "function"
				},
				{
					"inputs": [
						{
							"internalType": "uint256",
							"name": "candidate",
							"type": "uint256"
						}
					],
					"name": "bet",
					"outputs": [],
					"stateMutability": "payable",
					"type": "function"
				},
				{
					"inputs": [],
					"name": "claim",
					"outputs": [],
					"stateMutability": "nonpayable",
					"type": "function"
				},
				{
					"inputs": [],
					"name": "dispute",
					"outputs": [
						{
							"internalType": "string",
							"name": "candidate1",
							"type": "string"
						},
						{
							"internalType": "string",
							"name": "candidate2",
							"type": "string"
						},
						{
							"internalType": "string",
							"name": "image1",
							"type": "string"
						},
						{
							"internalType": "string",
							"name": "image2",
							"type": "string"
						},
						{
							"internalType": "uint256",
							"name": "total1",
							"type": "uint256"
						},
						{
							"internalType": "uint256",
							"name": "total2",
							"type": "uint256"
						},
						{
							"internalType": "uint256",
							"name": "winner",
							"type": "uint256"
						}
					],
					"stateMutability": "view",
					"type": "function"
				},
				{
					"inputs": [
						{
							"internalType": "uint256",
							"name": "winner",
							"type": "uint256"
						}
					],
					"name": "finish",
					"outputs": [],
					"stateMutability": "nonpayable",
					"type": "function"
				},
				{
					"inputs": [],
					"name": "netPrize",
					"outputs": [
						{
							"internalType": "uint256",
							"name": "",
							"type": "uint256"
						}
					],
					"stateMutability": "view",
					"type": "function"
				}
			],
			"devdoc": {
				"kind": "dev",
				"methods": {},
				"version": 1
			},
			"evm": {
				"assembly": "    /* \"contracts/BetCandidate.sol\":302:2346  contract BetCandidate{... */\n  mstore(0x40, 0x80)\n    /* \"contracts/BetCandidate.sol\":433:437  1000 */\n  0x03e8\n    /* \"contracts/BetCandidate.sol\":422:437  uint fee = 1000 */\n  0x09\n  sstore\n    /* \"contracts/BetCandidate.sol\":470:796  constructor(){... */\n  callvalue\n  dup1\n  iszero\n  tag_1\n  jumpi\n  0x00\n  dup1\n  revert\ntag_1:\n  pop\n    /* \"contracts/BetCandidate.sol\":501:511  msg.sender */\n  caller\n    /* \"contracts/BetCandidate.sol\":493:498  owner */\n  0x08\n  0x00\n    /* \"contracts/BetCandidate.sol\":493:511  owner = msg.sender */\n  0x0100\n  exp\n  dup2\n  sload\n  dup2\n  0xffffffffffffffffffffffffffffffffffffffff\n  mul\n  not\n  and\n  swap1\n  dup4\n  0xffffffffffffffffffffffffffffffffffffffff\n  and\n  mul\n  or\n  swap1\n  sstore\n  pop\n    /* \"contracts/BetCandidate.sol\":531:789  Dispute({... */\n  mload(0x40)\n  dup1\n  0xe0\n  add\n  0x40\n  mstore\n  dup1\n  mload(0x40)\n  dup1\n  0x40\n  add\n  0x40\n  mstore\n  dup1\n  0x08\n  dup2\n  mstore\n  0x20\n  add\n  0x442e205472756d70000000000000000000000000000000000000000000000000\n  dup2\n  mstore\n  pop\n  dup2\n  mstore\n  0x20\n  add\n  mload(0x40)\n  dup1\n  0x40\n  add\n  0x40\n  mstore\n  dup1\n  0x09\n  dup2\n  mstore\n  0x20\n  add\n  0x4b2e204861727269730000000000000000000000000000000000000000000000\n  dup2\n  mstore\n  pop\n  dup2\n  mstore\n  0x20\n  add\n  mload(0x40)\n  dup1\n  0x40\n  add\n  0x40\n  mstore\n  dup1\n  0x15\n  dup2\n  mstore\n  0x20\n  add\n  0x687474703a2f2f6269742e6c792f337a6d536669410000000000000000000000\n  dup2\n  mstore\n  pop\n  dup2\n  mstore\n  0x20\n  add\n  mload(0x40)\n  dup1\n  0x40\n  add\n  0x40\n  mstore\n  dup1\n  0x15\n  dup2\n  mstore\n  0x20\n  add\n  0x687474703a2f2f6269742e6c792f346746346d594f0000000000000000000000\n  dup2\n  mstore\n  pop\n  dup2\n  mstore\n  0x20\n  add\n    /* \"contracts/BetCandidate.sol\":729:730  0 */\n  0x00\n    /* \"contracts/BetCandidate.sol\":531:789  Dispute({... */\n  dup2\n  mstore\n  0x20\n  add\n    /* \"contracts/BetCandidate.sol\":753:754  0 */\n  0x00\n    /* \"contracts/BetCandidate.sol\":531:789  Dispute({... */\n  dup2\n  mstore\n  0x20\n  add\n    /* \"contracts/BetCandidate.sol\":777:778  0 */\n  0x00\n    /* \"contracts/BetCandidate.sol\":531:789  Dispute({... */\n  dup2\n  mstore\n  pop\n    /* \"contracts/BetCandidate.sol\":521:528  dispute */\n  0x00\n    /* \"contracts/BetCandidate.sol\":521:789  dispute = Dispute({... */\n  dup1\n  dup3\n  add\n  mload\n  dup2\n  0x00\n  add\n  swap1\n  dup2\n  tag_4\n  swap2\n  swap1\n  tag_5\n  jump\t// in\ntag_4:\n  pop\n  0x20\n  dup3\n  add\n  mload\n  dup2\n  0x01\n  add\n  swap1\n  dup2\n  tag_6\n  swap2\n  swap1\n  tag_5\n  jump\t// in\ntag_6:\n  pop\n  0x40\n  dup3\n  add\n  mload\n  dup2\n  0x02\n  add\n  swap1\n  dup2\n  tag_7\n  swap2\n  swap1\n  tag_5\n  jump\t// in\ntag_7:\n  pop\n  0x60\n  dup3\n  add\n  mload\n  dup2\n  0x03\n  add\n  swap1\n  dup2\n  tag_8\n  swap2\n  swap1\n  tag_5\n  jump\t// in\ntag_8:\n  pop\n  0x80\n  dup3\n  add\n  mload\n  dup2\n  0x04\n  add\n  sstore\n  0xa0\n  dup3\n  add\n  mload\n  dup2\n  0x05\n  add\n  sstore\n  0xc0\n  dup3\n  add\n  mload\n  dup2\n  0x06\n  add\n  sstore\n  swap1\n  pop\n  pop\n    /* \"contracts/BetCandidate.sol\":302:2346  contract BetCandidate{... */\n  jump(tag_9)\n    /* \"#utility.yul\":7:106   */\ntag_10:\n    /* \"#utility.yul\":59:65   */\n  0x00\n    /* \"#utility.yul\":93:98   */\n  dup2\n    /* \"#utility.yul\":87:99   */\n  mload\n    /* \"#utility.yul\":77:99   */\n  swap1\n  pop\n    /* \"#utility.yul\":7:106   */\n  swap2\n  swap1\n  pop\n  jump\t// out\n    /* \"#utility.yul\":112:292   */\ntag_11:\n    /* \"#utility.yul\":160:237   */\n  0x4e487b7100000000000000000000000000000000000000000000000000000000\n    /* \"#utility.yul\":157:158   */\n  0x00\n    /* \"#utility.yul\":150:238   */\n  mstore\n    /* \"#utility.yul\":257:261   */\n  0x41\n    /* \"#utility.yul\":254:255   */\n  0x04\n    /* \"#utility.yul\":247:262   */\n  mstore\n    /* \"#utility.yul\":281:285   */\n  0x24\n    /* \"#utility.yul\":278:279   */\n  0x00\n    /* \"#utility.yul\":271:286   */\n  revert\n    /* \"#utility.yul\":298:478   */\ntag_12:\n    /* \"#utility.yul\":346:423   */\n  0x4e487b7100000000000000000000000000000000000000000000000000000000\n    /* \"#utility.yul\":343:344   */\n  0x00\n    /* \"#utility.yul\":336:424   */\n  mstore\n    /* \"#utility.yul\":443:447   */\n  0x22\n    /* \"#utility.yul\":440:441   */\n  0x04\n    /* \"#utility.yul\":433:448   */\n  mstore\n    /* \"#utility.yul\":467:471   */\n  0x24\n    /* \"#utility.yul\":464:465   */\n  0x00\n    /* \"#utility.yul\":457:472   */\n  revert\n    /* \"#utility.yul\":484:804   */\ntag_13:\n    /* \"#utility.yul\":528:534   */\n  0x00\n    /* \"#utility.yul\":565:566   */\n  0x02\n    /* \"#utility.yul\":559:563   */\n  dup3\n    /* \"#utility.yul\":555:567   */\n  div\n    /* \"#utility.yul\":545:567   */\n  swap1\n  pop\n    /* \"#utility.yul\":612:613   */\n  0x01\n    /* \"#utility.yul\":606:610   */\n  dup3\n    /* \"#utility.yul\":602:614   */\n  and\n    /* \"#utility.yul\":633:651   */\n  dup1\n    /* \"#utility.yul\":623:704   */\n  tag_35\n  jumpi\n    /* \"#utility.yul\":689:693   */\n  0x7f\n    /* \"#utility.yul\":681:687   */\n  dup3\n    /* \"#utility.yul\":677:694   */\n  and\n    /* \"#utility.yul\":667:694   */\n  swap2\n  pop\n    /* \"#utility.yul\":623:704   */\ntag_35:\n    /* \"#utility.yul\":751:753   */\n  0x20\n    /* \"#utility.yul\":743:749   */\n  dup3\n    /* \"#utility.yul\":740:754   */\n  lt\n    /* \"#utility.yul\":720:738   */\n  dup2\n    /* \"#utility.yul\":717:755   */\n  sub\n    /* \"#utility.yul\":714:798   */\n  tag_36\n  jumpi\n    /* \"#utility.yul\":770:788   */\n  tag_37\n  tag_12\n  jump\t// in\ntag_37:\n    /* \"#utility.yul\":714:798   */\ntag_36:\n    /* \"#utility.yul\":535:804   */\n  pop\n    /* \"#utility.yul\":484:804   */\n  swap2\n  swap1\n  pop\n  jump\t// out\n    /* \"#utility.yul\":810:951   */\ntag_14:\n    /* \"#utility.yul\":859:863   */\n  0x00\n    /* \"#utility.yul\":882:885   */\n  dup2\n    /* \"#utility.yul\":874:885   */\n  swap1\n  pop\n    /* \"#utility.yul\":905:908   */\n  dup2\n    /* \"#utility.yul\":902:903   */\n  0x00\n    /* \"#utility.yul\":895:909   */\n  mstore\n    /* \"#utility.yul\":939:943   */\n  0x20\n    /* \"#utility.yul\":936:937   */\n  0x00\n    /* \"#utility.yul\":926:944   */\n  keccak256\n    /* \"#utility.yul\":918:944   */\n  swap1\n  pop\n    /* \"#utility.yul\":810:951   */\n  swap2\n  swap1\n  pop\n  jump\t// out\n    /* \"#utility.yul\":957:1050   */\ntag_15:\n    /* \"#utility.yul\":994:1000   */\n  0x00\n    /* \"#utility.yul\":1041:1043   */\n  0x20\n    /* \"#utility.yul\":1036:1038   */\n  0x1f\n    /* \"#utility.yul\":1029:1034   */\n  dup4\n    /* \"#utility.yul\":1025:1039   */\n  add\n    /* \"#utility.yul\":1021:1044   */\n  div\n    /* \"#utility.yul\":1011:1044   */\n  swap1\n  pop\n    /* \"#utility.yul\":957:1050   */\n  swap2\n  swap1\n  pop\n  jump\t// out\n    /* \"#utility.yul\":1056:1163   */\ntag_16:\n    /* \"#utility.yul\":1100:1108   */\n  0x00\n    /* \"#utility.yul\":1150:1155   */\n  dup3\n    /* \"#utility.yul\":1144:1148   */\n  dup3\n    /* \"#utility.yul\":1140:1156   */\n  shl\n    /* \"#utility.yul\":1119:1156   */\n  swap1\n  pop\n    /* \"#utility.yul\":1056:1163   */\n  swap3\n  swap2\n  pop\n  pop\n  jump\t// out\n    /* \"#utility.yul\":1169:1562   */\ntag_17:\n    /* \"#utility.yul\":1238:1244   */\n  0x00\n    /* \"#utility.yul\":1288:1289   */\n  0x08\n    /* \"#utility.yul\":1276:1286   */\n  dup4\n    /* \"#utility.yul\":1272:1290   */\n  mul\n    /* \"#utility.yul\":1311:1408   */\n  tag_42\n    /* \"#utility.yul\":1341:1407   */\n  0xffffffffffffffffffffffffffffffffffffffffffffffffffffffffffffffff\n    /* \"#utility.yul\":1330:1339   */\n  dup3\n    /* \"#utility.yul\":1311:1408   */\n  tag_16\n  jump\t// in\ntag_42:\n    /* \"#utility.yul\":1429:1468   */\n  tag_43\n    /* \"#utility.yul\":1459:1467   */\n  dup7\n    /* \"#utility.yul\":1448:1457   */\n  dup4\n    /* \"#utility.yul\":1429:1468   */\n  tag_16\n  jump\t// in\ntag_43:\n    /* \"#utility.yul\":1417:1468   */\n  swap6\n  pop\n    /* \"#utility.yul\":1501:1505   */\n  dup1\n    /* \"#utility.yul\":1497:1506   */\n  not\n    /* \"#utility.yul\":1490:1495   */\n  dup5\n    /* \"#utility.yul\":1486:1507   */\n  and\n    /* \"#utility.yul\":1477:1507   */\n  swap4\n  pop\n    /* \"#utility.yul\":1550:1554   */\n  dup1\n    /* \"#utility.yul\":1540:1548   */\n  dup7\n    /* \"#utility.yul\":1536:1555   */\n  and\n    /* \"#utility.yul\":1529:1534   */\n  dup5\n    /* \"#utility.yul\":1526:1556   */\n  or\n    /* \"#utility.yul\":1516:1556   */\n  swap3\n  pop\n    /* \"#utility.yul\":1245:1562   */\n  pop\n  pop\n    /* \"#utility.yul\":1169:1562   */\n  swap4\n  swap3\n  pop\n  pop\n  pop\n  jump\t// out\n    /* \"#utility.yul\":1568:1645   */\ntag_18:\n    /* \"#utility.yul\":1605:1612   */\n  0x00\n    /* \"#utility.yul\":1634:1639   */\n  dup2\n    /* \"#utility.yul\":1623:1639   */\n  swap1\n  pop\n    /* \"#utility.yul\":1568:1645   */\n  swap2\n  swap1\n  pop\n  jump\t// out\n    /* \"#utility.yul\":1651:1711   */\ntag_19:\n    /* \"#utility.yul\":1679:1682   */\n  0x00\n    /* \"#utility.yul\":1700:1705   */\n  dup2\n    /* \"#utility.yul\":1693:1705   */\n  swap1\n  pop\n    /* \"#utility.yul\":1651:1711   */\n  swap2\n  swap1\n  pop\n  jump\t// out\n    /* \"#utility.yul\":1717:1859   */\ntag_20:\n    /* \"#utility.yul\":1767:1776   */\n  0x00\n    /* \"#utility.yul\":1800:1853   */\n  tag_47\n    /* \"#utility.yul\":1818:1852   */\n  tag_48\n    /* \"#utility.yul\":1827:1851   */\n  tag_49\n    /* \"#utility.yul\":1845:1850   */\n  dup5\n    /* \"#utility.yul\":1827:1851   */\n  tag_18\n  jump\t// in\ntag_49:\n    /* \"#utility.yul\":1818:1852   */\n  tag_19\n  jump\t// in\ntag_48:\n    /* \"#utility.yul\":1800:1853   */\n  tag_18\n  jump\t// in\ntag_47:\n    /* \"#utility.yul\":1787:1853   */\n  swap1\n  pop\n    /* \"#utility.yul\":1717:1859   */\n  swap2\n  swap1\n  pop\n  jump\t// out\n    /* \"#utility.yul\":1865:1940   */\ntag_21:\n    /* \"#utility.yul\":1908:1911   */\n  0x00\n    /* \"#utility.yul\":1929:1934   */\n  dup2\n    /* \"#utility.yul\":1922:1934   */\n  swap1\n  pop\n    /* \"#utility.yul\":1865:1940   */\n  swap2\n  swap1\n  pop\n  jump\t// out\n    /* \"#utility.yul\":1946:2215   */\ntag_22:\n    /* \"#utility.yul\":2056:2095   */\n  tag_52\n    /* \"#utility.yul\":2087:2094   */\n  dup4\n    /* \"#utility.yul\":2056:2095   */\n  tag_20\n  jump\t// in\ntag_52:\n    /* \"#utility.yul\":2117:2208   */\n  tag_53\n    /* \"#utility.yul\":2166:2207   */\n  tag_54\n    /* \"#utility.yul\":2190:2206   */\n  dup3\n    /* \"#utility.yul\":2166:2207   */\n  tag_21\n  jump\t// in\ntag_54:\n    /* \"#utility.yul\":2158:2164   */\n  dup5\n    /* \"#utility.yul\":2151:2155   */\n  dup5\n    /* \"#utility.yul\":2145:2156   */\n  sload\n    /* \"#utility.yul\":2117:2208   */\n  tag_17\n  jump\t// in\ntag_53:\n    /* \"#utility.yul\":2111:2115   */\n  dup3\n    /* \"#utility.yul\":2104:2209   */\n  sstore\n    /* \"#utility.yul\":2022:2215   */\n  pop\n    /* \"#utility.yul\":1946:2215   */\n  pop\n  pop\n  pop\n  jump\t// out\n    /* \"#utility.yul\":2221:2294   */\ntag_23:\n    /* \"#utility.yul\":2266:2269   */\n  0x00\n    /* \"#utility.yul\":2221:2294   */\n  swap1\n  jump\t// out\n    /* \"#utility.yul\":2300:2489   */\ntag_24:\n    /* \"#utility.yul\":2377:2409   */\n  tag_57\n  tag_23\n  jump\t// in\ntag_57:\n    /* \"#utility.yul\":2418:2483   */\n  tag_58\n    /* \"#utility.yul\":2476:2482   */\n  dup2\n    /* \"#utility.yul\":2468:2474   */\n  dup5\n    /* \"#utility.yul\":2462:2466   */\n  dup5\n    /* \"#utility.yul\":2418:2483   */\n  tag_22\n  jump\t// in\ntag_58:\n    /* \"#utility.yul\":2353:2489   */\n  pop\n    /* \"#utility.yul\":2300:2489   */\n  pop\n  pop\n  jump\t// out\n    /* \"#utility.yul\":2495:2681   */\ntag_25:\n    /* \"#utility.yul\":2555:2675   */\ntag_60:\n    /* \"#utility.yul\":2572:2575   */\n  dup2\n    /* \"#utility.yul\":2565:2570   */\n  dup2\n    /* \"#utility.yul\":2562:2576   */\n  lt\n    /* \"#utility.yul\":2555:2675   */\n  iszero\n  tag_62\n  jumpi\n    /* \"#utility.yul\":2626:2665   */\n  tag_63\n    /* \"#utility.yul\":2663:2664   */\n  0x00\n    /* \"#utility.yul\":2656:2661   */\n  dup3\n    /* \"#utility.yul\":2626:2665   */\n  tag_24\n  jump\t// in\ntag_63:\n    /* \"#utility.yul\":2599:2600   */\n  0x01\n    /* \"#utility.yul\":2592:2597   */\n  dup2\n    /* \"#utility.yul\":2588:2601   */\n  add\n    /* \"#utility.yul\":2579:2601   */\n  swap1\n  pop\n    /* \"#utility.yul\":2555:2675   */\n  jump(tag_60)\ntag_62:\n    /* \"#utility.yul\":2495:2681   */\n  pop\n  pop\n  jump\t// out\n    /* \"#utility.yul\":2687:3230   */\ntag_26:\n    /* \"#utility.yul\":2788:2790   */\n  0x1f\n    /* \"#utility.yul\":2783:2786   */\n  dup3\n    /* \"#utility.yul\":2780:2791   */\n  gt\n    /* \"#utility.yul\":2777:3223   */\n  iszero\n  tag_65\n  jumpi\n    /* \"#utility.yul\":2822:2860   */\n  tag_66\n    /* \"#utility.yul\":2854:2859   */\n  dup2\n    /* \"#utility.yul\":2822:2860   */\n  tag_14\n  jump\t// in\ntag_66:\n    /* \"#utility.yul\":2906:2935   */\n  tag_67\n    /* \"#utility.yul\":2924:2934   */\n  dup5\n    /* \"#utility.yul\":2906:2935   */\n  tag_15\n  jump\t// in\ntag_67:\n    /* \"#utility.yul\":2896:2904   */\n  dup2\n    /* \"#utility.yul\":2892:2936   */\n  add\n    /* \"#utility.yul\":3089:3091   */\n  0x20\n    /* \"#utility.yul\":3077:3087   */\n  dup6\n    /* \"#utility.yul\":3074:3092   */\n  lt\n    /* \"#utility.yul\":3071:3120   */\n  iszero\n  tag_68\n  jumpi\n    /* \"#utility.yul\":3110:3118   */\n  dup2\n    /* \"#utility.yul\":3095:3118   */\n  swap1\n  pop\n    /* \"#utility.yul\":3071:3120   */\ntag_68:\n    /* \"#utility.yul\":3133:3213   */\n  tag_69\n    /* \"#utility.yul\":3189:3211   */\n  tag_70\n    /* \"#utility.yul\":3207:3210   */\n  dup6\n    /* \"#utility.yul\":3189:3211   */\n  tag_15\n  jump\t// in\ntag_70:\n    /* \"#utility.yul\":3179:3187   */\n  dup4\n    /* \"#utility.yul\":3175:3212   */\n  add\n    /* \"#utility.yul\":3162:3173   */\n  dup3\n    /* \"#utility.yul\":3133:3213   */\n  tag_25\n  jump\t// in\ntag_69:\n    /* \"#utility.yul\":2792:3223   */\n  pop\n  pop\n    /* \"#utility.yul\":2777:3223   */\ntag_65:\n    /* \"#utility.yul\":2687:3230   */\n  pop\n  pop\n  pop\n  jump\t// out\n    /* \"#utility.yul\":3236:3353   */\ntag_27:\n    /* \"#utility.yul\":3290:3298   */\n  0x00\n    /* \"#utility.yul\":3340:3345   */\n  dup3\n    /* \"#utility.yul\":3334:3338   */\n  dup3\n    /* \"#utility.yul\":3330:3346   */\n  shr\n    /* \"#utility.yul\":3309:3346   */\n  swap1\n  pop\n    /* \"#utility.yul\":3236:3353   */\n  swap3\n  swap2\n  pop\n  pop\n  jump\t// out\n    /* \"#utility.yul\":3359:3528   */\ntag_28:\n    /* \"#utility.yul\":3403:3409   */\n  0x00\n    /* \"#utility.yul\":3436:3487   */\n  tag_73\n    /* \"#utility.yul\":3484:3485   */\n  0x00\n    /* \"#utility.yul\":3480:3486   */\n  not\n    /* \"#utility.yul\":3472:3477   */\n  dup5\n    /* \"#utility.yul\":3469:3470   */\n  0x08\n    /* \"#utility.yul\":3465:3478   */\n  mul\n    /* \"#utility.yul\":3436:3487   */\n  tag_27\n  jump\t// in\ntag_73:\n    /* \"#utility.yul\":3432:3488   */\n  not\n    /* \"#utility.yul\":3517:3521   */\n  dup1\n    /* \"#utility.yul\":3511:3515   */\n  dup4\n    /* \"#utility.yul\":3507:3522   */\n  and\n    /* \"#utility.yul\":3497:3522   */\n  swap2\n  pop\n    /* \"#utility.yul\":3410:3528   */\n  pop\n    /* \"#utility.yul\":3359:3528   */\n  swap3\n  swap2\n  pop\n  pop\n  jump\t// out\n    /* \"#utility.yul\":3533:3828   */\ntag_29:\n    /* \"#utility.yul\":3609:3613   */\n  0x00\n    /* \"#utility.yul\":3755:3784   */\n  tag_75\n    /* \"#utility.yul\":3780:3783   */\n  dup4\n    /* \"#utility.yul\":3774:3778   */\n  dup4\n    /* \"#utility.yul\":3755:3784   */\n  tag_28\n  jump\t// in\ntag_75:\n    /* \"#utility.yul\":3747:3784   */\n  swap2\n  pop\n    /* \"#utility.yul\":3817:3820   */\n  dup3\n    /* \"#utility.yul\":3814:3815   */\n  0x02\n    /* \"#utility.yul\":3810:3821   */\n  mul\n    /* \"#utility.yul\":3804:3808   */\n  dup3\n    /* \"#utility.yul\":3801:3822   */\n  or\n    /* \"#utility.yul\":3793:3822   */\n  swap1\n  pop\n    /* \"#utility.yul\":3533:3828   */\n  swap3\n  swap2\n  pop\n  pop\n  jump\t// out\n    /* \"#utility.yul\":3833:5228   */\ntag_5:\n    /* \"#utility.yul\":3950:3987   */\n  tag_77\n    /* \"#utility.yul\":3983:3986   */\n  dup3\n    /* \"#utility.yul\":3950:3987   */\n  tag_10\n  jump\t// in\ntag_77:\n    /* \"#utility.yul\":4052:4070   */\n  0xffffffffffffffff\n    /* \"#utility.yul\":4044:4050   */\n  dup2\n    /* \"#utility.yul\":4041:4071   */\n  gt\n    /* \"#utility.yul\":4038:4094   */\n  iszero\n  tag_78\n  jumpi\n    /* \"#utility.yul\":4074:4092   */\n  tag_79\n  tag_11\n  jump\t// in\ntag_79:\n    /* \"#utility.yul\":4038:4094   */\ntag_78:\n    /* \"#utility.yul\":4118:4156   */\n  tag_80\n    /* \"#utility.yul\":4150:4154   */\n  dup3\n    /* \"#utility.yul\":4144:4155   */\n  sload\n    /* \"#utility.yul\":4118:4156   */\n  tag_13\n  jump\t// in\ntag_80:\n    /* \"#utility.yul\":4203:4270   */\n  tag_81\n    /* \"#utility.yul\":4263:4269   */\n  dup3\n    /* \"#utility.yul\":4255:4261   */\n  dup3\n    /* \"#utility.yul\":4249:4253   */\n  dup6\n    /* \"#utility.yul\":4203:4270   */\n  tag_26\n  jump\t// in\ntag_81:\n    /* \"#utility.yul\":4297:4298   */\n  0x00\n    /* \"#utility.yul\":4321:4325   */\n  0x20\n    /* \"#utility.yul\":4308:4325   */\n  swap1\n  pop\n    /* \"#utility.yul\":4353:4355   */\n  0x1f\n    /* \"#utility.yul\":4345:4351   */\n  dup4\n    /* \"#utility.yul\":4342:4356   */\n  gt\n    /* \"#utility.yul\":4370:4371   */\n  0x01\n    /* \"#utility.yul\":4365:4983   */\n  dup2\n  eq\n  tag_83\n  jumpi\n    /* \"#utility.yul\":5027:5028   */\n  0x00\n    /* \"#utility.yul\":5044:5050   */\n  dup5\n    /* \"#utility.yul\":5041:5118   */\n  iszero\n  tag_84\n  jumpi\n    /* \"#utility.yul\":5093:5102   */\n  dup3\n    /* \"#utility.yul\":5088:5091   */\n  dup8\n    /* \"#utility.yul\":5084:5103   */\n  add\n    /* \"#utility.yul\":5078:5104   */\n  mload\n    /* \"#utility.yul\":5069:5104   */\n  swap1\n  pop\n    /* \"#utility.yul\":5041:5118   */\ntag_84:\n    /* \"#utility.yul\":5144:5211   */\n  tag_85\n    /* \"#utility.yul\":5204:5210   */\n  dup6\n    /* \"#utility.yul\":5197:5202   */\n  dup3\n    /* \"#utility.yul\":5144:5211   */\n  tag_29\n  jump\t// in\ntag_85:\n    /* \"#utility.yul\":5138:5142   */\n  dup7\n    /* \"#utility.yul\":5131:5212   */\n  sstore\n    /* \"#utility.yul\":5000:5222   */\n  pop\n    /* \"#utility.yul\":4335:5222   */\n  jump(tag_82)\n    /* \"#utility.yul\":4365:4983   */\ntag_83:\n    /* \"#utility.yul\":4417:4421   */\n  0x1f\n    /* \"#utility.yul\":4413:4422   */\n  not\n    /* \"#utility.yul\":4405:4411   */\n  dup5\n    /* \"#utility.yul\":4401:4423   */\n  and\n    /* \"#utility.yul\":4451:4488   */\n  tag_86\n    /* \"#utility.yul\":4483:4487   */\n  dup7\n    /* \"#utility.yul\":4451:4488   */\n  tag_14\n  jump\t// in\ntag_86:\n    /* \"#utility.yul\":4510:4511   */\n  0x00\n    /* \"#utility.yul\":4524:4732   */\ntag_87:\n    /* \"#utility.yul\":4538:4545   */\n  dup3\n    /* \"#utility.yul\":4535:4536   */\n  dup2\n    /* \"#utility.yul\":4532:4546   */\n  lt\n    /* \"#utility.yul\":4524:4732   */\n  iszero\n  tag_89\n  jumpi\n    /* \"#utility.yul\":4617:4626   */\n  dup5\n    /* \"#utility.yul\":4612:4615   */\n  dup10\n    /* \"#utility.yul\":4608:4627   */\n  add\n    /* \"#utility.yul\":4602:4628   */\n  mload\n    /* \"#utility.yul\":4594:4600   */\n  dup3\n    /* \"#utility.yul\":4587:4629   */\n  sstore\n    /* \"#utility.yul\":4668:4669   */\n  0x01\n    /* \"#utility.yul\":4660:4666   */\n  dup3\n    /* \"#utility.yul\":4656:4670   */\n  add\n    /* \"#utility.yul\":4646:4670   */\n  swap2\n  pop\n    /* \"#utility.yul\":4715:4717   */\n  0x20\n    /* \"#utility.yul\":4704:4713   */\n  dup6\n    /* \"#utility.yul\":4700:4718   */\n  add\n    /* \"#utility.yul\":4687:4718   */\n  swap5\n  pop\n    /* \"#utility.yul\":4561:4565   */\n  0x20\n    /* \"#utility.yul\":4558:4559   */\n  dup2\n    /* \"#utility.yul\":4554:4566   */\n  add\n    /* \"#utility.yul\":4549:4566   */\n  swap1\n  pop\n    /* \"#utility.yul\":4524:4732   */\n  jump(tag_87)\ntag_89:\n    /* \"#utility.yul\":4760:4766   */\n  dup7\n    /* \"#utility.yul\":4751:4758   */\n  dup4\n    /* \"#utility.yul\":4748:4767   */\n  lt\n    /* \"#utility.yul\":4745:4924   */\n  iszero\n  tag_90\n  jumpi\n    /* \"#utility.yul\":4818:4827   */\n  dup5\n    /* \"#utility.yul\":4813:4816   */\n  dup10\n    /* \"#utility.yul\":4809:4828   */\n  add\n    /* \"#utility.yul\":4803:4829   */\n  mload\n    /* \"#utility.yul\":4861:4909   */\n  tag_91\n    /* \"#utility.yul\":4903:4907   */\n  0x1f\n    /* \"#utility.yul\":4895:4901   */\n  dup10\n    /* \"#utility.yul\":4891:4908   */\n  and\n    /* \"#utility.yul\":4880:4889   */\n  dup3\n    /* \"#utility.yul\":4861:4909   */\n  tag_28\n  jump\t// in\ntag_91:\n    /* \"#utility.yul\":4853:4859   */\n  dup4\n    /* \"#utility.yul\":4846:4910   */\n  sstore\n    /* \"#utility.yul\":4768:4924   */\n  pop\n    /* \"#utility.yul\":4745:4924   */\ntag_90:\n    /* \"#utility.yul\":4970:4971   */\n  0x01\n    /* \"#utility.yul\":4966:4967   */\n  0x02\n    /* \"#utility.yul\":4958:4964   */\n  dup9\n    /* \"#utility.yul\":4954:4968   */\n  mul\n    /* \"#utility.yul\":4950:4972   */\n  add\n    /* \"#utility.yul\":4944:4948   */\n  dup9\n    /* \"#utility.yul\":4937:4973   */\n  sstore\n    /* \"#utility.yul\":4372:4983   */\n  pop\n  pop\n  pop\n    /* \"#utility.yul\":4335:5222   */\ntag_82:\n  pop\n    /* \"#utility.yul\":3925:5228   */\n  pop\n  pop\n  pop\n    /* \"#utility.yul\":3833:5228   */\n  pop\n  pop\n  jump\t// out\n    /* \"contracts/BetCandidate.sol\":302:2346  contract BetCandidate{... */\ntag_9:\n  dataSize(sub_0)\n  dup1\n  dataOffset(sub_0)\n  0x00\n  codecopy\n  0x00\n  return\nstop\n\nsub_0: assembly {\n        /* \"contracts/BetCandidate.sol\":302:2346  contract BetCandidate{... */\n      mstore(0x40, 0x80)\n      jumpi(tag_1, lt(calldatasize, 0x04))\n      shr(0xe0, calldataload(0x00))\n      dup1\n      0x121de3f6\n      eq\n      tag_2\n      jumpi\n      dup1\n      0x4e71d92d\n      eq\n      tag_3\n      jumpi\n      dup1\n      0x7365870b\n      eq\n      tag_4\n      jumpi\n      dup1\n      0x93bebee8\n      eq\n      tag_5\n      jumpi\n      dup1\n      0xd353a1cb\n      eq\n      tag_6\n      jumpi\n      dup1\n      0xf240f7c3\n      eq\n      tag_7\n      jumpi\n    tag_1:\n      0x00\n      dup1\n      revert\n        /* \"contracts/BetCandidate.sol\":443:463  uint public netPrize */\n    tag_2:\n      callvalue\n      dup1\n      iszero\n      tag_8\n      jumpi\n      0x00\n      dup1\n      revert\n    tag_8:\n      pop\n      tag_9\n      tag_10\n      jump\t// in\n    tag_9:\n      mload(0x40)\n      tag_11\n      swap2\n      swap1\n      tag_12\n      jump\t// in\n    tag_11:\n      mload(0x40)\n      dup1\n      swap2\n      sub\n      swap1\n      return\n        /* \"contracts/BetCandidate.sol\":1835:2344  function claim() external {... */\n    tag_3:\n      callvalue\n      dup1\n      iszero\n      tag_13\n      jumpi\n      0x00\n      dup1\n      revert\n    tag_13:\n      pop\n      tag_14\n      tag_15\n      jump\t// in\n    tag_14:\n      stop\n        /* \"contracts/BetCandidate.sol\":802:1354  function bet(uint candidate) external payable {... */\n    tag_4:\n      tag_16\n      0x04\n      dup1\n      calldatasize\n      sub\n      dup2\n      add\n      swap1\n      tag_17\n      swap2\n      swap1\n      tag_18\n      jump\t// in\n    tag_17:\n      tag_19\n      jump\t// in\n    tag_16:\n      stop\n        /* \"contracts/BetCandidate.sol\":358:396  mapping (address => Bet)public allBets */\n    tag_5:\n      callvalue\n      dup1\n      iszero\n      tag_20\n      jumpi\n      0x00\n      dup1\n      revert\n    tag_20:\n      pop\n      tag_21\n      0x04\n      dup1\n      calldatasize\n      sub\n      dup2\n      add\n      swap1\n      tag_22\n      swap2\n      swap1\n      tag_23\n      jump\t// in\n    tag_22:\n      tag_24\n      jump\t// in\n    tag_21:\n      mload(0x40)\n      tag_25\n      swap5\n      swap4\n      swap3\n      swap2\n      swap1\n      tag_26\n      jump\t// in\n    tag_25:\n      mload(0x40)\n      dup1\n      swap2\n      sub\n      swap1\n      return\n        /* \"contracts/BetCandidate.sol\":1360:1829  function finish(uint winner) external {... */\n    tag_6:\n      callvalue\n      dup1\n      iszero\n      tag_27\n      jumpi\n      0x00\n      dup1\n      revert\n    tag_27:\n      pop\n      tag_28\n      0x04\n      dup1\n      calldatasize\n      sub\n      dup2\n      add\n      swap1\n      tag_29\n      swap2\n      swap1\n      tag_18\n      jump\t// in\n    tag_29:\n      tag_30\n      jump\t// in\n    tag_28:\n      stop\n        /* \"contracts/BetCandidate.sol\":330:352  Dispute public dispute */\n    tag_7:\n      callvalue\n      dup1\n      iszero\n      tag_31\n      jumpi\n      0x00\n      dup1\n      revert\n    tag_31:\n      pop\n      tag_32\n      tag_33\n      jump\t// in\n    tag_32:\n      mload(0x40)\n      tag_34\n      swap8\n      swap7\n      swap6\n      swap5\n      swap4\n      swap3\n      swap2\n      swap1\n      tag_35\n      jump\t// in\n    tag_34:\n      mload(0x40)\n      dup1\n      swap2\n      sub\n      swap1\n      return\n        /* \"contracts/BetCandidate.sol\":443:463  uint public netPrize */\n    tag_10:\n      sload(0x0a)\n      dup2\n      jump\t// out\n        /* \"contracts/BetCandidate.sol\":1835:2344  function claim() external {... */\n    tag_15:\n        /* \"contracts/BetCandidate.sol\":1871:1889  Bet memory userBet */\n      0x00\n        /* \"contracts/BetCandidate.sol\":1892:1899  allBets */\n      0x07\n        /* \"contracts/BetCandidate.sol\":1892:1911  allBets[msg.sender] */\n      0x00\n        /* \"contracts/BetCandidate.sol\":1900:1910  msg.sender */\n      caller\n        /* \"contracts/BetCandidate.sol\":1892:1911  allBets[msg.sender] */\n      0xffffffffffffffffffffffffffffffffffffffff\n      and\n      0xffffffffffffffffffffffffffffffffffffffff\n      and\n      dup2\n      mstore\n      0x20\n      add\n      swap1\n      dup2\n      mstore\n      0x20\n      add\n      0x00\n      keccak256\n        /* \"contracts/BetCandidate.sol\":1871:1911  Bet memory userBet = allBets[msg.sender] */\n      mload(0x40)\n      dup1\n      0x80\n      add\n      0x40\n      mstore\n      swap1\n      dup2\n      0x00\n      dup3\n      add\n      sload\n      dup2\n      mstore\n      0x20\n      add\n      0x01\n      dup3\n      add\n      sload\n      dup2\n      mstore\n      0x20\n      add\n      0x02\n      dup3\n      add\n      sload\n      dup2\n      mstore\n      0x20\n      add\n      0x03\n      dup3\n      add\n      sload\n      dup2\n      mstore\n      pop\n      pop\n      swap1\n      pop\n        /* \"contracts/BetCandidate.sol\":1946:1947  0 */\n      0x00\n        /* \"contracts/BetCandidate.sol\":1929:1936  dispute */\n      dup1\n        /* \"contracts/BetCandidate.sol\":1929:1943  dispute.winner */\n      0x06\n      add\n      sload\n        /* \"contracts/BetCandidate.sol\":1929:1947  dispute.winner > 0 */\n      gt\n        /* \"contracts/BetCandidate.sol\":1929:1986  dispute.winner > 0 && dispute.winner == userBet.candidate */\n      dup1\n      iszero\n      tag_37\n      jumpi\n      pop\n        /* \"contracts/BetCandidate.sol\":1969:1976  userBet */\n      dup1\n        /* \"contracts/BetCandidate.sol\":1969:1986  userBet.candidate */\n      0x20\n      add\n      mload\n        /* \"contracts/BetCandidate.sol\":1951:1958  dispute */\n      0x00\n        /* \"contracts/BetCandidate.sol\":1951:1965  dispute.winner */\n      0x06\n      add\n      sload\n        /* \"contracts/BetCandidate.sol\":1951:1986  dispute.winner == userBet.candidate */\n      eq\n        /* \"contracts/BetCandidate.sol\":1929:1986  dispute.winner > 0 && dispute.winner == userBet.candidate */\n    tag_37:\n        /* \"contracts/BetCandidate.sol\":1929:2010  dispute.winner > 0 && dispute.winner == userBet.candidate && userBet.claimed == 0 */\n      dup1\n      iszero\n      tag_38\n      jumpi\n      pop\n        /* \"contracts/BetCandidate.sol\":2009:2010  0 */\n      0x00\n        /* \"contracts/BetCandidate.sol\":1990:1997  userBet */\n      dup2\n        /* \"contracts/BetCandidate.sol\":1990:2005  userBet.claimed */\n      0x60\n      add\n      mload\n        /* \"contracts/BetCandidate.sol\":1990:2010  userBet.claimed == 0 */\n      eq\n        /* \"contracts/BetCandidate.sol\":1929:2010  dispute.winner > 0 && dispute.winner == userBet.candidate && userBet.claimed == 0 */\n    tag_38:\n        /* \"contracts/BetCandidate.sol\":1921:2028  require(dispute.winner > 0 && dispute.winner == userBet.candidate && userBet.claimed == 0, \"Invalid claim\") */\n      tag_39\n      jumpi\n      mload(0x40)\n      0x08c379a000000000000000000000000000000000000000000000000000000000\n      dup2\n      mstore\n      0x04\n      add\n      tag_40\n      swap1\n      tag_41\n      jump\t// in\n    tag_40:\n      mload(0x40)\n      dup1\n      swap2\n      sub\n      swap1\n      revert\n    tag_39:\n        /* \"contracts/BetCandidate.sol\":2039:2056  uint winnerAmount */\n      0x00\n        /* \"contracts/BetCandidate.sol\":2077:2078  1 */\n      0x01\n        /* \"contracts/BetCandidate.sol\":2059:2066  dispute */\n      0x00\n        /* \"contracts/BetCandidate.sol\":2059:2073  dispute.winner */\n      0x06\n      add\n      sload\n        /* \"contracts/BetCandidate.sol\":2059:2078  dispute.winner == 1 */\n      eq\n        /* \"contracts/BetCandidate.sol\":2059:2112  dispute.winner == 1 ? dispute.total1 : dispute.total2 */\n      tag_42\n      jumpi\n        /* \"contracts/BetCandidate.sol\":2098:2105  dispute */\n      0x00\n        /* \"contracts/BetCandidate.sol\":2098:2112  dispute.total2 */\n      0x05\n      add\n      sload\n        /* \"contracts/BetCandidate.sol\":2059:2112  dispute.winner == 1 ? dispute.total1 : dispute.total2 */\n      jump(tag_43)\n    tag_42:\n        /* \"contracts/BetCandidate.sol\":2081:2088  dispute */\n      0x00\n        /* \"contracts/BetCandidate.sol\":2081:2095  dispute.total1 */\n      0x04\n      add\n      sload\n        /* \"contracts/BetCandidate.sol\":2059:2112  dispute.winner == 1 ? dispute.total1 : dispute.total2 */\n    tag_43:\n        /* \"contracts/BetCandidate.sol\":2039:2112  uint winnerAmount = dispute.winner == 1 ? dispute.total1 : dispute.total2 */\n      swap1\n      pop\n        /* \"contracts/BetCandidate.sol\":2122:2132  uint ratio */\n      0x00\n        /* \"contracts/BetCandidate.sol\":2160:2172  winnerAmount */\n      dup2\n        /* \"contracts/BetCandidate.sol\":2153:2156  1e4 */\n      0x2710\n        /* \"contracts/BetCandidate.sol\":2136:2143  userBet */\n      dup5\n        /* \"contracts/BetCandidate.sol\":2136:2150  userBet.amount */\n      0x00\n      add\n      mload\n        /* \"contracts/BetCandidate.sol\":2136:2156  userBet.amount * 1e4 */\n      tag_44\n      swap2\n      swap1\n      tag_45\n      jump\t// in\n    tag_44:\n        /* \"contracts/BetCandidate.sol\":2135:2172  (userBet.amount * 1e4) / winnerAmount */\n      tag_46\n      swap2\n      swap1\n      tag_47\n      jump\t// in\n    tag_46:\n        /* \"contracts/BetCandidate.sol\":2122:2172  uint ratio = (userBet.amount * 1e4) / winnerAmount */\n      swap1\n      pop\n        /* \"contracts/BetCandidate.sol\":2182:2202  uint individualPrize */\n      0x00\n        /* \"contracts/BetCandidate.sol\":2224:2227  1e4 */\n      0x2710\n        /* \"contracts/BetCandidate.sol\":2216:2221  ratio */\n      dup3\n        /* \"contracts/BetCandidate.sol\":2205:2213  netPrize */\n      sload(0x0a)\n        /* \"contracts/BetCandidate.sol\":2205:2221  netPrize * ratio */\n      tag_48\n      swap2\n      swap1\n      tag_45\n      jump\t// in\n    tag_48:\n        /* \"contracts/BetCandidate.sol\":2205:2227  netPrize * ratio / 1e4 */\n      tag_49\n      swap2\n      swap1\n      tag_47\n      jump\t// in\n    tag_49:\n        /* \"contracts/BetCandidate.sol\":2182:2227  uint individualPrize = netPrize * ratio / 1e4 */\n      swap1\n      pop\n        /* \"contracts/BetCandidate.sol\":2267:2282  individualPrize */\n      dup1\n        /* \"contracts/BetCandidate.sol\":2237:2244  allBets */\n      0x07\n        /* \"contracts/BetCandidate.sol\":2237:2256  allBets[msg.sender] */\n      0x00\n        /* \"contracts/BetCandidate.sol\":2245:2255  msg.sender */\n      caller\n        /* \"contracts/BetCandidate.sol\":2237:2256  allBets[msg.sender] */\n      0xffffffffffffffffffffffffffffffffffffffff\n      and\n      0xffffffffffffffffffffffffffffffffffffffff\n      and\n      dup2\n      mstore\n      0x20\n      add\n      swap1\n      dup2\n      mstore\n      0x20\n      add\n      0x00\n      keccak256\n        /* \"contracts/BetCandidate.sol\":2237:2264  allBets[msg.sender].claimed */\n      0x03\n      add\n        /* \"contracts/BetCandidate.sol\":2237:2282  allBets[msg.sender].claimed = individualPrize */\n      dup2\n      swap1\n      sstore\n      pop\n        /* \"contracts/BetCandidate.sol\":2300:2310  msg.sender */\n      caller\n        /* \"contracts/BetCandidate.sol\":2292:2320  payable(msg.sender).transfer */\n      0xffffffffffffffffffffffffffffffffffffffff\n      and\n        /* \"contracts/BetCandidate.sol\":2292:2337  payable(msg.sender).transfer(individualPrize) */\n      0x08fc\n        /* \"contracts/BetCandidate.sol\":2321:2336  individualPrize */\n      dup3\n        /* \"contracts/BetCandidate.sol\":2292:2337  payable(msg.sender).transfer(individualPrize) */\n      swap1\n      dup2\n      iszero\n      mul\n      swap1\n      mload(0x40)\n      0x00\n      mload(0x40)\n      dup1\n      dup4\n      sub\n      dup2\n      dup6\n      dup9\n      dup9\n      call\n      swap4\n      pop\n      pop\n      pop\n      pop\n      iszero\n      dup1\n      iszero\n      tag_51\n      jumpi\n      returndatasize\n      0x00\n      dup1\n      returndatacopy\n      revert(0x00, returndatasize)\n    tag_51:\n      pop\n        /* \"contracts/BetCandidate.sol\":1861:2344  {... */\n      pop\n      pop\n      pop\n      pop\n        /* \"contracts/BetCandidate.sol\":1835:2344  function claim() external {... */\n      jump\t// out\n        /* \"contracts/BetCandidate.sol\":802:1354  function bet(uint candidate) external payable {... */\n    tag_19:\n        /* \"contracts/BetCandidate.sol\":879:880  1 */\n      0x01\n        /* \"contracts/BetCandidate.sol\":866:875  candidate */\n      dup2\n        /* \"contracts/BetCandidate.sol\":866:880  candidate == 1 */\n      eq\n        /* \"contracts/BetCandidate.sol\":866:898  candidate == 1 || candidate == 2 */\n      dup1\n      tag_53\n      jumpi\n      pop\n        /* \"contracts/BetCandidate.sol\":897:898  2 */\n      0x02\n        /* \"contracts/BetCandidate.sol\":884:893  candidate */\n      dup2\n        /* \"contracts/BetCandidate.sol\":884:898  candidate == 2 */\n      eq\n        /* \"contracts/BetCandidate.sol\":866:898  candidate == 1 || candidate == 2 */\n    tag_53:\n        /* \"contracts/BetCandidate.sol\":858:920  require(candidate == 1 || candidate == 2, \"Invalid Candidate\") */\n      tag_54\n      jumpi\n      mload(0x40)\n      0x08c379a000000000000000000000000000000000000000000000000000000000\n      dup2\n      mstore\n      0x04\n      add\n      tag_55\n      swap1\n      tag_56\n      jump\t// in\n    tag_55:\n      mload(0x40)\n      dup1\n      swap2\n      sub\n      swap1\n      revert\n    tag_54:\n        /* \"contracts/BetCandidate.sol\":950:951  0 */\n      0x00\n        /* \"contracts/BetCandidate.sol\":938:947  msg.value */\n      callvalue\n        /* \"contracts/BetCandidate.sol\":938:951  msg.value > 0 */\n      gt\n        /* \"contracts/BetCandidate.sol\":930:967  require(msg.value > 0, \"Invalid bet\") */\n      tag_57\n      jumpi\n      mload(0x40)\n      0x08c379a000000000000000000000000000000000000000000000000000000000\n      dup2\n      mstore\n      0x04\n      add\n      tag_58\n      swap1\n      tag_59\n      jump\t// in\n    tag_58:\n      mload(0x40)\n      dup1\n      swap2\n      sub\n      swap1\n      revert\n    tag_57:\n        /* \"contracts/BetCandidate.sol\":1003:1004  0 */\n      0x00\n        /* \"contracts/BetCandidate.sol\":985:992  dispute */\n      dup1\n        /* \"contracts/BetCandidate.sol\":985:999  dispute.winner */\n      0x06\n      add\n      sload\n        /* \"contracts/BetCandidate.sol\":985:1004  dispute.winner == 0 */\n      eq\n        /* \"contracts/BetCandidate.sol\":977:1031  require(dispute.winner == 0, \"Dispute already closed\") */\n      tag_60\n      jumpi\n      mload(0x40)\n      0x08c379a000000000000000000000000000000000000000000000000000000000\n      dup2\n      mstore\n      0x04\n      add\n      tag_61\n      swap1\n      tag_62\n      jump\t// in\n    tag_61:\n      mload(0x40)\n      dup1\n      swap2\n      sub\n      swap1\n      revert\n    tag_60:\n        /* \"contracts/BetCandidate.sol\":1042:1059  Bet memory newBet */\n      tag_63\n      tag_64\n      jump\t// in\n    tag_63:\n        /* \"contracts/BetCandidate.sol\":1085:1094  msg.value */\n      callvalue\n        /* \"contracts/BetCandidate.sol\":1069:1075  newBet */\n      dup2\n        /* \"contracts/BetCandidate.sol\":1069:1082  newBet.amount */\n      0x00\n      add\n        /* \"contracts/BetCandidate.sol\":1069:1094  newBet.amount = msg.value */\n      dup2\n      dup2\n      mstore\n      pop\n      pop\n        /* \"contracts/BetCandidate.sol\":1123:1132  candidate */\n      dup2\n        /* \"contracts/BetCandidate.sol\":1104:1110  newBet */\n      dup2\n        /* \"contracts/BetCandidate.sol\":1104:1120  newBet.candidate */\n      0x20\n      add\n        /* \"contracts/BetCandidate.sol\":1104:1132  newBet.candidate = candidate */\n      dup2\n      dup2\n      mstore\n      pop\n      pop\n        /* \"contracts/BetCandidate.sol\":1161:1176  block.timestamp */\n      timestamp\n        /* \"contracts/BetCandidate.sol\":1142:1148  newBet */\n      dup2\n        /* \"contracts/BetCandidate.sol\":1142:1158  newBet.timestamp */\n      0x40\n      add\n        /* \"contracts/BetCandidate.sol\":1142:1176  newBet.timestamp = block.timestamp */\n      dup2\n      dup2\n      mstore\n      pop\n      pop\n        /* \"contracts/BetCandidate.sol\":1208:1214  newBet */\n      dup1\n        /* \"contracts/BetCandidate.sol\":1187:1194  allBets */\n      0x07\n        /* \"contracts/BetCandidate.sol\":1187:1206  allBets[msg.sender] */\n      0x00\n        /* \"contracts/BetCandidate.sol\":1195:1205  msg.sender */\n      caller\n        /* \"contracts/BetCandidate.sol\":1187:1206  allBets[msg.sender] */\n      0xffffffffffffffffffffffffffffffffffffffff\n      and\n      0xffffffffffffffffffffffffffffffffffffffff\n      and\n      dup2\n      mstore\n      0x20\n      add\n      swap1\n      dup2\n      mstore\n      0x20\n      add\n      0x00\n      keccak256\n        /* \"contracts/BetCandidate.sol\":1187:1214  allBets[msg.sender]= newBet */\n      0x00\n      dup3\n      add\n      mload\n      dup2\n      0x00\n      add\n      sstore\n      0x20\n      dup3\n      add\n      mload\n      dup2\n      0x01\n      add\n      sstore\n      0x40\n      dup3\n      add\n      mload\n      dup2\n      0x02\n      add\n      sstore\n      0x60\n      dup3\n      add\n      mload\n      dup2\n      0x03\n      add\n      sstore\n      swap1\n      pop\n      pop\n        /* \"contracts/BetCandidate.sol\":1241:1242  1 */\n      0x01\n        /* \"contracts/BetCandidate.sol\":1228:1237  candidate */\n      dup3\n        /* \"contracts/BetCandidate.sol\":1228:1242  candidate == 1 */\n      sub\n        /* \"contracts/BetCandidate.sol\":1225:1338  if(candidate == 1)... */\n      tag_65\n      jumpi\n        /* \"contracts/BetCandidate.sol\":1274:1283  msg.value */\n      callvalue\n        /* \"contracts/BetCandidate.sol\":1256:1263  dispute */\n      0x00\n        /* \"contracts/BetCandidate.sol\":1256:1270  dispute.total1 */\n      0x04\n      add\n      0x00\n        /* \"contracts/BetCandidate.sol\":1256:1283  dispute.total1 += msg.value */\n      dup3\n      dup3\n      sload\n      tag_66\n      swap2\n      swap1\n      tag_67\n      jump\t// in\n    tag_66:\n      swap3\n      pop\n      pop\n      dup2\n      swap1\n      sstore\n      pop\n        /* \"contracts/BetCandidate.sol\":1225:1338  if(candidate == 1)... */\n      jump(tag_68)\n    tag_65:\n        /* \"contracts/BetCandidate.sol\":1329:1338  msg.value */\n      callvalue\n        /* \"contracts/BetCandidate.sol\":1311:1318  dispute */\n      0x00\n        /* \"contracts/BetCandidate.sol\":1311:1325  dispute.total2 */\n      0x05\n      add\n      0x00\n        /* \"contracts/BetCandidate.sol\":1311:1338  dispute.total2 += msg.value */\n      dup3\n      dup3\n      sload\n      tag_69\n      swap2\n      swap1\n      tag_67\n      jump\t// in\n    tag_69:\n      swap3\n      pop\n      pop\n      dup2\n      swap1\n      sstore\n      pop\n        /* \"contracts/BetCandidate.sol\":1225:1338  if(candidate == 1)... */\n    tag_68:\n        /* \"contracts/BetCandidate.sol\":848:1354  {... */\n      pop\n        /* \"contracts/BetCandidate.sol\":802:1354  function bet(uint candidate) external payable {... */\n      pop\n      jump\t// out\n        /* \"contracts/BetCandidate.sol\":358:396  mapping (address => Bet)public allBets */\n    tag_24:\n      mstore(0x20, 0x07)\n      dup1\n      0x00\n      mstore\n      keccak256(0x00, 0x40)\n      0x00\n      swap2\n      pop\n      swap1\n      pop\n      dup1\n      0x00\n      add\n      sload\n      swap1\n      dup1\n      0x01\n      add\n      sload\n      swap1\n      dup1\n      0x02\n      add\n      sload\n      swap1\n      dup1\n      0x03\n      add\n      sload\n      swap1\n      pop\n      dup5\n      jump\t// out\n        /* \"contracts/BetCandidate.sol\":1360:1829  function finish(uint winner) external {... */\n    tag_30:\n        /* \"contracts/BetCandidate.sol\":1430:1435  owner */\n      0x08\n      0x00\n      swap1\n      sload\n      swap1\n      0x0100\n      exp\n      swap1\n      div\n      0xffffffffffffffffffffffffffffffffffffffff\n      and\n        /* \"contracts/BetCandidate.sol\":1416:1435  msg.sender == owner */\n      0xffffffffffffffffffffffffffffffffffffffff\n      and\n        /* \"contracts/BetCandidate.sol\":1416:1426  msg.sender */\n      caller\n        /* \"contracts/BetCandidate.sol\":1416:1435  msg.sender == owner */\n      0xffffffffffffffffffffffffffffffffffffffff\n      and\n      eq\n        /* \"contracts/BetCandidate.sol\":1408:1455  require(msg.sender == owner, \"Invalid account\") */\n      tag_71\n      jumpi\n      mload(0x40)\n      0x08c379a000000000000000000000000000000000000000000000000000000000\n      dup2\n      mstore\n      0x04\n      add\n      tag_72\n      swap1\n      tag_73\n      jump\t// in\n    tag_72:\n      mload(0x40)\n      dup1\n      swap2\n      sub\n      swap1\n      revert\n    tag_71:\n        /* \"contracts/BetCandidate.sol\":1483:1484  1 */\n      0x01\n        /* \"contracts/BetCandidate.sol\":1473:1479  winner */\n      dup2\n        /* \"contracts/BetCandidate.sol\":1473:1484  winner == 1 */\n      eq\n        /* \"contracts/BetCandidate.sol\":1473:1499  winner == 1 || winner == 2 */\n      dup1\n      tag_74\n      jumpi\n      pop\n        /* \"contracts/BetCandidate.sol\":1498:1499  2 */\n      0x02\n        /* \"contracts/BetCandidate.sol\":1488:1494  winner */\n      dup2\n        /* \"contracts/BetCandidate.sol\":1488:1499  winner == 2 */\n      eq\n        /* \"contracts/BetCandidate.sol\":1473:1499  winner == 1 || winner == 2 */\n    tag_74:\n        /* \"contracts/BetCandidate.sol\":1465:1521  require(winner == 1 || winner == 2, \"Invalid Candidate\") */\n      tag_75\n      jumpi\n      mload(0x40)\n      0x08c379a000000000000000000000000000000000000000000000000000000000\n      dup2\n      mstore\n      0x04\n      add\n      tag_76\n      swap1\n      tag_56\n      jump\t// in\n    tag_76:\n      mload(0x40)\n      dup1\n      swap2\n      sub\n      swap1\n      revert\n    tag_75:\n        /* \"contracts/BetCandidate.sol\":1557:1558  0 */\n      0x00\n        /* \"contracts/BetCandidate.sol\":1539:1546  dispute */\n      dup1\n        /* \"contracts/BetCandidate.sol\":1539:1553  dispute.winner */\n      0x06\n      add\n      sload\n        /* \"contracts/BetCandidate.sol\":1539:1558  dispute.winner == 0 */\n      eq\n        /* \"contracts/BetCandidate.sol\":1531:1585  require(dispute.winner == 0, \"Dispute already closed\") */\n      tag_77\n      jumpi\n      mload(0x40)\n      0x08c379a000000000000000000000000000000000000000000000000000000000\n      dup2\n      mstore\n      0x04\n      add\n      tag_78\n      swap1\n      tag_62\n      jump\t// in\n    tag_78:\n      mload(0x40)\n      dup1\n      swap2\n      sub\n      swap1\n      revert\n    tag_77:\n        /* \"contracts/BetCandidate.sol\":1613:1619  winner */\n      dup1\n        /* \"contracts/BetCandidate.sol\":1596:1603  dispute */\n      0x00\n        /* \"contracts/BetCandidate.sol\":1596:1610  dispute.winner */\n      0x06\n      add\n        /* \"contracts/BetCandidate.sol\":1596:1619  dispute.winner = winner */\n      dup2\n      swap1\n      sstore\n      pop\n        /* \"contracts/BetCandidate.sol\":1630:1645  uint grossPrize */\n      0x00\n        /* \"contracts/BetCandidate.sol\":1665:1672  dispute */\n      dup1\n        /* \"contracts/BetCandidate.sol\":1665:1679  dispute.total2 */\n      0x05\n      add\n      sload\n        /* \"contracts/BetCandidate.sol\":1648:1655  dispute */\n      0x00\n        /* \"contracts/BetCandidate.sol\":1648:1662  dispute.total1 */\n      0x04\n      add\n      sload\n        /* \"contracts/BetCandidate.sol\":1648:1679  dispute.total1 + dispute.total2 */\n      tag_79\n      swap2\n      swap1\n      tag_67\n      jump\t// in\n    tag_79:\n        /* \"contracts/BetCandidate.sol\":1630:1679  uint grossPrize = dispute.total1 + dispute.total2 */\n      swap1\n      pop\n        /* \"contracts/BetCandidate.sol\":1689:1704  uint commission */\n      0x00\n        /* \"contracts/BetCandidate.sol\":1728:1731  1e4 */\n      0x2710\n        /* \"contracts/BetCandidate.sol\":1721:1724  fee */\n      sload(0x09)\n        /* \"contracts/BetCandidate.sol\":1708:1718  grossPrize */\n      dup4\n        /* \"contracts/BetCandidate.sol\":1708:1724  grossPrize * fee */\n      tag_80\n      swap2\n      swap1\n      tag_45\n      jump\t// in\n    tag_80:\n        /* \"contracts/BetCandidate.sol\":1707:1731  (grossPrize * fee) / 1e4 */\n      tag_81\n      swap2\n      swap1\n      tag_47\n      jump\t// in\n    tag_81:\n        /* \"contracts/BetCandidate.sol\":1689:1731  uint commission = (grossPrize * fee) / 1e4 */\n      swap1\n      pop\n        /* \"contracts/BetCandidate.sol\":1765:1775  commission */\n      dup1\n        /* \"contracts/BetCandidate.sol\":1752:1762  grossPrize */\n      dup3\n        /* \"contracts/BetCandidate.sol\":1752:1775  grossPrize - commission */\n      tag_82\n      swap2\n      swap1\n      tag_83\n      jump\t// in\n    tag_82:\n        /* \"contracts/BetCandidate.sol\":1741:1749  netPrize */\n      0x0a\n        /* \"contracts/BetCandidate.sol\":1741:1775  netPrize = grossPrize - commission */\n      dup2\n      swap1\n      sstore\n      pop\n        /* \"contracts/BetCandidate.sol\":1795:1800  owner */\n      0x08\n      0x00\n      swap1\n      sload\n      swap1\n      0x0100\n      exp\n      swap1\n      div\n      0xffffffffffffffffffffffffffffffffffffffff\n      and\n        /* \"contracts/BetCandidate.sol\":1786:1810  payable (owner).transfer */\n      0xffffffffffffffffffffffffffffffffffffffff\n      and\n        /* \"contracts/BetCandidate.sol\":1786:1822  payable (owner).transfer(commission) */\n      0x08fc\n        /* \"contracts/BetCandidate.sol\":1811:1821  commission */\n      dup3\n        /* \"contracts/BetCandidate.sol\":1786:1822  payable (owner).transfer(commission) */\n      swap1\n      dup2\n      iszero\n      mul\n      swap1\n      mload(0x40)\n      0x00\n      mload(0x40)\n      dup1\n      dup4\n      sub\n      dup2\n      dup6\n      dup9\n      dup9\n      call\n      swap4\n      pop\n      pop\n      pop\n      pop\n      iszero\n      dup1\n      iszero\n      tag_85\n      jumpi\n      returndatasize\n      0x00\n      dup1\n      returndatacopy\n      revert(0x00, returndatasize)\n    tag_85:\n      pop\n        /* \"contracts/BetCandidate.sol\":1398:1829  {... */\n      pop\n      pop\n        /* \"contracts/BetCandidate.sol\":1360:1829  function finish(uint winner) external {... */\n      pop\n      jump\t// out\n        /* \"contracts/BetCandidate.sol\":330:352  Dispute public dispute */\n    tag_33:\n      0x00\n      dup1\n      0x00\n      add\n      dup1\n      sload\n      tag_86\n      swap1\n      tag_87\n      jump\t// in\n    tag_86:\n      dup1\n      0x1f\n      add\n      0x20\n      dup1\n      swap2\n      div\n      mul\n      0x20\n      add\n      mload(0x40)\n      swap1\n      dup2\n      add\n      0x40\n      mstore\n      dup1\n      swap3\n      swap2\n      swap1\n      dup2\n      dup2\n      mstore\n      0x20\n      add\n      dup3\n      dup1\n      sload\n      tag_88\n      swap1\n      tag_87\n      jump\t// in\n    tag_88:\n      dup1\n      iszero\n      tag_89\n      jumpi\n      dup1\n      0x1f\n      lt\n      tag_90\n      jumpi\n      0x0100\n      dup1\n      dup4\n      sload\n      div\n      mul\n      dup4\n      mstore\n      swap2\n      0x20\n      add\n      swap2\n      jump(tag_89)\n    tag_90:\n      dup3\n      add\n      swap2\n      swap1\n      0x00\n      mstore\n      keccak256(0x00, 0x20)\n      swap1\n    tag_91:\n      dup2\n      sload\n      dup2\n      mstore\n      swap1\n      0x01\n      add\n      swap1\n      0x20\n      add\n      dup1\n      dup4\n      gt\n      tag_91\n      jumpi\n      dup3\n      swap1\n      sub\n      0x1f\n      and\n      dup3\n      add\n      swap2\n    tag_89:\n      pop\n      pop\n      pop\n      pop\n      pop\n      swap1\n      dup1\n      0x01\n      add\n      dup1\n      sload\n      tag_92\n      swap1\n      tag_87\n      jump\t// in\n    tag_92:\n      dup1\n      0x1f\n      add\n      0x20\n      dup1\n      swap2\n      div\n      mul\n      0x20\n      add\n      mload(0x40)\n      swap1\n      dup2\n      add\n      0x40\n      mstore\n      dup1\n      swap3\n      swap2\n      swap1\n      dup2\n      dup2\n      mstore\n      0x20\n      add\n      dup3\n      dup1\n      sload\n      tag_93\n      swap1\n      tag_87\n      jump\t// in\n    tag_93:\n      dup1\n      iszero\n      tag_94\n      jumpi\n      dup1\n      0x1f\n      lt\n      tag_95\n      jumpi\n      0x0100\n      dup1\n      dup4\n      sload\n      div\n      mul\n      dup4\n      mstore\n      swap2\n      0x20\n      add\n      swap2\n      jump(tag_94)\n    tag_95:\n      dup3\n      add\n      swap2\n      swap1\n      0x00\n      mstore\n      keccak256(0x00, 0x20)\n      swap1\n    tag_96:\n      dup2\n      sload\n      dup2\n      mstore\n      swap1\n      0x01\n      add\n      swap1\n      0x20\n      add\n      dup1\n      dup4\n      gt\n      tag_96\n      jumpi\n      dup3\n      swap1\n      sub\n      0x1f\n      and\n      dup3\n      add\n      swap2\n    tag_94:\n      pop\n      pop\n      pop\n      pop\n      pop\n      swap1\n      dup1\n      0x02\n      add\n      dup1\n      sload\n      tag_97\n      swap1\n      tag_87\n      jump\t// in\n    tag_97:\n      dup1\n      0x1f\n      add\n      0x20\n      dup1\n      swap2\n      div\n      mul\n      0x20\n      add\n      mload(0x40)\n      swap1\n      dup2\n      add\n      0x40\n      mstore\n      dup1\n      swap3\n      swap2\n      swap1\n      dup2\n      dup2\n      mstore\n      0x20\n      add\n      dup3\n      dup1\n      sload\n      tag_98\n      swap1\n      tag_87\n      jump\t// in\n    tag_98:\n      dup1\n      iszero\n      tag_99\n      jumpi\n      dup1\n      0x1f\n      lt\n      tag_100\n      jumpi\n      0x0100\n      dup1\n      dup4\n      sload\n      div\n      mul\n      dup4\n      mstore\n      swap2\n      0x20\n      add\n      swap2\n      jump(tag_99)\n    tag_100:\n      dup3\n      add\n      swap2\n      swap1\n      0x00\n      mstore\n      keccak256(0x00, 0x20)\n      swap1\n    tag_101:\n      dup2\n      sload\n      dup2\n      mstore\n      swap1\n      0x01\n      add\n      swap1\n      0x20\n      add\n      dup1\n      dup4\n      gt\n      tag_101\n      jumpi\n      dup3\n      swap1\n      sub\n      0x1f\n      and\n      dup3\n      add\n      swap2\n    tag_99:\n      pop\n      pop\n      pop\n      pop\n      pop\n      swap1\n      dup1\n      0x03\n      add\n      dup1\n      sload\n      tag_102\n      swap1\n      tag_87\n      jump\t// in\n    tag_102:\n      dup1\n      0x1f\n      add\n      0x20\n      dup1\n      swap2\n      div\n      mul\n      0x20\n      add\n      mload(0x40)\n      swap1\n      dup2\n      add\n      0x40\n      mstore\n      dup1\n      swap3\n      swap2\n      swap1\n      dup2\n      dup2\n      mstore\n      0x20\n      add\n      dup3\n      dup1\n      sload\n      tag_103\n      swap1\n      tag_87\n      jump\t// in\n    tag_103:\n      dup1\n      iszero\n      tag_104\n      jumpi\n      dup1\n      0x1f\n      lt\n      tag_105\n      jumpi\n      0x0100\n      dup1\n      dup4\n      sload\n      div\n      mul\n      dup4\n      mstore\n      swap2\n      0x20\n      add\n      swap2\n      jump(tag_104)\n    tag_105:\n      dup3\n      add\n      swap2\n      swap1\n      0x00\n      mstore\n      keccak256(0x00, 0x20)\n      swap1\n    tag_106:\n      dup2\n      sload\n      dup2\n      mstore\n      swap1\n      0x01\n      add\n      swap1\n      0x20\n      add\n      dup1\n      dup4\n      gt\n      tag_106\n      jumpi\n      dup3\n      swap1\n      sub\n      0x1f\n      and\n      dup3\n      add\n      swap2\n    tag_104:\n      pop\n      pop\n      pop\n      pop\n      pop\n      swap1\n      dup1\n      0x04\n      add\n      sload\n      swap1\n      dup1\n      0x05\n      add\n      sload\n      swap1\n      dup1\n      0x06\n      add\n      sload\n      swap1\n      pop\n      dup8\n      jump\t// out\n    tag_64:\n      mload(0x40)\n      dup1\n      0x80\n      add\n      0x40\n      mstore\n      dup1\n      0x00\n      dup2\n      mstore\n      0x20\n      add\n      0x00\n      dup2\n      mstore\n      0x20\n      add\n      0x00\n      dup2\n      mstore\n      0x20\n      add\n      0x00\n      dup2\n      mstore\n      pop\n      swap1\n      jump\t// out\n        /* \"#utility.yul\":7:84   */\n    tag_107:\n        /* \"#utility.yul\":44:51   */\n      0x00\n        /* \"#utility.yul\":73:78   */\n      dup2\n        /* \"#utility.yul\":62:78   */\n      swap1\n      pop\n        /* \"#utility.yul\":7:84   */\n      swap2\n      swap1\n      pop\n      jump\t// out\n        /* \"#utility.yul\":90:208   */\n    tag_108:\n        /* \"#utility.yul\":177:201   */\n      tag_139\n        /* \"#utility.yul\":195:200   */\n      dup2\n        /* \"#utility.yul\":177:201   */\n      tag_107\n      jump\t// in\n    tag_139:\n        /* \"#utility.yul\":172:175   */\n      dup3\n        /* \"#utility.yul\":165:202   */\n      mstore\n        /* \"#utility.yul\":90:208   */\n      pop\n      pop\n      jump\t// out\n        /* \"#utility.yul\":214:436   */\n    tag_12:\n        /* \"#utility.yul\":307:311   */\n      0x00\n        /* \"#utility.yul\":345:347   */\n      0x20\n        /* \"#utility.yul\":334:343   */\n      dup3\n        /* \"#utility.yul\":330:348   */\n      add\n        /* \"#utility.yul\":322:348   */\n      swap1\n      pop\n        /* \"#utility.yul\":358:429   */\n      tag_141\n        /* \"#utility.yul\":426:427   */\n      0x00\n        /* \"#utility.yul\":415:424   */\n      dup4\n        /* \"#utility.yul\":411:428   */\n      add\n        /* \"#utility.yul\":402:408   */\n      dup5\n        /* \"#utility.yul\":358:429   */\n      tag_108\n      jump\t// in\n    tag_141:\n        /* \"#utility.yul\":214:436   */\n      swap3\n      swap2\n      pop\n      pop\n      jump\t// out\n        /* \"#utility.yul\":523:640   */\n    tag_110:\n        /* \"#utility.yul\":632:633   */\n      0x00\n        /* \"#utility.yul\":629:630   */\n      dup1\n        /* \"#utility.yul\":622:634   */\n      revert\n        /* \"#utility.yul\":769:891   */\n    tag_112:\n        /* \"#utility.yul\":842:866   */\n      tag_146\n        /* \"#utility.yul\":860:865   */\n      dup2\n        /* \"#utility.yul\":842:866   */\n      tag_107\n      jump\t// in\n    tag_146:\n        /* \"#utility.yul\":835:840   */\n      dup2\n        /* \"#utility.yul\":832:867   */\n      eq\n        /* \"#utility.yul\":822:885   */\n      tag_147\n      jumpi\n        /* \"#utility.yul\":881:882   */\n      0x00\n        /* \"#utility.yul\":878:879   */\n      dup1\n        /* \"#utility.yul\":871:883   */\n      revert\n        /* \"#utility.yul\":822:885   */\n    tag_147:\n        /* \"#utility.yul\":769:891   */\n      pop\n      jump\t// out\n        /* \"#utility.yul\":897:1036   */\n    tag_113:\n        /* \"#utility.yul\":943:948   */\n      0x00\n        /* \"#utility.yul\":981:987   */\n      dup2\n        /* \"#utility.yul\":968:988   */\n      calldataload\n        /* \"#utility.yul\":959:988   */\n      swap1\n      pop\n        /* \"#utility.yul\":997:1030   */\n      tag_149\n        /* \"#utility.yul\":1024:1029   */\n      dup2\n        /* \"#utility.yul\":997:1030   */\n      tag_112\n      jump\t// in\n    tag_149:\n        /* \"#utility.yul\":897:1036   */\n      swap3\n      swap2\n      pop\n      pop\n      jump\t// out\n        /* \"#utility.yul\":1042:1371   */\n    tag_18:\n        /* \"#utility.yul\":1101:1107   */\n      0x00\n        /* \"#utility.yul\":1150:1152   */\n      0x20\n        /* \"#utility.yul\":1138:1147   */\n      dup3\n        /* \"#utility.yul\":1129:1136   */\n      dup5\n        /* \"#utility.yul\":1125:1148   */\n      sub\n        /* \"#utility.yul\":1121:1153   */\n      slt\n        /* \"#utility.yul\":1118:1237   */\n      iszero\n      tag_151\n      jumpi\n        /* \"#utility.yul\":1156:1235   */\n      tag_152\n      tag_110\n      jump\t// in\n    tag_152:\n        /* \"#utility.yul\":1118:1237   */\n    tag_151:\n        /* \"#utility.yul\":1276:1277   */\n      0x00\n        /* \"#utility.yul\":1301:1354   */\n      tag_153\n        /* \"#utility.yul\":1346:1353   */\n      dup5\n        /* \"#utility.yul\":1337:1343   */\n      dup3\n        /* \"#utility.yul\":1326:1335   */\n      dup6\n        /* \"#utility.yul\":1322:1344   */\n      add\n        /* \"#utility.yul\":1301:1354   */\n      tag_113\n      jump\t// in\n    tag_153:\n        /* \"#utility.yul\":1291:1354   */\n      swap2\n      pop\n        /* \"#utility.yul\":1247:1364   */\n      pop\n        /* \"#utility.yul\":1042:1371   */\n      swap3\n      swap2\n      pop\n      pop\n      jump\t// out\n        /* \"#utility.yul\":1377:1503   */\n    tag_114:\n        /* \"#utility.yul\":1414:1421   */\n      0x00\n        /* \"#utility.yul\":1454:1496   */\n      0xffffffffffffffffffffffffffffffffffffffff\n        /* \"#utility.yul\":1447:1452   */\n      dup3\n        /* \"#utility.yul\":1443:1497   */\n      and\n        /* \"#utility.yul\":1432:1497   */\n      swap1\n      pop\n        /* \"#utility.yul\":1377:1503   */\n      swap2\n      swap1\n      pop\n      jump\t// out\n        /* \"#utility.yul\":1509:1605   */\n    tag_115:\n        /* \"#utility.yul\":1546:1553   */\n      0x00\n        /* \"#utility.yul\":1575:1599   */\n      tag_156\n        /* \"#utility.yul\":1593:1598   */\n      dup3\n        /* \"#utility.yul\":1575:1599   */\n      tag_114\n      jump\t// in\n    tag_156:\n        /* \"#utility.yul\":1564:1599   */\n      swap1\n      pop\n        /* \"#utility.yul\":1509:1605   */\n      swap2\n      swap1\n      pop\n      jump\t// out\n        /* \"#utility.yul\":1611:1733   */\n    tag_116:\n        /* \"#utility.yul\":1684:1708   */\n      tag_158\n        /* \"#utility.yul\":1702:1707   */\n      dup2\n        /* \"#utility.yul\":1684:1708   */\n      tag_115\n      jump\t// in\n    tag_158:\n        /* \"#utility.yul\":1677:1682   */\n      dup2\n        /* \"#utility.yul\":1674:1709   */\n      eq\n        /* \"#utility.yul\":1664:1727   */\n      tag_159\n      jumpi\n        /* \"#utility.yul\":1723:1724   */\n      0x00\n        /* \"#utility.yul\":1720:1721   */\n      dup1\n        /* \"#utility.yul\":1713:1725   */\n      revert\n        /* \"#utility.yul\":1664:1727   */\n    tag_159:\n        /* \"#utility.yul\":1611:1733   */\n      pop\n      jump\t// out\n        /* \"#utility.yul\":1739:1878   */\n    tag_117:\n        /* \"#utility.yul\":1785:1790   */\n      0x00\n        /* \"#utility.yul\":1823:1829   */\n      dup2\n        /* \"#utility.yul\":1810:1830   */\n      calldataload\n        /* \"#utility.yul\":1801:1830   */\n      swap1\n      pop\n        /* \"#utility.yul\":1839:1872   */\n      tag_161\n        /* \"#utility.yul\":1866:1871   */\n      dup2\n        /* \"#utility.yul\":1839:1872   */\n      tag_116\n      jump\t// in\n    tag_161:\n        /* \"#utility.yul\":1739:1878   */\n      swap3\n      swap2\n      pop\n      pop\n      jump\t// out\n        /* \"#utility.yul\":1884:2213   */\n    tag_23:\n        /* \"#utility.yul\":1943:1949   */\n      0x00\n        /* \"#utility.yul\":1992:1994   */\n      0x20\n        /* \"#utility.yul\":1980:1989   */\n      dup3\n        /* \"#utility.yul\":1971:1978   */\n      dup5\n        /* \"#utility.yul\":1967:1990   */\n      sub\n        /* \"#utility.yul\":1963:1995   */\n      slt\n        /* \"#utility.yul\":1960:2079   */\n      iszero\n      tag_163\n      jumpi\n        /* \"#utility.yul\":1998:2077   */\n      tag_164\n      tag_110\n      jump\t// in\n    tag_164:\n        /* \"#utility.yul\":1960:2079   */\n    tag_163:\n        /* \"#utility.yul\":2118:2119   */\n      0x00\n        /* \"#utility.yul\":2143:2196   */\n      tag_165\n        /* \"#utility.yul\":2188:2195   */\n      dup5\n        /* \"#utility.yul\":2179:2185   */\n      dup3\n        /* \"#utility.yul\":2168:2177   */\n      dup6\n        /* \"#utility.yul\":2164:2186   */\n      add\n        /* \"#utility.yul\":2143:2196   */\n      tag_117\n      jump\t// in\n    tag_165:\n        /* \"#utility.yul\":2133:2196   */\n      swap2\n      pop\n        /* \"#utility.yul\":2089:2206   */\n      pop\n        /* \"#utility.yul\":1884:2213   */\n      swap3\n      swap2\n      pop\n      pop\n      jump\t// out\n        /* \"#utility.yul\":2219:2772   */\n    tag_26:\n        /* \"#utility.yul\":2396:2400   */\n      0x00\n        /* \"#utility.yul\":2434:2437   */\n      0x80\n        /* \"#utility.yul\":2423:2432   */\n      dup3\n        /* \"#utility.yul\":2419:2438   */\n      add\n        /* \"#utility.yul\":2411:2438   */\n      swap1\n      pop\n        /* \"#utility.yul\":2448:2519   */\n      tag_167\n        /* \"#utility.yul\":2516:2517   */\n      0x00\n        /* \"#utility.yul\":2505:2514   */\n      dup4\n        /* \"#utility.yul\":2501:2518   */\n      add\n        /* \"#utility.yul\":2492:2498   */\n      dup8\n        /* \"#utility.yul\":2448:2519   */\n      tag_108\n      jump\t// in\n    tag_167:\n        /* \"#utility.yul\":2529:2601   */\n      tag_168\n        /* \"#utility.yul\":2597:2599   */\n      0x20\n        /* \"#utility.yul\":2586:2595   */\n      dup4\n        /* \"#utility.yul\":2582:2600   */\n      add\n        /* \"#utility.yul\":2573:2579   */\n      dup7\n        /* \"#utility.yul\":2529:2601   */\n      tag_108\n      jump\t// in\n    tag_168:\n        /* \"#utility.yul\":2611:2683   */\n      tag_169\n        /* \"#utility.yul\":2679:2681   */\n      0x40\n        /* \"#utility.yul\":2668:2677   */\n      dup4\n        /* \"#utility.yul\":2664:2682   */\n      add\n        /* \"#utility.yul\":2655:2661   */\n      dup6\n        /* \"#utility.yul\":2611:2683   */\n      tag_108\n      jump\t// in\n    tag_169:\n        /* \"#utility.yul\":2693:2765   */\n      tag_170\n        /* \"#utility.yul\":2761:2763   */\n      0x60\n        /* \"#utility.yul\":2750:2759   */\n      dup4\n        /* \"#utility.yul\":2746:2764   */\n      add\n        /* \"#utility.yul\":2737:2743   */\n      dup5\n        /* \"#utility.yul\":2693:2765   */\n      tag_108\n      jump\t// in\n    tag_170:\n        /* \"#utility.yul\":2219:2772   */\n      swap6\n      swap5\n      pop\n      pop\n      pop\n      pop\n      pop\n      jump\t// out\n        /* \"#utility.yul\":2778:2877   */\n    tag_118:\n        /* \"#utility.yul\":2830:2836   */\n      0x00\n        /* \"#utility.yul\":2864:2869   */\n      dup2\n        /* \"#utility.yul\":2858:2870   */\n      mload\n        /* \"#utility.yul\":2848:2870   */\n      swap1\n      pop\n        /* \"#utility.yul\":2778:2877   */\n      swap2\n      swap1\n      pop\n      jump\t// out\n        /* \"#utility.yul\":2883:3052   */\n    tag_119:\n        /* \"#utility.yul\":2967:2978   */\n      0x00\n        /* \"#utility.yul\":3001:3007   */\n      dup3\n        /* \"#utility.yul\":2996:2999   */\n      dup3\n        /* \"#utility.yul\":2989:3008   */\n      mstore\n        /* \"#utility.yul\":3041:3045   */\n      0x20\n        /* \"#utility.yul\":3036:3039   */\n      dup3\n        /* \"#utility.yul\":3032:3046   */\n      add\n        /* \"#utility.yul\":3017:3046   */\n      swap1\n      pop\n        /* \"#utility.yul\":2883:3052   */\n      swap3\n      swap2\n      pop\n      pop\n      jump\t// out\n        /* \"#utility.yul\":3058:3197   */\n    tag_120:\n        /* \"#utility.yul\":3147:3153   */\n      dup3\n        /* \"#utility.yul\":3142:3145   */\n      dup2\n        /* \"#utility.yul\":3137:3140   */\n      dup4\n        /* \"#utility.yul\":3131:3154   */\n      mcopy\n        /* \"#utility.yul\":3188:3189   */\n      0x00\n        /* \"#utility.yul\":3179:3185   */\n      dup4\n        /* \"#utility.yul\":3174:3177   */\n      dup4\n        /* \"#utility.yul\":3170:3186   */\n      add\n        /* \"#utility.yul\":3163:3190   */\n      mstore\n        /* \"#utility.yul\":3058:3197   */\n      pop\n      pop\n      pop\n      jump\t// out\n        /* \"#utility.yul\":3203:3305   */\n    tag_121:\n        /* \"#utility.yul\":3244:3250   */\n      0x00\n        /* \"#utility.yul\":3295:3297   */\n      0x1f\n        /* \"#utility.yul\":3291:3298   */\n      not\n        /* \"#utility.yul\":3286:3288   */\n      0x1f\n        /* \"#utility.yul\":3279:3284   */\n      dup4\n        /* \"#utility.yul\":3275:3289   */\n      add\n        /* \"#utility.yul\":3271:3299   */\n      and\n        /* \"#utility.yul\":3261:3299   */\n      swap1\n      pop\n        /* \"#utility.yul\":3203:3305   */\n      swap2\n      swap1\n      pop\n      jump\t// out\n        /* \"#utility.yul\":3311:3688   */\n    tag_122:\n        /* \"#utility.yul\":3399:3402   */\n      0x00\n        /* \"#utility.yul\":3427:3466   */\n      tag_176\n        /* \"#utility.yul\":3460:3465   */\n      dup3\n        /* \"#utility.yul\":3427:3466   */\n      tag_118\n      jump\t// in\n    tag_176:\n        /* \"#utility.yul\":3482:3553   */\n      tag_177\n        /* \"#utility.yul\":3546:3552   */\n      dup2\n        /* \"#utility.yul\":3541:3544   */\n      dup6\n        /* \"#utility.yul\":3482:3553   */\n      tag_119\n      jump\t// in\n    tag_177:\n        /* \"#utility.yul\":3475:3553   */\n      swap4\n      pop\n        /* \"#utility.yul\":3562:3627   */\n      tag_178\n        /* \"#utility.yul\":3620:3626   */\n      dup2\n        /* \"#utility.yul\":3615:3618   */\n      dup6\n        /* \"#utility.yul\":3608:3612   */\n      0x20\n        /* \"#utility.yul\":3601:3606   */\n      dup7\n        /* \"#utility.yul\":3597:3613   */\n      add\n        /* \"#utility.yul\":3562:3627   */\n      tag_120\n      jump\t// in\n    tag_178:\n        /* \"#utility.yul\":3652:3681   */\n      tag_179\n        /* \"#utility.yul\":3674:3680   */\n      dup2\n        /* \"#utility.yul\":3652:3681   */\n      tag_121\n      jump\t// in\n    tag_179:\n        /* \"#utility.yul\":3647:3650   */\n      dup5\n        /* \"#utility.yul\":3643:3682   */\n      add\n        /* \"#utility.yul\":3636:3682   */\n      swap2\n      pop\n        /* \"#utility.yul\":3403:3688   */\n      pop\n        /* \"#utility.yul\":3311:3688   */\n      swap3\n      swap2\n      pop\n      pop\n      jump\t// out\n        /* \"#utility.yul\":3694:4944   */\n    tag_35:\n        /* \"#utility.yul\":4035:4039   */\n      0x00\n        /* \"#utility.yul\":4073:4076   */\n      0xe0\n        /* \"#utility.yul\":4062:4071   */\n      dup3\n        /* \"#utility.yul\":4058:4077   */\n      add\n        /* \"#utility.yul\":4050:4077   */\n      swap1\n      pop\n        /* \"#utility.yul\":4123:4132   */\n      dup2\n        /* \"#utility.yul\":4117:4121   */\n      dup2\n        /* \"#utility.yul\":4113:4133   */\n      sub\n        /* \"#utility.yul\":4109:4110   */\n      0x00\n        /* \"#utility.yul\":4098:4107   */\n      dup4\n        /* \"#utility.yul\":4094:4111   */\n      add\n        /* \"#utility.yul\":4087:4134   */\n      mstore\n        /* \"#utility.yul\":4151:4229   */\n      tag_181\n        /* \"#utility.yul\":4224:4228   */\n      dup2\n        /* \"#utility.yul\":4215:4221   */\n      dup11\n        /* \"#utility.yul\":4151:4229   */\n      tag_122\n      jump\t// in\n    tag_181:\n        /* \"#utility.yul\":4143:4229   */\n      swap1\n      pop\n        /* \"#utility.yul\":4276:4285   */\n      dup2\n        /* \"#utility.yul\":4270:4274   */\n      dup2\n        /* \"#utility.yul\":4266:4286   */\n      sub\n        /* \"#utility.yul\":4261:4263   */\n      0x20\n        /* \"#utility.yul\":4250:4259   */\n      dup4\n        /* \"#utility.yul\":4246:4264   */\n      add\n        /* \"#utility.yul\":4239:4287   */\n      mstore\n        /* \"#utility.yul\":4304:4382   */\n      tag_182\n        /* \"#utility.yul\":4377:4381   */\n      dup2\n        /* \"#utility.yul\":4368:4374   */\n      dup10\n        /* \"#utility.yul\":4304:4382   */\n      tag_122\n      jump\t// in\n    tag_182:\n        /* \"#utility.yul\":4296:4382   */\n      swap1\n      pop\n        /* \"#utility.yul\":4429:4438   */\n      dup2\n        /* \"#utility.yul\":4423:4427   */\n      dup2\n        /* \"#utility.yul\":4419:4439   */\n      sub\n        /* \"#utility.yul\":4414:4416   */\n      0x40\n        /* \"#utility.yul\":4403:4412   */\n      dup4\n        /* \"#utility.yul\":4399:4417   */\n      add\n        /* \"#utility.yul\":4392:4440   */\n      mstore\n        /* \"#utility.yul\":4457:4535   */\n      tag_183\n        /* \"#utility.yul\":4530:4534   */\n      dup2\n        /* \"#utility.yul\":4521:4527   */\n      dup9\n        /* \"#utility.yul\":4457:4535   */\n      tag_122\n      jump\t// in\n    tag_183:\n        /* \"#utility.yul\":4449:4535   */\n      swap1\n      pop\n        /* \"#utility.yul\":4582:4591   */\n      dup2\n        /* \"#utility.yul\":4576:4580   */\n      dup2\n        /* \"#utility.yul\":4572:4592   */\n      sub\n        /* \"#utility.yul\":4567:4569   */\n      0x60\n        /* \"#utility.yul\":4556:4565   */\n      dup4\n        /* \"#utility.yul\":4552:4570   */\n      add\n        /* \"#utility.yul\":4545:4593   */\n      mstore\n        /* \"#utility.yul\":4610:4688   */\n      tag_184\n        /* \"#utility.yul\":4683:4687   */\n      dup2\n        /* \"#utility.yul\":4674:4680   */\n      dup8\n        /* \"#utility.yul\":4610:4688   */\n      tag_122\n      jump\t// in\n    tag_184:\n        /* \"#utility.yul\":4602:4688   */\n      swap1\n      pop\n        /* \"#utility.yul\":4698:4771   */\n      tag_185\n        /* \"#utility.yul\":4766:4769   */\n      0x80\n        /* \"#utility.yul\":4755:4764   */\n      dup4\n        /* \"#utility.yul\":4751:4770   */\n      add\n        /* \"#utility.yul\":4742:4748   */\n      dup7\n        /* \"#utility.yul\":4698:4771   */\n      tag_108\n      jump\t// in\n    tag_185:\n        /* \"#utility.yul\":4781:4854   */\n      tag_186\n        /* \"#utility.yul\":4849:4852   */\n      0xa0\n        /* \"#utility.yul\":4838:4847   */\n      dup4\n        /* \"#utility.yul\":4834:4853   */\n      add\n        /* \"#utility.yul\":4825:4831   */\n      dup6\n        /* \"#utility.yul\":4781:4854   */\n      tag_108\n      jump\t// in\n    tag_186:\n        /* \"#utility.yul\":4864:4937   */\n      tag_187\n        /* \"#utility.yul\":4932:4935   */\n      0xc0\n        /* \"#utility.yul\":4921:4930   */\n      dup4\n        /* \"#utility.yul\":4917:4936   */\n      add\n        /* \"#utility.yul\":4908:4914   */\n      dup5\n        /* \"#utility.yul\":4864:4937   */\n      tag_108\n      jump\t// in\n    tag_187:\n        /* \"#utility.yul\":3694:4944   */\n      swap9\n      swap8\n      pop\n      pop\n      pop\n      pop\n      pop\n      pop\n      pop\n      pop\n      jump\t// out\n        /* \"#utility.yul\":4950:5113   */\n    tag_123:\n        /* \"#utility.yul\":5090:5105   */\n      0x496e76616c696420636c61696d00000000000000000000000000000000000000\n        /* \"#utility.yul\":5086:5087   */\n      0x00\n        /* \"#utility.yul\":5078:5084   */\n      dup3\n        /* \"#utility.yul\":5074:5088   */\n      add\n        /* \"#utility.yul\":5067:5106   */\n      mstore\n        /* \"#utility.yul\":4950:5113   */\n      pop\n      jump\t// out\n        /* \"#utility.yul\":5119:5485   */\n    tag_124:\n        /* \"#utility.yul\":5261:5264   */\n      0x00\n        /* \"#utility.yul\":5282:5349   */\n      tag_190\n        /* \"#utility.yul\":5346:5348   */\n      0x0d\n        /* \"#utility.yul\":5341:5344   */\n      dup4\n        /* \"#utility.yul\":5282:5349   */\n      tag_119\n      jump\t// in\n    tag_190:\n        /* \"#utility.yul\":5275:5349   */\n      swap2\n      pop\n        /* \"#utility.yul\":5358:5451   */\n      tag_191\n        /* \"#utility.yul\":5447:5450   */\n      dup3\n        /* \"#utility.yul\":5358:5451   */\n      tag_123\n      jump\t// in\n    tag_191:\n        /* \"#utility.yul\":5476:5478   */\n      0x20\n        /* \"#utility.yul\":5471:5474   */\n      dup3\n        /* \"#utility.yul\":5467:5479   */\n      add\n        /* \"#utility.yul\":5460:5479   */\n      swap1\n      pop\n        /* \"#utility.yul\":5119:5485   */\n      swap2\n      swap1\n      pop\n      jump\t// out\n        /* \"#utility.yul\":5491:5910   */\n    tag_41:\n        /* \"#utility.yul\":5657:5661   */\n      0x00\n        /* \"#utility.yul\":5695:5697   */\n      0x20\n        /* \"#utility.yul\":5684:5693   */\n      dup3\n        /* \"#utility.yul\":5680:5698   */\n      add\n        /* \"#utility.yul\":5672:5698   */\n      swap1\n      pop\n        /* \"#utility.yul\":5744:5753   */\n      dup2\n        /* \"#utility.yul\":5738:5742   */\n      dup2\n        /* \"#utility.yul\":5734:5754   */\n      sub\n        /* \"#utility.yul\":5730:5731   */\n      0x00\n        /* \"#utility.yul\":5719:5728   */\n      dup4\n        /* \"#utility.yul\":5715:5732   */\n      add\n        /* \"#utility.yul\":5708:5755   */\n      mstore\n        /* \"#utility.yul\":5772:5903   */\n      tag_193\n        /* \"#utility.yul\":5898:5902   */\n      dup2\n        /* \"#utility.yul\":5772:5903   */\n      tag_124\n      jump\t// in\n    tag_193:\n        /* \"#utility.yul\":5764:5903   */\n      swap1\n      pop\n        /* \"#utility.yul\":5491:5910   */\n      swap2\n      swap1\n      pop\n      jump\t// out\n        /* \"#utility.yul\":5916:6096   */\n    tag_125:\n        /* \"#utility.yul\":5964:6041   */\n      0x4e487b7100000000000000000000000000000000000000000000000000000000\n        /* \"#utility.yul\":5961:5962   */\n      0x00\n        /* \"#utility.yul\":5954:6042   */\n      mstore\n        /* \"#utility.yul\":6061:6065   */\n      0x11\n        /* \"#utility.yul\":6058:6059   */\n      0x04\n        /* \"#utility.yul\":6051:6066   */\n      mstore\n        /* \"#utility.yul\":6085:6089   */\n      0x24\n        /* \"#utility.yul\":6082:6083   */\n      0x00\n        /* \"#utility.yul\":6075:6090   */\n      revert\n        /* \"#utility.yul\":6102:6512   */\n    tag_45:\n        /* \"#utility.yul\":6142:6149   */\n      0x00\n        /* \"#utility.yul\":6165:6185   */\n      tag_196\n        /* \"#utility.yul\":6183:6184   */\n      dup3\n        /* \"#utility.yul\":6165:6185   */\n      tag_107\n      jump\t// in\n    tag_196:\n        /* \"#utility.yul\":6160:6185   */\n      swap2\n      pop\n        /* \"#utility.yul\":6199:6219   */\n      tag_197\n        /* \"#utility.yul\":6217:6218   */\n      dup4\n        /* \"#utility.yul\":6199:6219   */\n      tag_107\n      jump\t// in\n    tag_197:\n        /* \"#utility.yul\":6194:6219   */\n      swap3\n      pop\n        /* \"#utility.yul\":6254:6255   */\n      dup3\n        /* \"#utility.yul\":6251:6252   */\n      dup3\n        /* \"#utility.yul\":6247:6256   */\n      mul\n        /* \"#utility.yul\":6276:6306   */\n      tag_198\n        /* \"#utility.yul\":6294:6305   */\n      dup2\n        /* \"#utility.yul\":6276:6306   */\n      tag_107\n      jump\t// in\n    tag_198:\n        /* \"#utility.yul\":6265:6306   */\n      swap2\n      pop\n        /* \"#utility.yul\":6455:6456   */\n      dup3\n        /* \"#utility.yul\":6446:6453   */\n      dup3\n        /* \"#utility.yul\":6442:6457   */\n      div\n        /* \"#utility.yul\":6439:6440   */\n      dup5\n        /* \"#utility.yul\":6436:6458   */\n      eq\n        /* \"#utility.yul\":6416:6417   */\n      dup4\n        /* \"#utility.yul\":6409:6418   */\n      iszero\n        /* \"#utility.yul\":6389:6472   */\n      or\n        /* \"#utility.yul\":6366:6505   */\n      tag_199\n      jumpi\n        /* \"#utility.yul\":6485:6503   */\n      tag_200\n      tag_125\n      jump\t// in\n    tag_200:\n        /* \"#utility.yul\":6366:6505   */\n    tag_199:\n        /* \"#utility.yul\":6150:6512   */\n      pop\n        /* \"#utility.yul\":6102:6512   */\n      swap3\n      swap2\n      pop\n      pop\n      jump\t// out\n        /* \"#utility.yul\":6518:6698   */\n    tag_126:\n        /* \"#utility.yul\":6566:6643   */\n      0x4e487b7100000000000000000000000000000000000000000000000000000000\n        /* \"#utility.yul\":6563:6564   */\n      0x00\n        /* \"#utility.yul\":6556:6644   */\n      mstore\n        /* \"#utility.yul\":6663:6667   */\n      0x12\n        /* \"#utility.yul\":6660:6661   */\n      0x04\n        /* \"#utility.yul\":6653:6668   */\n      mstore\n        /* \"#utility.yul\":6687:6691   */\n      0x24\n        /* \"#utility.yul\":6684:6685   */\n      0x00\n        /* \"#utility.yul\":6677:6692   */\n      revert\n        /* \"#utility.yul\":6704:6889   */\n    tag_47:\n        /* \"#utility.yul\":6744:6745   */\n      0x00\n        /* \"#utility.yul\":6761:6781   */\n      tag_203\n        /* \"#utility.yul\":6779:6780   */\n      dup3\n        /* \"#utility.yul\":6761:6781   */\n      tag_107\n      jump\t// in\n    tag_203:\n        /* \"#utility.yul\":6756:6781   */\n      swap2\n      pop\n        /* \"#utility.yul\":6795:6815   */\n      tag_204\n        /* \"#utility.yul\":6813:6814   */\n      dup4\n        /* \"#utility.yul\":6795:6815   */\n      tag_107\n      jump\t// in\n    tag_204:\n        /* \"#utility.yul\":6790:6815   */\n      swap3\n      pop\n        /* \"#utility.yul\":6834:6835   */\n      dup3\n        /* \"#utility.yul\":6824:6859   */\n      tag_205\n      jumpi\n        /* \"#utility.yul\":6839:6857   */\n      tag_206\n      tag_126\n      jump\t// in\n    tag_206:\n        /* \"#utility.yul\":6824:6859   */\n    tag_205:\n        /* \"#utility.yul\":6881:6882   */\n      dup3\n        /* \"#utility.yul\":6878:6879   */\n      dup3\n        /* \"#utility.yul\":6874:6883   */\n      div\n        /* \"#utility.yul\":6869:6883   */\n      swap1\n      pop\n        /* \"#utility.yul\":6704:6889   */\n      swap3\n      swap2\n      pop\n      pop\n      jump\t// out\n        /* \"#utility.yul\":6895:7062   */\n    tag_127:\n        /* \"#utility.yul\":7035:7054   */\n      0x496e76616c69642043616e646964617465000000000000000000000000000000\n        /* \"#utility.yul\":7031:7032   */\n      0x00\n        /* \"#utility.yul\":7023:7029   */\n      dup3\n        /* \"#utility.yul\":7019:7033   */\n      add\n        /* \"#utility.yul\":7012:7055   */\n      mstore\n        /* \"#utility.yul\":6895:7062   */\n      pop\n      jump\t// out\n        /* \"#utility.yul\":7068:7434   */\n    tag_128:\n        /* \"#utility.yul\":7210:7213   */\n      0x00\n        /* \"#utility.yul\":7231:7298   */\n      tag_209\n        /* \"#utility.yul\":7295:7297   */\n      0x11\n        /* \"#utility.yul\":7290:7293   */\n      dup4\n        /* \"#utility.yul\":7231:7298   */\n      tag_119\n      jump\t// in\n    tag_209:\n        /* \"#utility.yul\":7224:7298   */\n      swap2\n      pop\n        /* \"#utility.yul\":7307:7400   */\n      tag_210\n        /* \"#utility.yul\":7396:7399   */\n      dup3\n        /* \"#utility.yul\":7307:7400   */\n      tag_127\n      jump\t// in\n    tag_210:\n        /* \"#utility.yul\":7425:7427   */\n      0x20\n        /* \"#utility.yul\":7420:7423   */\n      dup3\n        /* \"#utility.yul\":7416:7428   */\n      add\n        /* \"#utility.yul\":7409:7428   */\n      swap1\n      pop\n        /* \"#utility.yul\":7068:7434   */\n      swap2\n      swap1\n      pop\n      jump\t// out\n        /* \"#utility.yul\":7440:7859   */\n    tag_56:\n        /* \"#utility.yul\":7606:7610   */\n      0x00\n        /* \"#utility.yul\":7644:7646   */\n      0x20\n        /* \"#utility.yul\":7633:7642   */\n      dup3\n        /* \"#utility.yul\":7629:7647   */\n      add\n        /* \"#utility.yul\":7621:7647   */\n      swap1\n      pop\n        /* \"#utility.yul\":7693:7702   */\n      dup2\n        /* \"#utility.yul\":7687:7691   */\n      dup2\n        /* \"#utility.yul\":7683:7703   */\n      sub\n        /* \"#utility.yul\":7679:7680   */\n      0x00\n        /* \"#utility.yul\":7668:7677   */\n      dup4\n        /* \"#utility.yul\":7664:7681   */\n      add\n        /* \"#utility.yul\":7657:7704   */\n      mstore\n        /* \"#utility.yul\":7721:7852   */\n      tag_212\n        /* \"#utility.yul\":7847:7851   */\n      dup2\n        /* \"#utility.yul\":7721:7852   */\n      tag_128\n      jump\t// in\n    tag_212:\n        /* \"#utility.yul\":7713:7852   */\n      swap1\n      pop\n        /* \"#utility.yul\":7440:7859   */\n      swap2\n      swap1\n      pop\n      jump\t// out\n        /* \"#utility.yul\":7865:8026   */\n    tag_129:\n        /* \"#utility.yul\":8005:8018   */\n      0x496e76616c696420626574000000000000000000000000000000000000000000\n        /* \"#utility.yul\":8001:8002   */\n      0x00\n        /* \"#utility.yul\":7993:7999   */\n      dup3\n        /* \"#utility.yul\":7989:8003   */\n      add\n        /* \"#utility.yul\":7982:8019   */\n      mstore\n        /* \"#utility.yul\":7865:8026   */\n      pop\n      jump\t// out\n        /* \"#utility.yul\":8032:8398   */\n    tag_130:\n        /* \"#utility.yul\":8174:8177   */\n      0x00\n        /* \"#utility.yul\":8195:8262   */\n      tag_215\n        /* \"#utility.yul\":8259:8261   */\n      0x0b\n        /* \"#utility.yul\":8254:8257   */\n      dup4\n        /* \"#utility.yul\":8195:8262   */\n      tag_119\n      jump\t// in\n    tag_215:\n        /* \"#utility.yul\":8188:8262   */\n      swap2\n      pop\n        /* \"#utility.yul\":8271:8364   */\n      tag_216\n        /* \"#utility.yul\":8360:8363   */\n      dup3\n        /* \"#utility.yul\":8271:8364   */\n      tag_129\n      jump\t// in\n    tag_216:\n        /* \"#utility.yul\":8389:8391   */\n      0x20\n        /* \"#utility.yul\":8384:8387   */\n      dup3\n        /* \"#utility.yul\":8380:8392   */\n      add\n        /* \"#utility.yul\":8373:8392   */\n      swap1\n      pop\n        /* \"#utility.yul\":8032:8398   */\n      swap2\n      swap1\n      pop\n      jump\t// out\n        /* \"#utility.yul\":8404:8823   */\n    tag_59:\n        /* \"#utility.yul\":8570:8574   */\n      0x00\n        /* \"#utility.yul\":8608:8610   */\n      0x20\n        /* \"#utility.yul\":8597:8606   */\n      dup3\n        /* \"#utility.yul\":8593:8611   */\n      add\n        /* \"#utility.yul\":8585:8611   */\n      swap1\n      pop\n        /* \"#utility.yul\":8657:8666   */\n      dup2\n        /* \"#utility.yul\":8651:8655   */\n      dup2\n        /* \"#utility.yul\":8647:8667   */\n      sub\n        /* \"#utility.yul\":8643:8644   */\n      0x00\n        /* \"#utility.yul\":8632:8641   */\n      dup4\n        /* \"#utility.yul\":8628:8645   */\n      add\n        /* \"#utility.yul\":8621:8668   */\n      mstore\n        /* \"#utility.yul\":8685:8816   */\n      tag_218\n        /* \"#utility.yul\":8811:8815   */\n      dup2\n        /* \"#utility.yul\":8685:8816   */\n      tag_130\n      jump\t// in\n    tag_218:\n        /* \"#utility.yul\":8677:8816   */\n      swap1\n      pop\n        /* \"#utility.yul\":8404:8823   */\n      swap2\n      swap1\n      pop\n      jump\t// out\n        /* \"#utility.yul\":8829:9001   */\n    tag_131:\n        /* \"#utility.yul\":8969:8993   */\n      0x4469737075746520616c726561647920636c6f73656400000000000000000000\n        /* \"#utility.yul\":8965:8966   */\n      0x00\n        /* \"#utility.yul\":8957:8963   */\n      dup3\n        /* \"#utility.yul\":8953:8967   */\n      add\n        /* \"#utility.yul\":8946:8994   */\n      mstore\n        /* \"#utility.yul\":8829:9001   */\n      pop\n      jump\t// out\n        /* \"#utility.yul\":9007:9373   */\n    tag_132:\n        /* \"#utility.yul\":9149:9152   */\n      0x00\n        /* \"#utility.yul\":9170:9237   */\n      tag_221\n        /* \"#utility.yul\":9234:9236   */\n      0x16\n        /* \"#utility.yul\":9229:9232   */\n      dup4\n        /* \"#utility.yul\":9170:9237   */\n      tag_119\n      jump\t// in\n    tag_221:\n        /* \"#utility.yul\":9163:9237   */\n      swap2\n      pop\n        /* \"#utility.yul\":9246:9339   */\n      tag_222\n        /* \"#utility.yul\":9335:9338   */\n      dup3\n        /* \"#utility.yul\":9246:9339   */\n      tag_131\n      jump\t// in\n    tag_222:\n        /* \"#utility.yul\":9364:9366   */\n      0x20\n        /* \"#utility.yul\":9359:9362   */\n      dup3\n        /* \"#utility.yul\":9355:9367   */\n      add\n        /* \"#utility.yul\":9348:9367   */\n      swap1\n      pop\n        /* \"#utility.yul\":9007:9373   */\n      swap2\n      swap1\n      pop\n      jump\t// out\n        /* \"#utility.yul\":9379:9798   */\n    tag_62:\n        /* \"#utility.yul\":9545:9549   */\n      0x00\n        /* \"#utility.yul\":9583:9585   */\n      0x20\n        /* \"#utility.yul\":9572:9581   */\n      dup3\n        /* \"#utility.yul\":9568:9586   */\n      add\n        /* \"#utility.yul\":9560:9586   */\n      swap1\n      pop\n        /* \"#utility.yul\":9632:9641   */\n      dup2\n        /* \"#utility.yul\":9626:9630   */\n      dup2\n        /* \"#utility.yul\":9622:9642   */\n      sub\n        /* \"#utility.yul\":9618:9619   */\n      0x00\n        /* \"#utility.yul\":9607:9616   */\n      dup4\n        /* \"#utility.yul\":9603:9620   */\n      add\n        /* \"#utility.yul\":9596:9643   */\n      mstore\n        /* \"#utility.yul\":9660:9791   */\n      tag_224\n        /* \"#utility.yul\":9786:9790   */\n      dup2\n        /* \"#utility.yul\":9660:9791   */\n      tag_132\n      jump\t// in\n    tag_224:\n        /* \"#utility.yul\":9652:9791   */\n      swap1\n      pop\n        /* \"#utility.yul\":9379:9798   */\n      swap2\n      swap1\n      pop\n      jump\t// out\n        /* \"#utility.yul\":9804:9995   */\n    tag_67:\n        /* \"#utility.yul\":9844:9847   */\n      0x00\n        /* \"#utility.yul\":9863:9883   */\n      tag_226\n        /* \"#utility.yul\":9881:9882   */\n      dup3\n        /* \"#utility.yul\":9863:9883   */\n      tag_107\n      jump\t// in\n    tag_226:\n        /* \"#utility.yul\":9858:9883   */\n      swap2\n      pop\n        /* \"#utility.yul\":9897:9917   */\n      tag_227\n        /* \"#utility.yul\":9915:9916   */\n      dup4\n        /* \"#utility.yul\":9897:9917   */\n      tag_107\n      jump\t// in\n    tag_227:\n        /* \"#utility.yul\":9892:9917   */\n      swap3\n      pop\n        /* \"#utility.yul\":9940:9941   */\n      dup3\n        /* \"#utility.yul\":9937:9938   */\n      dup3\n        /* \"#utility.yul\":9933:9942   */\n      add\n        /* \"#utility.yul\":9926:9942   */\n      swap1\n      pop\n        /* \"#utility.yul\":9961:9964   */\n      dup1\n        /* \"#utility.yul\":9958:9959   */\n      dup3\n        /* \"#utility.yul\":9955:9965   */\n      gt\n        /* \"#utility.yul\":9952:9988   */\n      iszero\n      tag_228\n      jumpi\n        /* \"#utility.yul\":9968:9986   */\n      tag_229\n      tag_125\n      jump\t// in\n    tag_229:\n        /* \"#utility.yul\":9952:9988   */\n    tag_228:\n        /* \"#utility.yul\":9804:9995   */\n      swap3\n      swap2\n      pop\n      pop\n      jump\t// out\n        /* \"#utility.yul\":10001:10166   */\n    tag_133:\n        /* \"#utility.yul\":10141:10158   */\n      0x496e76616c6964206163636f756e740000000000000000000000000000000000\n        /* \"#utility.yul\":10137:10138   */\n      0x00\n        /* \"#utility.yul\":10129:10135   */\n      dup3\n        /* \"#utility.yul\":10125:10139   */\n      add\n        /* \"#utility.yul\":10118:10159   */\n      mstore\n        /* \"#utility.yul\":10001:10166   */\n      pop\n      jump\t// out\n        /* \"#utility.yul\":10172:10538   */\n    tag_134:\n        /* \"#utility.yul\":10314:10317   */\n      0x00\n        /* \"#utility.yul\":10335:10402   */\n      tag_232\n        /* \"#utility.yul\":10399:10401   */\n      0x0f\n        /* \"#utility.yul\":10394:10397   */\n      dup4\n        /* \"#utility.yul\":10335:10402   */\n      tag_119\n      jump\t// in\n    tag_232:\n        /* \"#utility.yul\":10328:10402   */\n      swap2\n      pop\n        /* \"#utility.yul\":10411:10504   */\n      tag_233\n        /* \"#utility.yul\":10500:10503   */\n      dup3\n        /* \"#utility.yul\":10411:10504   */\n      tag_133\n      jump\t// in\n    tag_233:\n        /* \"#utility.yul\":10529:10531   */\n      0x20\n        /* \"#utility.yul\":10524:10527   */\n      dup3\n        /* \"#utility.yul\":10520:10532   */\n      add\n        /* \"#utility.yul\":10513:10532   */\n      swap1\n      pop\n        /* \"#utility.yul\":10172:10538   */\n      swap2\n      swap1\n      pop\n      jump\t// out\n        /* \"#utility.yul\":10544:10963   */\n    tag_73:\n        /* \"#utility.yul\":10710:10714   */\n      0x00\n        /* \"#utility.yul\":10748:10750   */\n      0x20\n        /* \"#utility.yul\":10737:10746   */\n      dup3\n        /* \"#utility.yul\":10733:10751   */\n      add\n        /* \"#utility.yul\":10725:10751   */\n      swap1\n      pop\n        /* \"#utility.yul\":10797:10806   */\n      dup2\n        /* \"#utility.yul\":10791:10795   */\n      dup2\n        /* \"#utility.yul\":10787:10807   */\n      sub\n        /* \"#utility.yul\":10783:10784   */\n      0x00\n        /* \"#utility.yul\":10772:10781   */\n      dup4\n        /* \"#utility.yul\":10768:10785   */\n      add\n        /* \"#utility.yul\":10761:10808   */\n      mstore\n        /* \"#utility.yul\":10825:10956   */\n      tag_235\n        /* \"#utility.yul\":10951:10955   */\n      dup2\n        /* \"#utility.yul\":10825:10956   */\n      tag_134\n      jump\t// in\n    tag_235:\n        /* \"#utility.yul\":10817:10956   */\n      swap1\n      pop\n        /* \"#utility.yul\":10544:10963   */\n      swap2\n      swap1\n      pop\n      jump\t// out\n        /* \"#utility.yul\":10969:11163   */\n    tag_83:\n        /* \"#utility.yul\":11009:11013   */\n      0x00\n        /* \"#utility.yul\":11029:11049   */\n      tag_237\n        /* \"#utility.yul\":11047:11048   */\n      dup3\n        /* \"#utility.yul\":11029:11049   */\n      tag_107\n      jump\t// in\n    tag_237:\n        /* \"#utility.yul\":11024:11049   */\n      swap2\n      pop\n        /* \"#utility.yul\":11063:11083   */\n      tag_238\n        /* \"#utility.yul\":11081:11082   */\n      dup4\n        /* \"#utility.yul\":11063:11083   */\n      tag_107\n      jump\t// in\n    tag_238:\n        /* \"#utility.yul\":11058:11083   */\n      swap3\n      pop\n        /* \"#utility.yul\":11107:11108   */\n      dup3\n        /* \"#utility.yul\":11104:11105   */\n      dup3\n        /* \"#utility.yul\":11100:11109   */\n      sub\n        /* \"#utility.yul\":11092:11109   */\n      swap1\n      pop\n        /* \"#utility.yul\":11131:11132   */\n      dup2\n        /* \"#utility.yul\":11125:11129   */\n      dup2\n        /* \"#utility.yul\":11122:11133   */\n      gt\n        /* \"#utility.yul\":11119:11156   */\n      iszero\n      tag_239\n      jumpi\n        /* \"#utility.yul\":11136:11154   */\n      tag_240\n      tag_125\n      jump\t// in\n    tag_240:\n        /* \"#utility.yul\":11119:11156   */\n    tag_239:\n        /* \"#utility.yul\":10969:11163   */\n      swap3\n      swap2\n      pop\n      pop\n      jump\t// out\n        /* \"#utility.yul\":11169:11349   */\n    tag_135:\n        /* \"#utility.yul\":11217:11294   */\n      0x4e487b7100000000000000000000000000000000000000000000000000000000\n        /* \"#utility.yul\":11214:11215   */\n      0x00\n        /* \"#utility.yul\":11207:11295   */\n      mstore\n        /* \"#utility.yul\":11314:11318   */\n      0x22\n        /* \"#utility.yul\":11311:11312   */\n      0x04\n        /* \"#utility.yul\":11304:11319   */\n      mstore\n        /* \"#utility.yul\":11338:11342   */\n      0x24\n        /* \"#utility.yul\":11335:11336   */\n      0x00\n        /* \"#utility.yul\":11328:11343   */\n      revert\n        /* \"#utility.yul\":11355:11675   */\n    tag_87:\n        /* \"#utility.yul\":11399:11405   */\n      0x00\n        /* \"#utility.yul\":11436:11437   */\n      0x02\n        /* \"#utility.yul\":11430:11434   */\n      dup3\n        /* \"#utility.yul\":11426:11438   */\n      div\n        /* \"#utility.yul\":11416:11438   */\n      swap1\n      pop\n        /* \"#utility.yul\":11483:11484   */\n      0x01\n        /* \"#utility.yul\":11477:11481   */\n      dup3\n        /* \"#utility.yul\":11473:11485   */\n      and\n        /* \"#utility.yul\":11504:11522   */\n      dup1\n        /* \"#utility.yul\":11494:11575   */\n      tag_243\n      jumpi\n        /* \"#utility.yul\":11560:11564   */\n      0x7f\n        /* \"#utility.yul\":11552:11558   */\n      dup3\n        /* \"#utility.yul\":11548:11565   */\n      and\n        /* \"#utility.yul\":11538:11565   */\n      swap2\n      pop\n        /* \"#utility.yul\":11494:11575   */\n    tag_243:\n        /* \"#utility.yul\":11622:11624   */\n      0x20\n        /* \"#utility.yul\":11614:11620   */\n      dup3\n        /* \"#utility.yul\":11611:11625   */\n      lt\n        /* \"#utility.yul\":11591:11609   */\n      dup2\n        /* \"#utility.yul\":11588:11626   */\n      sub\n        /* \"#utility.yul\":11585:11669   */\n      tag_244\n      jumpi\n        /* \"#utility.yul\":11641:11659   */\n      tag_245\n      tag_135\n      jump\t// in\n    tag_245:\n        /* \"#utility.yul\":11585:11669   */\n    tag_244:\n        /* \"#utility.yul\":11406:11675   */\n      pop\n        /* \"#utility.yul\":11355:11675   */\n      swap2\n      swap1\n      pop\n      jump\t// out\n\n    auxdata: 0xa264697066735822122049ae8a940cc4ea5845057a5297e56b98150599b6da985589fe0cbf2de886d85c64736f6c634300081a0033\n}\n",
				"bytecode": {
					"linkReferences": {},
					"object": "60806040526103e8600955348015610015575f80fd5b503360085f6101000a81548173ffffffffffffffffffffffffffffffffffffffff021916908373ffffffffffffffffffffffffffffffffffffffff1602179055506040518060e001604052806040518060400160405280600881526020017f442e205472756d7000000000000000000000000000000000000000000000000081525081526020016040518060400160405280600981526020017f4b2e20486172726973000000000000000000000000000000000000000000000081525081526020016040518060400160405280601581526020017f687474703a2f2f6269742e6c792f337a6d53666941000000000000000000000081525081526020016040518060400160405280601581526020017f687474703a2f2f6269742e6c792f346746346d594f000000000000000000000081525081526020015f81526020015f81526020015f8152505f80820151815f0190816101719190610414565b5060208201518160010190816101879190610414565b50604082015181600201908161019d9190610414565b5060608201518160030190816101b39190610414565b506080820151816004015560a0820151816005015560c082015181600601559050506104e3565b5f81519050919050565b7f4e487b71000000000000000000000000000000000000000000000000000000005f52604160045260245ffd5b7f4e487b71000000000000000000000000000000000000000000000000000000005f52602260045260245ffd5b5f600282049050600182168061025557607f821691505b60208210810361026857610267610211565b5b50919050565b5f819050815f5260205f209050919050565b5f6020601f8301049050919050565b5f82821b905092915050565b5f600883026102ca7fffffffffffffffffffffffffffffffffffffffffffffffffffffffffffffffff8261028f565b6102d4868361028f565b95508019841693508086168417925050509392505050565b5f819050919050565b5f819050919050565b5f61031861031361030e846102ec565b6102f5565b6102ec565b9050919050565b5f819050919050565b610331836102fe565b61034561033d8261031f565b84845461029b565b825550505050565b5f90565b61035961034d565b610364818484610328565b505050565b5b818110156103875761037c5f82610351565b60018101905061036a565b5050565b601f8211156103cc5761039d8161026e565b6103a684610280565b810160208510156103b5578190505b6103c96103c185610280565b830182610369565b50505b505050565b5f82821c905092915050565b5f6103ec5f19846008026103d1565b1980831691505092915050565b5f61040483836103dd565b9150826002028217905092915050565b61041d826101da565b67ffffffffffffffff811115610436576104356101e4565b5b610440825461023e565b61044b82828561038b565b5f60209050601f83116001811461047c575f841561046a578287015190505b61047485826103f9565b8655506104db565b601f19841661048a8661026e565b5f5b828110156104b15784890151825560018201915060208501945060208101905061048c565b868310156104ce57848901516104ca601f8916826103dd565b8355505b6001600288020188555050505b505050505050565b610f48806104f05f395ff3fe608060405260043610610054575f3560e01c8063121de3f6146100585780634e71d92d146100825780637365870b1461009857806393bebee8146100b4578063d353a1cb146100f3578063f240f7c31461011b575b5f80fd5b348015610063575f80fd5b5061006c61014b565b6040516100799190610949565b60405180910390f35b34801561008d575f80fd5b50610096610151565b005b6100b260048036038101906100ad9190610990565b610316565b005b3480156100bf575f80fd5b506100da60048036038101906100d59190610a15565b6104be565b6040516100ea9493929190610a40565b60405180910390f35b3480156100fe575f80fd5b5061011960048036038101906101149190610990565b6104ea565b005b348015610126575f80fd5b5061012f6106c7565b6040516101429796959493929190610af3565b60405180910390f35b600a5481565b5f60075f3373ffffffffffffffffffffffffffffffffffffffff1673ffffffffffffffffffffffffffffffffffffffff1681526020019081526020015f206040518060800160405290815f8201548152602001600182015481526020016002820154815260200160038201548152505090505f80600601541180156101dd575080602001515f60060154145b80156101ec57505f8160600151145b61022b576040517f08c379a000000000000000000000000000000000000000000000000000000000815260040161022290610bc6565b60405180910390fd5b5f60015f6006015414610242575f60050154610248565b5f600401545b90505f81612710845f015161025d9190610c11565b6102679190610c7f565b90505f61271082600a5461027b9190610c11565b6102859190610c7f565b90508060075f3373ffffffffffffffffffffffffffffffffffffffff1673ffffffffffffffffffffffffffffffffffffffff1681526020019081526020015f20600301819055503373ffffffffffffffffffffffffffffffffffffffff166108fc8290811502906040515f60405180830381858888f1935050505015801561030f573d5f803e3d5ffd5b5050505050565b60018114806103255750600281145b610364576040517f08c379a000000000000000000000000000000000000000000000000000000000815260040161035b90610cf9565b60405180910390fd5b5f34116103a6576040517f08c379a000000000000000000000000000000000000000000000000000000000815260040161039d90610d61565b60405180910390fd5b5f8060060154146103ec576040517f08c379a00000000000000000000000000000000000000000000000000000000081526004016103e390610dc9565b60405180910390fd5b6103f461090d565b34815f01818152505081816020018181525050428160400181815250508060075f3373ffffffffffffffffffffffffffffffffffffffff1673ffffffffffffffffffffffffffffffffffffffff1681526020019081526020015f205f820151815f01556020820151816001015560408201518160020155606082015181600301559050506001820361049f57345f6004015f8282546104939190610de7565b925050819055506104ba565b345f6005015f8282546104b29190610de7565b925050819055505b5050565b6007602052805f5260405f205f91509050805f0154908060010154908060020154908060030154905084565b60085f9054906101000a900473ffffffffffffffffffffffffffffffffffffffff1673ffffffffffffffffffffffffffffffffffffffff163373ffffffffffffffffffffffffffffffffffffffff1614610579576040517f08c379a000000000000000000000000000000000000000000000000000000000815260040161057090610e64565b60405180910390fd5b60018114806105885750600281145b6105c7576040517f08c379a00000000000000000000000000000000000000000000000000000000081526004016105be90610cf9565b60405180910390fd5b5f80600601541461060d576040517f08c379a000000000000000000000000000000000000000000000000000000000815260040161060490610dc9565b60405180910390fd5b805f600601819055505f80600501545f6004015461062b9190610de7565b90505f6127106009548361063f9190610c11565b6106499190610c7f565b905080826106579190610e82565b600a8190555060085f9054906101000a900473ffffffffffffffffffffffffffffffffffffffff1673ffffffffffffffffffffffffffffffffffffffff166108fc8290811502906040515f60405180830381858888f193505050501580156106c1573d5f803e3d5ffd5b50505050565b5f805f0180546106d690610ee2565b80601f016020809104026020016040519081016040528092919081815260200182805461070290610ee2565b801561074d5780601f106107245761010080835404028352916020019161074d565b820191905f5260205f20905b81548152906001019060200180831161073057829003601f168201915b50505050509080600101805461076290610ee2565b80601f016020809104026020016040519081016040528092919081815260200182805461078e90610ee2565b80156107d95780601f106107b0576101008083540402835291602001916107d9565b820191905f5260205f20905b8154815290600101906020018083116107bc57829003601f168201915b5050505050908060020180546107ee90610ee2565b80601f016020809104026020016040519081016040528092919081815260200182805461081a90610ee2565b80156108655780601f1061083c57610100808354040283529160200191610865565b820191905f5260205f20905b81548152906001019060200180831161084857829003601f168201915b50505050509080600301805461087a90610ee2565b80601f01602080910402602001604051908101604052809291908181526020018280546108a690610ee2565b80156108f15780601f106108c8576101008083540402835291602001916108f1565b820191905f5260205f20905b8154815290600101906020018083116108d457829003601f168201915b5050505050908060040154908060050154908060060154905087565b60405180608001604052805f81526020015f81526020015f81526020015f81525090565b5f819050919050565b61094381610931565b82525050565b5f60208201905061095c5f83018461093a565b92915050565b5f80fd5b61096f81610931565b8114610979575f80fd5b50565b5f8135905061098a81610966565b92915050565b5f602082840312156109a5576109a4610962565b5b5f6109b28482850161097c565b91505092915050565b5f73ffffffffffffffffffffffffffffffffffffffff82169050919050565b5f6109e4826109bb565b9050919050565b6109f4816109da565b81146109fe575f80fd5b50565b5f81359050610a0f816109eb565b92915050565b5f60208284031215610a2a57610a29610962565b5b5f610a3784828501610a01565b91505092915050565b5f608082019050610a535f83018761093a565b610a60602083018661093a565b610a6d604083018561093a565b610a7a606083018461093a565b95945050505050565b5f81519050919050565b5f82825260208201905092915050565b8281835e5f83830152505050565b5f601f19601f8301169050919050565b5f610ac582610a83565b610acf8185610a8d565b9350610adf818560208601610a9d565b610ae881610aab565b840191505092915050565b5f60e0820190508181035f830152610b0b818a610abb565b90508181036020830152610b1f8189610abb565b90508181036040830152610b338188610abb565b90508181036060830152610b478187610abb565b9050610b56608083018661093a565b610b6360a083018561093a565b610b7060c083018461093a565b98975050505050505050565b7f496e76616c696420636c61696d000000000000000000000000000000000000005f82015250565b5f610bb0600d83610a8d565b9150610bbb82610b7c565b602082019050919050565b5f6020820190508181035f830152610bdd81610ba4565b9050919050565b7f4e487b71000000000000000000000000000000000000000000000000000000005f52601160045260245ffd5b5f610c1b82610931565b9150610c2683610931565b9250828202610c3481610931565b91508282048414831517610c4b57610c4a610be4565b5b5092915050565b7f4e487b71000000000000000000000000000000000000000000000000000000005f52601260045260245ffd5b5f610c8982610931565b9150610c9483610931565b925082610ca457610ca3610c52565b5b828204905092915050565b7f496e76616c69642043616e6469646174650000000000000000000000000000005f82015250565b5f610ce3601183610a8d565b9150610cee82610caf565b602082019050919050565b5f6020820190508181035f830152610d1081610cd7565b9050919050565b7f496e76616c6964206265740000000000000000000000000000000000000000005f82015250565b5f610d4b600b83610a8d565b9150610d5682610d17565b602082019050919050565b5f6020820190508181035f830152610d7881610d3f565b9050919050565b7f4469737075746520616c726561647920636c6f736564000000000000000000005f82015250565b5f610db3601683610a8d565b9150610dbe82610d7f565b602082019050919050565b5f6020820190508181035f830152610de081610da7565b9050919050565b5f610df182610931565b9150610dfc83610931565b9250828201905080821115610e1457610e13610be4565b5b92915050565b7f496e76616c6964206163636f756e7400000000000000000000000000000000005f82015250565b5f610e4e600f83610a8d565b9150610e5982610e1a565b602082019050919050565b5f6020820190508181035f830152610e7b81610e42565b9050919050565b5f610e8c82610931565b9150610e9783610931565b9250828203905081811115610eaf57610eae610be4565b5b92915050565b7f4e487b71000000000000000000000000000000000000000000000000000000005f52602260045260245ffd5b5f6002820490506001821680610ef957607f821691505b602082108103610f0c57610f0b610eb5565b5b5091905056fea264697066735822122049ae8a940cc4ea5845057a5297e56b98150599b6da985589fe0cbf2de886d85c64736f6c634300081a0033",
					"opcodes": "PUSH1 0x80 PUSH1 0x40 MSTORE PUSH2 0x3E8 PUSH1 0x9 SSTORE CALLVALUE DUP1 ISZERO PUSH2 0x15 JUMPI PUSH0 DUP1 REVERT JUMPDEST POP CALLER PUSH1 0x8 PUSH0 PUSH2 0x100 EXP DUP2 SLOAD DUP2 PUSH20 0xFFFFFFFFFFFFFFFFFFFFFFFFFFFFFFFFFFFFFFFF MUL NOT AND SWAP1 DUP4 PUSH20 0xFFFFFFFFFFFFFFFFFFFFFFFFFFFFFFFFFFFFFFFF AND MUL OR SWAP1 SSTORE POP PUSH1 0x40 MLOAD DUP1 PUSH1 0xE0 ADD PUSH1 0x40 MSTORE DUP1 PUSH1 0x40 MLOAD DUP1 PUSH1 0x40 ADD PUSH1 0x40 MSTORE DUP1 PUSH1 0x8 DUP2 MSTORE PUSH1 0x20 ADD PUSH32 0x442E205472756D70000000000000000000000000000000000000000000000000 DUP2 MSTORE POP DUP2 MSTORE PUSH1 0x20 ADD PUSH1 0x40 MLOAD DUP1 PUSH1 0x40 ADD PUSH1 0x40 MSTORE DUP1 PUSH1 0x9 DUP2 MSTORE PUSH1 0x20 ADD PUSH32 0x4B2E204861727269730000000000000000000000000000000000000000000000 DUP2 MSTORE POP DUP2 MSTORE PUSH1 0x20 ADD PUSH1 0x40 MLOAD DUP1 PUSH1 0x40 ADD PUSH1 0x40 MSTORE DUP1 PUSH1 0x15 DUP2 MSTORE PUSH1 0x20 ADD PUSH32 0x687474703A2F2F6269742E6C792F337A6D536669410000000000000000000000 DUP2 MSTORE POP DUP2 MSTORE PUSH1 0x20 ADD PUSH1 0x40 MLOAD DUP1 PUSH1 0x40 ADD PUSH1 0x40 MSTORE DUP1 PUSH1 0x15 DUP2 MSTORE PUSH1 0x20 ADD PUSH32 0x687474703A2F2F6269742E6C792F346746346D594F0000000000000000000000 DUP2 MSTORE POP DUP2 MSTORE PUSH1 0x20 ADD PUSH0 DUP2 MSTORE PUSH1 0x20 ADD PUSH0 DUP2 MSTORE PUSH1 0x20 ADD PUSH0 DUP2 MSTORE POP PUSH0 DUP1 DUP3 ADD MLOAD DUP2 PUSH0 ADD SWAP1 DUP2 PUSH2 0x171 SWAP2 SWAP1 PUSH2 0x414 JUMP JUMPDEST POP PUSH1 0x20 DUP3 ADD MLOAD DUP2 PUSH1 0x1 ADD SWAP1 DUP2 PUSH2 0x187 SWAP2 SWAP1 PUSH2 0x414 JUMP JUMPDEST POP PUSH1 0x40 DUP3 ADD MLOAD DUP2 PUSH1 0x2 ADD SWAP1 DUP2 PUSH2 0x19D SWAP2 SWAP1 PUSH2 0x414 JUMP JUMPDEST POP PUSH1 0x60 DUP3 ADD MLOAD DUP2 PUSH1 0x3 ADD SWAP1 DUP2 PUSH2 0x1B3 SWAP2 SWAP1 PUSH2 0x414 JUMP JUMPDEST POP PUSH1 0x80 DUP3 ADD MLOAD DUP2 PUSH1 0x4 ADD SSTORE PUSH1 0xA0 DUP3 ADD MLOAD DUP2 PUSH1 0x5 ADD SSTORE PUSH1 0xC0 DUP3 ADD MLOAD DUP2 PUSH1 0x6 ADD SSTORE SWAP1 POP POP PUSH2 0x4E3 JUMP JUMPDEST PUSH0 DUP2 MLOAD SWAP1 POP SWAP2 SWAP1 POP JUMP JUMPDEST PUSH32 0x4E487B7100000000000000000000000000000000000000000000000000000000 PUSH0 MSTORE PUSH1 0x41 PUSH1 0x4 MSTORE PUSH1 0x24 PUSH0 REVERT JUMPDEST PUSH32 0x4E487B7100000000000000000000000000000000000000000000000000000000 PUSH0 MSTORE PUSH1 0x22 PUSH1 0x4 MSTORE PUSH1 0x24 PUSH0 REVERT JUMPDEST PUSH0 PUSH1 0x2 DUP3 DIV SWAP1 POP PUSH1 0x1 DUP3 AND DUP1 PUSH2 0x255 JUMPI PUSH1 0x7F DUP3 AND SWAP2 POP JUMPDEST PUSH1 0x20 DUP3 LT DUP2 SUB PUSH2 0x268 JUMPI PUSH2 0x267 PUSH2 0x211 JUMP JUMPDEST JUMPDEST POP SWAP2 SWAP1 POP JUMP JUMPDEST PUSH0 DUP2 SWAP1 POP DUP2 PUSH0 MSTORE PUSH1 0x20 PUSH0 KECCAK256 SWAP1 POP SWAP2 SWAP1 POP JUMP JUMPDEST PUSH0 PUSH1 0x20 PUSH1 0x1F DUP4 ADD DIV SWAP1 POP SWAP2 SWAP1 POP JUMP JUMPDEST PUSH0 DUP3 DUP3 SHL SWAP1 POP SWAP3 SWAP2 POP POP JUMP JUMPDEST PUSH0 PUSH1 0x8 DUP4 MUL PUSH2 0x2CA PUSH32 0xFFFFFFFFFFFFFFFFFFFFFFFFFFFFFFFFFFFFFFFFFFFFFFFFFFFFFFFFFFFFFFFF DUP3 PUSH2 0x28F JUMP JUMPDEST PUSH2 0x2D4 DUP7 DUP4 PUSH2 0x28F JUMP JUMPDEST SWAP6 POP DUP1 NOT DUP5 AND SWAP4 POP DUP1 DUP7 AND DUP5 OR SWAP3 POP POP POP SWAP4 SWAP3 POP POP POP JUMP JUMPDEST PUSH0 DUP2 SWAP1 POP SWAP2 SWAP1 POP JUMP JUMPDEST PUSH0 DUP2 SWAP1 POP SWAP2 SWAP1 POP JUMP JUMPDEST PUSH0 PUSH2 0x318 PUSH2 0x313 PUSH2 0x30E DUP5 PUSH2 0x2EC JUMP JUMPDEST PUSH2 0x2F5 JUMP JUMPDEST PUSH2 0x2EC JUMP JUMPDEST SWAP1 POP SWAP2 SWAP1 POP JUMP JUMPDEST PUSH0 DUP2 SWAP1 POP SWAP2 SWAP1 POP JUMP JUMPDEST PUSH2 0x331 DUP4 PUSH2 0x2FE JUMP JUMPDEST PUSH2 0x345 PUSH2 0x33D DUP3 PUSH2 0x31F JUMP JUMPDEST DUP5 DUP5 SLOAD PUSH2 0x29B JUMP JUMPDEST DUP3 SSTORE POP POP POP POP JUMP JUMPDEST PUSH0 SWAP1 JUMP JUMPDEST PUSH2 0x359 PUSH2 0x34D JUMP JUMPDEST PUSH2 0x364 DUP2 DUP5 DUP5 PUSH2 0x328 JUMP JUMPDEST POP POP POP JUMP JUMPDEST JUMPDEST DUP2 DUP2 LT ISZERO PUSH2 0x387 JUMPI PUSH2 0x37C PUSH0 DUP3 PUSH2 0x351 JUMP JUMPDEST PUSH1 0x1 DUP2 ADD SWAP1 POP PUSH2 0x36A JUMP JUMPDEST POP POP JUMP JUMPDEST PUSH1 0x1F DUP3 GT ISZERO PUSH2 0x3CC JUMPI PUSH2 0x39D DUP2 PUSH2 0x26E JUMP JUMPDEST PUSH2 0x3A6 DUP5 PUSH2 0x280 JUMP JUMPDEST DUP2 ADD PUSH1 0x20 DUP6 LT ISZERO PUSH2 0x3B5 JUMPI DUP2 SWAP1 POP JUMPDEST PUSH2 0x3C9 PUSH2 0x3C1 DUP6 PUSH2 0x280 JUMP JUMPDEST DUP4 ADD DUP3 PUSH2 0x369 JUMP JUMPDEST POP POP JUMPDEST POP POP POP JUMP JUMPDEST PUSH0 DUP3 DUP3 SHR SWAP1 POP SWAP3 SWAP2 POP POP JUMP JUMPDEST PUSH0 PUSH2 0x3EC PUSH0 NOT DUP5 PUSH1 0x8 MUL PUSH2 0x3D1 JUMP JUMPDEST NOT DUP1 DUP4 AND SWAP2 POP POP SWAP3 SWAP2 POP POP JUMP JUMPDEST PUSH0 PUSH2 0x404 DUP4 DUP4 PUSH2 0x3DD JUMP JUMPDEST SWAP2 POP DUP3 PUSH1 0x2 MUL DUP3 OR SWAP1 POP SWAP3 SWAP2 POP POP JUMP JUMPDEST PUSH2 0x41D DUP3 PUSH2 0x1DA JUMP JUMPDEST PUSH8 0xFFFFFFFFFFFFFFFF DUP2 GT ISZERO PUSH2 0x436 JUMPI PUSH2 0x435 PUSH2 0x1E4 JUMP JUMPDEST JUMPDEST PUSH2 0x440 DUP3 SLOAD PUSH2 0x23E JUMP JUMPDEST PUSH2 0x44B DUP3 DUP3 DUP6 PUSH2 0x38B JUMP JUMPDEST PUSH0 PUSH1 0x20 SWAP1 POP PUSH1 0x1F DUP4 GT PUSH1 0x1 DUP2 EQ PUSH2 0x47C JUMPI PUSH0 DUP5 ISZERO PUSH2 0x46A JUMPI DUP3 DUP8 ADD MLOAD SWAP1 POP JUMPDEST PUSH2 0x474 DUP6 DUP3 PUSH2 0x3F9 JUMP JUMPDEST DUP7 SSTORE POP PUSH2 0x4DB JUMP JUMPDEST PUSH1 0x1F NOT DUP5 AND PUSH2 0x48A DUP7 PUSH2 0x26E JUMP JUMPDEST PUSH0 JUMPDEST DUP3 DUP2 LT ISZERO PUSH2 0x4B1 JUMPI DUP5 DUP10 ADD MLOAD DUP3 SSTORE PUSH1 0x1 DUP3 ADD SWAP2 POP PUSH1 0x20 DUP6 ADD SWAP5 POP PUSH1 0x20 DUP2 ADD SWAP1 POP PUSH2 0x48C JUMP JUMPDEST DUP7 DUP4 LT ISZERO PUSH2 0x4CE JUMPI DUP5 DUP10 ADD MLOAD PUSH2 0x4CA PUSH1 0x1F DUP10 AND DUP3 PUSH2 0x3DD JUMP JUMPDEST DUP4 SSTORE POP JUMPDEST PUSH1 0x1 PUSH1 0x2 DUP9 MUL ADD DUP9 SSTORE POP POP POP JUMPDEST POP POP POP POP POP POP JUMP JUMPDEST PUSH2 0xF48 DUP1 PUSH2 0x4F0 PUSH0 CODECOPY PUSH0 RETURN INVALID PUSH1 0x80 PUSH1 0x40 MSTORE PUSH1 0x4 CALLDATASIZE LT PUSH2 0x54 JUMPI PUSH0 CALLDATALOAD PUSH1 0xE0 SHR DUP1 PUSH4 0x121DE3F6 EQ PUSH2 0x58 JUMPI DUP1 PUSH4 0x4E71D92D EQ PUSH2 0x82 JUMPI DUP1 PUSH4 0x7365870B EQ PUSH2 0x98 JUMPI DUP1 PUSH4 0x93BEBEE8 EQ PUSH2 0xB4 JUMPI DUP1 PUSH4 0xD353A1CB EQ PUSH2 0xF3 JUMPI DUP1 PUSH4 0xF240F7C3 EQ PUSH2 0x11B JUMPI JUMPDEST PUSH0 DUP1 REVERT JUMPDEST CALLVALUE DUP1 ISZERO PUSH2 0x63 JUMPI PUSH0 DUP1 REVERT JUMPDEST POP PUSH2 0x6C PUSH2 0x14B JUMP JUMPDEST PUSH1 0x40 MLOAD PUSH2 0x79 SWAP2 SWAP1 PUSH2 0x949 JUMP JUMPDEST PUSH1 0x40 MLOAD DUP1 SWAP2 SUB SWAP1 RETURN JUMPDEST CALLVALUE DUP1 ISZERO PUSH2 0x8D JUMPI PUSH0 DUP1 REVERT JUMPDEST POP PUSH2 0x96 PUSH2 0x151 JUMP JUMPDEST STOP JUMPDEST PUSH2 0xB2 PUSH1 0x4 DUP1 CALLDATASIZE SUB DUP2 ADD SWAP1 PUSH2 0xAD SWAP2 SWAP1 PUSH2 0x990 JUMP JUMPDEST PUSH2 0x316 JUMP JUMPDEST STOP JUMPDEST CALLVALUE DUP1 ISZERO PUSH2 0xBF JUMPI PUSH0 DUP1 REVERT JUMPDEST POP PUSH2 0xDA PUSH1 0x4 DUP1 CALLDATASIZE SUB DUP2 ADD SWAP1 PUSH2 0xD5 SWAP2 SWAP1 PUSH2 0xA15 JUMP JUMPDEST PUSH2 0x4BE JUMP JUMPDEST PUSH1 0x40 MLOAD PUSH2 0xEA SWAP5 SWAP4 SWAP3 SWAP2 SWAP1 PUSH2 0xA40 JUMP JUMPDEST PUSH1 0x40 MLOAD DUP1 SWAP2 SUB SWAP1 RETURN JUMPDEST CALLVALUE DUP1 ISZERO PUSH2 0xFE JUMPI PUSH0 DUP1 REVERT JUMPDEST POP PUSH2 0x119 PUSH1 0x4 DUP1 CALLDATASIZE SUB DUP2 ADD SWAP1 PUSH2 0x114 SWAP2 SWAP1 PUSH2 0x990 JUMP JUMPDEST PUSH2 0x4EA JUMP JUMPDEST STOP JUMPDEST CALLVALUE DUP1 ISZERO PUSH2 0x126 JUMPI PUSH0 DUP1 REVERT JUMPDEST POP PUSH2 0x12F PUSH2 0x6C7 JUMP JUMPDEST PUSH1 0x40 MLOAD PUSH2 0x142 SWAP8 SWAP7 SWAP6 SWAP5 SWAP4 SWAP3 SWAP2 SWAP1 PUSH2 0xAF3 JUMP JUMPDEST PUSH1 0x40 MLOAD DUP1 SWAP2 SUB SWAP1 RETURN JUMPDEST PUSH1 0xA SLOAD DUP2 JUMP JUMPDEST PUSH0 PUSH1 0x7 PUSH0 CALLER PUSH20 0xFFFFFFFFFFFFFFFFFFFFFFFFFFFFFFFFFFFFFFFF AND PUSH20 0xFFFFFFFFFFFFFFFFFFFFFFFFFFFFFFFFFFFFFFFF AND DUP2 MSTORE PUSH1 0x20 ADD SWAP1 DUP2 MSTORE PUSH1 0x20 ADD PUSH0 KECCAK256 PUSH1 0x40 MLOAD DUP1 PUSH1 0x80 ADD PUSH1 0x40 MSTORE SWAP1 DUP2 PUSH0 DUP3 ADD SLOAD DUP2 MSTORE PUSH1 0x20 ADD PUSH1 0x1 DUP3 ADD SLOAD DUP2 MSTORE PUSH1 0x20 ADD PUSH1 0x2 DUP3 ADD SLOAD DUP2 MSTORE PUSH1 0x20 ADD PUSH1 0x3 DUP3 ADD SLOAD DUP2 MSTORE POP POP SWAP1 POP PUSH0 DUP1 PUSH1 0x6 ADD SLOAD GT DUP1 ISZERO PUSH2 0x1DD JUMPI POP DUP1 PUSH1 0x20 ADD MLOAD PUSH0 PUSH1 0x6 ADD SLOAD EQ JUMPDEST DUP1 ISZERO PUSH2 0x1EC JUMPI POP PUSH0 DUP2 PUSH1 0x60 ADD MLOAD EQ JUMPDEST PUSH2 0x22B JUMPI PUSH1 0x40 MLOAD PUSH32 0x8C379A000000000000000000000000000000000000000000000000000000000 DUP2 MSTORE PUSH1 0x4 ADD PUSH2 0x222 SWAP1 PUSH2 0xBC6 JUMP JUMPDEST PUSH1 0x40 MLOAD DUP1 SWAP2 SUB SWAP1 REVERT JUMPDEST PUSH0 PUSH1 0x1 PUSH0 PUSH1 0x6 ADD SLOAD EQ PUSH2 0x242 JUMPI PUSH0 PUSH1 0x5 ADD SLOAD PUSH2 0x248 JUMP JUMPDEST PUSH0 PUSH1 0x4 ADD SLOAD JUMPDEST SWAP1 POP PUSH0 DUP2 PUSH2 0x2710 DUP5 PUSH0 ADD MLOAD PUSH2 0x25D SWAP2 SWAP1 PUSH2 0xC11 JUMP JUMPDEST PUSH2 0x267 SWAP2 SWAP1 PUSH2 0xC7F JUMP JUMPDEST SWAP1 POP PUSH0 PUSH2 0x2710 DUP3 PUSH1 0xA SLOAD PUSH2 0x27B SWAP2 SWAP1 PUSH2 0xC11 JUMP JUMPDEST PUSH2 0x285 SWAP2 SWAP1 PUSH2 0xC7F JUMP JUMPDEST SWAP1 POP DUP1 PUSH1 0x7 PUSH0 CALLER PUSH20 0xFFFFFFFFFFFFFFFFFFFFFFFFFFFFFFFFFFFFFFFF AND PUSH20 0xFFFFFFFFFFFFFFFFFFFFFFFFFFFFFFFFFFFFFFFF AND DUP2 MSTORE PUSH1 0x20 ADD SWAP1 DUP2 MSTORE PUSH1 0x20 ADD PUSH0 KECCAK256 PUSH1 0x3 ADD DUP2 SWAP1 SSTORE POP CALLER PUSH20 0xFFFFFFFFFFFFFFFFFFFFFFFFFFFFFFFFFFFFFFFF AND PUSH2 0x8FC DUP3 SWAP1 DUP2 ISZERO MUL SWAP1 PUSH1 0x40 MLOAD PUSH0 PUSH1 0x40 MLOAD DUP1 DUP4 SUB DUP2 DUP6 DUP9 DUP9 CALL SWAP4 POP POP POP POP ISZERO DUP1 ISZERO PUSH2 0x30F JUMPI RETURNDATASIZE PUSH0 DUP1 RETURNDATACOPY RETURNDATASIZE PUSH0 REVERT JUMPDEST POP POP POP POP POP JUMP JUMPDEST PUSH1 0x1 DUP2 EQ DUP1 PUSH2 0x325 JUMPI POP PUSH1 0x2 DUP2 EQ JUMPDEST PUSH2 0x364 JUMPI PUSH1 0x40 MLOAD PUSH32 0x8C379A000000000000000000000000000000000000000000000000000000000 DUP2 MSTORE PUSH1 0x4 ADD PUSH2 0x35B SWAP1 PUSH2 0xCF9 JUMP JUMPDEST PUSH1 0x40 MLOAD DUP1 SWAP2 SUB SWAP1 REVERT JUMPDEST PUSH0 CALLVALUE GT PUSH2 0x3A6 JUMPI PUSH1 0x40 MLOAD PUSH32 0x8C379A000000000000000000000000000000000000000000000000000000000 DUP2 MSTORE PUSH1 0x4 ADD PUSH2 0x39D SWAP1 PUSH2 0xD61 JUMP JUMPDEST PUSH1 0x40 MLOAD DUP1 SWAP2 SUB SWAP1 REVERT JUMPDEST PUSH0 DUP1 PUSH1 0x6 ADD SLOAD EQ PUSH2 0x3EC JUMPI PUSH1 0x40 MLOAD PUSH32 0x8C379A000000000000000000000000000000000000000000000000000000000 DUP2 MSTORE PUSH1 0x4 ADD PUSH2 0x3E3 SWAP1 PUSH2 0xDC9 JUMP JUMPDEST PUSH1 0x40 MLOAD DUP1 SWAP2 SUB SWAP1 REVERT JUMPDEST PUSH2 0x3F4 PUSH2 0x90D JUMP JUMPDEST CALLVALUE DUP2 PUSH0 ADD DUP2 DUP2 MSTORE POP POP DUP2 DUP2 PUSH1 0x20 ADD DUP2 DUP2 MSTORE POP POP TIMESTAMP DUP2 PUSH1 0x40 ADD DUP2 DUP2 MSTORE POP POP DUP1 PUSH1 0x7 PUSH0 CALLER PUSH20 0xFFFFFFFFFFFFFFFFFFFFFFFFFFFFFFFFFFFFFFFF AND PUSH20 0xFFFFFFFFFFFFFFFFFFFFFFFFFFFFFFFFFFFFFFFF AND DUP2 MSTORE PUSH1 0x20 ADD SWAP1 DUP2 MSTORE PUSH1 0x20 ADD PUSH0 KECCAK256 PUSH0 DUP3 ADD MLOAD DUP2 PUSH0 ADD SSTORE PUSH1 0x20 DUP3 ADD MLOAD DUP2 PUSH1 0x1 ADD SSTORE PUSH1 0x40 DUP3 ADD MLOAD DUP2 PUSH1 0x2 ADD SSTORE PUSH1 0x60 DUP3 ADD MLOAD DUP2 PUSH1 0x3 ADD SSTORE SWAP1 POP POP PUSH1 0x1 DUP3 SUB PUSH2 0x49F JUMPI CALLVALUE PUSH0 PUSH1 0x4 ADD PUSH0 DUP3 DUP3 SLOAD PUSH2 0x493 SWAP2 SWAP1 PUSH2 0xDE7 JUMP JUMPDEST SWAP3 POP POP DUP2 SWAP1 SSTORE POP PUSH2 0x4BA JUMP JUMPDEST CALLVALUE PUSH0 PUSH1 0x5 ADD PUSH0 DUP3 DUP3 SLOAD PUSH2 0x4B2 SWAP2 SWAP1 PUSH2 0xDE7 JUMP JUMPDEST SWAP3 POP POP DUP2 SWAP1 SSTORE POP JUMPDEST POP POP JUMP JUMPDEST PUSH1 0x7 PUSH1 0x20 MSTORE DUP1 PUSH0 MSTORE PUSH1 0x40 PUSH0 KECCAK256 PUSH0 SWAP2 POP SWAP1 POP DUP1 PUSH0 ADD SLOAD SWAP1 DUP1 PUSH1 0x1 ADD SLOAD SWAP1 DUP1 PUSH1 0x2 ADD SLOAD SWAP1 DUP1 PUSH1 0x3 ADD SLOAD SWAP1 POP DUP5 JUMP JUMPDEST PUSH1 0x8 PUSH0 SWAP1 SLOAD SWAP1 PUSH2 0x100 EXP SWAP1 DIV PUSH20 0xFFFFFFFFFFFFFFFFFFFFFFFFFFFFFFFFFFFFFFFF AND PUSH20 0xFFFFFFFFFFFFFFFFFFFFFFFFFFFFFFFFFFFFFFFF AND CALLER PUSH20 0xFFFFFFFFFFFFFFFFFFFFFFFFFFFFFFFFFFFFFFFF AND EQ PUSH2 0x579 JUMPI PUSH1 0x40 MLOAD PUSH32 0x8C379A000000000000000000000000000000000000000000000000000000000 DUP2 MSTORE PUSH1 0x4 ADD PUSH2 0x570 SWAP1 PUSH2 0xE64 JUMP JUMPDEST PUSH1 0x40 MLOAD DUP1 SWAP2 SUB SWAP1 REVERT JUMPDEST PUSH1 0x1 DUP2 EQ DUP1 PUSH2 0x588 JUMPI POP PUSH1 0x2 DUP2 EQ JUMPDEST PUSH2 0x5C7 JUMPI PUSH1 0x40 MLOAD PUSH32 0x8C379A000000000000000000000000000000000000000000000000000000000 DUP2 MSTORE PUSH1 0x4 ADD PUSH2 0x5BE SWAP1 PUSH2 0xCF9 JUMP JUMPDEST PUSH1 0x40 MLOAD DUP1 SWAP2 SUB SWAP1 REVERT JUMPDEST PUSH0 DUP1 PUSH1 0x6 ADD SLOAD EQ PUSH2 0x60D JUMPI PUSH1 0x40 MLOAD PUSH32 0x8C379A000000000000000000000000000000000000000000000000000000000 DUP2 MSTORE PUSH1 0x4 ADD PUSH2 0x604 SWAP1 PUSH2 0xDC9 JUMP JUMPDEST PUSH1 0x40 MLOAD DUP1 SWAP2 SUB SWAP1 REVERT JUMPDEST DUP1 PUSH0 PUSH1 0x6 ADD DUP2 SWAP1 SSTORE POP PUSH0 DUP1 PUSH1 0x5 ADD SLOAD PUSH0 PUSH1 0x4 ADD SLOAD PUSH2 0x62B SWAP2 SWAP1 PUSH2 0xDE7 JUMP JUMPDEST SWAP1 POP PUSH0 PUSH2 0x2710 PUSH1 0x9 SLOAD DUP4 PUSH2 0x63F SWAP2 SWAP1 PUSH2 0xC11 JUMP JUMPDEST PUSH2 0x649 SWAP2 SWAP1 PUSH2 0xC7F JUMP JUMPDEST SWAP1 POP DUP1 DUP3 PUSH2 0x657 SWAP2 SWAP1 PUSH2 0xE82 JUMP JUMPDEST PUSH1 0xA DUP2 SWAP1 SSTORE POP PUSH1 0x8 PUSH0 SWAP1 SLOAD SWAP1 PUSH2 0x100 EXP SWAP1 DIV PUSH20 0xFFFFFFFFFFFFFFFFFFFFFFFFFFFFFFFFFFFFFFFF AND PUSH20 0xFFFFFFFFFFFFFFFFFFFFFFFFFFFFFFFFFFFFFFFF AND PUSH2 0x8FC DUP3 SWAP1 DUP2 ISZERO MUL SWAP1 PUSH1 0x40 MLOAD PUSH0 PUSH1 0x40 MLOAD DUP1 DUP4 SUB DUP2 DUP6 DUP9 DUP9 CALL SWAP4 POP POP POP POP ISZERO DUP1 ISZERO PUSH2 0x6C1 JUMPI RETURNDATASIZE PUSH0 DUP1 RETURNDATACOPY RETURNDATASIZE PUSH0 REVERT JUMPDEST POP POP POP POP JUMP JUMPDEST PUSH0 DUP1 PUSH0 ADD DUP1 SLOAD PUSH2 0x6D6 SWAP1 PUSH2 0xEE2 JUMP JUMPDEST DUP1 PUSH1 0x1F ADD PUSH1 0x20 DUP1 SWAP2 DIV MUL PUSH1 0x20 ADD PUSH1 0x40 MLOAD SWAP1 DUP2 ADD PUSH1 0x40 MSTORE DUP1 SWAP3 SWAP2 SWAP1 DUP2 DUP2 MSTORE PUSH1 0x20 ADD DUP3 DUP1 SLOAD PUSH2 0x702 SWAP1 PUSH2 0xEE2 JUMP JUMPDEST DUP1 ISZERO PUSH2 0x74D JUMPI DUP1 PUSH1 0x1F LT PUSH2 0x724 JUMPI PUSH2 0x100 DUP1 DUP4 SLOAD DIV MUL DUP4 MSTORE SWAP2 PUSH1 0x20 ADD SWAP2 PUSH2 0x74D JUMP JUMPDEST DUP3 ADD SWAP2 SWAP1 PUSH0 MSTORE PUSH1 0x20 PUSH0 KECCAK256 SWAP1 JUMPDEST DUP2 SLOAD DUP2 MSTORE SWAP1 PUSH1 0x1 ADD SWAP1 PUSH1 0x20 ADD DUP1 DUP4 GT PUSH2 0x730 JUMPI DUP3 SWAP1 SUB PUSH1 0x1F AND DUP3 ADD SWAP2 JUMPDEST POP POP POP POP POP SWAP1 DUP1 PUSH1 0x1 ADD DUP1 SLOAD PUSH2 0x762 SWAP1 PUSH2 0xEE2 JUMP JUMPDEST DUP1 PUSH1 0x1F ADD PUSH1 0x20 DUP1 SWAP2 DIV MUL PUSH1 0x20 ADD PUSH1 0x40 MLOAD SWAP1 DUP2 ADD PUSH1 0x40 MSTORE DUP1 SWAP3 SWAP2 SWAP1 DUP2 DUP2 MSTORE PUSH1 0x20 ADD DUP3 DUP1 SLOAD PUSH2 0x78E SWAP1 PUSH2 0xEE2 JUMP JUMPDEST DUP1 ISZERO PUSH2 0x7D9 JUMPI DUP1 PUSH1 0x1F LT PUSH2 0x7B0 JUMPI PUSH2 0x100 DUP1 DUP4 SLOAD DIV MUL DUP4 MSTORE SWAP2 PUSH1 0x20 ADD SWAP2 PUSH2 0x7D9 JUMP JUMPDEST DUP3 ADD SWAP2 SWAP1 PUSH0 MSTORE PUSH1 0x20 PUSH0 KECCAK256 SWAP1 JUMPDEST DUP2 SLOAD DUP2 MSTORE SWAP1 PUSH1 0x1 ADD SWAP1 PUSH1 0x20 ADD DUP1 DUP4 GT PUSH2 0x7BC JUMPI DUP3 SWAP1 SUB PUSH1 0x1F AND DUP3 ADD SWAP2 JUMPDEST POP POP POP POP POP SWAP1 DUP1 PUSH1 0x2 ADD DUP1 SLOAD PUSH2 0x7EE SWAP1 PUSH2 0xEE2 JUMP JUMPDEST DUP1 PUSH1 0x1F ADD PUSH1 0x20 DUP1 SWAP2 DIV MUL PUSH1 0x20 ADD PUSH1 0x40 MLOAD SWAP1 DUP2 ADD PUSH1 0x40 MSTORE DUP1 SWAP3 SWAP2 SWAP1 DUP2 DUP2 MSTORE PUSH1 0x20 ADD DUP3 DUP1 SLOAD PUSH2 0x81A SWAP1 PUSH2 0xEE2 JUMP JUMPDEST DUP1 ISZERO PUSH2 0x865 JUMPI DUP1 PUSH1 0x1F LT PUSH2 0x83C JUMPI PUSH2 0x100 DUP1 DUP4 SLOAD DIV MUL DUP4 MSTORE SWAP2 PUSH1 0x20 ADD SWAP2 PUSH2 0x865 JUMP JUMPDEST DUP3 ADD SWAP2 SWAP1 PUSH0 MSTORE PUSH1 0x20 PUSH0 KECCAK256 SWAP1 JUMPDEST DUP2 SLOAD DUP2 MSTORE SWAP1 PUSH1 0x1 ADD SWAP1 PUSH1 0x20 ADD DUP1 DUP4 GT PUSH2 0x848 JUMPI DUP3 SWAP1 SUB PUSH1 0x1F AND DUP3 ADD SWAP2 JUMPDEST POP POP POP POP POP SWAP1 DUP1 PUSH1 0x3 ADD DUP1 SLOAD PUSH2 0x87A SWAP1 PUSH2 0xEE2 JUMP JUMPDEST DUP1 PUSH1 0x1F ADD PUSH1 0x20 DUP1 SWAP2 DIV MUL PUSH1 0x20 ADD PUSH1 0x40 MLOAD SWAP1 DUP2 ADD PUSH1 0x40 MSTORE DUP1 SWAP3 SWAP2 SWAP1 DUP2 DUP2 MSTORE PUSH1 0x20 ADD DUP3 DUP1 SLOAD PUSH2 0x8A6 SWAP1 PUSH2 0xEE2 JUMP JUMPDEST DUP1 ISZERO PUSH2 0x8F1 JUMPI DUP1 PUSH1 0x1F LT PUSH2 0x8C8 JUMPI PUSH2 0x100 DUP1 DUP4 SLOAD DIV MUL DUP4 MSTORE SWAP2 PUSH1 0x20 ADD SWAP2 PUSH2 0x8F1 JUMP JUMPDEST DUP3 ADD SWAP2 SWAP1 PUSH0 MSTORE PUSH1 0x20 PUSH0 KECCAK256 SWAP1 JUMPDEST DUP2 SLOAD DUP2 MSTORE SWAP1 PUSH1 0x1 ADD SWAP1 PUSH1 0x20 ADD DUP1 DUP4 GT PUSH2 0x8D4 JUMPI DUP3 SWAP1 SUB PUSH1 0x1F AND DUP3 ADD SWAP2 JUMPDEST POP POP POP POP POP SWAP1 DUP1 PUSH1 0x4 ADD SLOAD SWAP1 DUP1 PUSH1 0x5 ADD SLOAD SWAP1 DUP1 PUSH1 0x6 ADD SLOAD SWAP1 POP DUP8 JUMP JUMPDEST PUSH1 0x40 MLOAD DUP1 PUSH1 0x80 ADD PUSH1 0x40 MSTORE DUP1 PUSH0 DUP2 MSTORE PUSH1 0x20 ADD PUSH0 DUP2 MSTORE PUSH1 0x20 ADD PUSH0 DUP2 MSTORE PUSH1 0x20 ADD PUSH0 DUP2 MSTORE POP SWAP1 JUMP JUMPDEST PUSH0 DUP2 SWAP1 POP SWAP2 SWAP1 POP JUMP JUMPDEST PUSH2 0x943 DUP2 PUSH2 0x931 JUMP JUMPDEST DUP3 MSTORE POP POP JUMP JUMPDEST PUSH0 PUSH1 0x20 DUP3 ADD SWAP1 POP PUSH2 0x95C PUSH0 DUP4 ADD DUP5 PUSH2 0x93A JUMP JUMPDEST SWAP3 SWAP2 POP POP JUMP JUMPDEST PUSH0 DUP1 REVERT JUMPDEST PUSH2 0x96F DUP2 PUSH2 0x931 JUMP JUMPDEST DUP2 EQ PUSH2 0x979 JUMPI PUSH0 DUP1 REVERT JUMPDEST POP JUMP JUMPDEST PUSH0 DUP2 CALLDATALOAD SWAP1 POP PUSH2 0x98A DUP2 PUSH2 0x966 JUMP JUMPDEST SWAP3 SWAP2 POP POP JUMP JUMPDEST PUSH0 PUSH1 0x20 DUP3 DUP5 SUB SLT ISZERO PUSH2 0x9A5 JUMPI PUSH2 0x9A4 PUSH2 0x962 JUMP JUMPDEST JUMPDEST PUSH0 PUSH2 0x9B2 DUP5 DUP3 DUP6 ADD PUSH2 0x97C JUMP JUMPDEST SWAP2 POP POP SWAP3 SWAP2 POP POP JUMP JUMPDEST PUSH0 PUSH20 0xFFFFFFFFFFFFFFFFFFFFFFFFFFFFFFFFFFFFFFFF DUP3 AND SWAP1 POP SWAP2 SWAP1 POP JUMP JUMPDEST PUSH0 PUSH2 0x9E4 DUP3 PUSH2 0x9BB JUMP JUMPDEST SWAP1 POP SWAP2 SWAP1 POP JUMP JUMPDEST PUSH2 0x9F4 DUP2 PUSH2 0x9DA JUMP JUMPDEST DUP2 EQ PUSH2 0x9FE JUMPI PUSH0 DUP1 REVERT JUMPDEST POP JUMP JUMPDEST PUSH0 DUP2 CALLDATALOAD SWAP1 POP PUSH2 0xA0F DUP2 PUSH2 0x9EB JUMP JUMPDEST SWAP3 SWAP2 POP POP JUMP JUMPDEST PUSH0 PUSH1 0x20 DUP3 DUP5 SUB SLT ISZERO PUSH2 0xA2A JUMPI PUSH2 0xA29 PUSH2 0x962 JUMP JUMPDEST JUMPDEST PUSH0 PUSH2 0xA37 DUP5 DUP3 DUP6 ADD PUSH2 0xA01 JUMP JUMPDEST SWAP2 POP POP SWAP3 SWAP2 POP POP JUMP JUMPDEST PUSH0 PUSH1 0x80 DUP3 ADD SWAP1 POP PUSH2 0xA53 PUSH0 DUP4 ADD DUP8 PUSH2 0x93A JUMP JUMPDEST PUSH2 0xA60 PUSH1 0x20 DUP4 ADD DUP7 PUSH2 0x93A JUMP JUMPDEST PUSH2 0xA6D PUSH1 0x40 DUP4 ADD DUP6 PUSH2 0x93A JUMP JUMPDEST PUSH2 0xA7A PUSH1 0x60 DUP4 ADD DUP5 PUSH2 0x93A JUMP JUMPDEST SWAP6 SWAP5 POP POP POP POP POP JUMP JUMPDEST PUSH0 DUP2 MLOAD SWAP1 POP SWAP2 SWAP1 POP JUMP JUMPDEST PUSH0 DUP3 DUP3 MSTORE PUSH1 0x20 DUP3 ADD SWAP1 POP SWAP3 SWAP2 POP POP JUMP JUMPDEST DUP3 DUP2 DUP4 MCOPY PUSH0 DUP4 DUP4 ADD MSTORE POP POP POP JUMP JUMPDEST PUSH0 PUSH1 0x1F NOT PUSH1 0x1F DUP4 ADD AND SWAP1 POP SWAP2 SWAP1 POP JUMP JUMPDEST PUSH0 PUSH2 0xAC5 DUP3 PUSH2 0xA83 JUMP JUMPDEST PUSH2 0xACF DUP2 DUP6 PUSH2 0xA8D JUMP JUMPDEST SWAP4 POP PUSH2 0xADF DUP2 DUP6 PUSH1 0x20 DUP7 ADD PUSH2 0xA9D JUMP JUMPDEST PUSH2 0xAE8 DUP2 PUSH2 0xAAB JUMP JUMPDEST DUP5 ADD SWAP2 POP POP SWAP3 SWAP2 POP POP JUMP JUMPDEST PUSH0 PUSH1 0xE0 DUP3 ADD SWAP1 POP DUP2 DUP2 SUB PUSH0 DUP4 ADD MSTORE PUSH2 0xB0B DUP2 DUP11 PUSH2 0xABB JUMP JUMPDEST SWAP1 POP DUP2 DUP2 SUB PUSH1 0x20 DUP4 ADD MSTORE PUSH2 0xB1F DUP2 DUP10 PUSH2 0xABB JUMP JUMPDEST SWAP1 POP DUP2 DUP2 SUB PUSH1 0x40 DUP4 ADD MSTORE PUSH2 0xB33 DUP2 DUP9 PUSH2 0xABB JUMP JUMPDEST SWAP1 POP DUP2 DUP2 SUB PUSH1 0x60 DUP4 ADD MSTORE PUSH2 0xB47 DUP2 DUP8 PUSH2 0xABB JUMP JUMPDEST SWAP1 POP PUSH2 0xB56 PUSH1 0x80 DUP4 ADD DUP7 PUSH2 0x93A JUMP JUMPDEST PUSH2 0xB63 PUSH1 0xA0 DUP4 ADD DUP6 PUSH2 0x93A JUMP JUMPDEST PUSH2 0xB70 PUSH1 0xC0 DUP4 ADD DUP5 PUSH2 0x93A JUMP JUMPDEST SWAP9 SWAP8 POP POP POP POP POP POP POP POP JUMP JUMPDEST PUSH32 0x496E76616C696420636C61696D00000000000000000000000000000000000000 PUSH0 DUP3 ADD MSTORE POP JUMP JUMPDEST PUSH0 PUSH2 0xBB0 PUSH1 0xD DUP4 PUSH2 0xA8D JUMP JUMPDEST SWAP2 POP PUSH2 0xBBB DUP3 PUSH2 0xB7C JUMP JUMPDEST PUSH1 0x20 DUP3 ADD SWAP1 POP SWAP2 SWAP1 POP JUMP JUMPDEST PUSH0 PUSH1 0x20 DUP3 ADD SWAP1 POP DUP2 DUP2 SUB PUSH0 DUP4 ADD MSTORE PUSH2 0xBDD DUP2 PUSH2 0xBA4 JUMP JUMPDEST SWAP1 POP SWAP2 SWAP1 POP JUMP JUMPDEST PUSH32 0x4E487B7100000000000000000000000000000000000000000000000000000000 PUSH0 MSTORE PUSH1 0x11 PUSH1 0x4 MSTORE PUSH1 0x24 PUSH0 REVERT JUMPDEST PUSH0 PUSH2 0xC1B DUP3 PUSH2 0x931 JUMP JUMPDEST SWAP2 POP PUSH2 0xC26 DUP4 PUSH2 0x931 JUMP JUMPDEST SWAP3 POP DUP3 DUP3 MUL PUSH2 0xC34 DUP2 PUSH2 0x931 JUMP JUMPDEST SWAP2 POP DUP3 DUP3 DIV DUP5 EQ DUP4 ISZERO OR PUSH2 0xC4B JUMPI PUSH2 0xC4A PUSH2 0xBE4 JUMP JUMPDEST JUMPDEST POP SWAP3 SWAP2 POP POP JUMP JUMPDEST PUSH32 0x4E487B7100000000000000000000000000000000000000000000000000000000 PUSH0 MSTORE PUSH1 0x12 PUSH1 0x4 MSTORE PUSH1 0x24 PUSH0 REVERT JUMPDEST PUSH0 PUSH2 0xC89 DUP3 PUSH2 0x931 JUMP JUMPDEST SWAP2 POP PUSH2 0xC94 DUP4 PUSH2 0x931 JUMP JUMPDEST SWAP3 POP DUP3 PUSH2 0xCA4 JUMPI PUSH2 0xCA3 PUSH2 0xC52 JUMP JUMPDEST JUMPDEST DUP3 DUP3 DIV SWAP1 POP SWAP3 SWAP2 POP POP JUMP JUMPDEST PUSH32 0x496E76616C69642043616E646964617465000000000000000000000000000000 PUSH0 DUP3 ADD MSTORE POP JUMP JUMPDEST PUSH0 PUSH2 0xCE3 PUSH1 0x11 DUP4 PUSH2 0xA8D JUMP JUMPDEST SWAP2 POP PUSH2 0xCEE DUP3 PUSH2 0xCAF JUMP JUMPDEST PUSH1 0x20 DUP3 ADD SWAP1 POP SWAP2 SWAP1 POP JUMP JUMPDEST PUSH0 PUSH1 0x20 DUP3 ADD SWAP1 POP DUP2 DUP2 SUB PUSH0 DUP4 ADD MSTORE PUSH2 0xD10 DUP2 PUSH2 0xCD7 JUMP JUMPDEST SWAP1 POP SWAP2 SWAP1 POP JUMP JUMPDEST PUSH32 0x496E76616C696420626574000000000000000000000000000000000000000000 PUSH0 DUP3 ADD MSTORE POP JUMP JUMPDEST PUSH0 PUSH2 0xD4B PUSH1 0xB DUP4 PUSH2 0xA8D JUMP JUMPDEST SWAP2 POP PUSH2 0xD56 DUP3 PUSH2 0xD17 JUMP JUMPDEST PUSH1 0x20 DUP3 ADD SWAP1 POP SWAP2 SWAP1 POP JUMP JUMPDEST PUSH0 PUSH1 0x20 DUP3 ADD SWAP1 POP DUP2 DUP2 SUB PUSH0 DUP4 ADD MSTORE PUSH2 0xD78 DUP2 PUSH2 0xD3F JUMP JUMPDEST SWAP1 POP SWAP2 SWAP1 POP JUMP JUMPDEST PUSH32 0x4469737075746520616C726561647920636C6F73656400000000000000000000 PUSH0 DUP3 ADD MSTORE POP JUMP JUMPDEST PUSH0 PUSH2 0xDB3 PUSH1 0x16 DUP4 PUSH2 0xA8D JUMP JUMPDEST SWAP2 POP PUSH2 0xDBE DUP3 PUSH2 0xD7F JUMP JUMPDEST PUSH1 0x20 DUP3 ADD SWAP1 POP SWAP2 SWAP1 POP JUMP JUMPDEST PUSH0 PUSH1 0x20 DUP3 ADD SWAP1 POP DUP2 DUP2 SUB PUSH0 DUP4 ADD MSTORE PUSH2 0xDE0 DUP2 PUSH2 0xDA7 JUMP JUMPDEST SWAP1 POP SWAP2 SWAP1 POP JUMP JUMPDEST PUSH0 PUSH2 0xDF1 DUP3 PUSH2 0x931 JUMP JUMPDEST SWAP2 POP PUSH2 0xDFC DUP4 PUSH2 0x931 JUMP JUMPDEST SWAP3 POP DUP3 DUP3 ADD SWAP1 POP DUP1 DUP3 GT ISZERO PUSH2 0xE14 JUMPI PUSH2 0xE13 PUSH2 0xBE4 JUMP JUMPDEST JUMPDEST SWAP3 SWAP2 POP POP JUMP JUMPDEST PUSH32 0x496E76616C6964206163636F756E740000000000000000000000000000000000 PUSH0 DUP3 ADD MSTORE POP JUMP JUMPDEST PUSH0 PUSH2 0xE4E PUSH1 0xF DUP4 PUSH2 0xA8D JUMP JUMPDEST SWAP2 POP PUSH2 0xE59 DUP3 PUSH2 0xE1A JUMP JUMPDEST PUSH1 0x20 DUP3 ADD SWAP1 POP SWAP2 SWAP1 POP JUMP JUMPDEST PUSH0 PUSH1 0x20 DUP3 ADD SWAP1 POP DUP2 DUP2 SUB PUSH0 DUP4 ADD MSTORE PUSH2 0xE7B DUP2 PUSH2 0xE42 JUMP JUMPDEST SWAP1 POP SWAP2 SWAP1 POP JUMP JUMPDEST PUSH0 PUSH2 0xE8C DUP3 PUSH2 0x931 JUMP JUMPDEST SWAP2 POP PUSH2 0xE97 DUP4 PUSH2 0x931 JUMP JUMPDEST SWAP3 POP DUP3 DUP3 SUB SWAP1 POP DUP2 DUP2 GT ISZERO PUSH2 0xEAF JUMPI PUSH2 0xEAE PUSH2 0xBE4 JUMP JUMPDEST JUMPDEST SWAP3 SWAP2 POP POP JUMP JUMPDEST PUSH32 0x4E487B7100000000000000000000000000000000000000000000000000000000 PUSH0 MSTORE PUSH1 0x22 PUSH1 0x4 MSTORE PUSH1 0x24 PUSH0 REVERT JUMPDEST PUSH0 PUSH1 0x2 DUP3 DIV SWAP1 POP PUSH1 0x1 DUP3 AND DUP1 PUSH2 0xEF9 JUMPI PUSH1 0x7F DUP3 AND SWAP2 POP JUMPDEST PUSH1 0x20 DUP3 LT DUP2 SUB PUSH2 0xF0C JUMPI PUSH2 0xF0B PUSH2 0xEB5 JUMP JUMPDEST JUMPDEST POP SWAP2 SWAP1 POP JUMP INVALID LOG2 PUSH5 0x6970667358 0x22 SLT KECCAK256 BLOBHASH 0xAE DUP11 SWAP5 0xC 0xC4 0xEA PC GASLIMIT SDIV PUSH27 0x5297E56B98150599B6DA985589FE0CBF2DE886D85C64736F6C6343 STOP ADDMOD BYTE STOP CALLER "
				},
				"gasEstimates": {
					"creation": {
						"codeDepositCost": "782400",
						"executionCost": "infinite",
						"totalCost": "infinite"
					},
					"external": {
						"allBets(address)": "infinite",
						"bet(uint256)": "infinite",
						"claim()": "infinite",
						"dispute()": "infinite",
						"finish(uint256)": "infinite",
						"netPrize()": "2403"
					}
				},
				"methodIdentifiers": {
					"allBets(address)": "93bebee8",
					"bet(uint256)": "7365870b",
					"claim()": "4e71d92d",
					"dispute()": "f240f7c3",
					"finish(uint256)": "d353a1cb",
					"netPrize()": "121de3f6"
				}
			},
			"storageLayout": {
				"storage": [
					{
						"astId": 28,
						"contract": "contracts/BetCandidate.sol:BetCandidate",
						"label": "dispute",
						"offset": 0,
						"slot": "0",
						"type": "t_struct(Dispute)25_storage"
					},
					{
						"astId": 33,
						"contract": "contracts/BetCandidate.sol:BetCandidate",
						"label": "allBets",
						"offset": 0,
						"slot": "7",
						"type": "t_mapping(t_address,t_struct(Bet)10_storage)"
					},
					{
						"astId": 35,
						"contract": "contracts/BetCandidate.sol:BetCandidate",
						"label": "owner",
						"offset": 0,
						"slot": "8",
						"type": "t_address"
					},
					{
						"astId": 38,
						"contract": "contracts/BetCandidate.sol:BetCandidate",
						"label": "fee",
						"offset": 0,
						"slot": "9",
						"type": "t_uint256"
					},
					{
						"astId": 40,
						"contract": "contracts/BetCandidate.sol:BetCandidate",
						"label": "netPrize",
						"offset": 0,
						"slot": "10",
						"type": "t_uint256"
					}
				],
				"types": {
					"t_address": {
						"encoding": "inplace",
						"label": "address",
						"numberOfBytes": "20"
					},
					"t_mapping(t_address,t_struct(Bet)10_storage)": {
						"encoding": "mapping",
						"key": "t_address",
						"label": "mapping(address => struct Bet)",
						"numberOfBytes": "32",
						"value": "t_struct(Bet)10_storage"
					},
					"t_string_storage": {
						"encoding": "bytes",
						"label": "string",
						"numberOfBytes": "32"
					},
					"t_struct(Bet)10_storage": {
						"encoding": "inplace",
						"label": "struct Bet",
						"members": [
							{
								"astId": 3,
								"contract": "contracts/BetCandidate.sol:BetCandidate",
								"label": "amount",
								"offset": 0,
								"slot": "0",
								"type": "t_uint256"
							},
							{
								"astId": 5,
								"contract": "contracts/BetCandidate.sol:BetCandidate",
								"label": "candidate",
								"offset": 0,
								"slot": "1",
								"type": "t_uint256"
							},
							{
								"astId": 7,
								"contract": "contracts/BetCandidate.sol:BetCandidate",
								"label": "timestamp",
								"offset": 0,
								"slot": "2",
								"type": "t_uint256"
							},
							{
								"astId": 9,
								"contract": "contracts/BetCandidate.sol:BetCandidate",
								"label": "claimed",
								"offset": 0,
								"slot": "3",
								"type": "t_uint256"
							}
						],
						"numberOfBytes": "128"
					},
					"t_struct(Dispute)25_storage": {
						"encoding": "inplace",
						"label": "struct Dispute",
						"members": [
							{
								"astId": 12,
								"contract": "contracts/BetCandidate.sol:BetCandidate",
								"label": "candidate1",
								"offset": 0,
								"slot": "0",
								"type": "t_string_storage"
							},
							{
								"astId": 14,
								"contract": "contracts/BetCandidate.sol:BetCandidate",
								"label": "candidate2",
								"offset": 0,
								"slot": "1",
								"type": "t_string_storage"
							},
							{
								"astId": 16,
								"contract": "contracts/BetCandidate.sol:BetCandidate",
								"label": "image1",
								"offset": 0,
								"slot": "2",
								"type": "t_string_storage"
							},
							{
								"astId": 18,
								"contract": "contracts/BetCandidate.sol:BetCandidate",
								"label": "image2",
								"offset": 0,
								"slot": "3",
								"type": "t_string_storage"
							},
							{
								"astId": 20,
								"contract": "contracts/BetCandidate.sol:BetCandidate",
								"label": "total1",
								"offset": 0,
								"slot": "4",
								"type": "t_uint256"
							},
							{
								"astId": 22,
								"contract": "contracts/BetCandidate.sol:BetCandidate",
								"label": "total2",
								"offset": 0,
								"slot": "5",
								"type": "t_uint256"
							},
							{
								"astId": 24,
								"contract": "contracts/BetCandidate.sol:BetCandidate",
								"label": "winner",
								"offset": 0,
								"slot": "6",
								"type": "t_uint256"
							}
						],
						"numberOfBytes": "224"
					},
					"t_uint256": {
						"encoding": "inplace",
						"label": "uint256",
						"numberOfBytes": "32"
					}
				}
			},
			"userdoc": {
				"kind": "user",
				"methods": {},
				"version": 1
			}
		}
	}
}