{
	"data": {
		"bytecode": {
			"linkReferences": {},
			"object": "6080604052600a5f553480156012575f80fd5b50610207806100205f395ff3fe608060405234801561000f575f80fd5b506004361061003f575f3560e01c8063246ec0ef146100435780634e1a2f9914610061578063d0514c2e1461007f575b5f80fd5b61004b6100af565b60405161005891906100ec565b60405180910390f35b6100696100b7565b60405161007691906100ec565b60405180910390f35b61009960048036038101906100949190610133565b6100bf565b6040516100a691906100ec565b60405180910390f35b5f8054905090565b5f8054905090565b5f81836100cc919061019e565b905092915050565b5f819050919050565b6100e6816100d4565b82525050565b5f6020820190506100ff5f8301846100dd565b92915050565b5f80fd5b610112816100d4565b811461011c575f80fd5b50565b5f8135905061012d81610109565b92915050565b5f806040838503121561014957610148610105565b5b5f6101568582860161011f565b92505060206101678582860161011f565b9150509250929050565b7f4e487b71000000000000000000000000000000000000000000000000000000005f52601160045260245ffd5b5f6101a8826100d4565b91506101b3836100d4565b92508282019050808211156101cb576101ca610171565b5b9291505056fea26469706673582212205048d610c31313421e1e739ed51b7a2caf9b9ad0d4914511ef937f653d9c806a64736f6c634300081a0033",
			"opcodes": "PUSH1 0x80 PUSH1 0x40 MSTORE PUSH1 0xA PUSH0 SSTORE CALLVALUE DUP1 ISZERO PUSH1 0x12 JUMPI PUSH0 DUP1 REVERT JUMPDEST POP PUSH2 0x207 DUP1 PUSH2 0x20 PUSH0 CODECOPY PUSH0 RETURN INVALID PUSH1 0x80 PUSH1 0x40 MSTORE CALLVALUE DUP1 ISZERO PUSH2 0xF JUMPI PUSH0 DUP1 REVERT JUMPDEST POP PUSH1 0x4 CALLDATASIZE LT PUSH2 0x3F JUMPI PUSH0 CALLDATALOAD PUSH1 0xE0 SHR DUP1 PUSH4 0x246EC0EF EQ PUSH2 0x43 JUMPI DUP1 PUSH4 0x4E1A2F99 EQ PUSH2 0x61 JUMPI DUP1 PUSH4 0xD0514C2E EQ PUSH2 0x7F JUMPI JUMPDEST PUSH0 DUP1 REVERT JUMPDEST PUSH2 0x4B PUSH2 0xAF JUMP JUMPDEST PUSH1 0x40 MLOAD PUSH2 0x58 SWAP2 SWAP1 PUSH2 0xEC JUMP JUMPDEST PUSH1 0x40 MLOAD DUP1 SWAP2 SUB SWAP1 RETURN JUMPDEST PUSH2 0x69 PUSH2 0xB7 JUMP JUMPDEST PUSH1 0x40 MLOAD PUSH2 0x76 SWAP2 SWAP1 PUSH2 0xEC JUMP JUMPDEST PUSH1 0x40 MLOAD DUP1 SWAP2 SUB SWAP1 RETURN JUMPDEST PUSH2 0x99 PUSH1 0x4 DUP1 CALLDATASIZE SUB DUP2 ADD SWAP1 PUSH2 0x94 SWAP2 SWAP1 PUSH2 0x133 JUMP JUMPDEST PUSH2 0xBF JUMP JUMPDEST PUSH1 0x40 MLOAD PUSH2 0xA6 SWAP2 SWAP1 PUSH2 0xEC JUMP JUMPDEST PUSH1 0x40 MLOAD DUP1 SWAP2 SUB SWAP1 RETURN JUMPDEST PUSH0 DUP1 SLOAD SWAP1 POP SWAP1 JUMP JUMPDEST PUSH0 DUP1 SLOAD SWAP1 POP SWAP1 JUMP JUMPDEST PUSH0 DUP2 DUP4 PUSH2 0xCC SWAP2 SWAP1 PUSH2 0x19E JUMP JUMPDEST SWAP1 POP SWAP3 SWAP2 POP POP JUMP JUMPDEST PUSH0 DUP2 SWAP1 POP SWAP2 SWAP1 POP JUMP JUMPDEST PUSH2 0xE6 DUP2 PUSH2 0xD4 JUMP JUMPDEST DUP3 MSTORE POP POP JUMP JUMPDEST PUSH0 PUSH1 0x20 DUP3 ADD SWAP1 POP PUSH2 0xFF PUSH0 DUP4 ADD DUP5 PUSH2 0xDD JUMP JUMPDEST SWAP3 SWAP2 POP POP JUMP JUMPDEST PUSH0 DUP1 REVERT JUMPDEST PUSH2 0x112 DUP2 PUSH2 0xD4 JUMP JUMPDEST DUP2 EQ PUSH2 0x11C JUMPI PUSH0 DUP1 REVERT JUMPDEST POP JUMP JUMPDEST PUSH0 DUP2 CALLDATALOAD SWAP1 POP PUSH2 0x12D DUP2 PUSH2 0x109 JUMP JUMPDEST SWAP3 SWAP2 POP POP JUMP JUMPDEST PUSH0 DUP1 PUSH1 0x40 DUP4 DUP6 SUB SLT ISZERO PUSH2 0x149 JUMPI PUSH2 0x148 PUSH2 0x105 JUMP JUMPDEST JUMPDEST PUSH0 PUSH2 0x156 DUP6 DUP3 DUP7 ADD PUSH2 0x11F JUMP JUMPDEST SWAP3 POP POP PUSH1 0x20 PUSH2 0x167 DUP6 DUP3 DUP7 ADD PUSH2 0x11F JUMP JUMPDEST SWAP2 POP POP SWAP3 POP SWAP3 SWAP1 POP JUMP JUMPDEST PUSH32 0x4E487B7100000000000000000000000000000000000000000000000000000000 PUSH0 MSTORE PUSH1 0x11 PUSH1 0x4 MSTORE PUSH1 0x24 PUSH0 REVERT JUMPDEST PUSH0 PUSH2 0x1A8 DUP3 PUSH2 0xD4 JUMP JUMPDEST SWAP2 POP PUSH2 0x1B3 DUP4 PUSH2 0xD4 JUMP JUMPDEST SWAP3 POP DUP3 DUP3 ADD SWAP1 POP DUP1 DUP3 GT ISZERO PUSH2 0x1CB JUMPI PUSH2 0x1CA PUSH2 0x171 JUMP JUMPDEST JUMPDEST SWAP3 SWAP2 POP POP JUMP INVALID LOG2 PUSH5 0x6970667358 0x22 SLT KECCAK256 POP BASEFEE 0xD6 LT 0xC3 SGT SGT TIMESTAMP 0x1E 0x1E PUSH20 0x9ED51B7A2CAF9B9AD0D4914511EF937F653D9C80 PUSH11 0x64736F6C634300081A0033 "
		},
		"gasEstimates": {
			"creation": {
				"codeDepositCost": "103800",
				"executionCost": "22256",
				"totalCost": "126056"
			},
			"external": {
				"calcula(uint256,uint256)": "infinite",
				"qualNumero()": "2432",
				"qualNumeroView()": "2410"
			}
		},
		"methodIdentifiers": {
			"calcula(uint256,uint256)": "d0514c2e",
			"qualNumero()": "4e1a2f99",
			"qualNumeroView()": "246ec0ef"
		}
	},
	"abi": [
		{
			"inputs": [
				{
					"internalType": "uint256",
					"name": "a",
					"type": "uint256"
				},
				{
					"internalType": "uint256",
					"name": "b",
					"type": "uint256"
				}
			],
			"name": "calcula",
			"outputs": [
				{
					"internalType": "uint256",
					"name": "",
					"type": "uint256"
				}
			],
			"stateMutability": "pure",
			"type": "function"
		},
		{
			"inputs": [],
			"name": "qualNumero",
			"outputs": [
				{
					"internalType": "uint256",
					"name": "",
					"type": "uint256"
				}
			],
			"stateMutability": "nonpayable",
			"type": "function"
		},
		{
			"inputs": [],
			"name": "qualNumeroView",
			"outputs": [
				{
					"internalType": "uint256",
					"name": "",
					"type": "uint256"
				}
			],
			"stateMutability": "view",
			"type": "function"
		}
	]
}